{
  "address": "0x99FF1d1A51Ff29590FDe37aDE46B122e1a19A8Ce",
  "abi": [
    {
      "inputs": [
        {
          "internalType": "contract IController",
          "name": "_controller",
          "type": "address"
        }
      ],
      "stateMutability": "nonpayable",
      "type": "constructor"
    },
    {
      "inputs": [
        {
          "internalType": "address",
          "name": "target",
          "type": "address"
        }
      ],
      "name": "AddressEmptyCode",
      "type": "error"
    },
    {
      "inputs": [
        {
          "internalType": "address",
          "name": "account",
          "type": "address"
        }
      ],
      "name": "AddressInsufficientBalance",
      "type": "error"
    },
    {
      "inputs": [],
      "name": "FailedInnerCall",
      "type": "error"
    },
    {
      "inputs": [],
      "name": "ReentrancyGuardReentrantCall",
      "type": "error"
    },
    {
      "inputs": [
        {
          "internalType": "address",
          "name": "token",
          "type": "address"
        }
      ],
      "name": "SafeERC20FailedOperation",
      "type": "error"
    },
    {
      "anonymous": false,
      "inputs": [
        {
          "indexed": true,
          "internalType": "contract ISetToken",
          "name": "setToken",
          "type": "address"
        },
        {
          "indexed": false,
          "internalType": "bool",
          "name": "isAnyoneAllowedToBid",
          "type": "bool"
        }
      ],
      "name": "AnyoneBidUpdated",
      "type": "event"
    },
    {
      "anonymous": false,
      "inputs": [
        {
          "indexed": true,
          "internalType": "contract ISetToken",
          "name": "setToken",
          "type": "address"
        },
        {
          "indexed": false,
          "internalType": "uint256",
          "name": "newPositionMultiplier",
          "type": "uint256"
        }
      ],
      "name": "AssetTargetsRaised",
      "type": "event"
    },
    {
      "anonymous": false,
      "inputs": [
        {
          "indexed": true,
          "internalType": "contract ISetToken",
          "name": "setToken",
          "type": "address"
        },
        {
          "indexed": true,
          "internalType": "address",
          "name": "sendToken",
          "type": "address"
        },
        {
          "indexed": true,
          "internalType": "address",
          "name": "receiveToken",
          "type": "address"
        },
        {
          "indexed": false,
          "internalType": "address",
          "name": "bidder",
          "type": "address"
        },
        {
          "indexed": false,
          "internalType": "contract IAuctionPriceAdapterV1",
          "name": "priceAdapter",
          "type": "address"
        },
        {
          "indexed": false,
          "internalType": "bool",
          "name": "isSellAuction",
          "type": "bool"
        },
        {
          "indexed": false,
          "internalType": "uint256",
          "name": "price",
          "type": "uint256"
        },
        {
          "indexed": false,
          "internalType": "uint256",
          "name": "netQuantitySentBySet",
          "type": "uint256"
        },
        {
          "indexed": false,
          "internalType": "uint256",
          "name": "netQuantityReceivedBySet",
          "type": "uint256"
        },
        {
          "indexed": false,
          "internalType": "uint256",
          "name": "protocolFee",
          "type": "uint256"
        },
        {
          "indexed": false,
          "internalType": "uint256",
          "name": "setTotalSupply",
          "type": "uint256"
        }
      ],
      "name": "BidExecuted",
      "type": "event"
    },
    {
      "anonymous": false,
      "inputs": [
        {
          "indexed": true,
          "internalType": "contract ISetToken",
          "name": "setToken",
          "type": "address"
        },
        {
          "indexed": true,
          "internalType": "address",
          "name": "bidder",
          "type": "address"
        },
        {
          "indexed": false,
          "internalType": "bool",
          "name": "isBidderAllowed",
          "type": "bool"
        }
      ],
      "name": "BidderStatusUpdated",
      "type": "event"
    },
    {
      "anonymous": false,
      "inputs": [
        {
          "indexed": true,
          "internalType": "contract ISetToken",
          "name": "setToken",
          "type": "address"
        }
      ],
      "name": "LockedRebalanceEndedEarly",
      "type": "event"
    },
    {
      "anonymous": false,
      "inputs": [
        {
          "indexed": true,
          "internalType": "contract ISetToken",
          "name": "setToken",
          "type": "address"
        },
        {
          "indexed": false,
          "internalType": "uint256",
          "name": "newRaiseTargetPercentage",
          "type": "uint256"
        }
      ],
      "name": "RaiseTargetPercentageUpdated",
      "type": "event"
    },
    {
      "anonymous": false,
      "inputs": [
        {
          "indexed": true,
          "internalType": "contract ISetToken",
          "name": "setToken",
          "type": "address"
        },
        {
          "indexed": true,
          "internalType": "contract IERC20",
          "name": "quoteAsset",
          "type": "address"
        },
        {
          "indexed": false,
          "internalType": "bool",
          "name": "isSetTokenLocked",
          "type": "bool"
        },
        {
          "indexed": false,
          "internalType": "uint256",
          "name": "rebalanceDuration",
          "type": "uint256"
        },
        {
          "indexed": false,
          "internalType": "uint256",
          "name": "initialPositionMultiplier",
          "type": "uint256"
        },
        {
          "indexed": false,
          "internalType": "address[]",
          "name": "componentsInvolved",
          "type": "address[]"
        },
        {
          "components": [
            {
              "internalType": "uint256",
              "name": "targetUnit",
              "type": "uint256"
            },
            {
              "internalType": "string",
              "name": "priceAdapterName",
              "type": "string"
            },
            {
              "internalType": "bytes",
              "name": "priceAdapterConfigData",
              "type": "bytes"
            }
          ],
          "indexed": false,
          "internalType": "struct AuctionRebalanceModuleV1.AuctionExecutionParams[]",
          "name": "auctionParameters",
          "type": "tuple[]"
        }
      ],
      "name": "RebalanceStarted",
      "type": "event"
    },
    {
      "inputs": [
        {
          "internalType": "contract ISetToken",
          "name": "_setToken",
          "type": "address"
        }
      ],
      "name": "allTargetsMet",
      "outputs": [
        {
          "internalType": "bool",
          "name": "",
          "type": "bool"
        }
      ],
      "stateMutability": "view",
      "type": "function"
    },
    {
      "inputs": [
        {
          "internalType": "contract ISetToken",
          "name": "_setToken",
          "type": "address"
        },
        {
          "internalType": "contract IERC20",
          "name": "_component",
          "type": "address"
        },
        {
          "internalType": "contract IERC20",
          "name": "_quoteAsset",
          "type": "address"
        },
        {
          "internalType": "uint256",
          "name": "_componentAmount",
          "type": "uint256"
        },
        {
          "internalType": "uint256",
          "name": "_quoteAssetLimit",
          "type": "uint256"
        },
        {
          "internalType": "bool",
          "name": "_isSellAuction",
          "type": "bool"
        }
      ],
      "name": "bid",
      "outputs": [],
      "stateMutability": "nonpayable",
      "type": "function"
    },
    {
      "inputs": [
        {
          "internalType": "contract ISetToken",
          "name": "_setToken",
          "type": "address"
        }
      ],
      "name": "canRaiseAssetTargets",
      "outputs": [
        {
          "internalType": "bool",
          "name": "",
          "type": "bool"
        }
      ],
      "stateMutability": "view",
      "type": "function"
    },
    {
      "inputs": [
        {
          "internalType": "contract ISetToken",
          "name": "_setToken",
          "type": "address"
        }
      ],
      "name": "canUnlockEarly",
      "outputs": [
        {
          "internalType": "bool",
          "name": "",
          "type": "bool"
        }
      ],
      "stateMutability": "view",
      "type": "function"
    },
    {
      "inputs": [],
      "name": "controller",
      "outputs": [
        {
          "internalType": "contract IController",
          "name": "",
          "type": "address"
        }
      ],
      "stateMutability": "view",
      "type": "function"
    },
    {
      "inputs": [
        {
          "internalType": "contract ISetToken",
          "name": "",
          "type": "address"
        },
        {
          "internalType": "contract IERC20",
          "name": "",
          "type": "address"
        }
      ],
      "name": "executionInfo",
      "outputs": [
        {
          "internalType": "uint256",
          "name": "targetUnit",
          "type": "uint256"
        },
        {
          "internalType": "string",
          "name": "priceAdapterName",
          "type": "string"
        },
        {
          "internalType": "bytes",
          "name": "priceAdapterConfigData",
          "type": "bytes"
        }
      ],
      "stateMutability": "view",
      "type": "function"
    },
    {
      "inputs": [
        {
          "internalType": "contract ISetToken",
          "name": "_setToken",
          "type": "address"
        }
      ],
      "name": "getAllowedBidders",
      "outputs": [
        {
          "internalType": "address[]",
          "name": "",
          "type": "address[]"
        }
      ],
      "stateMutability": "view",
      "type": "function"
    },
    {
      "inputs": [
        {
          "internalType": "contract ISetToken",
          "name": "_setToken",
          "type": "address"
        },
        {
          "internalType": "contract IERC20",
          "name": "_component",
          "type": "address"
        }
      ],
      "name": "getAuctionSizeAndDirection",
      "outputs": [
        {
          "internalType": "bool",
          "name": "isSellAuction",
          "type": "bool"
        },
        {
          "internalType": "uint256",
          "name": "componentQuantity",
          "type": "uint256"
        }
      ],
      "stateMutability": "view",
      "type": "function"
    },
    {
      "inputs": [
        {
          "internalType": "contract ISetToken",
          "name": "_setToken",
          "type": "address"
        },
        {
          "internalType": "contract IERC20",
          "name": "_component",
          "type": "address"
        },
        {
          "internalType": "contract IERC20",
          "name": "_quoteAsset",
          "type": "address"
        },
        {
          "internalType": "uint256",
          "name": "_componentQuantity",
          "type": "uint256"
        },
        {
          "internalType": "uint256",
          "name": "_quoteQuantityLimit",
          "type": "uint256"
        },
        {
          "internalType": "bool",
          "name": "_isSellAuction",
          "type": "bool"
        }
      ],
      "name": "getBidPreview",
      "outputs": [
        {
          "components": [
            {
              "internalType": "contract ISetToken",
              "name": "setToken",
              "type": "address"
            },
            {
              "internalType": "contract IERC20",
              "name": "sendToken",
              "type": "address"
            },
            {
              "internalType": "contract IERC20",
              "name": "receiveToken",
              "type": "address"
            },
            {
              "internalType": "contract IAuctionPriceAdapterV1",
              "name": "priceAdapter",
              "type": "address"
            },
            {
              "internalType": "bytes",
              "name": "priceAdapterConfigData",
              "type": "bytes"
            },
            {
              "internalType": "bool",
              "name": "isSellAuction",
              "type": "bool"
            },
            {
              "internalType": "uint256",
              "name": "auctionQuantity",
              "type": "uint256"
            },
            {
              "internalType": "uint256",
              "name": "componentPrice",
              "type": "uint256"
            },
            {
              "internalType": "uint256",
              "name": "quantitySentBySet",
              "type": "uint256"
            },
            {
              "internalType": "uint256",
              "name": "quantityReceivedBySet",
              "type": "uint256"
            },
            {
              "internalType": "uint256",
              "name": "preBidTokenSentBalance",
              "type": "uint256"
            },
            {
              "internalType": "uint256",
              "name": "preBidTokenReceivedBalance",
              "type": "uint256"
            },
            {
              "internalType": "uint256",
              "name": "setTotalSupply",
              "type": "uint256"
            }
          ],
          "internalType": "struct AuctionRebalanceModuleV1.BidInfo",
          "name": "",
          "type": "tuple"
        }
      ],
      "stateMutability": "view",
      "type": "function"
    },
    {
      "inputs": [
        {
          "internalType": "contract ISetToken",
          "name": "_setToken",
          "type": "address"
        }
      ],
      "name": "getQuoteAssetBalance",
      "outputs": [
        {
          "internalType": "uint256",
          "name": "",
          "type": "uint256"
        }
      ],
      "stateMutability": "view",
      "type": "function"
    },
    {
      "inputs": [
        {
          "internalType": "contract ISetToken",
          "name": "_setToken",
          "type": "address"
        }
      ],
      "name": "getRebalanceComponents",
      "outputs": [
        {
          "internalType": "address[]",
          "name": "",
          "type": "address[]"
        }
      ],
      "stateMutability": "view",
      "type": "function"
    },
    {
      "inputs": [
        {
          "internalType": "contract ISetToken",
          "name": "_setToken",
          "type": "address"
        }
      ],
      "name": "initialize",
      "outputs": [],
      "stateMutability": "nonpayable",
      "type": "function"
    },
    {
      "inputs": [
        {
          "internalType": "contract ISetToken",
          "name": "_setToken",
          "type": "address"
        },
        {
          "internalType": "address",
          "name": "_bidder",
          "type": "address"
        }
      ],
      "name": "isAllowedBidder",
      "outputs": [
        {
          "internalType": "bool",
          "name": "",
          "type": "bool"
        }
      ],
      "stateMutability": "view",
      "type": "function"
    },
    {
      "inputs": [
        {
          "internalType": "contract ISetToken",
          "name": "_setToken",
          "type": "address"
        }
      ],
      "name": "isQuoteAssetExcessOrAtTarget",
      "outputs": [
        {
          "internalType": "bool",
          "name": "",
          "type": "bool"
        }
      ],
      "stateMutability": "view",
      "type": "function"
    },
    {
      "inputs": [
        {
          "internalType": "contract ISetToken",
          "name": "_setToken",
          "type": "address"
        }
      ],
      "name": "isRebalanceDurationElapsed",
      "outputs": [
        {
          "internalType": "bool",
          "name": "",
          "type": "bool"
        }
      ],
      "stateMutability": "view",
      "type": "function"
    },
    {
      "inputs": [
        {
          "internalType": "contract ISetToken",
          "name": "",
          "type": "address"
        }
      ],
      "name": "permissionInfo",
      "outputs": [
        {
          "internalType": "bool",
          "name": "isAnyoneAllowedToBid",
          "type": "bool"
        }
      ],
      "stateMutability": "view",
      "type": "function"
    },
    {
      "inputs": [
        {
          "internalType": "contract ISetToken",
          "name": "_setToken",
          "type": "address"
        }
      ],
      "name": "raiseAssetTargets",
      "outputs": [],
      "stateMutability": "nonpayable",
      "type": "function"
    },
    {
      "inputs": [
        {
          "internalType": "contract ISetToken",
          "name": "",
          "type": "address"
        }
      ],
      "name": "rebalanceInfo",
      "outputs": [
        {
          "internalType": "contract IERC20",
          "name": "quoteAsset",
          "type": "address"
        },
        {
          "internalType": "uint256",
          "name": "rebalanceStartTime",
          "type": "uint256"
        },
        {
          "internalType": "uint256",
          "name": "rebalanceDuration",
          "type": "uint256"
        },
        {
          "internalType": "uint256",
          "name": "positionMultiplier",
          "type": "uint256"
        },
        {
          "internalType": "uint256",
          "name": "raiseTargetPercentage",
          "type": "uint256"
        }
      ],
      "stateMutability": "view",
      "type": "function"
    },
    {
      "inputs": [],
      "name": "removeModule",
      "outputs": [],
      "stateMutability": "nonpayable",
      "type": "function"
    },
    {
      "inputs": [
        {
          "internalType": "contract ISetToken",
          "name": "_setToken",
          "type": "address"
        },
        {
          "internalType": "bool",
          "name": "_status",
          "type": "bool"
        }
      ],
      "name": "setAnyoneBid",
      "outputs": [],
      "stateMutability": "nonpayable",
      "type": "function"
    },
    {
      "inputs": [
        {
          "internalType": "contract ISetToken",
          "name": "_setToken",
          "type": "address"
        },
        {
          "internalType": "address[]",
          "name": "_bidders",
          "type": "address[]"
        },
        {
          "internalType": "bool[]",
          "name": "_statuses",
          "type": "bool[]"
        }
      ],
      "name": "setBidderStatus",
      "outputs": [],
      "stateMutability": "nonpayable",
      "type": "function"
    },
    {
      "inputs": [
        {
          "internalType": "contract ISetToken",
          "name": "_setToken",
          "type": "address"
        },
        {
          "internalType": "uint256",
          "name": "_raiseTargetPercentage",
          "type": "uint256"
        }
      ],
      "name": "setRaiseTargetPercentage",
      "outputs": [],
      "stateMutability": "nonpayable",
      "type": "function"
    },
    {
      "inputs": [
        {
          "internalType": "contract ISetToken",
          "name": "_setToken",
          "type": "address"
        },
        {
          "internalType": "contract IERC20",
          "name": "_quoteAsset",
          "type": "address"
        },
        {
          "internalType": "address[]",
          "name": "_newComponents",
          "type": "address[]"
        },
        {
          "components": [
            {
              "internalType": "uint256",
              "name": "targetUnit",
              "type": "uint256"
            },
            {
              "internalType": "string",
              "name": "priceAdapterName",
              "type": "string"
            },
            {
              "internalType": "bytes",
              "name": "priceAdapterConfigData",
              "type": "bytes"
            }
          ],
          "internalType": "struct AuctionRebalanceModuleV1.AuctionExecutionParams[]",
          "name": "_newComponentsAuctionParams",
          "type": "tuple[]"
        },
        {
          "components": [
            {
              "internalType": "uint256",
              "name": "targetUnit",
              "type": "uint256"
            },
            {
              "internalType": "string",
              "name": "priceAdapterName",
              "type": "string"
            },
            {
              "internalType": "bytes",
              "name": "priceAdapterConfigData",
              "type": "bytes"
            }
          ],
          "internalType": "struct AuctionRebalanceModuleV1.AuctionExecutionParams[]",
          "name": "_oldComponentsAuctionParams",
          "type": "tuple[]"
        },
        {
          "internalType": "bool",
          "name": "_shouldLockSetToken",
          "type": "bool"
        },
        {
          "internalType": "uint256",
          "name": "_rebalanceDuration",
          "type": "uint256"
        },
        {
          "internalType": "uint256",
          "name": "_initialPositionMultiplier",
          "type": "uint256"
        }
      ],
      "name": "startRebalance",
      "outputs": [],
      "stateMutability": "nonpayable",
      "type": "function"
    },
    {
      "inputs": [
        {
          "internalType": "contract ISetToken",
          "name": "_setToken",
          "type": "address"
        }
      ],
      "name": "unlock",
      "outputs": [],
      "stateMutability": "nonpayable",
      "type": "function"
    }
  ],
  "transactionHash": "0x3f6bc71505365f6cc79a32ecc6e883d77b22eef6073e0b731c0257536765eeaa",
  "args": [
    "0x9409Ac28260E60e26f5475526cb9F7315edddd17"
  ],
  "numDeployments": 1,
  "solcInputHash": "7fe3b69caaa6e1ae3cb624acb9fde77a",
  "bytecode": "0x6080604052348015600f57600080fd5b5060405161504a38038061504a833981016040819052602c916054565b600080546001600160a01b0319166001600160a01b0392909216919091179055600180556082565b600060208284031215606557600080fd5b81516001600160a01b0381168114607b57600080fd5b9392505050565b614fb9806100916000396000f3fe608060405234801561001057600080fd5b50600436106101585760003560e01c80638d50c6c1116100c3578063d4f005321161007c578063d4f005321461031d578063dc7bc58514610330578063dc8abe2e14610343578063f4787698146103bd578063f77c4791146103d0578063ff0932a1146103fb57600080fd5b80638d50c6c11461029d5780638e0f7756146102be578063b26faa0a146102d1578063c2098812146102e4578063c3824c48146102f7578063c4d66de81461030a57600080fd5b8063421dec4d11610115578063421dec4d1461020a57806345e3db3e1461022c578063602ab35d1461024f5780636db4a2621461026f578063737531ba14610282578063847ef08d1461029557600080fd5b80630b2c85eb1461015d57806323ab55ec1461018c578063270e5590146101ac5780632f6c493c146101cf57806339a88f80146101e457806341cefcd1146101f7575b600080fd5b61017061016b3660046141f5565b61040e565b6040805192151583526020830191909152015b60405180910390f35b61019f61019a366004614247565b61057d565b6040516101839190614307565b6101bf6101ba3660046143fa565b6105b7565b6040519015158152602001610183565b6101e26101dd3660046143fa565b6105c8565b005b6101bf6101f23660046143fa565b61072d565b6101bf6102053660046143fa565b610738565b61021d6102183660046141f5565b610743565b60405161018393929190614417565b6101bf61023a3660046143fa565b60036020526000908152604090205460ff1681565b61026261025d3660046143fa565b610881565b6040516101839190614487565b6101e261027d366004614247565b610906565b6101e261029036600461449a565b610a30565b6101e2610a97565b6102b06102ab3660046143fa565b610b82565b604051908152602001610183565b6101e26102cc366004614745565b610c0b565b6101e26102df36600461487f565b610f39565b6101bf6102f23660046143fa565b6110bb565b6101bf6103053660046141f5565b6110c6565b6101e26103183660046143fa565b6110e4565b61026261032b3660046143fa565b6112c0565b6101bf61033e3660046143fa565b611342565b61038b6103513660046143fa565b6004602081905260009182526040909120805460018201546002830154600384015493909401546001600160a01b03909216939092909185565b604080516001600160a01b0390961686526020860194909452928401919091526060830152608082015260a001610183565b6101e26103cb366004614954565b61134d565b6000546103e3906001600160a01b031681565b6040516001600160a01b039091168152602001610183565b6101e26104093660046143fa565b6113af565b6000808361041b81611518565b6104ae8460046000886001600160a01b03166001600160a01b0316815260200190815260200160002060050180548060200260200160405190810160405280929190818152602001828054801561049b57602002820191906000526020600020905b81546001600160a01b0316815260019091019060200180831161047d575b505050505061158190919063ffffffff16565b6104ff5760405162461bcd60e51b815260206004820152601f60248201527f436f6d706f6e656e74206e6f742070617274206f6620726562616c616e63650060448201526064015b60405180910390fd5b6000856001600160a01b03166318160ddd6040518163ffffffff1660e01b8152600401602060405180830381865afa15801561053f573d6000803e3d6000fd5b505050506040513d601f19601f820116820180604052508101906105639190614982565b9050610570868683611597565b9350935050509250929050565b6105856140aa565b8661058f81611518565b61059b888888886116bb565b60006105aa8989888888611940565b9998505050505050505050565b60006105c282611d97565b92915050565b60006105d382611df4565b905060006105e083611e2a565b905081806105eb5750805b6106765760405162461bcd60e51b815260206004820152605060248201527f43616e6e6f7420756e6c6f636b206561726c7920756e6c65737320616c6c207460448201527f61726765747320617265206d657420616e64207261697365546172676574506560648201526f7263656e74616765206973207a65726f60801b608482015260a4016104f6565b80156106c1576001600160a01b038316600081815260046020526040808220600201829055517f7ebe07e0f6679ed2dd131ed9d9498112c84991ccae90b0568240bf0dbf680d5c9190a25b6001600160a01b03831660008181526004602081905260408083208201839055805163a69df4b560e01b8152905163a69df4b59382840193909282900301818387803b15801561071057600080fd5b505af1158015610724573d6000803e3d6000fd5b50505050505050565b60006105c282611e2a565b60006105c282611e6d565b6002602090815260009283526040808420909152908252902080546001820180549192916107709061499b565b80601f016020809104026020016040519081016040528092919081815260200182805461079c9061499b565b80156107e95780601f106107be576101008083540402835291602001916107e9565b820191906000526020600020905b8154815290600101906020018083116107cc57829003601f168201915b5050505050908060020180546107fe9061499b565b80601f016020809104026020016040519081016040528092919081815260200182805461082a9061499b565b80156108775780601f1061084c57610100808354040283529160200191610877565b820191906000526020600020905b81548152906001019060200180831161085a57829003601f168201915b5050505050905083565b60608161088d81611518565b6001600160a01b038316600090815260036020908152604091829020600101805483518184028101840190945280845290918301828280156108f857602002820191906000526020600020905b81546001600160a01b031681526001909101906020018083116108da575b505050505091505b50919050565b61090e611f02565b8561091881611f2c565b610924878787876116bb565b60006109338888878787611940565b905061093e81611f82565b600061094982611fbf565b905060008061095784612067565b9150915083604001516001600160a01b031684602001516001600160a01b031685600001516001600160a01b03167f96310ab47353685e74601a419fddb52db22b6ce0f72cb735c35ff494289dd6423388606001518960a001518a60e0015189898c8e6101800151604051610a129897969594939291906001600160a01b03988916815296909716602087015293151560408601526060850192909252608084015260a083015260c082015260e08101919091526101000190565b60405180910390a45050505050610a2860018055565b505050505050565b81610a3a81612108565b6001600160a01b03831660008181526004602081905260409182902001849055517f6a1e9ac0e71aa1dc7854a57bce846b04b1aae20dc994b832098200d9236d1d4a90610a8a9085815260200190565b60405180910390a2505050565b336000908152600360205260408120905b6001820154811015610b0d576000826002016000846001018481548110610ad157610ad16149cf565b6000918252602080832091909101546001600160a01b031683528201929092526040019020805460ff1916911515919091179055600101610aa8565b50336000908152600460208190526040822080546001600160a01b031916815560018101839055600281018390556003810183905590810182905590610b566005830182614138565b5050336000908152600360205260408120805460ff1916815590610b7d6001830182614138565b505050565b6001600160a01b038181166000818152600460208190526040808320805491516370a0823160e01b815292830194909452919391909116906370a0823190602401602060405180830381865afa158015610be0573d6000803e3d6000fd5b505050506040513d601f19601f82011682018060405250810190610c049190614982565b9392505050565b88610c1581612108565b838015610c955750306001600160a01b03168a6001600160a01b031663d7b96d4e6040518163ffffffff1660e01b8152600401602060405180830381865afa158015610c65573d6000803e3d6000fd5b505050506040513d601f19601f82011682018060405250810190610c8991906149e5565b6001600160a01b031614155b15610cee57896001600160a01b031663f83d08ba6040518163ffffffff1660e01b8152600401600060405180830381600087803b158015610cd557600080fd5b505af1158015610ce9573d6000803e3d6000fd5b505050505b600080610d638c6001600160a01b03166399d50d5d6040518163ffffffff1660e01b8152600401600060405180830381865afa158015610d32573d6000803e3d6000fd5b505050506040513d6000823e601f3d908101601f19168201604052610d5a9190810190614a02565b8b8b8b8b61215e565b9150915060005b8251811015610e7f57610da8838281518110610d8857610d886149cf565b60200260200101518e6001600160a01b03166122d590919063ffffffff16565b15610dc55760405162461bcd60e51b81526004016104f690614a9b565b818181518110610dd757610dd76149cf565b6020026020010151600260008f6001600160a01b03166001600160a01b031681526020019081526020016000206000858481518110610e1857610e186149cf565b60200260200101516001600160a01b03166001600160a01b03168152602001908152602001600020600082015181600001556020820151816001019081610e5f9190614b1a565b5060408201516002820190610e749082614b1a565b505050600101610d6a565b506001600160a01b038c8116600090815260046020908152604090912080546001600160a01b031916928e1692909217825542600183015560028201879055600382018690558351610ed79260050191850190614156565b508a6001600160a01b03168c6001600160a01b03167f2ca831858de887d2ca1c692d1940334f1d3f6c80c9101a306201d66397cf9be68888888787604051610f23959493929190614bd9565b60405180910390a3505050505050505050505050565b82610f4381612108565b610f4d8383612351565b60005b83518110156110b457610f9685858381518110610f6f57610f6f6149cf565b6020026020010151858481518110610f8957610f896149cf565b60200260200101516123a7565b828181518110610fa857610fa86149cf565b602002602001015160036000876001600160a01b03166001600160a01b031681526020019081526020016000206002016000868481518110610fec57610fec6149cf565b60200260200101516001600160a01b03166001600160a01b0316815260200190815260200160002060006101000a81548160ff02191690831515021790555083818151811061103d5761103d6149cf565b60200260200101516001600160a01b0316856001600160a01b03167f4e771e3486d7afcce48115112ca75bc21bc33ac6d6261f7d273b9c582060671785848151811061108b5761108b6149cf565b60200260200101516040516110a4911515815260200190565b60405180910390a3600101610f50565b5050505050565b60006105c282611df4565b6000826110d281611518565b6110dc848461254d565b949350505050565b80336110f08282612597565b826110fa816125ed565b6000846001600160a01b031663802758606040518163ffffffff1660e01b8152600401600060405180830381865afa15801561113a573d6000803e3d6000fd5b505050506040513d6000823e601f3d908101601f191682016040526111629190810190614cd6565b905060005b81518110156111ea576000828281518110611184576111846149cf565b60200260200101519050806060015160ff166000146111b55760405162461bcd60e51b81526004016104f690614a9b565b6040808201516001600160a01b03808a1660009081526002602090815284822095519092168152939052912055600101611167565b50846001600160a01b0316635230c3966040518163ffffffff1660e01b8152600401602060405180830381865afa158015611229573d6000803e3d6000fd5b505050506040513d601f19601f8201168201806040525081019061124d9190614982565b6001600160a01b03861660008181526004602081905260408083206003019490945583516307ff078f60e11b815293519293630ffe0f1e938183019392909182900301818387803b1580156112a157600080fd5b505af11580156112b5573d6000803e3d6000fd5b505050505050505050565b6060816112cc81611518565b6001600160a01b038316600090815260046020908152604091829020600501805483518184028101840190945280845290918301828280156108f8576020028201919060005260206000209081546001600160a01b031681526001909101906020018083116108da575050505050915050919050565b60006105c282612708565b8161135781612108565b6001600160a01b038316600081815260036020908152604091829020805460ff191686151590811790915591519182527f1fed19c0eee5ddf8ef482a13e2f0c3ec5c1390b1e39160fe52eabd651ecc7dba9101610a8a565b806113b981611f2c565b6113c282611df4565b1561140f5760405162461bcd60e51b815260206004820152601d60248201527f526562616c616e6365206d75737420626520696e2070726f677265737300000060448201526064016104f6565b61141882611d97565b6114705760405162461bcd60e51b815260206004820152602360248201527f54617267657473206e6f74206d6574206f722071756f7465206173736574203d60448201526207e20360ec1b60648201526084016104f6565b6001600160a01b0382166000908152600460208190526040822001546114c4906114a290670de0b6b3a7640000614e1e565b6001600160a01b038516600090815260046020526040902060030154906127c9565b6001600160a01b0384166000818152600460205260409081902060030183905551919250907fe4c448aaaad94925b669914540bde1ea0123c0b2320e4cf6ea0ad7a1818a1c9890610a8a9084815260200190565b611521816127e8565b61157e5760405162461bcd60e51b815260206004820152602860248201527f4d75737420626520612076616c696420616e6420696e697469616c697a65642060448201526729b2ba2a37b5b2b760c11b60648201526084016104f6565b50565b60008061158e84846128c7565b95945050505050565b6000805460405163792aa04f60e01b815230600482015260248101839052829182916001600160a01b039091169063792aa04f90604401602060405180830381865afa1580156115eb573d6000803e3d6000fd5b505050506040513d601f19601f8201168201806040525081019061160f9190614982565b90506000806000806116228a8a8a612932565b935093509350935082840361166e5760405162461bcd60e51b815260206004820152601260248201527115185c99d95d08185b1c9958591e481b595d60721b60448201526064016104f6565b8181109650866116a25761169d61168d86670de0b6b3a7640000614e31565b6116978484614e31565b906127c9565b6116ac565b6116ac8183614e31565b95505050505050935093915050565b6001600160a01b0380851660009081526004602052604090205481169084168190036117355760405162461bcd60e51b8152602060048201526024808201527f43616e6e6f7420626964206578706c696369746c79206f6e2051756f746520416044820152631cdcd95d60e21b60648201526084016104f6565b806001600160a01b0316836001600160a01b03161461178d5760405162461bcd60e51b81526020600482015260146024820152730a2eadee8ca40c2e6e6cae840dad2e6dac2e8c6d60631b60448201526064016104f6565b61181e8460046000886001600160a01b03166001600160a01b0316815260200190815260200160002060050180548060200260200160405190810160405280929190818152602001828054801561049b576020028201919060005260206000209081546001600160a01b0316815260019091019060200180831161047d57505050505061158190919063ffffffff16565b61186a5760405162461bcd60e51b815260206004820152601f60248201527f436f6d706f6e656e74206e6f742070617274206f6620726562616c616e63650060448201526064016104f6565b61187d6001600160a01b038616856122d5565b1561189a5760405162461bcd60e51b81526004016104f690614a9b565b6118a385611df4565b156118f05760405162461bcd60e51b815260206004820152601d60248201527f526562616c616e6365206d75737420626520696e2070726f677265737300000060448201526064016104f6565b600082116110b45760405162461bcd60e51b815260206004820152601c60248201527f436f6d706f6e656e7420616d6f756e74206d757374206265203e20300000000060448201526064016104f6565b6119486140aa565b6001600160a01b038616808252604080516318160ddd60e01b815290516318160ddd916004808201926020929091908290030181865afa158015611990573d6000803e3d6000fd5b505050506040513d601f19601f820116820180604052508101906119b49190614982565b6101808201526119c48686612981565b6001600160a01b0390811660608301528681166000908152600260208181526040808420948a1684529390529190200180546119ff9061499b565b80601f0160208091040260200160405190810160405280929190818152602001828054611a2b9061499b565b8015611a785780601f10611a4d57610100808354040283529160200191611a78565b820191906000526020600020905b815481529060010190602001808311611a5b57829003601f168201915b50505050508160800181905250611a958686836101800151611597565b60c0830152151560a0820181905282151514611af35760405162461bcd60e51b815260206004820152601a60248201527f41756374696f6e20646972656374696f6e206d69736d6174636800000000000060448201526064016104f6565b6000198403611b08578060c001519350611b66565b8060c00151841115611b665760405162461bcd60e51b815260206004820152602160248201527f4269642073697a6520657863656564732061756374696f6e207175616e7469746044820152607960f81b60648201526084016104f6565b611b758160a001518787612a3e565b6001600160a01b039081166040808501919091529181166020808501919091526060840151898316600090815260049092529290206001015491169063104b9b6490889088908890611bc79042614e31565b6001600160a01b038c166000908152600460208190526040918290206002015460808a015192516001600160e01b031960e08a901b168152611c0f9796959493919201614e44565b602060405180830381865afa158015611c2c573d6000803e3d6000fd5b505050506040513d601f19601f82011682018060405250810190611c509190614982565b60e0820181905260a0820151600091611c6b91908790612a91565b60208301516040516370a0823160e01b81526001600160a01b038a811660048301529293509116906370a0823190602401602060405180830381865afa158015611cb9573d6000803e3d6000fd5b505050506040513d601f19601f82011682018060405250810190611cdd9190614982565b61014083015260408083015190516370a0823160e01b81526001600160a01b038981166004830152909116906370a0823190602401602060405180830381865afa158015611d2f573d6000803e3d6000fd5b505050506040513d601f19601f82011682018060405250810190611d539190614982565b82610160018181525050611d728260a001518286856101400151612ab1565b611d818260a001518683612bbd565b6101208401526101008301525095945050505050565b6001600160a01b0380821660009081526004602052604081208054919290918391611dc491869116612bd6565b8254611dda9086906001600160a01b0316612c93565b119050611de684612708565b80156110dc57509392505050565b6001600160a01b0381166000908152600460205260408120600281015460018201544291611e2191614e1e565b11159392505050565b6001600160a01b0381166000908152600460205260408120611e4b83612708565b8015611e5b5750611e5b83611e6d565b8015610c045750600401541592915050565b6001600160a01b0380821660009081526004602052604081208054919290918391611e9a91869116612bd6565b8254611eb09086906001600160a01b0316612c93565b835491109150600090611ef190611ed19087906001600160a01b0316612bd6565b8454600190611eea9089906001600160a01b0316612c93565b9190612cdd565b9050818061158e5750949350505050565b600260015403611f2557604051633ee5aeb560e01b815260040160405180910390fd5b6002600155565b611f36813361254d565b61157e5760405162461bcd60e51b815260206004820152601c60248201527f41646472657373206e6f74207065726d697474656420746f206269640000000060448201526064016104f6565b611f9b8160400151338360000151846101200151612d08565b6020810151610100820151825161157e926001600160a01b03909116913390612d14565b604081810151825161016084015192516370a0823160e01b81526001600160a01b038083166004830152600094859290918516906370a0823190602401602060405180830381865afa158015612019573d6000803e3d6000fd5b505050506040513d601f19601f8201168201806040525081019061203d9190614982565b6120479190614e31565b90506000612056600083612e5e565b905061158e83876040015183612ede565b80516020820151610180830151610140840151600093849390928492612099926001600160a01b038616929091612f6f565b5050905060006120cd8660400151876101800151886101600151866001600160a01b0316612f6f909392919063ffffffff16565b505090506000828761014001516120e49190614e31565b90506000876101600151836120f99190614e31565b91989197509095505050505050565b612112813361308e565b6115185760405162461bcd60e51b815260206004820152601c60248201527f4d7573742062652074686520536574546f6b656e206d616e616765720000000060448201526064016104f6565b8151606090819085146121c55760405162461bcd60e51b815260206004820152602960248201527f4e657720636f6d706f6e656e747320616e6420706172616d73206c656e677468604482015268040dad2e6dac2e8c6d60bb1b60648201526084016104f6565b82518751146122285760405162461bcd60e51b815260206004820152602960248201527f4f6c6420636f6d706f6e656e747320616e6420706172616d73206c656e677468604482015268040dad2e6dac2e8c6d60bb1b60648201526084016104f6565b6122678686808060200260200160405190810160405280939291908181526020018383602002808284376000920191909152508b9392505061310d9050565b915061227282613228565b156122bf5760405162461bcd60e51b815260206004820181905260248201527f43616e6e6f742068617665206475706c696361746520636f6d706f6e656e747360448201526064016104f6565b6122c98385613310565b90509550959350505050565b60405163a7bdad0360e01b81526001600160a01b038281166004830152600091829185169063a7bdad0390602401600060405180830381865afa158015612320573d6000803e3d6000fd5b505050506040513d6000823e601f3d908101601f191682016040526123489190810190614a02565b51119392505050565b805182511461239a5760405162461bcd60e51b8152602060048201526015602482015274082e4e4c2f240d8cadccee8d040dad2e6dac2e8c6d605b1b60448201526064016104f6565b6123a3826134f7565b5050565b80801561244257506124408260036000866001600160a01b03166001600160a01b0316815260200190815260200160002060010180548060200260200160405190810160405280929190818152602001828054801561049b576020028201919060005260206000209081546001600160a01b0316815260019091019060200180831161047d57505050505061158190919063ffffffff16565b155b1561248957506001600160a01b0391821660009081526003602090815260408220600190810180549182018155835291200180546001600160a01b03191691909216179055565b8015801561252357506125238260036000866001600160a01b03166001600160a01b0316815260200190815260200160002060010180548060200260200160405190810160405280929190818152602001828054801561049b576020028201919060005260206000209081546001600160a01b0316815260019091019060200180831161047d57505050505061158190919063ffffffff16565b15610b7d576001600160a01b0383166000908152600360205260409020610b7d906001018361359e565b6001600160a01b0382166000908152600360205260408120805460ff16806110dc57506001600160a01b038316600090815260028201602052604090205460ff1691505092915050565b6125a1828261308e565b6123a35760405162461bcd60e51b815260206004820152601c60248201527f4d7573742062652074686520536574546f6b656e206d616e616765720000000060448201526064016104f6565b600054604051631d3af8fb60e21b81526001600160a01b038381166004830152909116906374ebe3ec90602401602060405180830381865afa158015612637573d6000803e3d6000fd5b505050506040513d601f19601f8201168201806040525081019061265b9190614e8d565b6126b35760405162461bcd60e51b815260206004820152602360248201527f4d75737420626520636f6e74726f6c6c65722d656e61626c656420536574546f60448201526235b2b760e91b60648201526084016104f6565b6126bc81613711565b61157e5760405162461bcd60e51b815260206004820152601e60248201527f4d7573742062652070656e64696e6720696e697469616c697a6174696f6e000060448201526064016104f6565b6001600160a01b03811660009081526004602090815260408083206005018054825181850281018501909352808352849383018282801561277257602002820191906000526020600020905b81546001600160a01b03168152600190910190602001808311612754575b5050505050905060005b81518110156127bf576127a88483838151811061279b5761279b6149cf565b6020026020010151613740565b156127b7575060009392505050565b60010161277c565b5060019392505050565b6000816127de670de0b6b3a764000085614eaa565b610c049190614ec1565b60008054604051631d3af8fb60e21b81526001600160a01b038481166004830152909116906374ebe3ec90602401602060405180830381865afa158015612833573d6000803e3d6000fd5b505050506040513d601f19601f820116820180604052508101906128579190614e8d565b80156105c257506040516335fc6c9f60e21b81523060048201526001600160a01b0383169063d7f1b27c906024015b602060405180830381865afa1580156128a3573d6000803e3d6000fd5b505050506040513d601f19601f820116820180604052508101906105c29190614e8d565b81516000908190815b8181101561291f57846001600160a01b03168682815181106128f4576128f46149cf565b60200260200101516001600160a01b0316036129175792506001915061292b9050565b6001016128d0565b50600019600092509250505b9250929050565b60008060008060006129448888612c93565b905060006129528989612bd6565b9050600061296088846137b2565b9050600061296e89846137be565b939b929a50909850919650945050505050565b6001600160a01b03808316600090815260026020908152604080832093851683529290529081206001018054610c0491906129bb9061499b565b80601f01602080910402602001604051908101604052809291908181526020018280546129e79061499b565b8015612a345780601f10612a0957610100808354040283529160200191612a34565b820191906000526020600020905b815481529060010190602001808311612a1757829003601f168201915b505050505061380c565b60008084612a67576001600160a01b038085166000908152600460205260409020541683612a85565b6001600160a01b038085166000908152600460205260409020548491165b91509150935093915050565b600083612aa757612aa2838361381f565b6110dc565b6110dc83836137be565b8315612b175781831115612b125760405162461bcd60e51b815260206004820152602260248201527f51756f7465206173736574207175616e746974792065786365656473206c696d6044820152611a5d60f21b60648201526084016104f6565b612bb7565b81831015612b675760405162461bcd60e51b815260206004820181905260248201527f51756f7465206173736574207175616e746974792062656c6f77206c696d697460448201526064016104f6565b80831115612bb75760405162461bcd60e51b815260206004820181905260248201527f496e73756666696369656e742071756f74652061737365742062616c616e636560448201526064016104f6565b50505050565b60008084612bcc578284612a85565b5091939092509050565b600060046000846001600160a01b03166001600160a01b0316815260200190815260200160002060030154836001600160a01b0316635230c3966040518163ffffffff1660e01b8152600401602060405180830381865afa158015612c3f573d6000803e3d6000fd5b505050506040513d601f19601f82011682018060405250810190612c639190614982565b6001600160a01b038086166000908152600260209081526040808320938816835292905220546127de9190614eaa565b6040516366cb8d2f60e01b81526001600160a01b038281166004830152600091908416906366cb8d2f90602401602060405180830381865afa158015610be0573d6000803e3d6000fd5b6000612ce98284614e1e565b84111580156110dc5750612cfd8284614e31565b909310159392505050565b612bb784848484613834565b8015612bb7576040516370a0823160e01b81526001600160a01b038581166004830152600091908516906370a0823190602401602060405180830381865afa158015612d64573d6000803e3d6000fd5b505050506040513d601f19601f82011682018060405250810190612d889190614982565b9050612d9685858585613930565b6040516370a0823160e01b81526001600160a01b038681166004830152600091908616906370a0823190602401602060405180830381865afa158015612de0573d6000803e3d6000fd5b505050506040513d601f19601f82011682018060405250810190612e049190614982565b9050612e108383614e31565b8114610a285760405162461bcd60e51b815260206004820152601d60248201527f496e76616c696420706f7374207472616e736665722062616c616e636500000060448201526064016104f6565b6000805460405163792aa04f60e01b81523060048201526024810185905282916001600160a01b03169063792aa04f90604401602060405180830381865afa158015612eae573d6000803e3d6000fd5b505050506040513d601f19601f82011682018060405250810190612ed29190614982565b90506110dc838261381f565b8015610b7d57610b7d8260008054906101000a90046001600160a01b03166001600160a01b031663469048406040518163ffffffff1660e01b8152600401602060405180830381865afa158015612f39573d6000803e3d6000fd5b505050506040513d601f19601f82011682018060405250810190612f5d91906149e5565b6001600160a01b038616919084612d14565b6040516370a0823160e01b81526001600160a01b0385811660048301526000918291829182918816906370a0823190602401602060405180830381865afa158015612fbe573d6000803e3d6000fd5b505050506040513d601f19601f82011682018060405250810190612fe29190614982565b6040516366cb8d2f60e01b81526001600160a01b0389811660048301529192506000918a16906366cb8d2f90602401602060405180830381865afa15801561302e573d6000803e3d6000fd5b505050506040513d601f19601f820116820180604052508101906130529190614982565b90506000821561306f5761306888888585613a5c565b9050613073565b5060005b61307e8a8a83613a8d565b9199909850909650945050505050565b6000816001600160a01b0316836001600160a01b031663481c6a756040518163ffffffff1660e01b8152600401602060405180830381865afa1580156130d8573d6000803e3d6000fd5b505050506040513d601f19601f820116820180604052508101906130fc91906149e5565b6001600160a01b0316149392505050565b815181516060919060006131218284614e1e565b6001600160401b038111156131385761313861450a565b604051908082528060200260200182016040528015613161578160200160208202803683370190505b50905060005b838110156131bb57868181518110613181576131816149cf565b602002602001015182828151811061319b5761319b6149cf565b6001600160a01b0390921660209283029190910190910152600101613167565b5060005b8281101561321e578581815181106131d9576131d96149cf565b60200260200101518282866131ee9190614e1e565b815181106131fe576131fe6149cf565b6001600160a01b03909216602092830291909101909101526001016131bf565b5095945050505050565b6000808251116132675760405162461bcd60e51b815260206004820152600a6024820152694120697320656d70747960b01b60448201526064016104f6565b60005b600183516132789190614e31565b811015613307576000838281518110613293576132936149cf565b6020026020010151905060008260016132ac9190614e1e565b90505b84518110156132fd578481815181106132ca576132ca6149cf565b60200260200101516001600160a01b0316826001600160a01b0316036132f557506001949350505050565b6001016132af565b505060010161326a565b50600092915050565b81518151606091906133228183614e1e565b6001600160401b038111156133395761333961450a565b60405190808252806020026020018201604052801561338e57816020015b61337b60405180606001604052806000815260200160608152602001606081525090565b8152602001906001900390816133575790505b50925060005b828110156133fd576133be8682815181106133b1576133b16149cf565b6020026020010151613c61565b8581815181106133d0576133d06149cf565b60200260200101518482815181106133ea576133ea6149cf565b6020908102919091010152600101613394565b5060005b818110156134ee57600085828151811061341d5761341d6149cf565b6020026020010151600001511161348f5760405162461bcd60e51b815260206004820152603060248201527f4e657720636f6d706f6e656e742074617267657420756e6974206d757374206260448201526f0652067726561746572207468616e20360841b60648201526084016104f6565b6134a48582815181106133b1576133b16149cf565b8481815181106134b6576134b66149cf565b60200260200101518482856134cb9190614e1e565b815181106134db576134db6149cf565b6020908102919091010152600101613401565b50505092915050565b60008151116135485760405162461bcd60e51b815260206004820152601860248201527f4172726179206c656e677468206d757374206265203e2030000000000000000060448201526064016104f6565b61355181613228565b1561157e5760405162461bcd60e51b815260206004820152601a60248201527f43616e6e6f74206475706c69636174652061646472657373657300000000000060448201526064016104f6565b600080613604848054806020026020016040519081016040528092919081815260200182805480156135f957602002820191906000526020600020905b81546001600160a01b031681526001909101906020018083116135db575b5050505050846128c7565b915091508061364d5760405162461bcd60e51b815260206004820152601560248201527420b2323932b9b9903737ba1034b71030b93930bc9760591b60448201526064016104f6565b835460009061365e90600190614e31565b90508083146136d857848181548110613679576136796149cf565b9060005260206000200160009054906101000a90046001600160a01b03168584815481106136a9576136a96149cf565b9060005260206000200160006101000a8154816001600160a01b0302191690836001600160a01b031602179055505b848054806136e8576136e8614ee3565b600082815260209020810160001990810180546001600160a01b03191690550190555050505050565b6040516353bae5f760e01b81523060048201526000906001600160a01b038316906353bae5f790602401612886565b6001600160a01b0380831660009081526004602052604081205490919081169083160361376f575060006105c2565b600061377b8484612bd6565b905060006137898585612c93565b90506000821161379c578082141561158e565b6137a882826001612cdd565b1595945050505050565b6000610c04838361381f565b60008215806137cb575081155b156137d8575060006105c2565b670de0b6b3a764000060016137ed8486614eaa565b6137f79190614e31565b6138019190614ec1565b610c04906001614e1e565b80516020820120600090610c0481613d39565b6000670de0b6b3a76400006127de8385614eaa565b8015612bb7576040516370a0823160e01b81526001600160a01b038381166004830152600091908616906370a0823190602401602060405180830381865afa158015613884573d6000803e3d6000fd5b505050506040513d601f19601f820116820180604052508101906138a89190614982565b90506138b685858585613e12565b6040516370a0823160e01b81526001600160a01b038481166004830152600091908716906370a0823190602401602060405180830381865afa158015613900573d6000803e3d6000fd5b505050506040513d601f19601f820116820180604052508101906139249190614982565b9050612e108383614e1e565b8015612bb7576040516001600160a01b03831660248201526044810182905260009060640160408051601f198184030181529181526020820180516001600160e01b031663a9059cbb60e01b179052516347b7819960e11b81529091506000906001600160a01b03871690638f6f0332906139b390889085908790600401614ef9565b6000604051808303816000875af11580156139d2573d6000803e3d6000fd5b505050506040513d6000823e601f3d908101601f191682016040526139fa9190810190614f20565b805190915015610a285780806020019051810190613a189190614e8d565b610a285760405162461bcd60e51b8152602060048201526015602482015274115490cc8c081d1c985b9cd9995c8819985a5b1959605a1b60448201526064016104f6565b600080613a69838761381f565b613a739086614e31565b9050613a83866116978387614e31565b9695505050505050565b6000613a998484613e6c565b905080158015613aa95750600082115b15613b1d57613ab884846122d5565b613b18576040516304e3532760e41b81526001600160a01b038481166004830152851690634e35327090602401600060405180830381600087803b158015613aff57600080fd5b505af1158015613b13573d6000803e3d6000fd5b505050505b613b97565b808015613b28575081155b15613b9757613b3784846122d5565b613b9757604051636f86c89760e01b81526001600160a01b038481166004830152851690636f86c89790602401600060405180830381600087803b158015613b7e57600080fd5b505af1158015613b92573d6000803e3d6000fd5b505050505b604051632ba57d1760e01b81526001600160a01b03848116600483015260248201849052851690632ba57d1790604401600060405180830381600087803b158015613be157600080fd5b505af1158015613bf5573d6000803e3d6000fd5b5050604051632ba57d1760e01b81526001600160a01b0386811660048301526024820186905287169250632ba57d179150604401600060405180830381600087803b158015613c4357600080fd5b505af1158015613c57573d6000803e3d6000fd5b5050505050505050565b6000613c70826020015161380c565b60408084015190516301e7dafd60e21b81529192506001600160a01b0383169163079f6bf491613ca291600401614f54565b602060405180830381865afa158015613cbf573d6000803e3d6000fd5b505050506040513d601f19601f82011682018060405250810190613ce39190614e8d565b6123a35760405162461bcd60e51b815260206004820152602160248201527f5072696365206164617074657220636f6e666967206461746120696e76616c696044820152601960fa1b60648201526084016104f6565b600080548190613d51906001600160a01b0316613ee3565b60405163e6d642c560e01b8152306004820152602481018590526001600160a01b03919091169063e6d642c590604401602060405180830381865afa158015613d9e573d6000803e3d6000fd5b505050506040513d601f19601f82011682018060405250810190613dc291906149e5565b90506001600160a01b0381166105c25760405162461bcd60e51b815260206004820152601560248201527426bab9ba103132903b30b634b21030b230b83a32b960591b60448201526064016104f6565b604080516001600160a01b0385811660248301528416604482015260648082018490528251808303909101815260849091019091526020810180516001600160e01b03166323b872dd60e01b179052612bb7908590613f4f565b6040516366cb8d2f60e01b81526001600160a01b03828116600483015260009182918516906366cb8d2f90602401602060405180830381865afa158015613eb7573d6000803e3d6000fd5b505050506040513d601f19601f82011682018060405250810190613edb9190614982565b139392505050565b6040516373b2e76b60e11b8152600060048201819052906001600160a01b0383169063e765ced690602401602060405180830381865afa158015613f2b573d6000803e3d6000fd5b505050506040513d601f19601f820116820180604052508101906105c291906149e5565b6000613f646001600160a01b03841683613fb2565b90508051600014158015613f89575080806020019051810190613f879190614e8d565b155b15610b7d57604051635274afe760e01b81526001600160a01b03841660048201526024016104f6565b6060610c048383600084600080856001600160a01b03168486604051613fd89190614f67565b60006040518083038185875af1925050503d8060008114614015576040519150601f19603f3d011682016040523d82523d6000602084013e61401a565b606091505b5091509150613a8386838360608261403a5761403582614081565b610c04565b815115801561405157506001600160a01b0384163b155b1561407a57604051639996b31560e01b81526001600160a01b03851660048201526024016104f6565b5080610c04565b8051156140915780518082602001fd5b604051630a12f52160e11b815260040160405180910390fd5b604051806101a0016040528060006001600160a01b0316815260200160006001600160a01b0316815260200160006001600160a01b0316815260200160006001600160a01b0316815260200160608152602001600015158152602001600081526020016000815260200160008152602001600081526020016000815260200160008152602001600081525090565b508054600082559060005260206000209081019061157e91906141bb565b8280548282559060005260206000209081019282156141ab579160200282015b828111156141ab57825182546001600160a01b0319166001600160a01b03909116178255602090920191600190910190614176565b506141b79291506141bb565b5090565b5b808211156141b757600081556001016141bc565b6001600160a01b038116811461157e57600080fd5b80356141f0816141d0565b919050565b6000806040838503121561420857600080fd5b8235614213816141d0565b91506020830135614223816141d0565b809150509250929050565b801515811461157e57600080fd5b80356141f08161422e565b60008060008060008060c0878903121561426057600080fd5b863561426b816141d0565b9550602087013561427b816141d0565b9450604087013561428b816141d0565b9350606087013592506080870135915060a08701356142a98161422e565b809150509295509295509295565b60005b838110156142d25781810151838201526020016142ba565b50506000910152565b600081518084526142f38160208601602086016142b7565b601f01601f19169290920160200192915050565b602081526143216020820183516001600160a01b03169052565b6000602083015161433d60408401826001600160a01b03169052565b5060408301516001600160a01b03811660608401525060608301516001600160a01b03811660808401525060808301516101a08060a08501526143846101c08501836142db565b915060a085015161439960c086018215159052565b5060c085015160e0858101919091528501516101008086019190915285015161012080860191909152850151610140808601919091528501516101608086019190915285015161018080860191909152909401519390920192909252919050565b60006020828403121561440c57600080fd5b8135610c04816141d0565b83815260606020820152600061443060608301856142db565b8281036040840152613a8381856142db565b60008151808452602080850194506020840160005b8381101561447c5781516001600160a01b031687529582019590820190600101614457565b509495945050505050565b602081526000610c046020830184614442565b600080604083850312156144ad57600080fd5b82356144b8816141d0565b946020939093013593505050565b60008083601f8401126144d857600080fd5b5081356001600160401b038111156144ef57600080fd5b6020830191508360208260051b850101111561292b57600080fd5b634e487b7160e01b600052604160045260246000fd5b604051606081016001600160401b03811182821017156145425761454261450a565b60405290565b60405160a081016001600160401b03811182821017156145425761454261450a565b604051601f8201601f191681016001600160401b03811182821017156145925761459261450a565b604052919050565b60006001600160401b038211156145b3576145b361450a565b5060051b60200190565b60006001600160401b038211156145d6576145d661450a565b50601f01601f191660200190565b60006145f76145f2846145bd565b61456a565b905082815283838301111561460b57600080fd5b828260208301376000602084830101529392505050565b600082601f83011261463357600080fd5b813560206146436145f28361459a565b82815260059290921b8401810191818101908684111561466257600080fd5b8286015b8481101561473a5780356001600160401b03808211156146865760008081fd5b908801906060828b03601f19018113156146a05760008081fd5b6146a8614520565b878401358152604080850135848111156146c25760008081fd5b8501603f8082018f136146d55760008081fd5b6146e58f8c8401358585016145e4565b848c01529386013593858511156146fe57600091508182fd5b84870196508e8188011261471457600095508586fd5b50506147268d8a8701358388016145e4565b908201528652505050918301918301614666565b509695505050505050565b60008060008060008060008060006101008a8c03121561476457600080fd5b61476d8a6141e5565b985061477b60208b016141e5565b975060408a01356001600160401b038082111561479757600080fd5b6147a38d838e016144c6565b909950975060608c01359150808211156147bc57600080fd5b6147c88d838e01614622565b965060808c01359150808211156147de57600080fd5b506147eb8c828d01614622565b9450506147fa60a08b0161423c565b925060c08a0135915060e08a013590509295985092959850929598565b600082601f83011261482857600080fd5b813560206148386145f28361459a565b8083825260208201915060208460051b87010193508684111561485a57600080fd5b602086015b8481101561473a5780356148728161422e565b835291830191830161485f565b60008060006060848603121561489457600080fd5b833561489f816141d0565b92506020848101356001600160401b03808211156148bc57600080fd5b818701915087601f8301126148d057600080fd5b81356148de6145f28261459a565b81815260059190911b8301840190848101908a8311156148fd57600080fd5b938501935b82851015614924578435614915816141d0565b82529385019390850190614902565b96505050604087013592508083111561493c57600080fd5b505061494a86828701614817565b9150509250925092565b6000806040838503121561496757600080fd5b8235614972816141d0565b915060208301356142238161422e565b60006020828403121561499457600080fd5b5051919050565b600181811c908216806149af57607f821691505b60208210810361090057634e487b7160e01b600052602260045260246000fd5b634e487b7160e01b600052603260045260246000fd5b6000602082840312156149f757600080fd5b8151610c04816141d0565b60006020808385031215614a1557600080fd5b82516001600160401b03811115614a2b57600080fd5b8301601f81018513614a3c57600080fd5b8051614a4a6145f28261459a565b81815260059190911b82018301908381019087831115614a6957600080fd5b928401925b82841015614a90578351614a81816141d0565b82529284019290840190614a6e565b979650505050505050565b6020808252601e908201527f45787465726e616c20706f736974696f6e73206e6f7420616c6c6f7765640000604082015260600190565b601f821115610b7d576000816000526020600020601f850160051c81016020861015614afb5750805b601f850160051c820191505b81811015610a2857828155600101614b07565b81516001600160401b03811115614b3357614b3361450a565b614b4781614b41845461499b565b84614ad2565b602080601f831160018114614b7c5760008415614b645750858301515b600019600386901b1c1916600185901b178555610a28565b600085815260208120601f198616915b82811015614bab57888601518255948401946001909101908401614b8c565b5085821015614bc95787850151600019600388901b60f8161c191681555b5050505050600190811b01905550565b85151581526000602086818401526040866040850152606060a06060860152614c0560a0860188614442565b8581036080870152865180825284820190600581901b83018601868a0160005b83811015614c7d57601f1986840301855281518051845289810151888b860152614c51898601826142db565b918a0151858303868c0152919050614c6981836142db565b968b01969450505090880190600101614c25565b50909e9d5050505050505050505050505050565b600082601f830112614ca257600080fd5b8151614cb06145f2826145bd565b818152846020838601011115614cc557600080fd5b6110dc8260208301602087016142b7565b60006020808385031215614ce957600080fd5b82516001600160401b0380821115614d0057600080fd5b818501915085601f830112614d1457600080fd5b8151614d226145f28261459a565b81815260059190911b83018401908481019088831115614d4157600080fd5b8585015b83811015614dfb57805185811115614d5d5760008081fd5b860160a0818c03601f1901811315614d755760008081fd5b614d7d614548565b89830151614d8a816141d0565b8152604083810151614d9b816141d0565b808c8401525060608085015182840152608091508185015160ff81168114614dc35760008081fd5b90830152918301519188831115614dda5760008081fd5b614de88e8c85870101614c91565b9082015285525050918601918601614d45565b5098975050505050505050565b634e487b7160e01b600052601160045260246000fd5b808201808211156105c2576105c2614e08565b818103818111156105c2576105c2614e08565b600060018060a01b03808916835280881660208401525085604083015284606083015283608083015260c060a0830152614e8160c08301846142db565b98975050505050505050565b600060208284031215614e9f57600080fd5b8151610c048161422e565b80820281158282048414176105c2576105c2614e08565b600082614ede57634e487b7160e01b600052601260045260246000fd5b500490565b634e487b7160e01b600052603160045260246000fd5b60018060a01b038416815282602082015260606040820152600061158e60608301846142db565b600060208284031215614f3257600080fd5b81516001600160401b03811115614f4857600080fd5b6110dc84828501614c91565b602081526000610c0460208301846142db565b60008251614f798184602087016142b7565b919091019291505056fea2646970667358221220b382cb7bdb537f713859f4f3b670db54624fc42d315bfca72438b964047f1ba064736f6c63430008190033",
  "devdoc": {
    "details": "Compatible with StreamingFeeModule and BasicIssuanceModule. Review compatibility if used with additional modules.WARNING: If rebalances don't lock the SetToken, there's potential for bids to be front-run by sizable issuance/redemption. This could lead to the SetToken not approaching its target allocation proportionately to the bid size. To counteract this risk, a supply cap can be applied to the SetToken, allowing regular issuance/redemption while preventing front-running with large issuance/redemption.WARNING: This contract does NOT support ERC-777 component tokens or quote assets.WARNING: Please note that the behavior of block.timestamp varies across different EVM chains. This contract does not incorporate additional checks for unique behavior or for elements like sequencer uptime. Ensure you understand these characteristics when interacting with the contract on different EVM chains.",
    "errors": {
      "AddressEmptyCode(address)": [
        {
          "details": "There's no code at `target` (it is not a contract)."
        }
      ],
      "AddressInsufficientBalance(address)": [
        {
          "details": "The ETH balance of the account is not enough to perform the operation."
        }
      ],
      "FailedInnerCall()": [
        {
          "details": "A call to an address target failed. The target may have reverted."
        }
      ],
      "ReentrancyGuardReentrantCall()": [
        {
          "details": "Unauthorized reentrant call."
        }
      ],
      "SafeERC20FailedOperation(address)": [
        {
          "details": "An operation with an ERC20 token failed."
        }
      ]
    },
    "events": {
      "AnyoneBidUpdated(address,bool)": {
        "details": "Emitted upon toggling the bid permission setting via setAnyoneBid()",
        "params": {
          "isAnyoneAllowedToBid": "Flag indicating if bids are open to all (true) or restricted (false)",
          "setToken": "Reference to the SetToken undergoing rebalancing"
        }
      },
      "AssetTargetsRaised(address,uint256)": {
        "details": "Emitted upon calling raiseAssetTargets()",
        "params": {
          "newPositionMultiplier": "Updated position multiplier for the SetToken rebalance",
          "setToken": "Reference to the SetToken undergoing rebalancing"
        }
      },
      "BidExecuted(address,address,address,address,address,bool,uint256,uint256,uint256,uint256,uint256)": {
        "details": "Emitted upon execution of a bid via the bid() function.",
        "params": {
          "bidder": "The address of the bidder.",
          "isSellAuction": "Indicates if this is a sell auction (true) or a buy auction (false).",
          "netQuantityReceivedBySet": "The net amount of tokens received by the SetToken in the bid.",
          "netQuantitySentBySet": "The net amount of tokens sent by the SetToken in the bid.",
          "price": "The price of the component in precise units (10 ** 18).",
          "priceAdapter": "Instance of the price adapter contract used for this bid.",
          "protocolFee": "The amount of the received token allocated as a protocol fee.",
          "receiveToken": "The ERC20 token that is being received by the bidder.",
          "sendToken": "The ERC20 token that is being sent by the bidder.",
          "setToken": "Instance of the SetToken contract that is being rebalanced.",
          "setTotalSupply": "The total supply of the SetToken at the time of the bid."
        }
      },
      "BidderStatusUpdated(address,address,bool)": {
        "details": "Emitted when the bidding status of an address is changed via setBidderStatus()",
        "params": {
          "bidder": "Address whose bidding permission status is toggled",
          "isBidderAllowed": "Flag indicating if the address is allowed (true) or not allowed (false) to bid",
          "setToken": "Reference to the SetToken undergoing rebalancing"
        }
      },
      "LockedRebalanceEndedEarly(address)": {
        "details": "Emitted when a locked rebalance is concluded early via the unlock() function.",
        "params": {
          "setToken": "Instance of the SetToken contract that is being rebalanced."
        }
      },
      "RaiseTargetPercentageUpdated(address,uint256)": {
        "details": "Emitted when the target percentage increase is modified via setRaiseTargetPercentage()",
        "params": {
          "newRaiseTargetPercentage": "Updated percentage for potential target unit increases, in precise units (10 ** 18)",
          "setToken": "Reference to the SetToken undergoing rebalancing"
        }
      },
      "RebalanceStarted(address,address,bool,uint256,uint256,address[],(uint256,string,bytes)[])": {
        "details": "Emitted when a rebalance is initiated using the startRebalance() function.",
        "params": {
          "auctionParameters": "Array of AuctionExecutionParams structs, containing auction parameters for each component token.",
          "componentsInvolved": "Array of addresses of the component tokens involved in the rebalance.",
          "initialPositionMultiplier": "Position multiplier when target units were calculated.",
          "isSetTokenLocked": "Indicates if the rebalance process locks the SetToken (true) or not (false).",
          "quoteAsset": "The ERC20 token that is used as a quote currency for the auctions.",
          "rebalanceDuration": "Duration of the rebalance process in seconds.",
          "setToken": "Instance of the SetToken contract that is undergoing rebalancing."
        }
      }
    },
    "kind": "dev",
    "methods": {
      "allTargetsMet(address)": {
        "details": "Checks externally if all target units for components have been met.",
        "params": {
          "_setToken": "Instance of the SetToken to be rebalanced."
        },
        "returns": {
          "_0": "bool True if all component's target units have been met; false otherwise."
        }
      },
      "bid(address,address,address,uint256,uint256,bool)": {
        "details": "ACCESS LIMITED: Only approved addresses can call this function unless isAnyoneAllowedToBid is enabled. This function is used to push the current component units closer to the target units defined in startRebalance(). Bidders specify the amount of the component they intend to buy or sell, and also specify the maximum/minimum amount of the quote asset they are willing to spend/receive. If the component amount is max uint256, the bid will fill the remaining amount to reach the target. The auction parameters, which are set by the manager, are used to determine the price of the component. Any bids that either don't move the component units towards the target, or overshoot the target, will be reverted. If protocol fees are enabled, they are collected in the token received in a bid. SELL AUCTIONS: At the start of the rebalance, sell auctions are available to be filled in their full size. BUY AUCTIONS: Buy auctions can be filled up to the amount of quote asset available in the SetToken. This means that if the SetToken does not contain the quote asset as a component, buy auctions cannot be bid on until sell auctions have been executed and there is quote asset available in the SetToken.",
        "params": {
          "_component": "The component for which the auction is to be bid on.",
          "_componentAmount": "The amount of component in the bid.",
          "_isSellAuction": "The direction of the auction expected by the bidder",
          "_quoteAsset": "The ERC20 token expected to be used as the quote asset by the bidder",
          "_quoteAssetLimit": "The maximum or minimum amount of quote asset that can be spent or received during the bid.",
          "_setToken": "The SetToken to be rebalanced."
        }
      },
      "canRaiseAssetTargets(address)": {
        "details": "Checks externally if the conditions to raise asset targets are met.",
        "params": {
          "_setToken": "The SetToken being checked."
        },
        "returns": {
          "_0": "bool True if conditions to raise asset targets are met; false otherwise."
        }
      },
      "canUnlockEarly(address)": {
        "details": "Checks externally if the conditions for early unlock are met.",
        "params": {
          "_setToken": "The SetToken being checked."
        },
        "returns": {
          "_0": "bool True if early unlock conditions are met; false otherwise."
        }
      },
      "getAllowedBidders(address)": {
        "details": "Retrieves the list of addresses that are permitted to participate in the auction by calling `bid()`.",
        "params": {
          "_setToken": "Instance of the SetToken for which to retrieve the list of allowed bidders."
        },
        "returns": {
          "_0": "address[]          Array of addresses representing the allowed bidders."
        }
      },
      "getAuctionSizeAndDirection(address,address)": {
        "details": "Calculates the quantity of a component involved in the rebalancing of the given SetToken, and determines if the component is being bought or sold.",
        "params": {
          "_component": "Instance of the IERC20 component to bid on.",
          "_setToken": "Instance of the SetToken being rebalanced."
        },
        "returns": {
          "componentQuantity": "  Quantity of the component involved in the bid.",
          "isSellAuction": "      Indicates if this is a sell auction (true) or a buy auction (false)."
        }
      },
      "getBidPreview(address,address,address,uint256,uint256,bool)": {
        "details": "Generates a preview of the bid for a given component in the rebalancing of the SetToken. It calculates the quantity of the component that will be exchanged and the direction of exchange.",
        "params": {
          "_component": "Instance of the component auction to bid on.",
          "_componentQuantity": "Quantity of the component involved in the bid.",
          "_isSellAuction": "The direction of the auction expected by the bidder",
          "_quoteAsset": "The ERC20 token expected to be used as the quote asset by the bidder",
          "_quoteQuantityLimit": "Maximum or minimum amount of quote asset spent or received during the bid.",
          "_setToken": "Instance of the SetToken being rebalanced."
        },
        "returns": {
          "_0": "BidInfo              Struct containing data for the bid."
        }
      },
      "getQuoteAssetBalance(address)": {
        "details": "Retrieves the balance of the quote asset for a given SetToken.",
        "params": {
          "_setToken": "The SetToken whose quote asset balance is being retrieved."
        },
        "returns": {
          "_0": "uint256 The balance of the quote asset."
        }
      },
      "getRebalanceComponents(address)": {
        "details": "Retrieves the array of components that are involved in the rebalancing of the given SetToken.",
        "params": {
          "_setToken": "Instance of the SetToken."
        },
        "returns": {
          "_0": "address[]   Array of component addresses involved in the rebalance."
        }
      },
      "initialize(address)": {
        "details": "MANAGER ONLY: Initializes the module for a SetToken, enabling access to AuctionModuleV1 for rebalances. Retrieves the current units for each asset in the Set and sets the targetUnit to match the current unit, effectively preventing any bidding until `startRebalance()` is explicitly called. The position multiplier is also logged to ensure that any changes to the position multiplier do not unintentionally open the Set for rebalancing.",
        "params": {
          "_setToken": "Address of the Set Token"
        }
      },
      "isAllowedBidder(address,address)": {
        "details": "Determines whether the given bidder address is allowed to participate in the auction.",
        "params": {
          "_bidder": "Address of the bidder.",
          "_setToken": "Instance of the SetToken for which the bid is being placed."
        },
        "returns": {
          "_0": "bool       True if the given `_bidder` is permitted to bid, false otherwise."
        }
      },
      "isQuoteAssetExcessOrAtTarget(address)": {
        "details": "Checks externally if the quote asset is in excess or at target.",
        "params": {
          "_setToken": "The SetToken being checked."
        },
        "returns": {
          "_0": "bool True if the quote asset is in excess or at target; false otherwise."
        }
      },
      "isRebalanceDurationElapsed(address)": {
        "details": "Checks externally if the rebalance duration has elapsed for the given SetToken.",
        "params": {
          "_setToken": "The SetToken whose rebalance duration is being checked."
        },
        "returns": {
          "_0": "bool True if the rebalance duration has elapsed; false otherwise."
        }
      },
      "raiseAssetTargets(address)": {
        "details": "ACCESS LIMITED: Increases asset targets uniformly when all target units have been met but there is remaining quote asset. Can be called multiple times if necessary. Targets are increased by the percentage specified by raiseAssetTargetsPercentage set by the manager. This helps in reducing tracking error and providing greater granularity in reaching an equilibrium between the excess quote asset and the components to be purchased. However, excessively raising targets may result in under-allocating to the quote asset as more of it is spent buying components to meet the new targets.",
        "params": {
          "_setToken": "The SetToken to be rebalanced."
        }
      },
      "removeModule()": {
        "details": "Called by a SetToken to notify that this module was removed from the SetToken. Clears the `rebalanceInfo` and `permissionsInfo` of the calling SetToken. IMPORTANT: The auction execution settings of the SetToken, including auction parameters, are NOT DELETED. Restoring a previously removed module requires careful initialization of the execution settings."
      },
      "setAnyoneBid(address,bool)": {
        "details": "MANAGER ONLY: Toggles whether or not anyone is allowed to call the `bid()` function. If set to true, it bypasses the bidAllowList, allowing any address to call the `bid()` function. The manager can call this function at any time.",
        "params": {
          "_setToken": "The SetToken instance.",
          "_status": "A boolean indicating if anyone can bid."
        }
      },
      "setBidderStatus(address,address[],bool[])": {
        "details": "MANAGER ONLY: Toggles the permission status of specified addresses to call the `bid()` function. The manager can call this function at any time.",
        "params": {
          "_bidders": "An array of addresses whose bidding permission status is to be toggled.",
          "_setToken": "The SetToken being rebalanced.",
          "_statuses": "An array of booleans indicating the new bidding permission status for each corresponding address in `_bidders`."
        }
      },
      "setRaiseTargetPercentage(address,uint256)": {
        "details": "MANAGER ONLY: Sets the percentage by which the target units for all components can be increased. Can be called at any time by the manager.",
        "params": {
          "_raiseTargetPercentage": "The percentage (in precise units) by which the target units can be increased.",
          "_setToken": "The SetToken to be rebalanced."
        }
      },
      "startRebalance(address,address,address[],(uint256,string,bytes)[],(uint256,string,bytes)[],bool,uint256,uint256)": {
        "details": "MANAGER ONLY: Initiates the rebalance process by setting target allocations for the SetToken. Opens auctions for filling by the Set's designated bidders. The function takes in new components to be added with their target units and existing components with updated target units (set to 0 if removing). A positionMultiplier is supplied to adjust target units, e.g., in cases where fee accrual affects the positionMultiplier of the SetToken, ensuring proportional allocation among components. If target allocations are not met within the specified duration, the rebalance concludes with the allocations achieved.WARNING: If rebalances don't lock the SetToken, enforce a supply cap on the SetToken to prevent front-running.",
        "params": {
          "_initialPositionMultiplier": "Position multiplier at the start of the rebalance.",
          "_newComponents": "Addresses of new components to be added.",
          "_newComponentsAuctionParams": "AuctionExecutionParams for new components, indexed corresponding to _newComponents.",
          "_oldComponentsAuctionParams": "AuctionExecutionParams for existing components, indexed corresponding to                                      the current component positions. Set to 0 for components being removed.",
          "_quoteAsset": "ERC20 token used as the quote asset in auctions.",
          "_rebalanceDuration": "Duration of the rebalance in seconds.",
          "_setToken": "The SetToken to be rebalanced.",
          "_shouldLockSetToken": "Indicates if the rebalance should lock the SetToken."
        }
      },
      "unlock(address)": {
        "details": "Unlocks the SetToken after rebalancing. Can be called once the rebalance duration has elapsed. Can only be called before the rebalance duration has elapsed if all targets are met, there is excess or at-target quote asset, and raiseTargetPercentage is zero. Resets the raiseTargetPercentage to zero.",
        "params": {
          "_setToken": "The SetToken to be unlocked."
        }
      }
    },
    "title": "AuctionRebalanceModuleV1",
    "version": 1
  },
  "userdoc": {
    "kind": "user",
    "methods": {},
    "notice": "Facilitates rebalances for index sets via single-asset auctions. Managers initiate rebalances specifying target allocations in precise units (scaled by 10^18), quote asset (e.g., WETH, USDC), auction parameters per component, and rebalance duration through startRebalance(). Bidders can participate via bid() for individual components. Excess quote asset can be managed by proportionally increasing the targets using raiseAssetTargets().",
    "version": 1
  },
  "storageLayout": {
    "storage": [
      {
        "astId": 5359,
        "contract": "contracts/modules/AuctionRebalanceModuleV1.sol:AuctionRebalanceModuleV1",
        "label": "controller",
        "offset": 0,
        "slot": "0",
        "type": "t_contract(IController)3769"
      },
      {
        "astId": 1523,
        "contract": "contracts/modules/AuctionRebalanceModuleV1.sol:AuctionRebalanceModuleV1",
        "label": "_status",
        "offset": 0,
        "slot": "1",
        "type": "t_uint256"
      },
      {
        "astId": 7099,
        "contract": "contracts/modules/AuctionRebalanceModuleV1.sol:AuctionRebalanceModuleV1",
        "label": "executionInfo",
        "offset": 0,
        "slot": "2",
        "type": "t_mapping(t_contract(ISetToken)4183,t_mapping(t_contract(IERC20)877,t_struct(AuctionExecutionParams)6942_storage))"
      },
      {
        "astId": 7105,
        "contract": "contracts/modules/AuctionRebalanceModuleV1.sol:AuctionRebalanceModuleV1",
        "label": "permissionInfo",
        "offset": 0,
        "slot": "3",
        "type": "t_mapping(t_contract(ISetToken)4183,t_struct(BidPermissionInfo)6952_storage)"
      },
      {
        "astId": 7111,
        "contract": "contracts/modules/AuctionRebalanceModuleV1.sol:AuctionRebalanceModuleV1",
        "label": "rebalanceInfo",
        "offset": 0,
        "slot": "4",
        "type": "t_mapping(t_contract(ISetToken)4183,t_struct(RebalanceInfo)6967_storage)"
      }
    ],
    "types": {
      "t_address": {
        "encoding": "inplace",
        "label": "address",
        "numberOfBytes": "20"
      },
      "t_array(t_address)dyn_storage": {
        "base": "t_address",
        "encoding": "dynamic_array",
        "label": "address[]",
        "numberOfBytes": "32"
      },
      "t_bool": {
        "encoding": "inplace",
        "label": "bool",
        "numberOfBytes": "1"
      },
      "t_bytes_storage": {
        "encoding": "bytes",
        "label": "bytes",
        "numberOfBytes": "32"
      },
      "t_contract(IController)3769": {
        "encoding": "inplace",
        "label": "contract IController",
        "numberOfBytes": "20"
      },
      "t_contract(IERC20)877": {
        "encoding": "inplace",
        "label": "contract IERC20",
        "numberOfBytes": "20"
      },
      "t_contract(ISetToken)4183": {
        "encoding": "inplace",
        "label": "contract ISetToken",
        "numberOfBytes": "20"
      },
      "t_mapping(t_address,t_bool)": {
        "encoding": "mapping",
        "key": "t_address",
        "label": "mapping(address => bool)",
        "numberOfBytes": "32",
        "value": "t_bool"
      },
      "t_mapping(t_contract(IERC20)877,t_struct(AuctionExecutionParams)6942_storage)": {
        "encoding": "mapping",
        "key": "t_contract(IERC20)877",
        "label": "mapping(contract IERC20 => struct AuctionRebalanceModuleV1.AuctionExecutionParams)",
        "numberOfBytes": "32",
        "value": "t_struct(AuctionExecutionParams)6942_storage"
      },
      "t_mapping(t_contract(ISetToken)4183,t_mapping(t_contract(IERC20)877,t_struct(AuctionExecutionParams)6942_storage))": {
        "encoding": "mapping",
        "key": "t_contract(ISetToken)4183",
        "label": "mapping(contract ISetToken => mapping(contract IERC20 => struct AuctionRebalanceModuleV1.AuctionExecutionParams))",
        "numberOfBytes": "32",
        "value": "t_mapping(t_contract(IERC20)877,t_struct(AuctionExecutionParams)6942_storage)"
      },
      "t_mapping(t_contract(ISetToken)4183,t_struct(BidPermissionInfo)6952_storage)": {
        "encoding": "mapping",
        "key": "t_contract(ISetToken)4183",
        "label": "mapping(contract ISetToken => struct AuctionRebalanceModuleV1.BidPermissionInfo)",
        "numberOfBytes": "32",
        "value": "t_struct(BidPermissionInfo)6952_storage"
      },
      "t_mapping(t_contract(ISetToken)4183,t_struct(RebalanceInfo)6967_storage)": {
        "encoding": "mapping",
        "key": "t_contract(ISetToken)4183",
        "label": "mapping(contract ISetToken => struct AuctionRebalanceModuleV1.RebalanceInfo)",
        "numberOfBytes": "32",
        "value": "t_struct(RebalanceInfo)6967_storage"
      },
      "t_string_storage": {
        "encoding": "bytes",
        "label": "string",
        "numberOfBytes": "32"
      },
      "t_struct(AuctionExecutionParams)6942_storage": {
        "encoding": "inplace",
        "label": "struct AuctionRebalanceModuleV1.AuctionExecutionParams",
        "members": [
          {
            "astId": 6937,
            "contract": "contracts/modules/AuctionRebalanceModuleV1.sol:AuctionRebalanceModuleV1",
            "label": "targetUnit",
            "offset": 0,
            "slot": "0",
            "type": "t_uint256"
          },
          {
            "astId": 6939,
            "contract": "contracts/modules/AuctionRebalanceModuleV1.sol:AuctionRebalanceModuleV1",
            "label": "priceAdapterName",
            "offset": 0,
            "slot": "1",
            "type": "t_string_storage"
          },
          {
            "astId": 6941,
            "contract": "contracts/modules/AuctionRebalanceModuleV1.sol:AuctionRebalanceModuleV1",
            "label": "priceAdapterConfigData",
            "offset": 0,
            "slot": "2",
            "type": "t_bytes_storage"
          }
        ],
        "numberOfBytes": "96"
      },
      "t_struct(BidPermissionInfo)6952_storage": {
        "encoding": "inplace",
        "label": "struct AuctionRebalanceModuleV1.BidPermissionInfo",
        "members": [
          {
            "astId": 6944,
            "contract": "contracts/modules/AuctionRebalanceModuleV1.sol:AuctionRebalanceModuleV1",
            "label": "isAnyoneAllowedToBid",
            "offset": 0,
            "slot": "0",
            "type": "t_bool"
          },
          {
            "astId": 6947,
            "contract": "contracts/modules/AuctionRebalanceModuleV1.sol:AuctionRebalanceModuleV1",
            "label": "biddersHistory",
            "offset": 0,
            "slot": "1",
            "type": "t_array(t_address)dyn_storage"
          },
          {
            "astId": 6951,
            "contract": "contracts/modules/AuctionRebalanceModuleV1.sol:AuctionRebalanceModuleV1",
            "label": "bidAllowList",
            "offset": 0,
            "slot": "2",
            "type": "t_mapping(t_address,t_bool)"
          }
        ],
        "numberOfBytes": "96"
      },
      "t_struct(RebalanceInfo)6967_storage": {
        "encoding": "inplace",
        "label": "struct AuctionRebalanceModuleV1.RebalanceInfo",
        "members": [
          {
            "astId": 6955,
            "contract": "contracts/modules/AuctionRebalanceModuleV1.sol:AuctionRebalanceModuleV1",
            "label": "quoteAsset",
            "offset": 0,
            "slot": "0",
            "type": "t_contract(IERC20)877"
          },
          {
            "astId": 6957,
            "contract": "contracts/modules/AuctionRebalanceModuleV1.sol:AuctionRebalanceModuleV1",
            "label": "rebalanceStartTime",
            "offset": 0,
            "slot": "1",
            "type": "t_uint256"
          },
          {
            "astId": 6959,
            "contract": "contracts/modules/AuctionRebalanceModuleV1.sol:AuctionRebalanceModuleV1",
            "label": "rebalanceDuration",
            "offset": 0,
            "slot": "2",
            "type": "t_uint256"
          },
          {
            "astId": 6961,
            "contract": "contracts/modules/AuctionRebalanceModuleV1.sol:AuctionRebalanceModuleV1",
            "label": "positionMultiplier",
            "offset": 0,
            "slot": "3",
            "type": "t_uint256"
          },
          {
            "astId": 6963,
            "contract": "contracts/modules/AuctionRebalanceModuleV1.sol:AuctionRebalanceModuleV1",
            "label": "raiseTargetPercentage",
            "offset": 0,
            "slot": "4",
            "type": "t_uint256"
          },
          {
            "astId": 6966,
            "contract": "contracts/modules/AuctionRebalanceModuleV1.sol:AuctionRebalanceModuleV1",
            "label": "rebalanceComponents",
            "offset": 0,
            "slot": "5",
            "type": "t_array(t_address)dyn_storage"
          }
        ],
        "numberOfBytes": "192"
      },
      "t_uint256": {
        "encoding": "inplace",
        "label": "uint256",
        "numberOfBytes": "32"
      }
    }
  }
}