{
  "address": "0xc8A857e25d54BE2C603A0497B6648CC6a317Ba1a",
  "abi": [
    {
      "inputs": [
        {
          "internalType": "contract IController",
          "name": "_controller",
          "type": "address"
        }
      ],
      "stateMutability": "nonpayable",
      "type": "constructor"
    },
    {
      "inputs": [
        {
          "internalType": "address",
          "name": "target",
          "type": "address"
        }
      ],
      "name": "AddressEmptyCode",
      "type": "error"
    },
    {
      "inputs": [
        {
          "internalType": "address",
          "name": "account",
          "type": "address"
        }
      ],
      "name": "AddressInsufficientBalance",
      "type": "error"
    },
    {
      "inputs": [],
      "name": "FailedInnerCall",
      "type": "error"
    },
    {
      "inputs": [],
      "name": "ReentrancyGuardReentrantCall",
      "type": "error"
    },
    {
      "inputs": [
        {
          "internalType": "address",
          "name": "token",
          "type": "address"
        }
      ],
      "name": "SafeERC20FailedOperation",
      "type": "error"
    },
    {
      "anonymous": false,
      "inputs": [
        {
          "indexed": true,
          "internalType": "address",
          "name": "_setToken",
          "type": "address"
        },
        {
          "indexed": true,
          "internalType": "address",
          "name": "_issuer",
          "type": "address"
        },
        {
          "indexed": true,
          "internalType": "address",
          "name": "_to",
          "type": "address"
        },
        {
          "indexed": false,
          "internalType": "address",
          "name": "_hookContract",
          "type": "address"
        },
        {
          "indexed": false,
          "internalType": "uint256",
          "name": "_quantity",
          "type": "uint256"
        }
      ],
      "name": "SetTokenIssued",
      "type": "event"
    },
    {
      "anonymous": false,
      "inputs": [
        {
          "indexed": true,
          "internalType": "address",
          "name": "_setToken",
          "type": "address"
        },
        {
          "indexed": true,
          "internalType": "address",
          "name": "_redeemer",
          "type": "address"
        },
        {
          "indexed": true,
          "internalType": "address",
          "name": "_to",
          "type": "address"
        },
        {
          "indexed": false,
          "internalType": "uint256",
          "name": "_quantity",
          "type": "uint256"
        }
      ],
      "name": "SetTokenRedeemed",
      "type": "event"
    },
    {
      "inputs": [],
      "name": "controller",
      "outputs": [
        {
          "internalType": "contract IController",
          "name": "",
          "type": "address"
        }
      ],
      "stateMutability": "view",
      "type": "function"
    },
    {
      "inputs": [
        {
          "internalType": "contract ISetToken",
          "name": "_setToken",
          "type": "address"
        },
        {
          "internalType": "uint256",
          "name": "_quantity",
          "type": "uint256"
        }
      ],
      "name": "getRequiredComponentUnitsForIssue",
      "outputs": [
        {
          "internalType": "address[]",
          "name": "",
          "type": "address[]"
        },
        {
          "internalType": "uint256[]",
          "name": "",
          "type": "uint256[]"
        }
      ],
      "stateMutability": "view",
      "type": "function"
    },
    {
      "inputs": [
        {
          "internalType": "contract ISetToken",
          "name": "_setToken",
          "type": "address"
        },
        {
          "internalType": "contract IManagerIssuanceHook",
          "name": "_preIssueHook",
          "type": "address"
        }
      ],
      "name": "initialize",
      "outputs": [],
      "stateMutability": "nonpayable",
      "type": "function"
    },
    {
      "inputs": [
        {
          "internalType": "contract ISetToken",
          "name": "_setToken",
          "type": "address"
        },
        {
          "internalType": "uint256",
          "name": "_quantity",
          "type": "uint256"
        },
        {
          "internalType": "address",
          "name": "_to",
          "type": "address"
        }
      ],
      "name": "issue",
      "outputs": [],
      "stateMutability": "nonpayable",
      "type": "function"
    },
    {
      "inputs": [
        {
          "internalType": "contract ISetToken",
          "name": "",
          "type": "address"
        }
      ],
      "name": "managerIssuanceHook",
      "outputs": [
        {
          "internalType": "contract IManagerIssuanceHook",
          "name": "",
          "type": "address"
        }
      ],
      "stateMutability": "view",
      "type": "function"
    },
    {
      "inputs": [
        {
          "internalType": "contract ISetToken",
          "name": "_setToken",
          "type": "address"
        },
        {
          "internalType": "uint256",
          "name": "_quantity",
          "type": "uint256"
        },
        {
          "internalType": "address",
          "name": "_to",
          "type": "address"
        }
      ],
      "name": "redeem",
      "outputs": [],
      "stateMutability": "nonpayable",
      "type": "function"
    },
    {
      "inputs": [],
      "name": "removeModule",
      "outputs": [],
      "stateMutability": "pure",
      "type": "function"
    }
  ],
  "transactionHash": "0x6c5295adce57fb39d07eac9ce4c3bc6d32abf9415a67d54964e37dd5a2f54a61",
  "args": [
    "0x9409Ac28260E60e26f5475526cb9F7315edddd17"
  ],
  "numDeployments": 1,
  "solcInputHash": "7fe3b69caaa6e1ae3cb624acb9fde77a",
  "bytecode": "0x6080604052348015600f57600080fd5b5060405161182a38038061182a833981016040819052602c916054565b600080546001600160a01b0319166001600160a01b0392909216919091179055600180556082565b600060208284031215606557600080fd5b81516001600160a01b0381168114607b57600080fd5b9392505050565b611799806100916000396000f3fe608060405234801561001057600080fd5b506004361061007d5760003560e01c80637a4ffd031161005b5780637a4ffd03146100bd578063847ef08d146100e7578063dfe75335146100ef578063f77c47911461013057600080fd5b8063485cc955146100825780635c833bfd146100975780636d78f47a146100aa575b600080fd5b6100956100903660046112de565b610143565b005b6100956100a5366004611317565b6101da565b6100956100b8366004611317565b610474565b6100d06100cb366004611359565b610605565b6040516100de929190611385565b60405180910390f35b6100956107f3565b6101186100fd366004611409565b6002602052600090815260409020546001600160a01b031681565b6040516001600160a01b0390911681526020016100de565b600054610118906001600160a01b031681565b813361014f8282610854565b83610159816108ae565b6001600160a01b0385811660008181526002602052604080822080546001600160a01b0319169489169490941790935582516307ff078f60e11b815292519192630ffe0f1e926004808301939282900301818387803b1580156101bb57600080fd5b505af11580156101cf573d6000803e3d6000fd5b505050505050505050565b6101e26109cc565b826101ec816109f6565b600083116102415760405162461bcd60e51b815260206004820152601b60248201527f52656465656d207175616e74697479206d757374206265203e2030000000000060448201526064015b60405180910390fd5b604051632770a7eb60e21b8152336004820152602481018490526001600160a01b03851690639dc29fac90604401600060405180830381600087803b15801561028957600080fd5b505af115801561029d573d6000803e3d6000fd5b505050506000846001600160a01b03166399d50d5d6040518163ffffffff1660e01b8152600401600060405180830381865afa1580156102e1573d6000803e3d6000fd5b505050506040513d6000823e601f3d908101601f19168201604052610309919081019061146d565b905060005b815181101561040c57600082828151811061032b5761032b61151f565b6020026020010151905061035181886001600160a01b0316610a5c90919063ffffffff16565b1561036e5760405162461bcd60e51b815260040161023890611535565b6040516366cb8d2f60e01b81526001600160a01b038281166004830152600091908916906366cb8d2f90602401602060405180830381865afa1580156103b8573d6000803e3d6000fd5b505050506040513d601f19601f820116820180604052508101906103dc9190611579565b905060006103ea8883610ada565b90506104016001600160a01b038a16848984610b00565b50505060010161030e565b50826001600160a01b0316336001600160a01b0316866001600160a01b03167f05f8aaada00823525432114f0e904c6f7c0198a5b8f113ee635ff81aaf9566ad8760405161045c91815260200190565b60405180910390a4505061046f60018055565b505050565b61047c6109cc565b82610486816109f6565b600083116104d65760405162461bcd60e51b815260206004820152601a60248201527f4973737565207175616e74697479206d757374206265203e20300000000000006044820152606401610238565b60006104e485853386610c53565b90506000806104f38787610605565b9150915060005b8251811015610549576105418382815181106105185761051861151f565b6020026020010151338a8585815181106105345761053461151f565b6020026020010151610cff565b6001016104fa565b506040516340c10f1960e01b81526001600160a01b038681166004830152602482018890528816906340c10f1990604401600060405180830381600087803b15801561059457600080fd5b505af11580156105a8573d6000803e3d6000fd5b5050604080516001600160a01b038781168252602082018b9052808a1694503393508b16917fc07f1e2fe31c4d90eae81f76d263d7995aac043a99d6ee6de9c0506047f541c2910160405180910390a45050505061046f60018055565b60608083610612816109f6565b6000856001600160a01b03166399d50d5d6040518163ffffffff1660e01b8152600401600060405180830381865afa158015610652573d6000803e3d6000fd5b505050506040513d6000823e601f3d908101601f1916820160405261067a919081019061146d565b90506000815167ffffffffffffffff81111561069857610698611426565b6040519080825280602002602001820160405280156106c1578160200160208202803683370190505b50905060005b82518110156107e6576107058382815181106106e5576106e561151f565b6020026020010151896001600160a01b0316610a5c90919063ffffffff16565b156107225760405162461bcd60e51b815260040161023890611535565b6107c187896001600160a01b03166366cb8d2f8685815181106107475761074761151f565b60200260200101516040518263ffffffff1660e01b815260040161077a91906001600160a01b0391909116815260200190565b602060405180830381865afa158015610797573d6000803e3d6000fd5b505050506040513d601f19601f820116820180604052508101906107bb9190611579565b90610d0b565b8282815181106107d3576107d361151f565b60209081029190910101526001016106c7565b5090969095509350505050565b60405162461bcd60e51b815260206004820152603060248201527f54686520426173696349737375616e63654d6f64756c65206d6f64756c65206360448201526f185b9b9bdd081899481c995b5bdd995960821b6064820152608401610238565b61085e8282610d59565b6108aa5760405162461bcd60e51b815260206004820152601c60248201527f4d7573742062652074686520536574546f6b656e206d616e61676572000000006044820152606401610238565b5050565b600054604051631d3af8fb60e21b81526001600160a01b038381166004830152909116906374ebe3ec90602401602060405180830381865afa1580156108f8573d6000803e3d6000fd5b505050506040513d601f19601f8201168201806040525081019061091c9190611592565b6109745760405162461bcd60e51b815260206004820152602360248201527f4d75737420626520636f6e74726f6c6c65722d656e61626c656420536574546f60448201526235b2b760e91b6064820152608401610238565b61097d81610dd8565b6109c95760405162461bcd60e51b815260206004820152601e60248201527f4d7573742062652070656e64696e6720696e697469616c697a6174696f6e00006044820152606401610238565b50565b6002600154036109ef57604051633ee5aeb560e01b815260040160405180910390fd5b6002600155565b6109ff81610e44565b6109c95760405162461bcd60e51b815260206004820152602860248201527f4d75737420626520612076616c696420616e6420696e697469616c697a65642060448201526729b2ba2a37b5b2b760c11b6064820152608401610238565b60405163a7bdad0360e01b81526001600160a01b038281166004830152600091829185169063a7bdad0390602401600060405180830381865afa158015610aa7573d6000803e3d6000fd5b505050506040513d6000823e601f3d908101601f19168201604052610acf919081019061146d565b511190505b92915050565b6000670de0b6b3a7640000610aef83856115ca565b610af991906115e1565b9392505050565b8015610c4d576040516370a0823160e01b81526001600160a01b038581166004830152600091908516906370a0823190602401602060405180830381865afa158015610b50573d6000803e3d6000fd5b505050506040513d601f19601f82011682018060405250810190610b749190611579565b9050610b8285858585610ee6565b6040516370a0823160e01b81526001600160a01b038681166004830152600091908616906370a0823190602401602060405180830381865afa158015610bcc573d6000803e3d6000fd5b505050506040513d601f19601f82011682018060405250810190610bf09190611579565b9050610bfc8383611603565b8114610c4a5760405162461bcd60e51b815260206004820152601d60248201527f496e76616c696420706f7374207472616e736665722062616c616e63650000006044820152606401610238565b50505b50505050565b6001600160a01b038085166000908152600260205260408120549091168015610cf15760405163a045808360e01b81526001600160a01b038781166004830152602482018790528581166044830152848116606483015282169063a045808390608401600060405180830381600087803b158015610cd057600080fd5b505af1158015610ce4573d6000803e3d6000fd5b5050505080915050610cf7565b60009150505b949350505050565b610c4d84848484611012565b6000821580610d18575081155b15610d2557506000610ad4565b670de0b6b3a76400006001610d3a84866115ca565b610d449190611603565b610d4e91906115e1565b610af9906001611616565b6000816001600160a01b0316836001600160a01b031663481c6a756040518163ffffffff1660e01b8152600401602060405180830381865afa158015610da3573d6000803e3d6000fd5b505050506040513d601f19601f82011682018060405250810190610dc79190611629565b6001600160a01b0316149392505050565b6040516353bae5f760e01b81523060048201526000906001600160a01b038316906353bae5f7906024015b602060405180830381865afa158015610e20573d6000803e3d6000fd5b505050506040513d601f19601f82011682018060405250810190610ad49190611592565b60008054604051631d3af8fb60e21b81526001600160a01b038481166004830152909116906374ebe3ec90602401602060405180830381865afa158015610e8f573d6000803e3d6000fd5b505050506040513d601f19601f82011682018060405250810190610eb39190611592565b8015610ad457506040516335fc6c9f60e21b81523060048201526001600160a01b0383169063d7f1b27c90602401610e03565b8015610c4d576040516001600160a01b03831660248201526044810182905260009060640160408051601f198184030181529181526020820180516001600160e01b031663a9059cbb60e01b179052516347b7819960e11b81529091506000906001600160a01b03871690638f6f033290610f699088908590879060040161166a565b6000604051808303816000875af1158015610f88573d6000803e3d6000fd5b505050506040513d6000823e601f3d908101601f19168201604052610fb091908101906116b3565b805190915015610c4a5780806020019051810190610fce9190611592565b610c4a5760405162461bcd60e51b8152602060048201526015602482015274115490cc8c081d1c985b9cd9995c8819985a5b1959605a1b6044820152606401610238565b8015610c4d576040516370a0823160e01b81526001600160a01b038381166004830152600091908616906370a0823190602401602060405180830381865afa158015611062573d6000803e3d6000fd5b505050506040513d601f19601f820116820180604052508101906110869190611579565b90506110948585858561110e565b6040516370a0823160e01b81526001600160a01b038481166004830152600091908716906370a0823190602401602060405180830381865afa1580156110de573d6000803e3d6000fd5b505050506040513d601f19601f820116820180604052508101906111029190611579565b9050610bfc8383611616565b604080516001600160a01b038581166024830152848116604483015260648083018590528351808403909101815260849092019092526020810180516001600160e01b03166323b872dd60e01b179052610c4d91869190600090611174908416836111c2565b905080516000141580156111995750808060200190518101906111979190611592565b155b1561046f57604051635274afe760e01b81526001600160a01b0384166004820152602401610238565b6060610af98383600084600080856001600160a01b031684866040516111e89190611747565b60006040518083038185875af1925050503d8060008114611225576040519150601f19603f3d011682016040523d82523d6000602084013e61122a565b606091505b509150915061123a868383611244565b9695505050505050565b60608261125957611254826112a0565b610af9565b815115801561127057506001600160a01b0384163b155b1561129957604051639996b31560e01b81526001600160a01b0385166004820152602401610238565b5080610af9565b8051156112b05780518082602001fd5b604051630a12f52160e11b815260040160405180910390fd5b6001600160a01b03811681146109c957600080fd5b600080604083850312156112f157600080fd5b82356112fc816112c9565b9150602083013561130c816112c9565b809150509250929050565b60008060006060848603121561132c57600080fd5b8335611337816112c9565b925060208401359150604084013561134e816112c9565b809150509250925092565b6000806040838503121561136c57600080fd5b8235611377816112c9565b946020939093013593505050565b604080825283519082018190526000906020906060840190828701845b828110156113c75781516001600160a01b0316845292840192908401906001016113a2565b5050508381038285015284518082528583019183019060005b818110156113fc578351835292840192918401916001016113e0565b5090979650505050505050565b60006020828403121561141b57600080fd5b8135610af9816112c9565b634e487b7160e01b600052604160045260246000fd5b604051601f8201601f1916810167ffffffffffffffff8111828210171561146557611465611426565b604052919050565b6000602080838503121561148057600080fd5b825167ffffffffffffffff8082111561149857600080fd5b818501915085601f8301126114ac57600080fd5b8151818111156114be576114be611426565b8060051b91506114cf84830161143c565b81815291830184019184810190888411156114e957600080fd5b938501935b838510156115135784519250611503836112c9565b82825293850193908501906114ee565b98975050505050505050565b634e487b7160e01b600052603260045260246000fd5b60208082526024908201527f4f6e6c792064656661756c7420706f736974696f6e732061726520737570706f6040820152631c9d195960e21b606082015260800190565b60006020828403121561158b57600080fd5b5051919050565b6000602082840312156115a457600080fd5b81518015158114610af957600080fd5b634e487b7160e01b600052601160045260246000fd5b8082028115828204841417610ad457610ad46115b4565b6000826115fe57634e487b7160e01b600052601260045260246000fd5b500490565b81810381811115610ad457610ad46115b4565b80820180821115610ad457610ad46115b4565b60006020828403121561163b57600080fd5b8151610af9816112c9565b60005b83811015611661578181015183820152602001611649565b50506000910152565b60018060a01b0384168152826020820152606060408201526000825180606084015261169d816080850160208701611646565b601f01601f191691909101608001949350505050565b6000602082840312156116c557600080fd5b815167ffffffffffffffff808211156116dd57600080fd5b818401915084601f8301126116f157600080fd5b81518181111561170357611703611426565b611716601f8201601f191660200161143c565b915080825285602082850101111561172d57600080fd5b61173e816020840160208601611646565b50949350505050565b60008251611759818460208701611646565b919091019291505056fea264697066735822122065011aa87ec9e068b6e0f664e59d0c2517efbae1b60f0e0b19dce78b343486c264736f6c63430008190033",
  "devdoc": {
    "errors": {
      "AddressEmptyCode(address)": [
        {
          "details": "There's no code at `target` (it is not a contract)."
        }
      ],
      "AddressInsufficientBalance(address)": [
        {
          "details": "The ETH balance of the account is not enough to perform the operation."
        }
      ],
      "FailedInnerCall()": [
        {
          "details": "A call to an address target failed. The target may have reverted."
        }
      ],
      "ReentrancyGuardReentrantCall()": [
        {
          "details": "Unauthorized reentrant call."
        }
      ],
      "SafeERC20FailedOperation(address)": [
        {
          "details": "An operation with an ERC20 token failed."
        }
      ]
    },
    "kind": "dev",
    "methods": {
      "constructor": {
        "params": {
          "_controller": "Address of controller contract"
        }
      },
      "getRequiredComponentUnitsForIssue(address,uint256)": {
        "params": {
          "_quantity": "Quantity of SetToken to issue",
          "_setToken": "Instance of the SetToken to issue"
        },
        "returns": {
          "_0": "address[]            List of component addresses",
          "_1": "uint256[]            List of component units required to issue the quantity of SetTokens"
        }
      },
      "initialize(address,address)": {
        "params": {
          "_preIssueHook": "Instance of the Manager Contract with the Pre-Issuance Hook function",
          "_setToken": "Instance of the SetToken to issue"
        }
      },
      "issue(address,uint256,address)": {
        "params": {
          "_quantity": "Quantity of the SetToken to mint",
          "_setToken": "Instance of the SetToken contract",
          "_to": "Address to mint SetToken to"
        }
      },
      "redeem(address,uint256,address)": {
        "params": {
          "_quantity": "Quantity of the SetToken to redeem",
          "_setToken": "Instance of the SetToken contract",
          "_to": "Address to send component assets to"
        }
      }
    },
    "title": "BasicIssuanceModule Module that enables issuance and redemption functionality on a SetToken. This is a module that is required to bring the totalSupply of a Set above 0.",
    "version": 1
  },
  "userdoc": {
    "kind": "user",
    "methods": {
      "constructor": {
        "notice": "Set state controller state variable"
      },
      "getRequiredComponentUnitsForIssue(address,uint256)": {
        "notice": "Retrieves the addresses and units required to mint a particular quantity of SetToken."
      },
      "initialize(address,address)": {
        "notice": "Initializes this module to the SetToken with issuance-related hooks. Only callable by the SetToken's manager. Hook addresses are optional. Address(0) means that no hook will be called"
      },
      "issue(address,uint256,address)": {
        "notice": "Deposits the SetToken's position components into the SetToken and mints the SetToken of the given quantity to the specified _to address. This function only handles Default Positions (positionState = 0)."
      },
      "redeem(address,uint256,address)": {
        "notice": "Redeems the SetToken's positions and sends the components of the given quantity to the caller. This function only handles Default Positions (positionState = 0)."
      },
      "removeModule()": {
        "notice": "Reverts as this module should not be removable after added. Users should always have a way to redeem their Sets"
      }
    },
    "version": 1
  },
  "storageLayout": {
    "storage": [
      {
        "astId": 5359,
        "contract": "contracts/modules/BasicIssuanceModule.sol:BasicIssuanceModule",
        "label": "controller",
        "offset": 0,
        "slot": "0",
        "type": "t_contract(IController)3769"
      },
      {
        "astId": 1523,
        "contract": "contracts/modules/BasicIssuanceModule.sol:BasicIssuanceModule",
        "label": "_status",
        "offset": 0,
        "slot": "1",
        "type": "t_uint256"
      },
      {
        "astId": 9375,
        "contract": "contracts/modules/BasicIssuanceModule.sol:BasicIssuanceModule",
        "label": "managerIssuanceHook",
        "offset": 0,
        "slot": "2",
        "type": "t_mapping(t_contract(ISetToken)4183,t_contract(IManagerIssuanceHook)3869)"
      }
    ],
    "types": {
      "t_contract(IController)3769": {
        "encoding": "inplace",
        "label": "contract IController",
        "numberOfBytes": "20"
      },
      "t_contract(IManagerIssuanceHook)3869": {
        "encoding": "inplace",
        "label": "contract IManagerIssuanceHook",
        "numberOfBytes": "20"
      },
      "t_contract(ISetToken)4183": {
        "encoding": "inplace",
        "label": "contract ISetToken",
        "numberOfBytes": "20"
      },
      "t_mapping(t_contract(ISetToken)4183,t_contract(IManagerIssuanceHook)3869)": {
        "encoding": "mapping",
        "key": "t_contract(ISetToken)4183",
        "label": "mapping(contract ISetToken => contract IManagerIssuanceHook)",
        "numberOfBytes": "32",
        "value": "t_contract(IManagerIssuanceHook)3869"
      },
      "t_uint256": {
        "encoding": "inplace",
        "label": "uint256",
        "numberOfBytes": "32"
      }
    }
  }
}