{
  "address": "0xB1c27867857C095f26929E10D2Ad02718e00fCF4",
  "abi": [
    {
      "inputs": [
        {
          "internalType": "uint256",
          "name": "_initialPrice",
          "type": "uint256"
        },
        {
          "internalType": "uint256",
          "name": "_scalingFactor",
          "type": "uint256"
        },
        {
          "internalType": "uint256",
          "name": "_timeCoefficient",
          "type": "uint256"
        },
        {
          "internalType": "uint256",
          "name": "_bucketSize",
          "type": "uint256"
        },
        {
          "internalType": "uint256",
          "name": "_maxPrice",
          "type": "uint256"
        },
        {
          "internalType": "uint256",
          "name": "_minPrice",
          "type": "uint256"
        }
      ],
      "name": "areParamsValid",
      "outputs": [
        {
          "internalType": "bool",
          "name": "",
          "type": "bool"
        }
      ],
      "stateMutability": "pure",
      "type": "function"
    },
    {
      "inputs": [
        {
          "internalType": "bytes",
          "name": "_data",
          "type": "bytes"
        }
      ],
      "name": "getDecodedData",
      "outputs": [
        {
          "internalType": "uint256",
          "name": "initialPrice",
          "type": "uint256"
        },
        {
          "internalType": "uint256",
          "name": "scalingFactor",
          "type": "uint256"
        },
        {
          "internalType": "uint256",
          "name": "timeCoefficient",
          "type": "uint256"
        },
        {
          "internalType": "uint256",
          "name": "bucketSize",
          "type": "uint256"
        },
        {
          "internalType": "bool",
          "name": "isDecreasing",
          "type": "bool"
        },
        {
          "internalType": "uint256",
          "name": "maxPrice",
          "type": "uint256"
        },
        {
          "internalType": "uint256",
          "name": "minPrice",
          "type": "uint256"
        }
      ],
      "stateMutability": "pure",
      "type": "function"
    },
    {
      "inputs": [
        {
          "internalType": "uint256",
          "name": "_initialPrice",
          "type": "uint256"
        },
        {
          "internalType": "uint256",
          "name": "_scalingFactor",
          "type": "uint256"
        },
        {
          "internalType": "uint256",
          "name": "_timeCoefficient",
          "type": "uint256"
        },
        {
          "internalType": "uint256",
          "name": "_bucketSize",
          "type": "uint256"
        },
        {
          "internalType": "bool",
          "name": "_isDecreasing",
          "type": "bool"
        },
        {
          "internalType": "uint256",
          "name": "_maxPrice",
          "type": "uint256"
        },
        {
          "internalType": "uint256",
          "name": "_minPrice",
          "type": "uint256"
        }
      ],
      "name": "getEncodedData",
      "outputs": [
        {
          "internalType": "bytes",
          "name": "data",
          "type": "bytes"
        }
      ],
      "stateMutability": "pure",
      "type": "function"
    },
    {
      "inputs": [
        {
          "internalType": "address",
          "name": "",
          "type": "address"
        },
        {
          "internalType": "address",
          "name": "",
          "type": "address"
        },
        {
          "internalType": "uint256",
          "name": "",
          "type": "uint256"
        },
        {
          "internalType": "uint256",
          "name": "_timeElapsed",
          "type": "uint256"
        },
        {
          "internalType": "uint256",
          "name": "",
          "type": "uint256"
        },
        {
          "internalType": "bytes",
          "name": "_priceAdapterConfigData",
          "type": "bytes"
        }
      ],
      "name": "getPrice",
      "outputs": [
        {
          "internalType": "uint256",
          "name": "price",
          "type": "uint256"
        }
      ],
      "stateMutability": "pure",
      "type": "function"
    },
    {
      "inputs": [
        {
          "internalType": "bytes",
          "name": "_priceAdapterConfigData",
          "type": "bytes"
        }
      ],
      "name": "isPriceAdapterConfigDataValid",
      "outputs": [
        {
          "internalType": "bool",
          "name": "isValid",
          "type": "bool"
        }
      ],
      "stateMutability": "pure",
      "type": "function"
    }
  ],
  "transactionHash": "0x10bd255fa53aa661cb3eb34e3dde98234823fec88b662208ccf70dd2ea0081ad",
  "args": [],
  "numDeployments": 1,
  "solcInputHash": "7fe3b69caaa6e1ae3cb624acb9fde77a",
  "bytecode": "0x6080604052348015600f57600080fd5b50610a3b8061001f6000396000f3fe608060405234801561001057600080fd5b50600436106100575760003560e01c8063079f6bf41461005c578063104b9b6414610084578063777f4126146100a5578063a45f8c07146100b8578063d3516db614610120575b600080fd5b61006f61006a366004610735565b61016a565b60405190151581526020015b60405180910390f35b610097610092366004610786565b6101a5565b60405190815260200161007b565b61006f6100b3366004610800565b6103ab565b6101136100c6366004610854565b6040805160208101989098528781019690965260608701949094526080860192909252151560a085015260c084015260e08084019190915281518084039091018152610100909201905290565b60405161007b91906108b3565b61013361012e366004610735565b6103f7565b6040805197885260208801969096529486019390935260608501919091521515608084015260a083015260c082015260e00161007b565b600080600080600080600061017e886103f7565b965096505095509550955095506101998686868686866103ab565b98975050505050505050565b6000806000806000806000806101ba896103f7565b96509650965096509650965096506101d68787878786866103ab565b6102455760405162461bcd60e51b815260206004820152603660248201527f426f756e64656453746570776973654c6f6761726974686d69635072696365416044820152756461707465723a20496e76616c696420706172616d7360501b606482015260840160405180910390fd5b6000610251858d610918565b9050610264866001600160ff1b03610918565b8111156102855761027684848461042d565b985050505050505050506103a1565b6000610291878361093a565b90506001600160fe1b038113156102bd576102ad85858561042d565b99505050505050505050506103a1565b60006102d96102d4670de0b6b3a764000084610957565b610444565b90506102e789600019610918565b81111561030a576102f986868661042d565b9a50505050505050505050506103a1565b60006103168a83610664565b90508615610363578a81111561033957849b5050505050505050505050506103a1565b610351610346828d61097f565b868110818818021890565b9b5050505050505050505050506103a1565b61036f8b60001961097f565b81111561038957859b5050505050505050505050506103a1565b610351610396828d610992565b878111818918021890565b9695505050505050565b600080871180156103bc5750600086115b80156103c85750600085115b80156103d45750600084115b80156103e05750828711155b80156103ec5750818710155b979650505050505050565b60008060008060008060008780602001905181019061041691906109a5565b959e949d50929b5090995097509550909350915050565b60008361043a578261043c565b815b949350505050565b6fffffffffffffffffffffffffffffffff811160071b81811c67ffffffffffffffff1060061b1781811c63ffffffff1060051b1781811c61ffff1060041b1781811c60ff1060031b17600082136104a357631615e6386000526004601cfd5b7ff8f9f9faf9fdfafbf9fdfcfdfafbfcfef9fafdfafcfcfbfefafafcfbffffffff6f8421084210842108cc6318c6db6d54be83831c1c601f161a1890811b609f90811c6c465772b2bbbb5f824b15207a3081018102606090811d6d0388eaa27412d5aca026815d636e018202811d6d0df99ac502031bf953eff472fdcc018202811d6d13cdffb29d51d99322bdff5f2211018202811d6d0a0f742023def783a307a986912e018202811d6d01920d8043ca89b5239253284e42018202811d6c0b7a86d7375468fac667a0a527016c29508e458543d8aa4df2abee7883018302821d6d0139601a2efabe717e604cbb4894018302821d6d02247f7a7b6594320649aa03aba1018302821d6c8c3f38e95a6b1ff2ab1c3b343619018302821d6d02384773bdf1ac5676facced60901901830290911d6cb9a025d814b29c212b8b1a07cd1901909102780a09507084cc699bb0e71ea869ffffffffffffffffffffffff190105711340daa0d5f769dba1915cef59f0815a5506029190037d0267a36c0c95b3975ab3ee5b203a7614a3f75373f047d803ae7b6687f2b302017d57115e47018c7177eebf7cd370a3356a1b7863008a5ae8028c72b88642840160ae1d90565b6000816000190483118202156106825763bac65e5b6000526004601cfd5b50670de0b6b3a764000091020490565b634e487b7160e01b600052604160045260246000fd5b600082601f8301126106b957600080fd5b813567ffffffffffffffff808211156106d4576106d4610692565b604051601f8301601f19908116603f011681019082821181831017156106fc576106fc610692565b8160405283815286602085880101111561071557600080fd5b836020870160208301376000602085830101528094505050505092915050565b60006020828403121561074757600080fd5b813567ffffffffffffffff81111561075e57600080fd5b61043c848285016106a8565b80356001600160a01b038116811461078157600080fd5b919050565b60008060008060008060c0878903121561079f57600080fd5b6107a88761076a565b95506107b66020880161076a565b945060408701359350606087013592506080870135915060a087013567ffffffffffffffff8111156107e757600080fd5b6107f389828a016106a8565b9150509295509295509295565b60008060008060008060c0878903121561081957600080fd5b505084359660208601359650604086013595606081013595506080810135945060a0013592509050565b801515811461085157600080fd5b50565b600080600080600080600060e0888a03121561086f57600080fd5b87359650602088013595506040880135945060608801359350608088013561089681610843565b9699959850939692959460a0840135945060c09093013592915050565b60006020808352835180602085015260005b818110156108e1578581018301518582016040015282016108c5565b506000604082860101526040601f19601f8301168501019250505092915050565b634e487b7160e01b600052601160045260246000fd5b60008261093557634e487b7160e01b600052601260045260246000fd5b500490565b808202811582820484141761095157610951610902565b92915050565b808201828112600083128015821682158216171561097757610977610902565b505092915050565b8181038181111561095157610951610902565b8082018082111561095157610951610902565b600080600080600080600060e0888a0312156109c057600080fd5b8751965060208801519550604088015194506060880151935060808801516109e781610843565b8093505060a0880151915060c088015190509295989194975092955056fea2646970667358221220976a19960933fbdeb7eb61369dcb469f69f22a1a041b75df35ace9d0dbc66cc164736f6c63430008190033",
  "devdoc": {
    "kind": "dev",
    "methods": {
      "areParamsValid(uint256,uint256,uint256,uint256,uint256,uint256)": {
        "details": "Returns true if the price adapter parameters are valid.",
        "params": {
          "_bucketSize": "Time elapsed between each bucket",
          "_initialPrice": "Initial price of the auction",
          "_maxPrice": "Maximum price of the auction",
          "_minPrice": "Minimum price of the auction",
          "_scalingFactor": "Scaling factor for logarithmic expression",
          "_timeCoefficient": "Scaling factor for logarithmic argument"
        }
      },
      "getDecodedData(bytes)": {
        "details": "Decodes the parameters from the provided bytes.",
        "params": {
          "_data": "Bytes encoded auction parameters"
        },
        "returns": {
          "bucketSize": "         Time elapsed between each bucket",
          "initialPrice": "       Initial price of the auction",
          "isDecreasing": "       Flag for whether the price is decreasing or increasing",
          "maxPrice": "           Maximum price of the auction",
          "minPrice": "           Minimum price of the auction",
          "scalingFactor": "      Scaling factor for logarithmic expression",
          "timeCoefficient": "    Scaling factor for logarithmic argument"
        }
      },
      "getEncodedData(uint256,uint256,uint256,uint256,bool,uint256,uint256)": {
        "details": "Returns the encoded data for the price curve parameters",
        "params": {
          "_bucketSize": "Time elapsed between each bucket",
          "_initialPrice": "Initial price of the auction",
          "_isDecreasing": "Flag for whether the price is decreasing or increasing",
          "_maxPrice": "Maximum price of the auction",
          "_minPrice": "Minimum price of the auction",
          "_scalingFactor": "Scaling factor for logarithmic expression",
          "_timeCoefficient": "Scaling factor for logarithmic argument"
        }
      },
      "getPrice(address,address,uint256,uint256,uint256,bytes)": {
        "details": "Calculates and returns the logarithmic price.",
        "params": {
          "_priceAdapterConfigData": "Encoded bytes representing the logarithmic function parameters.",
          "_timeElapsed": "Time elapsed since the start of the auction."
        },
        "returns": {
          "price": "                   The price calculated using the logarithmic function."
        }
      },
      "isPriceAdapterConfigDataValid(bytes)": {
        "details": "Returns true if the price adapter is valid for the given parameters.",
        "params": {
          "_priceAdapterConfigData": "Encoded data for configuring the price adapter."
        },
        "returns": {
          "isValid": "                 Boolean indicating if the adapter config data is valid."
        }
      }
    },
    "title": "BoundedStepwiseLogarithmicPriceAdapter",
    "version": 1
  },
  "userdoc": {
    "kind": "user",
    "methods": {},
    "notice": "Price adapter contract for the AuctionRebalanceModuleV1. It returns a price that increases or decreases logarithmically in steps over time, within a bounded range. The rate of change is decreasing. Price formula: price = initialPrice +/- scalingFactor * ln(timeCoefficient * timeBucket)",
    "version": 1
  },
  "storageLayout": {
    "storage": [],
    "types": null
  }
}