{
  "address": "0xaaF93f789809694b7e4acB378b24bEab52cD412c",
  "abi": [
    {
      "inputs": [
        {
          "internalType": "uint256",
          "name": "_initialPrice",
          "type": "uint256"
        },
        {
          "internalType": "uint256",
          "name": "_slope",
          "type": "uint256"
        },
        {
          "internalType": "uint256",
          "name": "_bucketSize",
          "type": "uint256"
        },
        {
          "internalType": "uint256",
          "name": "_maxPrice",
          "type": "uint256"
        },
        {
          "internalType": "uint256",
          "name": "_minPrice",
          "type": "uint256"
        }
      ],
      "name": "areParamsValid",
      "outputs": [
        {
          "internalType": "bool",
          "name": "",
          "type": "bool"
        }
      ],
      "stateMutability": "pure",
      "type": "function"
    },
    {
      "inputs": [
        {
          "internalType": "bytes",
          "name": "_data",
          "type": "bytes"
        }
      ],
      "name": "getDecodedData",
      "outputs": [
        {
          "internalType": "uint256",
          "name": "initialPrice",
          "type": "uint256"
        },
        {
          "internalType": "uint256",
          "name": "slope",
          "type": "uint256"
        },
        {
          "internalType": "uint256",
          "name": "bucketSize",
          "type": "uint256"
        },
        {
          "internalType": "bool",
          "name": "isDecreasing",
          "type": "bool"
        },
        {
          "internalType": "uint256",
          "name": "maxPrice",
          "type": "uint256"
        },
        {
          "internalType": "uint256",
          "name": "minPrice",
          "type": "uint256"
        }
      ],
      "stateMutability": "pure",
      "type": "function"
    },
    {
      "inputs": [
        {
          "internalType": "uint256",
          "name": "_initialPrice",
          "type": "uint256"
        },
        {
          "internalType": "uint256",
          "name": "_slope",
          "type": "uint256"
        },
        {
          "internalType": "uint256",
          "name": "_bucketSize",
          "type": "uint256"
        },
        {
          "internalType": "bool",
          "name": "_isDecreasing",
          "type": "bool"
        },
        {
          "internalType": "uint256",
          "name": "_maxPrice",
          "type": "uint256"
        },
        {
          "internalType": "uint256",
          "name": "_minPrice",
          "type": "uint256"
        }
      ],
      "name": "getEncodedData",
      "outputs": [
        {
          "internalType": "bytes",
          "name": "data",
          "type": "bytes"
        }
      ],
      "stateMutability": "pure",
      "type": "function"
    },
    {
      "inputs": [
        {
          "internalType": "address",
          "name": "",
          "type": "address"
        },
        {
          "internalType": "address",
          "name": "",
          "type": "address"
        },
        {
          "internalType": "uint256",
          "name": "",
          "type": "uint256"
        },
        {
          "internalType": "uint256",
          "name": "_timeElapsed",
          "type": "uint256"
        },
        {
          "internalType": "uint256",
          "name": "",
          "type": "uint256"
        },
        {
          "internalType": "bytes",
          "name": "_priceAdapterConfigData",
          "type": "bytes"
        }
      ],
      "name": "getPrice",
      "outputs": [
        {
          "internalType": "uint256",
          "name": "price",
          "type": "uint256"
        }
      ],
      "stateMutability": "pure",
      "type": "function"
    },
    {
      "inputs": [
        {
          "internalType": "bytes",
          "name": "_priceAdapterConfigData",
          "type": "bytes"
        }
      ],
      "name": "isPriceAdapterConfigDataValid",
      "outputs": [
        {
          "internalType": "bool",
          "name": "isValid",
          "type": "bool"
        }
      ],
      "stateMutability": "pure",
      "type": "function"
    }
  ],
  "transactionHash": "0x751f5bd1d878c9fb92de6e91cd4a352ebeb8fcecaccbd961f726e02a29940661",
  "args": [],
  "numDeployments": 1,
  "solcInputHash": "7fe3b69caaa6e1ae3cb624acb9fde77a",
  "bytecode": "0x6080604052348015600f57600080fd5b506106d18061001f6000396000f3fe608060405234801561001057600080fd5b50600436106100575760003560e01c8063079f6bf41461005c578063104b9b641461008457806363dc2e6b146100a5578063bf160e2514610105578063d3516db614610118575b600080fd5b61006f61006a36600461040a565b61015a565b60405190151581526020015b60405180910390f35b610097610092366004610463565b61018f565b60405190815260200161007b565b6100f86100b33660046104ee565b604080516020810197909752868101959095526060860193909352901515608085015260a084015260c0808401919091528151808403909101815260e0909201905290565b60405161007b9190610541565b61006f610113366004610590565b6102fa565b61012b61012636600461040a565b610336565b6040805196875260208701959095529385019290925215156060840152608083015260a082015260c00161007b565b60008060008060008061016c87610336565b955095505094509450945061018485858585856102fa565b979650505050505050565b60008060008060008060006101a388610336565b9550955095509550955095506101bc86868685856102fa565b6102265760405162461bcd60e51b815260206004820152603160248201527f426f756e64656453746570776973654c696e6561725072696365416461707465604482015270723a20496e76616c696420706172616d7360781b606482015260840160405180910390fd5b6000610232858c6105e1565b9050610240866000196105e1565b81111561026257836102525782610254565b815b9750505050505050506102f0565b600061026e8783610603565b905084156102b5578781111561028e5782985050505050505050506102f0565b6102a661029b828a610620565b848110818618021890565b985050505050505050506102f0565b6102c188600019610620565b8111156102d85783985050505050505050506102f0565b6102a66102e5828a610633565b858111818718021890565b9695505050505050565b6000808611801561030b5750600085115b80156103175750600084115b80156103235750828611155b80156102f0575050909310159392505050565b600080600080600080868060200190518101906103539190610646565b949c939b5091995097509550909350915050565b634e487b7160e01b600052604160045260246000fd5b600082601f83011261038e57600080fd5b813567ffffffffffffffff808211156103a9576103a9610367565b604051601f8301601f19908116603f011681019082821181831017156103d1576103d1610367565b816040528381528660208588010111156103ea57600080fd5b836020870160208301376000602085830101528094505050505092915050565b60006020828403121561041c57600080fd5b813567ffffffffffffffff81111561043357600080fd5b61043f8482850161037d565b949350505050565b80356001600160a01b038116811461045e57600080fd5b919050565b60008060008060008060c0878903121561047c57600080fd5b61048587610447565b955061049360208801610447565b945060408701359350606087013592506080870135915060a087013567ffffffffffffffff8111156104c457600080fd5b6104d089828a0161037d565b9150509295509295509295565b80151581146104eb57600080fd5b50565b60008060008060008060c0878903121561050757600080fd5b8635955060208701359450604087013593506060870135610527816104dd565b9598949750929560808101359460a0909101359350915050565b60006020808352835180602085015260005b8181101561056f57858101830151858201604001528201610553565b506000604082860101526040601f19601f8301168501019250505092915050565b600080600080600060a086880312156105a857600080fd5b505083359560208501359550604085013594606081013594506080013592509050565b634e487b7160e01b600052601160045260246000fd5b6000826105fe57634e487b7160e01b600052601260045260246000fd5b500490565b808202811582820484141761061a5761061a6105cb565b92915050565b8181038181111561061a5761061a6105cb565b8082018082111561061a5761061a6105cb565b60008060008060008060c0878903121561065f57600080fd5b865195506020870151945060408701519350606087015161067f816104dd565b809350506080870151915060a08701519050929550929550929556fea26469706673582212208c4a7fa1ec48ac964a2a1596ed1a15ce11ce0e918bc63a6ff58d40556762e25564736f6c63430008190033",
  "devdoc": {
    "kind": "dev",
    "methods": {
      "areParamsValid(uint256,uint256,uint256,uint256,uint256)": {
        "details": "Returns true if the price adapter parameters are valid.",
        "params": {
          "_bucketSize": "Time elapsed between each bucket",
          "_initialPrice": "Initial price of the auction",
          "_maxPrice": "Maximum price of the auction",
          "_minPrice": "Minimum price of the auction"
        }
      },
      "getDecodedData(bytes)": {
        "details": "Decodes the parameters from the provided bytes.",
        "params": {
          "_data": "Bytes encoded auction parameters"
        },
        "returns": {
          "bucketSize": "    Time elapsed between each bucket",
          "initialPrice": "  Initial price of the auction",
          "isDecreasing": "  Flag for whether the price is decreasing or increasing",
          "maxPrice": "      Maximum price of the auction",
          "minPrice": "      Minimum price of the auction",
          "slope": "         Slope of the linear price change"
        }
      },
      "getEncodedData(uint256,uint256,uint256,bool,uint256,uint256)": {
        "details": "Returns the encoded data for the price curve parameters",
        "params": {
          "_bucketSize": "Time elapsed between each bucket",
          "_initialPrice": "Initial price of the auction",
          "_isDecreasing": "Flag for whether the price is decreasing or increasing",
          "_maxPrice": "Maximum price of the auction",
          "_minPrice": "Minimum price of the auction",
          "_slope": "Slope of the linear price change"
        }
      },
      "getPrice(address,address,uint256,uint256,uint256,bytes)": {
        "details": "Calculates and returns the linear price.",
        "params": {
          "_priceAdapterConfigData": "Encoded bytes representing the linear function parameters.",
          "_timeElapsed": "Time elapsed since the start of the auction."
        },
        "returns": {
          "price": "                   The price calculated using the linear function."
        }
      },
      "isPriceAdapterConfigDataValid(bytes)": {
        "details": "Returns true if the price adapter is valid for the given parameters.",
        "params": {
          "_priceAdapterConfigData": "Encoded data for configuring the price adapter."
        },
        "returns": {
          "isValid": "                 Boolean indicating if the adapter config data is valid."
        }
      }
    },
    "title": "BoundedStepwiseLinearPriceAdapter",
    "version": 1
  },
  "userdoc": {
    "kind": "user",
    "methods": {},
    "notice": "Price adapter contract for the AuctionRebalanceModuleV1. It returns a price that increases or decreases linearly in steps over time, within a bounded range. The rate of change is constant. Price formula: price = initialPrice +/- slope * timeBucket",
    "version": 1
  },
  "storageLayout": {
    "storage": [],
    "types": null
  }
}