{
  "address": "0x7420c82F19028b0ca3210E154Bb0a886C4c79829",
  "abi": [
    {
      "inputs": [
        {
          "internalType": "bytes",
          "name": "_data",
          "type": "bytes"
        }
      ],
      "name": "getDecodedData",
      "outputs": [
        {
          "internalType": "uint256",
          "name": "",
          "type": "uint256"
        }
      ],
      "stateMutability": "pure",
      "type": "function"
    },
    {
      "inputs": [
        {
          "internalType": "uint256",
          "name": "_price",
          "type": "uint256"
        }
      ],
      "name": "getEncodedData",
      "outputs": [
        {
          "internalType": "bytes",
          "name": "",
          "type": "bytes"
        }
      ],
      "stateMutability": "pure",
      "type": "function"
    },
    {
      "inputs": [
        {
          "internalType": "address",
          "name": "",
          "type": "address"
        },
        {
          "internalType": "address",
          "name": "",
          "type": "address"
        },
        {
          "internalType": "uint256",
          "name": "",
          "type": "uint256"
        },
        {
          "internalType": "uint256",
          "name": "",
          "type": "uint256"
        },
        {
          "internalType": "uint256",
          "name": "",
          "type": "uint256"
        },
        {
          "internalType": "bytes",
          "name": "_priceAdapterConfigData",
          "type": "bytes"
        }
      ],
      "name": "getPrice",
      "outputs": [
        {
          "internalType": "uint256",
          "name": "price",
          "type": "uint256"
        }
      ],
      "stateMutability": "pure",
      "type": "function"
    },
    {
      "inputs": [
        {
          "internalType": "bytes",
          "name": "_priceAdapterConfigData",
          "type": "bytes"
        }
      ],
      "name": "isPriceAdapterConfigDataValid",
      "outputs": [
        {
          "internalType": "bool",
          "name": "isValid",
          "type": "bool"
        }
      ],
      "stateMutability": "pure",
      "type": "function"
    }
  ],
  "transactionHash": "0xfa20485cd715b9589fa1e08ae73ee5897673ac051b8cd175f8e6dafaa2e80fdf",
  "args": [],
  "numDeployments": 1,
  "solcInputHash": "3af799426bd146e6d31093bbc961e263",
  "bytecode": "0x608060405234801561001057600080fd5b506103db806100206000396000f3fe608060405234801561001057600080fd5b506004361061004c5760003560e01c8063079f6bf414610051578063104b9b6414610079578063d3516db61461009a578063fa5ab044146100ad575b600080fd5b61006461005f366004610252565b6100cd565b60405190151581526020015b60405180910390f35b61008c6100873660046102ab565b6100e2565b604051908152602001610070565b61008c6100a8366004610252565b610168565b6100c06100bb366004610325565b610184565b604051610070919061033e565b6000806100d983610168565b15159392505050565b60006100ed82610168565b90506000811161015e5760405162461bcd60e51b815260206004820152603260248201527f436f6e7374616e745072696365416461707465723a205072696365206d75737460448201527102062652067726561746572207468616e20360741b606482015260840160405180910390fd5b9695505050505050565b60008180602001905181019061017e919061038c565b92915050565b60608160405160200161019991815260200190565b6040516020818303038152906040529050919050565b634e487b7160e01b600052604160045260246000fd5b600082601f8301126101d657600080fd5b813567ffffffffffffffff808211156101f1576101f16101af565b604051601f8301601f19908116603f01168101908282118183101715610219576102196101af565b8160405283815286602085880101111561023257600080fd5b836020870160208301376000602085830101528094505050505092915050565b60006020828403121561026457600080fd5b813567ffffffffffffffff81111561027b57600080fd5b610287848285016101c5565b949350505050565b80356001600160a01b03811681146102a657600080fd5b919050565b60008060008060008060c087890312156102c457600080fd5b6102cd8761028f565b95506102db6020880161028f565b945060408701359350606087013592506080870135915060a087013567ffffffffffffffff81111561030c57600080fd5b61031889828a016101c5565b9150509295509295509295565b60006020828403121561033757600080fd5b5035919050565b600060208083528351808285015260005b8181101561036b5785810183015185820160400152820161034f565b506000604082860101526040601f19601f8301168501019250505092915050565b60006020828403121561039e57600080fd5b505191905056fea2646970667358221220c8547c8a16e3797dbe566a71e8746f2f10ac798340ecafc07ef6084c64efd25964736f6c63430008110033",
  "devdoc": {
    "kind": "dev",
    "methods": {
      "getDecodedData(bytes)": {
        "details": "Decodes the constant price from the provided bytes.",
        "params": {
          "_data": "Encoded bytes representing the constant price."
        },
        "returns": {
          "_0": "The constant price decoded from bytes in base units."
        }
      },
      "getEncodedData(uint256)": {
        "params": {
          "_price": "The constant price in base units."
        },
        "returns": {
          "_0": "Encoded bytes representing the constant price."
        }
      },
      "getPrice(address,address,uint256,uint256,uint256,bytes)": {
        "details": "Calculates and returns the constant price.",
        "params": {
          "_priceAdapterConfigData": "Encoded bytes representing the constant price."
        },
        "returns": {
          "price": "                   The constant price decoded from _priceAdapterConfigData."
        }
      },
      "isPriceAdapterConfigDataValid(bytes)": {
        "params": {
          "_priceAdapterConfigData": "Encoded bytes representing the constant price."
        },
        "returns": {
          "isValid": "                 True if the constant price is greater than 0, False otherwise."
        }
      }
    },
    "title": "ConstantPriceAdapter",
    "version": 1
  },
  "userdoc": {
    "kind": "user",
    "methods": {
      "getEncodedData(uint256)": {
        "notice": "Encodes the constant price into bytes."
      },
      "isPriceAdapterConfigDataValid(bytes)": {
        "notice": "Returns true if the price adapter configuration data is valid."
      }
    },
    "notice": "Price adapter contract for AuctionRebalanceModuleV1 that returns a constant price. The rate of change is zero. Price formula: price = initialPrice",
    "version": 1
  },
  "storageLayout": {
    "storage": [],
    "types": null
  }
}