{
  "address": "0x9409Ac28260E60e26f5475526cb9F7315edddd17",
  "abi": [
    {
      "inputs": [
        {
          "internalType": "address",
          "name": "_feeRecipient",
          "type": "address"
        }
      ],
      "stateMutability": "nonpayable",
      "type": "constructor"
    },
    {
      "inputs": [
        {
          "internalType": "address",
          "name": "owner",
          "type": "address"
        }
      ],
      "name": "OwnableInvalidOwner",
      "type": "error"
    },
    {
      "inputs": [
        {
          "internalType": "address",
          "name": "account",
          "type": "address"
        }
      ],
      "name": "OwnableUnauthorizedAccount",
      "type": "error"
    },
    {
      "anonymous": false,
      "inputs": [
        {
          "indexed": true,
          "internalType": "address",
          "name": "_factory",
          "type": "address"
        }
      ],
      "name": "FactoryAdded",
      "type": "event"
    },
    {
      "anonymous": false,
      "inputs": [
        {
          "indexed": true,
          "internalType": "address",
          "name": "_factory",
          "type": "address"
        }
      ],
      "name": "FactoryRemoved",
      "type": "event"
    },
    {
      "anonymous": false,
      "inputs": [
        {
          "indexed": true,
          "internalType": "address",
          "name": "_module",
          "type": "address"
        },
        {
          "indexed": true,
          "internalType": "uint256",
          "name": "_feeType",
          "type": "uint256"
        },
        {
          "indexed": false,
          "internalType": "uint256",
          "name": "_feePercentage",
          "type": "uint256"
        }
      ],
      "name": "FeeEdited",
      "type": "event"
    },
    {
      "anonymous": false,
      "inputs": [
        {
          "indexed": false,
          "internalType": "address",
          "name": "_newFeeRecipient",
          "type": "address"
        }
      ],
      "name": "FeeRecipientChanged",
      "type": "event"
    },
    {
      "anonymous": false,
      "inputs": [
        {
          "indexed": true,
          "internalType": "address",
          "name": "_module",
          "type": "address"
        }
      ],
      "name": "ModuleAdded",
      "type": "event"
    },
    {
      "anonymous": false,
      "inputs": [
        {
          "indexed": true,
          "internalType": "address",
          "name": "_module",
          "type": "address"
        }
      ],
      "name": "ModuleRemoved",
      "type": "event"
    },
    {
      "anonymous": false,
      "inputs": [
        {
          "indexed": true,
          "internalType": "address",
          "name": "previousOwner",
          "type": "address"
        },
        {
          "indexed": true,
          "internalType": "address",
          "name": "newOwner",
          "type": "address"
        }
      ],
      "name": "OwnershipTransferred",
      "type": "event"
    },
    {
      "anonymous": false,
      "inputs": [
        {
          "indexed": true,
          "internalType": "address",
          "name": "_resource",
          "type": "address"
        },
        {
          "indexed": false,
          "internalType": "uint256",
          "name": "_id",
          "type": "uint256"
        }
      ],
      "name": "ResourceAdded",
      "type": "event"
    },
    {
      "anonymous": false,
      "inputs": [
        {
          "indexed": true,
          "internalType": "address",
          "name": "_resource",
          "type": "address"
        },
        {
          "indexed": false,
          "internalType": "uint256",
          "name": "_id",
          "type": "uint256"
        }
      ],
      "name": "ResourceRemoved",
      "type": "event"
    },
    {
      "anonymous": false,
      "inputs": [
        {
          "indexed": true,
          "internalType": "address",
          "name": "_setToken",
          "type": "address"
        },
        {
          "indexed": true,
          "internalType": "address",
          "name": "_factory",
          "type": "address"
        }
      ],
      "name": "SetAdded",
      "type": "event"
    },
    {
      "anonymous": false,
      "inputs": [
        {
          "indexed": true,
          "internalType": "address",
          "name": "_setToken",
          "type": "address"
        }
      ],
      "name": "SetRemoved",
      "type": "event"
    },
    {
      "inputs": [
        {
          "internalType": "address",
          "name": "_factory",
          "type": "address"
        }
      ],
      "name": "addFactory",
      "outputs": [],
      "stateMutability": "nonpayable",
      "type": "function"
    },
    {
      "inputs": [
        {
          "internalType": "address",
          "name": "_module",
          "type": "address"
        },
        {
          "internalType": "uint256",
          "name": "_feeType",
          "type": "uint256"
        },
        {
          "internalType": "uint256",
          "name": "_newFeePercentage",
          "type": "uint256"
        }
      ],
      "name": "addFee",
      "outputs": [],
      "stateMutability": "nonpayable",
      "type": "function"
    },
    {
      "inputs": [
        {
          "internalType": "address",
          "name": "_module",
          "type": "address"
        }
      ],
      "name": "addModule",
      "outputs": [],
      "stateMutability": "nonpayable",
      "type": "function"
    },
    {
      "inputs": [
        {
          "internalType": "address",
          "name": "_resource",
          "type": "address"
        },
        {
          "internalType": "uint256",
          "name": "_id",
          "type": "uint256"
        }
      ],
      "name": "addResource",
      "outputs": [],
      "stateMutability": "nonpayable",
      "type": "function"
    },
    {
      "inputs": [
        {
          "internalType": "address",
          "name": "_setToken",
          "type": "address"
        }
      ],
      "name": "addSet",
      "outputs": [],
      "stateMutability": "nonpayable",
      "type": "function"
    },
    {
      "inputs": [
        {
          "internalType": "address",
          "name": "_module",
          "type": "address"
        },
        {
          "internalType": "uint256",
          "name": "_feeType",
          "type": "uint256"
        },
        {
          "internalType": "uint256",
          "name": "_newFeePercentage",
          "type": "uint256"
        }
      ],
      "name": "editFee",
      "outputs": [],
      "stateMutability": "nonpayable",
      "type": "function"
    },
    {
      "inputs": [
        {
          "internalType": "address",
          "name": "_newFeeRecipient",
          "type": "address"
        }
      ],
      "name": "editFeeRecipient",
      "outputs": [],
      "stateMutability": "nonpayable",
      "type": "function"
    },
    {
      "inputs": [
        {
          "internalType": "uint256",
          "name": "",
          "type": "uint256"
        }
      ],
      "name": "factories",
      "outputs": [
        {
          "internalType": "address",
          "name": "",
          "type": "address"
        }
      ],
      "stateMutability": "view",
      "type": "function"
    },
    {
      "inputs": [],
      "name": "feeRecipient",
      "outputs": [
        {
          "internalType": "address",
          "name": "",
          "type": "address"
        }
      ],
      "stateMutability": "view",
      "type": "function"
    },
    {
      "inputs": [
        {
          "internalType": "address",
          "name": "",
          "type": "address"
        },
        {
          "internalType": "uint256",
          "name": "",
          "type": "uint256"
        }
      ],
      "name": "fees",
      "outputs": [
        {
          "internalType": "uint256",
          "name": "",
          "type": "uint256"
        }
      ],
      "stateMutability": "view",
      "type": "function"
    },
    {
      "inputs": [],
      "name": "getFactories",
      "outputs": [
        {
          "internalType": "address[]",
          "name": "",
          "type": "address[]"
        }
      ],
      "stateMutability": "view",
      "type": "function"
    },
    {
      "inputs": [
        {
          "internalType": "address",
          "name": "_moduleAddress",
          "type": "address"
        },
        {
          "internalType": "uint256",
          "name": "_feeType",
          "type": "uint256"
        }
      ],
      "name": "getModuleFee",
      "outputs": [
        {
          "internalType": "uint256",
          "name": "",
          "type": "uint256"
        }
      ],
      "stateMutability": "view",
      "type": "function"
    },
    {
      "inputs": [],
      "name": "getModules",
      "outputs": [
        {
          "internalType": "address[]",
          "name": "",
          "type": "address[]"
        }
      ],
      "stateMutability": "view",
      "type": "function"
    },
    {
      "inputs": [],
      "name": "getResources",
      "outputs": [
        {
          "internalType": "address[]",
          "name": "",
          "type": "address[]"
        }
      ],
      "stateMutability": "view",
      "type": "function"
    },
    {
      "inputs": [],
      "name": "getSets",
      "outputs": [
        {
          "internalType": "address[]",
          "name": "",
          "type": "address[]"
        }
      ],
      "stateMutability": "view",
      "type": "function"
    },
    {
      "inputs": [
        {
          "internalType": "address[]",
          "name": "_factories",
          "type": "address[]"
        },
        {
          "internalType": "address[]",
          "name": "_modules",
          "type": "address[]"
        },
        {
          "internalType": "address[]",
          "name": "_resources",
          "type": "address[]"
        },
        {
          "internalType": "uint256[]",
          "name": "_resourceIds",
          "type": "uint256[]"
        }
      ],
      "name": "initialize",
      "outputs": [],
      "stateMutability": "nonpayable",
      "type": "function"
    },
    {
      "inputs": [
        {
          "internalType": "address",
          "name": "",
          "type": "address"
        }
      ],
      "name": "isFactory",
      "outputs": [
        {
          "internalType": "bool",
          "name": "",
          "type": "bool"
        }
      ],
      "stateMutability": "view",
      "type": "function"
    },
    {
      "inputs": [],
      "name": "isInitialized",
      "outputs": [
        {
          "internalType": "bool",
          "name": "",
          "type": "bool"
        }
      ],
      "stateMutability": "view",
      "type": "function"
    },
    {
      "inputs": [
        {
          "internalType": "address",
          "name": "",
          "type": "address"
        }
      ],
      "name": "isModule",
      "outputs": [
        {
          "internalType": "bool",
          "name": "",
          "type": "bool"
        }
      ],
      "stateMutability": "view",
      "type": "function"
    },
    {
      "inputs": [
        {
          "internalType": "address",
          "name": "",
          "type": "address"
        }
      ],
      "name": "isResource",
      "outputs": [
        {
          "internalType": "bool",
          "name": "",
          "type": "bool"
        }
      ],
      "stateMutability": "view",
      "type": "function"
    },
    {
      "inputs": [
        {
          "internalType": "address",
          "name": "",
          "type": "address"
        }
      ],
      "name": "isSet",
      "outputs": [
        {
          "internalType": "bool",
          "name": "",
          "type": "bool"
        }
      ],
      "stateMutability": "view",
      "type": "function"
    },
    {
      "inputs": [
        {
          "internalType": "address",
          "name": "_contractAddress",
          "type": "address"
        }
      ],
      "name": "isSystemContract",
      "outputs": [
        {
          "internalType": "bool",
          "name": "",
          "type": "bool"
        }
      ],
      "stateMutability": "view",
      "type": "function"
    },
    {
      "inputs": [
        {
          "internalType": "uint256",
          "name": "",
          "type": "uint256"
        }
      ],
      "name": "modules",
      "outputs": [
        {
          "internalType": "address",
          "name": "",
          "type": "address"
        }
      ],
      "stateMutability": "view",
      "type": "function"
    },
    {
      "inputs": [],
      "name": "owner",
      "outputs": [
        {
          "internalType": "address",
          "name": "",
          "type": "address"
        }
      ],
      "stateMutability": "view",
      "type": "function"
    },
    {
      "inputs": [
        {
          "internalType": "address",
          "name": "_factory",
          "type": "address"
        }
      ],
      "name": "removeFactory",
      "outputs": [],
      "stateMutability": "nonpayable",
      "type": "function"
    },
    {
      "inputs": [
        {
          "internalType": "address",
          "name": "_module",
          "type": "address"
        }
      ],
      "name": "removeModule",
      "outputs": [],
      "stateMutability": "nonpayable",
      "type": "function"
    },
    {
      "inputs": [
        {
          "internalType": "uint256",
          "name": "_id",
          "type": "uint256"
        }
      ],
      "name": "removeResource",
      "outputs": [],
      "stateMutability": "nonpayable",
      "type": "function"
    },
    {
      "inputs": [
        {
          "internalType": "address",
          "name": "_setToken",
          "type": "address"
        }
      ],
      "name": "removeSet",
      "outputs": [],
      "stateMutability": "nonpayable",
      "type": "function"
    },
    {
      "inputs": [],
      "name": "renounceOwnership",
      "outputs": [],
      "stateMutability": "nonpayable",
      "type": "function"
    },
    {
      "inputs": [
        {
          "internalType": "uint256",
          "name": "",
          "type": "uint256"
        }
      ],
      "name": "resourceId",
      "outputs": [
        {
          "internalType": "address",
          "name": "",
          "type": "address"
        }
      ],
      "stateMutability": "view",
      "type": "function"
    },
    {
      "inputs": [
        {
          "internalType": "uint256",
          "name": "",
          "type": "uint256"
        }
      ],
      "name": "resources",
      "outputs": [
        {
          "internalType": "address",
          "name": "",
          "type": "address"
        }
      ],
      "stateMutability": "view",
      "type": "function"
    },
    {
      "inputs": [
        {
          "internalType": "uint256",
          "name": "",
          "type": "uint256"
        }
      ],
      "name": "sets",
      "outputs": [
        {
          "internalType": "address",
          "name": "",
          "type": "address"
        }
      ],
      "stateMutability": "view",
      "type": "function"
    },
    {
      "inputs": [
        {
          "internalType": "address",
          "name": "newOwner",
          "type": "address"
        }
      ],
      "name": "transferOwnership",
      "outputs": [],
      "stateMutability": "nonpayable",
      "type": "function"
    }
  ],
  "transactionHash": "0x05c62347bb289305464b289960bb8d87df2ea19e9801f9bceab777816fa6e2ea",
  "args": [
    "0x570f581D23a2AB09FD1990279D9DB6f5DcE18F4A"
  ],
  "numDeployments": 1,
  "solcInputHash": "7fe3b69caaa6e1ae3cb624acb9fde77a",
  "bytecode": "0x608060405234801561001057600080fd5b5060405161224838038061224883398101604081905261002f916100d4565b338061005557604051631e4fbdf760e01b81526000600482015260240160405180910390fd5b61005e81610084565b50600b80546001600160a01b0319166001600160a01b0392909216919091179055610104565b600080546001600160a01b038381166001600160a01b0319831681178455604051919092169283917f8be0079c531659141344cd1fd0a4f28419497f9722a3daafe3b4186f6b6457e09190a35050565b6000602082840312156100e657600080fd5b81516001600160a01b03811681146100fd57600080fd5b9392505050565b612135806101136000396000f3fe608060405234801561001057600080fd5b50600436106101fb5760003560e01c8063715018a61161011a578063a3c56615116100ad578063d580ded41161007c578063d580ded4146104a1578063e0b75317146104b4578063e765ced6146104c7578063f2fde38b146104f0578063f36b9a9a1461050357600080fd5b8063a3c566151461046b578063b2494df31461047e578063c1cc57b014610486578063c5bb387b1461048e57600080fd5b80637e6cbb6a116100e95780637e6cbb6a1461042c57806381b2248a146104345780638da5cb5b14610447578063a06324611461045857600080fd5b8063715018a6146103b857806374ebe3ec146103c057806376a5bcf6146103e3578063792aa04f146103f657600080fd5b806329ce1ec5116101925780634690484011610161578063469048401461036c5780634b37c73f1461037f5780635b227f9b14610392578063672383c4146103a557600080fd5b806329ce1ec51461030d5780632cf7c53114610320578063392e53cd1461033557806342f6e3891461034957600080fd5b80631ed86f19116101ce5780631ed86f1914610273578063207a948514610286578063244d6daa146102a9578063263a5362146102d457600080fd5b806301b98339146102005780630f04ba671461021557806313bc6d4b1461024d57806319e2c34914610260575b600080fd5b61021361020e366004611d2e565b610516565b005b610238610223366004611d63565b60066020526000908152604090205460ff1681565b60405190151581526020015b60405180910390f35b61023861025b366004611d63565b6106a7565b61021361026e366004611d63565b610745565b610213610281366004611d63565b61089c565b610238610294366004611d63565b60086020526000908152604090205460ff1681565b6102bc6102b7366004611d2e565b6109ba565b6040516001600160a01b039091168152602001610244565b6102ff6102e2366004611d85565b600960209081526000928352604080842090915290825290205481565b604051908152602001610244565b61021361031b366004611d63565b6109e4565b610328610b03565b6040516102449190611daf565b600b5461023890600160a01b900460ff1681565b610238610357366004611d63565b60076020526000908152604090205460ff1681565b600b546102bc906001600160a01b031681565b61021361038d366004611d63565b610b65565b6102bc6103a0366004611d2e565b610cc0565b6102bc6103b3366004611d2e565b610cd0565b610213610ce0565b6102386103ce366004611d63565b60056020526000908152604090205460ff1681565b6102136103f1366004611dfc565b610cf4565b6102ff610404366004611d85565b6001600160a01b03919091166000908152600960209081526040808320938352929052205490565b610328610e38565b6102bc610442366004611d2e565b610e98565b6000546001600160a01b03166102bc565b610213610466366004611d63565b610ea8565b610213610479366004611f10565b610fda565b6103286113f1565b610328611451565b61021361049c366004611d63565b6114b1565b6102136104af366004611d63565b611584565b6102136104c2366004611d85565b6116f7565b6102bc6104d5366004611d2e565b600a602052600090815260409020546001600160a01b031681565b6102136104fe366004611d63565b6118a1565b610213610511366004611dfc565b6118df565b600b54600160a01b900460ff166105485760405162461bcd60e51b815260040161053f90612010565b60405180910390fd5b6105506119c3565b6000818152600a60205260409020546001600160a01b0316806105b55760405162461bcd60e51b815260206004820152601760248201527f5265736f7572636520646f6573206e6f74206578697374000000000000000000604482015260640161053f565b61062281600480548060200260200160405190810160405280929190818152602001828054801561060f57602002820191906000526020600020905b81546001600160a01b031681526001909101906020018083116105f1575b50505050506119f090919063ffffffff16565b805161063691600491602090910190611cb4565b506000828152600a6020908152604080832080546001600160a01b03191690556001600160a01b0384168084526008835292819020805460ff19169055518481527fbc7961276d9fc2a4fe4fc4d817e48d15615364e5df46fa0d8fb45637582ae4f891015b60405180910390a25050565b6001600160a01b03811660009081526005602052604081205460ff16806106e657506001600160a01b03821660009081526007602052604090205460ff165b8061070957506001600160a01b03821660009081526008602052604090205460ff165b8061072c57506001600160a01b03821660009081526006602052604090205460ff165b8061073f57506001600160a01b03821630145b92915050565b600b54600160a01b900460ff1661076e5760405162461bcd60e51b815260040161053f90612010565b6107766119c3565b6001600160a01b03811660009081526005602052604090205460ff166107d35760405162461bcd60e51b815260206004820152601260248201527114d95d08191bd95cc81b9bdd08195e1a5cdd60721b604482015260640161053f565b61083e81600180548060200260200160405190810160405280929190818152602001828054801561060f576020028201919060005260206000209081546001600160a01b031681526001909101906020018083116105f15750505050506119f090919063ffffffff16565b805161085291600191602090910190611cb4565b506001600160a01b038116600081815260056020526040808220805460ff19169055517f8e0c505159e335da41fb50766da0ed86ceb6c429d0e6b431e8542cc6c3271b539190a250565b600b54600160a01b900460ff166108c55760405162461bcd60e51b815260040161053f90612010565b6108cd6119c3565b6001600160a01b03811660009081526007602052604090205460ff161561092e5760405162461bcd60e51b81526020600482015260156024820152744d6f64756c6520616c72656164792065786973747360581b604482015260640161053f565b6001600160a01b038116600081815260076020526040808220805460ff1916600190811790915560038054918201815583527fc2575a0e9e593c00f959f8c92f12db2869c3395a3b0502d05e2516446f71f85b0180546001600160a01b03191684179055517fead6a006345da1073a106d5f32372d2d2204f46cb0b4bca8f5ebafcbbed12b8a9190a250565b600481815481106109ca57600080fd5b6000918252602090912001546001600160a01b0316905081565b600b54600160a01b900460ff16610a0d5760405162461bcd60e51b815260040161053f90612010565b610a156119c3565b6001600160a01b03811660009081526006602052604090205460ff1615610a775760405162461bcd60e51b8152602060048201526016602482015275466163746f727920616c72656164792065786973747360501b604482015260640161053f565b6001600160a01b038116600081815260066020526040808220805460ff1916600190811790915560028054918201815583527f405787fa12a823e0f2b7631cc41b3ba8828b3321ca811111fa75cd3aa3bb5ace0180546001600160a01b03191684179055517f6fdc0147105e43e21da80a75b42d0fd464060d5e1a34b0cefbf0b4ccfc2e36a19190a250565b60606001805480602002602001604051908101604052809291908181526020018280548015610b5b57602002820191906000526020600020905b81546001600160a01b03168152600190910190602001808311610b3d575b5050505050905090565b600b54600160a01b900460ff16610b8e5760405162461bcd60e51b815260040161053f90612010565b610b966119c3565b6001600160a01b03811660009081526006602052604090205460ff16610bf75760405162461bcd60e51b8152602060048201526016602482015275119858dd1bdc9e48191bd95cc81b9bdd08195e1a5cdd60521b604482015260640161053f565b610c6281600280548060200260200160405190810160405280929190818152602001828054801561060f576020028201919060005260206000209081546001600160a01b031681526001909101906020018083116105f15750505050506119f090919063ffffffff16565b8051610c7691600291602090910190611cb4565b506001600160a01b038116600081815260066020526040808220805460ff19169055517fafa2737b2090fa39c66b7348625f0c03726240f724defbc6216d679506f944419190a250565b600181815481106109ca57600080fd5b600281815481106109ca57600080fd5b610ce86119c3565b610cf26000611a60565b565b600b54600160a01b900460ff16610d1d5760405162461bcd60e51b815260040161053f90612010565b610d256119c3565b6001600160a01b03831660009081526007602052604090205460ff16610d5d5760405162461bcd60e51b815260040161053f90612047565b6001600160a01b03831660009081526009602090815260408083208584529091528120549003610dd95760405162461bcd60e51b815260206004820152602160248201527f466565207479706520646f6573206e6f74206578697374206f6e206d6f64756c6044820152606560f81b606482015260840161053f565b6001600160a01b038316600081815260096020908152604080832086845282529182902084905590518381528492917f84d9943a841552627b79770783a3cfd4da8303efc30bd75b65d863bd909926e3910160405180910390a3505050565b60606002805480602002602001604051908101604052809291908181526020018280548015610b5b576020028201919060005260206000209081546001600160a01b03168152600190910190602001808311610b3d575050505050905090565b600381815481106109ca57600080fd5b600b54600160a01b900460ff16610ed15760405162461bcd60e51b815260040161053f90612010565b610ed96119c3565b6001600160a01b03811660009081526007602052604090205460ff16610f115760405162461bcd60e51b815260040161053f90612047565b610f7c81600380548060200260200160405190810160405280929190818152602001828054801561060f576020028201919060005260206000209081546001600160a01b031681526001909101906020018083116105f15750505050506119f090919063ffffffff16565b8051610f9091600391602090910190611cb4565b506001600160a01b038116600081815260076020526040808220805460ff19169055517f0a1ee69f55c33d8467c69ca59ce2007a737a88603d75392972520bf67cb513b89190a250565b610fe26119c3565b600b54600160a01b900460ff16156110465760405162461bcd60e51b815260206004820152602160248201527f436f6e74726f6c6c657220697320616c726561647920696e697469616c697a656044820152601960fa1b606482015260840161053f565b80518251146110975760405162461bcd60e51b815260206004820152601b60248201527f4172726179206c656e6774687320646f206e6f74206d617463682e0000000000604482015260640161053f565b83516110aa906002906020870190611cb4565b5082516110be906003906020860190611cb4565b5081516110d2906004906020850190611cb4565b5060005b845181101561117c5760006001600160a01b03168582815181106110fc576110fc612076565b60200260200101516001600160a01b03160361112a5760405162461bcd60e51b815260040161053f9061208c565b60016006600087848151811061114257611142612076565b6020908102919091018101516001600160a01b03168252810191909152604001600020805460ff19169115159190911790556001016110d6565b5060005b83518110156112265760006001600160a01b03168482815181106111a6576111a6612076565b60200260200101516001600160a01b0316036111d45760405162461bcd60e51b815260040161053f9061208c565b6001600760008684815181106111ec576111ec612076565b6020908102919091018101516001600160a01b03168252810191909152604001600020805460ff1916911515919091179055600101611180565b5060005b82518110156113d75760006001600160a01b031683828151811061125057611250612076565b60200260200101516001600160a01b03160361127e5760405162461bcd60e51b815260040161053f9061208c565b60006001600160a01b0316600a600084848151811061129f5761129f612076565b6020908102919091018101518252810191909152604001600020546001600160a01b0316146113105760405162461bcd60e51b815260206004820152601a60248201527f5265736f7572636520494420616c726561647920657869737473000000000000604482015260640161053f565b60016008600085848151811061132857611328612076565b60200260200101516001600160a01b03166001600160a01b0316815260200190815260200160002060006101000a81548160ff02191690831515021790555082818151811061137957611379612076565b6020026020010151600a600084848151811061139757611397612076565b602090810291909101810151825281019190915260400160002080546001600160a01b0319166001600160a01b039290921691909117905560010161122a565b5050600b805460ff60a01b1916600160a01b179055505050565b60606003805480602002602001604051908101604052809291908181526020018280548015610b5b576020028201919060005260206000209081546001600160a01b03168152600190910190602001808311610b3d575050505050905090565b60606004805480602002602001604051908101604052809291908181526020018280548015610b5b576020028201919060005260206000209081546001600160a01b03168152600190910190602001808311610b3d575050505050905090565b600b54600160a01b900460ff166114da5760405162461bcd60e51b815260040161053f90612010565b6114e26119c3565b6001600160a01b0381166115305760405162461bcd60e51b8152602060048201526015602482015274041646472657373206d757374206e6f74206265203605c1b604482015260640161053f565b600b80546001600160a01b0319166001600160a01b0383169081179091556040519081527f167cccccc6e9b2892a740ec13fc1e51d3de8ea384f25bd87fee7412d588637e29060200160405180910390a150565b600b54600160a01b900460ff166115ad5760405162461bcd60e51b815260040161053f90612010565b3360009081526006602052604090205460ff1661160c5760405162461bcd60e51b815260206004820152601d60248201527f4f6e6c792076616c696420666163746f726965732063616e2063616c6c000000604482015260640161053f565b6001600160a01b03811660009081526005602052604090205460ff161561166a5760405162461bcd60e51b815260206004820152601260248201527153657420616c72656164792065786973747360701b604482015260640161053f565b6001600160a01b038116600081815260056020526040808220805460ff19166001908117909155805480820182559083527fb10e2d527612073b26eecdfd717e6a320cf44b4afac2b0732d9fcbe2b7fa0cf60180546001600160a01b03191684179055513392917fdb18a8959c84999e8bddb4624081f905f78eb9d63ec80b48d3daf2d38ae660a291a350565b600b54600160a01b900460ff166117205760405162461bcd60e51b815260040161053f90612010565b6117286119c3565b6001600160a01b03821660009081526008602052604090205460ff16156117915760405162461bcd60e51b815260206004820152601760248201527f5265736f7572636520616c726561647920657869737473000000000000000000604482015260640161053f565b6000818152600a60205260409020546001600160a01b0316156117f65760405162461bcd60e51b815260206004820152601a60248201527f5265736f7572636520494420616c726561647920657869737473000000000000604482015260640161053f565b6001600160a01b0382166000818152600860209081526040808320805460ff19166001908117909155858452600a835281842080546001600160a01b031990811687179091556004805492830181559094527f8a35acfbc15ff81a39ae7d344fd709f28e8600b4aa8c65c6b64bfe7fe36bd19b018054909316841790925590518381527f5674036e091d8b4ee7f8e06cc71d41ee33f3fc331821fc0e017c1a091e8c861e910161069b565b6118a96119c3565b6001600160a01b0381166118d357604051631e4fbdf760e01b81526000600482015260240161053f565b6118dc81611a60565b50565b600b54600160a01b900460ff166119085760405162461bcd60e51b815260040161053f90612010565b6119106119c3565b6001600160a01b03831660009081526007602052604090205460ff166119485760405162461bcd60e51b815260040161053f90612047565b6001600160a01b038316600090815260096020908152604080832085845290915290205415610dd95760405162461bcd60e51b815260206004820152602160248201527f466565207479706520616c726561647920657869737473206f6e206d6f64756c6044820152606560f81b606482015260840161053f565b6000546001600160a01b03163314610cf25760405163118cdaa760e01b815233600482015260240161053f565b60606000806119ff8585611ab0565b9150915080611a485760405162461bcd60e51b815260206004820152601560248201527420b2323932b9b9903737ba1034b71030b93930bc9760591b604482015260640161053f565b6000611a548684611b1b565b50935061073f92505050565b600080546001600160a01b038381166001600160a01b0319831681178455604051919092169283917f8be0079c531659141344cd1fd0a4f28419497f9722a3daafe3b4186f6b6457e09190a35050565b81516000908190815b81811015611b0857846001600160a01b0316868281518110611add57611add612076565b60200260200101516001600160a01b031603611b0057925060019150611b149050565b600101611ab9565b50600019600092509250505b9250929050565b8151606090600090808410611b725760405162461bcd60e51b815260206004820152601860248201527f496e646578206d757374206265203c2041206c656e6774680000000000000000604482015260640161053f565b6000611b7f6001836120d9565b67ffffffffffffffff811115611b9757611b97611e2f565b604051908082528060200260200182016040528015611bc0578160200160208202803683370190505b50905060005b85811015611c1a57868181518110611be057611be0612076565b6020026020010151828281518110611bfa57611bfa612076565b6001600160a01b0390921660209283029190910190910152600101611bc6565b506000611c288660016120ec565b90505b82811015611c8b57868181518110611c4557611c45612076565b602002602001015182600183611c5b91906120d9565b81518110611c6b57611c6b612076565b6001600160a01b0390921660209283029190910190910152600101611c2b565b5080868681518110611c9f57611c9f612076565b60200260200101519350935050509250929050565b828054828255906000526020600020908101928215611d09579160200282015b82811115611d0957825182546001600160a01b0319166001600160a01b03909116178255602090920191600190910190611cd4565b50611d15929150611d19565b5090565b5b80821115611d155760008155600101611d1a565b600060208284031215611d4057600080fd5b5035919050565b80356001600160a01b0381168114611d5e57600080fd5b919050565b600060208284031215611d7557600080fd5b611d7e82611d47565b9392505050565b60008060408385031215611d9857600080fd5b611da183611d47565b946020939093013593505050565b6020808252825182820181905260009190848201906040850190845b81811015611df05783516001600160a01b031683529284019291840191600101611dcb565b50909695505050505050565b600080600060608486031215611e1157600080fd5b611e1a84611d47565b95602085013595506040909401359392505050565b634e487b7160e01b600052604160045260246000fd5b604051601f8201601f1916810167ffffffffffffffff81118282101715611e6e57611e6e611e2f565b604052919050565b600067ffffffffffffffff821115611e9057611e90611e2f565b5060051b60200190565b600082601f830112611eab57600080fd5b81356020611ec0611ebb83611e76565b611e45565b8083825260208201915060208460051b870101935086841115611ee257600080fd5b602086015b84811015611f0557611ef881611d47565b8352918301918301611ee7565b509695505050505050565b60008060008060808587031215611f2657600080fd5b843567ffffffffffffffff80821115611f3e57600080fd5b611f4a88838901611e9a565b9550602091508187013581811115611f6157600080fd5b611f6d89828a01611e9a565b955050604087013581811115611f8257600080fd5b611f8e89828a01611e9a565b945050606087013581811115611fa357600080fd5b87019050601f81018813611fb657600080fd5b8035611fc4611ebb82611e76565b81815260059190911b8201830190838101908a831115611fe357600080fd5b928401925b8284101561200157833582529284019290840190611fe8565b979a9699509497505050505050565b6020808252601d908201527f436f6e7472616374206d75737420626520696e697469616c697a65642e000000604082015260600190565b602080825260159082015274135bd91d5b1948191bd95cc81b9bdd08195e1a5cdd605a1b604082015260600190565b634e487b7160e01b600052603260045260246000fd5b60208082526017908201527f5a65726f2061646472657373207375626d69747465642e000000000000000000604082015260600190565b634e487b7160e01b600052601160045260246000fd5b8181038181111561073f5761073f6120c3565b8082018082111561073f5761073f6120c356fea26469706673582212207ce0bac9f862f4edeec6c8b72271ed3294d7f50395e99b9c84728cdf49232a9864736f6c63430008190033",
  "devdoc": {
    "author": "Set Protocol Contract that houses state for approvals and system contracts such as added Sets, modules, factories, resources (like price oracles), and protocol fee configurations.",
    "errors": {
      "OwnableInvalidOwner(address)": [
        {
          "details": "The owner is not a valid owner account. (eg. `address(0)`)"
        }
      ],
      "OwnableUnauthorizedAccount(address)": [
        {
          "details": "The caller account is not authorized to perform an operation."
        }
      ]
    },
    "kind": "dev",
    "methods": {
      "addFactory(address)": {
        "params": {
          "_factory": "Address of the factory contract to add"
        }
      },
      "addFee(address,uint256,uint256)": {
        "params": {
          "_feeType": "Type of the fee to add in the module",
          "_module": "Address of the module contract to add fee to",
          "_newFeePercentage": "Percentage of fee to add in the module (denominated in preciseUnits eg 1% = 1e16)"
        }
      },
      "addModule(address)": {
        "params": {
          "_module": "Address of the module contract to add"
        }
      },
      "addResource(address,uint256)": {
        "params": {
          "_id": "New ID of the resource contract",
          "_resource": "Address of the resource contract to add"
        }
      },
      "addSet(address)": {
        "params": {
          "_setToken": "Address of the SetToken contract to add"
        }
      },
      "constructor": {
        "params": {
          "_feeRecipient": "Address of the initial protocol fee recipient"
        }
      },
      "editFee(address,uint256,uint256)": {
        "params": {
          "_feeType": "Type of the fee to edit in the module",
          "_module": "Address of the module contract to edit fee",
          "_newFeePercentage": "Percentage of fee to edit in the module (denominated in preciseUnits eg 1% = 1e16)"
        }
      },
      "editFeeRecipient(address)": {
        "params": {
          "_newFeeRecipient": "Address of the new protocol fee recipient"
        }
      },
      "initialize(address[],address[],address[],uint256[])": {
        "params": {
          "_factories": "List of factories to add",
          "_modules": "List of modules to add",
          "_resourceIds": "List of resource IDs associated with the resources",
          "_resources": "List of resources to add"
        }
      },
      "isSystemContract(address)": {
        "params": {
          "_contractAddress": "The contract address to check"
        }
      },
      "owner()": {
        "details": "Returns the address of the current owner."
      },
      "removeFactory(address)": {
        "params": {
          "_factory": "Address of the factory contract to remove"
        }
      },
      "removeModule(address)": {
        "params": {
          "_module": "Address of the module contract to remove"
        }
      },
      "removeResource(uint256)": {
        "params": {
          "_id": "ID of the resource contract to remove"
        }
      },
      "removeSet(address)": {
        "params": {
          "_setToken": "Address of the SetToken contract to remove"
        }
      },
      "renounceOwnership()": {
        "details": "Leaves the contract without owner. It will not be possible to call `onlyOwner` functions. Can only be called by the current owner. NOTE: Renouncing ownership will leave the contract without an owner, thereby disabling any functionality that is only available to the owner."
      },
      "transferOwnership(address)": {
        "details": "Transfers ownership of the contract to a new account (`newOwner`). Can only be called by the current owner."
      }
    },
    "title": "Controller",
    "version": 1
  },
  "userdoc": {
    "kind": "user",
    "methods": {
      "addFactory(address)": {
        "notice": "PRIVILEGED GOVERNANCE FUNCTION. Allows governance to add a factory"
      },
      "addFee(address,uint256,uint256)": {
        "notice": "PRIVILEGED GOVERNANCE FUNCTION. Allows governance to add a fee to a module"
      },
      "addModule(address)": {
        "notice": "PRIVILEGED GOVERNANCE FUNCTION. Allows governance to add a module"
      },
      "addResource(address,uint256)": {
        "notice": "PRIVILEGED GOVERNANCE FUNCTION. Allows governance to add a resource"
      },
      "addSet(address)": {
        "notice": "PRIVILEGED FACTORY FUNCTION. Adds a newly deployed SetToken as an enabled SetToken."
      },
      "constructor": {
        "notice": "Initializes the initial fee recipient on deployment."
      },
      "editFee(address,uint256,uint256)": {
        "notice": "PRIVILEGED GOVERNANCE FUNCTION. Allows governance to edit a fee in an existing module"
      },
      "editFeeRecipient(address)": {
        "notice": "PRIVILEGED GOVERNANCE FUNCTION. Allows governance to edit the protocol fee recipient"
      },
      "initialize(address[],address[],address[],uint256[])": {
        "notice": "Initializes any predeployed factories, modules, and resources post deployment. Note: This function can only be called by the owner once to batch initialize the initial system contracts."
      },
      "isSystemContract(address)": {
        "notice": "Check if a contract address is a module, Set, resource, factory or controller"
      },
      "removeFactory(address)": {
        "notice": "PRIVILEGED GOVERNANCE FUNCTION. Allows governance to remove a factory"
      },
      "removeModule(address)": {
        "notice": "PRIVILEGED GOVERNANCE FUNCTION. Allows governance to remove a module"
      },
      "removeResource(uint256)": {
        "notice": "PRIVILEGED GOVERNANCE FUNCTION. Allows governance to remove a resource"
      },
      "removeSet(address)": {
        "notice": "PRIVILEGED GOVERNANCE FUNCTION. Allows governance to remove a Set"
      }
    },
    "version": 1
  },
  "storageLayout": {
    "storage": [
      {
        "astId": 8,
        "contract": "contracts/protocol/Controller.sol:Controller",
        "label": "_owner",
        "offset": 0,
        "slot": "0",
        "type": "t_address"
      },
      {
        "astId": 10406,
        "contract": "contracts/protocol/Controller.sol:Controller",
        "label": "sets",
        "offset": 0,
        "slot": "1",
        "type": "t_array(t_address)dyn_storage"
      },
      {
        "astId": 10409,
        "contract": "contracts/protocol/Controller.sol:Controller",
        "label": "factories",
        "offset": 0,
        "slot": "2",
        "type": "t_array(t_address)dyn_storage"
      },
      {
        "astId": 10412,
        "contract": "contracts/protocol/Controller.sol:Controller",
        "label": "modules",
        "offset": 0,
        "slot": "3",
        "type": "t_array(t_address)dyn_storage"
      },
      {
        "astId": 10415,
        "contract": "contracts/protocol/Controller.sol:Controller",
        "label": "resources",
        "offset": 0,
        "slot": "4",
        "type": "t_array(t_address)dyn_storage"
      },
      {
        "astId": 10419,
        "contract": "contracts/protocol/Controller.sol:Controller",
        "label": "isSet",
        "offset": 0,
        "slot": "5",
        "type": "t_mapping(t_address,t_bool)"
      },
      {
        "astId": 10423,
        "contract": "contracts/protocol/Controller.sol:Controller",
        "label": "isFactory",
        "offset": 0,
        "slot": "6",
        "type": "t_mapping(t_address,t_bool)"
      },
      {
        "astId": 10427,
        "contract": "contracts/protocol/Controller.sol:Controller",
        "label": "isModule",
        "offset": 0,
        "slot": "7",
        "type": "t_mapping(t_address,t_bool)"
      },
      {
        "astId": 10431,
        "contract": "contracts/protocol/Controller.sol:Controller",
        "label": "isResource",
        "offset": 0,
        "slot": "8",
        "type": "t_mapping(t_address,t_bool)"
      },
      {
        "astId": 10437,
        "contract": "contracts/protocol/Controller.sol:Controller",
        "label": "fees",
        "offset": 0,
        "slot": "9",
        "type": "t_mapping(t_address,t_mapping(t_uint256,t_uint256))"
      },
      {
        "astId": 10441,
        "contract": "contracts/protocol/Controller.sol:Controller",
        "label": "resourceId",
        "offset": 0,
        "slot": "10",
        "type": "t_mapping(t_uint256,t_address)"
      },
      {
        "astId": 10443,
        "contract": "contracts/protocol/Controller.sol:Controller",
        "label": "feeRecipient",
        "offset": 0,
        "slot": "11",
        "type": "t_address"
      },
      {
        "astId": 10445,
        "contract": "contracts/protocol/Controller.sol:Controller",
        "label": "isInitialized",
        "offset": 20,
        "slot": "11",
        "type": "t_bool"
      }
    ],
    "types": {
      "t_address": {
        "encoding": "inplace",
        "label": "address",
        "numberOfBytes": "20"
      },
      "t_array(t_address)dyn_storage": {
        "base": "t_address",
        "encoding": "dynamic_array",
        "label": "address[]",
        "numberOfBytes": "32"
      },
      "t_bool": {
        "encoding": "inplace",
        "label": "bool",
        "numberOfBytes": "1"
      },
      "t_mapping(t_address,t_bool)": {
        "encoding": "mapping",
        "key": "t_address",
        "label": "mapping(address => bool)",
        "numberOfBytes": "32",
        "value": "t_bool"
      },
      "t_mapping(t_address,t_mapping(t_uint256,t_uint256))": {
        "encoding": "mapping",
        "key": "t_address",
        "label": "mapping(address => mapping(uint256 => uint256))",
        "numberOfBytes": "32",
        "value": "t_mapping(t_uint256,t_uint256)"
      },
      "t_mapping(t_uint256,t_address)": {
        "encoding": "mapping",
        "key": "t_uint256",
        "label": "mapping(uint256 => address)",
        "numberOfBytes": "32",
        "value": "t_address"
      },
      "t_mapping(t_uint256,t_uint256)": {
        "encoding": "mapping",
        "key": "t_uint256",
        "label": "mapping(uint256 => uint256)",
        "numberOfBytes": "32",
        "value": "t_uint256"
      },
      "t_uint256": {
        "encoding": "inplace",
        "label": "uint256",
        "numberOfBytes": "32"
      }
    }
  }
}