{
  "address": "0xBF9533405eA317FB0861f9386F714Bd139a3fdfa",
  "abi": [
    {
      "inputs": [
        {
          "internalType": "uint256",
          "name": "_startingPrice",
          "type": "uint256"
        }
      ],
      "stateMutability": "nonpayable",
      "type": "constructor"
    },
    {
      "inputs": [],
      "name": "price",
      "outputs": [
        {
          "internalType": "uint256",
          "name": "",
          "type": "uint256"
        }
      ],
      "stateMutability": "view",
      "type": "function"
    },
    {
      "inputs": [],
      "name": "read",
      "outputs": [
        {
          "internalType": "uint256",
          "name": "",
          "type": "uint256"
        }
      ],
      "stateMutability": "view",
      "type": "function"
    },
    {
      "inputs": [
        {
          "internalType": "uint256",
          "name": "_newPrice",
          "type": "uint256"
        }
      ],
      "name": "updatePrice",
      "outputs": [],
      "stateMutability": "nonpayable",
      "type": "function"
    }
  ],
  "transactionHash": "0x5fd3703ca6556e639093de51106fda9af9d58683a4c9b286d58aa1009aa2e82f",
  "args": [
    "3601650000000000000000"
  ],
  "numDeployments": 1,
  "solcInputHash": "e92ac1b960310aabd23f360f125586bc",
  "bytecode": "0x608060405234801561001057600080fd5b506040516101083803806101088339818101604052602081101561003357600080fd5b505160005560c2806100466000396000f3fe6080604052348015600f57600080fd5b5060043610603c5760003560e01c806357de26a41460415780638d6cc56d146059578063a035b1fe146075575b600080fd5b6047607b565b60408051918252519081900360200190f35b607360048036036020811015606d57600080fd5b50356081565b005b60476086565b60005490565b600055565b6000548156fea2646970667358221220edec122b89f0235804f061cec0620ded2d4dbcb2109cde2399ffda103ddc45f664736f6c634300060a0033",
  "devdoc": {
    "methods": {
      "read()": {
        "returns": {
          "_0": "Current price of asset represented in uint256"
        }
      }
    }
  },
  "userdoc": {
    "methods": {
      "read()": {
        "notice": "Returns the queried data from an oracle returning uint256"
      }
    }
  },
  "storageLayout": {
    "storage": [
      {
        "astId": 3,
        "contract": "contracts/mocks/MockOracle.sol:MockOracle",
        "label": "price",
        "offset": 0,
        "slot": "0",
        "type": "t_uint256"
      }
    ],
    "types": {
      "t_uint256": {
        "encoding": "inplace",
        "label": "uint256",
        "numberOfBytes": "32"
      }
    }
  }
}