{
  "address": "0x1a7Ab9Cf14F1997845A91cF2f549753BA9A1496e",
  "abi": [
    {
      "inputs": [
        {
          "internalType": "contract IController",
          "name": "_controller",
          "type": "address"
        }
      ],
      "stateMutability": "nonpayable",
      "type": "constructor"
    },
    {
      "inputs": [
        {
          "internalType": "address",
          "name": "owner",
          "type": "address"
        }
      ],
      "name": "OwnableInvalidOwner",
      "type": "error"
    },
    {
      "inputs": [
        {
          "internalType": "address",
          "name": "account",
          "type": "address"
        }
      ],
      "name": "OwnableUnauthorizedAccount",
      "type": "error"
    },
    {
      "anonymous": false,
      "inputs": [
        {
          "indexed": true,
          "internalType": "address",
          "name": "_module",
          "type": "address"
        },
        {
          "indexed": true,
          "internalType": "address",
          "name": "_adapter",
          "type": "address"
        },
        {
          "indexed": false,
          "internalType": "string",
          "name": "_integrationName",
          "type": "string"
        }
      ],
      "name": "IntegrationAdded",
      "type": "event"
    },
    {
      "anonymous": false,
      "inputs": [
        {
          "indexed": true,
          "internalType": "address",
          "name": "_module",
          "type": "address"
        },
        {
          "indexed": false,
          "internalType": "address",
          "name": "_newAdapter",
          "type": "address"
        },
        {
          "indexed": false,
          "internalType": "string",
          "name": "_integrationName",
          "type": "string"
        }
      ],
      "name": "IntegrationEdited",
      "type": "event"
    },
    {
      "anonymous": false,
      "inputs": [
        {
          "indexed": true,
          "internalType": "address",
          "name": "_module",
          "type": "address"
        },
        {
          "indexed": true,
          "internalType": "address",
          "name": "_adapter",
          "type": "address"
        },
        {
          "indexed": false,
          "internalType": "string",
          "name": "_integrationName",
          "type": "string"
        }
      ],
      "name": "IntegrationRemoved",
      "type": "event"
    },
    {
      "anonymous": false,
      "inputs": [
        {
          "indexed": true,
          "internalType": "address",
          "name": "previousOwner",
          "type": "address"
        },
        {
          "indexed": true,
          "internalType": "address",
          "name": "newOwner",
          "type": "address"
        }
      ],
      "name": "OwnershipTransferred",
      "type": "event"
    },
    {
      "inputs": [
        {
          "internalType": "address",
          "name": "_module",
          "type": "address"
        },
        {
          "internalType": "string",
          "name": "_name",
          "type": "string"
        },
        {
          "internalType": "address",
          "name": "_adapter",
          "type": "address"
        }
      ],
      "name": "addIntegration",
      "outputs": [],
      "stateMutability": "nonpayable",
      "type": "function"
    },
    {
      "inputs": [
        {
          "internalType": "address[]",
          "name": "_modules",
          "type": "address[]"
        },
        {
          "internalType": "string[]",
          "name": "_names",
          "type": "string[]"
        },
        {
          "internalType": "address[]",
          "name": "_adapters",
          "type": "address[]"
        }
      ],
      "name": "batchAddIntegration",
      "outputs": [],
      "stateMutability": "nonpayable",
      "type": "function"
    },
    {
      "inputs": [
        {
          "internalType": "address[]",
          "name": "_modules",
          "type": "address[]"
        },
        {
          "internalType": "string[]",
          "name": "_names",
          "type": "string[]"
        },
        {
          "internalType": "address[]",
          "name": "_adapters",
          "type": "address[]"
        }
      ],
      "name": "batchEditIntegration",
      "outputs": [],
      "stateMutability": "nonpayable",
      "type": "function"
    },
    {
      "inputs": [],
      "name": "controller",
      "outputs": [
        {
          "internalType": "contract IController",
          "name": "",
          "type": "address"
        }
      ],
      "stateMutability": "view",
      "type": "function"
    },
    {
      "inputs": [
        {
          "internalType": "address",
          "name": "_module",
          "type": "address"
        },
        {
          "internalType": "string",
          "name": "_name",
          "type": "string"
        },
        {
          "internalType": "address",
          "name": "_adapter",
          "type": "address"
        }
      ],
      "name": "editIntegration",
      "outputs": [],
      "stateMutability": "nonpayable",
      "type": "function"
    },
    {
      "inputs": [
        {
          "internalType": "address",
          "name": "_module",
          "type": "address"
        },
        {
          "internalType": "string",
          "name": "_name",
          "type": "string"
        }
      ],
      "name": "getIntegrationAdapter",
      "outputs": [
        {
          "internalType": "address",
          "name": "",
          "type": "address"
        }
      ],
      "stateMutability": "view",
      "type": "function"
    },
    {
      "inputs": [
        {
          "internalType": "address",
          "name": "module",
          "type": "address"
        },
        {
          "internalType": "bytes32",
          "name": "nameHash",
          "type": "bytes32"
        }
      ],
      "name": "getIntegrationAdapterWithHash",
      "outputs": [
        {
          "internalType": "address",
          "name": "",
          "type": "address"
        }
      ],
      "stateMutability": "view",
      "type": "function"
    },
    {
      "inputs": [
        {
          "internalType": "address",
          "name": "_module",
          "type": "address"
        },
        {
          "internalType": "string",
          "name": "_name",
          "type": "string"
        }
      ],
      "name": "isValidIntegration",
      "outputs": [
        {
          "internalType": "bool",
          "name": "",
          "type": "bool"
        }
      ],
      "stateMutability": "view",
      "type": "function"
    },
    {
      "inputs": [],
      "name": "owner",
      "outputs": [
        {
          "internalType": "address",
          "name": "",
          "type": "address"
        }
      ],
      "stateMutability": "view",
      "type": "function"
    },
    {
      "inputs": [
        {
          "internalType": "address",
          "name": "_module",
          "type": "address"
        },
        {
          "internalType": "string",
          "name": "_name",
          "type": "string"
        }
      ],
      "name": "removeIntegration",
      "outputs": [],
      "stateMutability": "nonpayable",
      "type": "function"
    },
    {
      "inputs": [],
      "name": "renounceOwnership",
      "outputs": [],
      "stateMutability": "nonpayable",
      "type": "function"
    },
    {
      "inputs": [
        {
          "internalType": "address",
          "name": "newOwner",
          "type": "address"
        }
      ],
      "name": "transferOwnership",
      "outputs": [],
      "stateMutability": "nonpayable",
      "type": "function"
    }
  ],
  "transactionHash": "0xefcc21574a99db5516c289c0386ff109c1ef4a75a30e4410f4834e83d2d06c56",
  "args": [
    "0x9409Ac28260E60e26f5475526cb9F7315edddd17"
  ],
  "numDeployments": 1,
  "solcInputHash": "7fe3b69caaa6e1ae3cb624acb9fde77a",
  "bytecode": "0x608060405234801561001057600080fd5b5060405161104c38038061104c83398101604081905261002f916100d4565b338061005557604051631e4fbdf760e01b81526000600482015260240160405180910390fd5b61005e81610084565b50600180546001600160a01b0319166001600160a01b0392909216919091179055610104565b600080546001600160a01b038381166001600160a01b0319831681178455604051919092169283917f8be0079c531659141344cd1fd0a4f28419497f9722a3daafe3b4186f6b6457e09190a35050565b6000602082840312156100e657600080fd5b81516001600160a01b03811681146100fd57600080fd5b9392505050565b610f39806101136000396000f3fe608060405234801561001057600080fd5b50600436106100b45760003560e01c8063ad1f231611610071578063ad1f231614610149578063bdf590751461015c578063d9be0e121461016f578063e6d642c514610182578063f2fde38b146101b8578063f77c4791146101cb57600080fd5b8063639a3978146100b9578063715018a6146100e15780637a3d5b2a146100eb5780638da5cb5b146100fe578063a19ba6dc14610123578063a30945cb14610136575b600080fd5b6100cc6100c7366004610b7a565b6101de565b60405190151581526020015b60405180910390f35b6100e961022b565b005b6100e96100f9366004610c62565b61023f565b6000546001600160a01b03165b6040516001600160a01b0390911681526020016100d8565b61010b610131366004610b7a565b610377565b6100e9610144366004610d59565b6103c0565b6100e9610157366004610d59565b6105c5565b6100e961016a366004610c62565b6107ce565b6100e961017d366004610b7a565b6108fa565b61010b610190366004610db7565b6001600160a01b03918216600090815260026020908152604080832093835292905220541690565b6100e96101c6366004610de1565b6109ec565b60015461010b906001600160a01b031681565b6001600160a01b038216600090815260026020526040812081908161020885805160209091012090565b81526020810191909152604001600020546001600160a01b031614159392505050565b610233610a2a565b61023d6000610a57565b565b610247610a2a565b8251806102975760405162461bcd60e51b81526020600482015260196024820152784d6f64756c6573206d757374206e6f7420626520656d70747960381b60448201526064015b60405180910390fd5b825181146102e75760405162461bcd60e51b815260206004820181905260248201527f4d6f64756c6520616e64206e616d65206c656e67746873206d69736d61746368604482015260640161028e565b815181146103075760405162461bcd60e51b815260040161028e90610e03565b60005b818110156103705761036885828151811061032757610327610e46565b602002602001015185838151811061034157610341610e46565b602002602001015185848151811061035b5761035b610e46565b60200260200101516103c0565b60010161030a565b5050505050565b6001600160a01b03821660009081526002602052604081208161039f84805160209091012090565b81526020810191909152604001600020546001600160a01b03169392505050565b6103c8610a2a565b815160208301206000906001546040516342f6e38960e01b81526001600160a01b0387811660048301529293509116906342f6e38990602401602060405180830381865afa15801561041e573d6000803e3d6000fd5b505050506040513d601f19601f820116820180604052508101906104429190610e5c565b6104865760405162461bcd60e51b815260206004820152601560248201527426bab9ba103132903b30b634b21036b7b23ab6329760591b604482015260640161028e565b6001600160a01b03848116600090815260026020908152604080832085845290915290205416156104f95760405162461bcd60e51b815260206004820152601b60248201527f496e746567726174696f6e2065786973747320616c72656164792e0000000000604482015260640161028e565b6001600160a01b03821661054f5760405162461bcd60e51b815260206004820152601b60248201527f416461707465722061646472657373206d7573742065786973742e0000000000604482015260640161028e565b6001600160a01b0384811660008181526002602090815260408083208684529091529081902080546001600160a01b0319169386169384179055517f43640b154e7a2d5d196915068b6d815bb713d3263abf2a154581f32dab54890d906105b7908790610ec4565b60405180910390a350505050565b6105cd610a2a565b815160208301206000906001546040516342f6e38960e01b81526001600160a01b0387811660048301529293509116906342f6e38990602401602060405180830381865afa158015610623573d6000803e3d6000fd5b505050506040513d601f19601f820116820180604052508101906106479190610e5c565b61068b5760405162461bcd60e51b815260206004820152601560248201527426bab9ba103132903b30b634b21036b7b23ab6329760591b604482015260640161028e565b6001600160a01b038481166000908152600260209081526040808320858452909152902054166106fd5760405162461bcd60e51b815260206004820152601b60248201527f496e746567726174696f6e20646f6573206e6f742065786973742e0000000000604482015260640161028e565b6001600160a01b0382166107535760405162461bcd60e51b815260206004820152601b60248201527f416461707465722061646472657373206d7573742065786973742e0000000000604482015260640161028e565b6001600160a01b0384811660008181526002602090815260408083208684529091529081902080546001600160a01b0319169386169390931790925590517fa2dbad778187774fb7e1aa28aa65a07b1f6fc3f3ad3eea64f843dacae9ed0e00906107c09085908790610ed7565b60405180910390a250505050565b6107d6610a2a565b8251806108215760405162461bcd60e51b81526020600482015260196024820152784d6f64756c6573206d757374206e6f7420626520656d70747960381b604482015260640161028e565b825181146108715760405162461bcd60e51b815260206004820181905260248201527f4d6f64756c6520616e64206e616d65206c656e67746873206d69736d61746368604482015260640161028e565b815181146108915760405162461bcd60e51b815260040161028e90610e03565b60005b81811015610370576108f28582815181106108b1576108b1610e46565b60200260200101518583815181106108cb576108cb610e46565b60200260200101518584815181106108e5576108e5610e46565b60200260200101516105c5565b600101610894565b610902610a2a565b805160208201206000906001600160a01b038481166000908152600260209081526040808320858452909152902054919250166109815760405162461bcd60e51b815260206004820152601b60248201527f496e746567726174696f6e20646f6573206e6f742065786973742e0000000000604482015260640161028e565b6001600160a01b0383811660008181526002602090815260408083208684529091529081902080546001600160a01b0319811690915590519216918291907f824b40f41a4e550651acdd3e4f51be3b80092c952b2ae347cab6930b5a6f50fc906105b7908790610ec4565b6109f4610a2a565b6001600160a01b038116610a1e57604051631e4fbdf760e01b81526000600482015260240161028e565b610a2781610a57565b50565b6000546001600160a01b0316331461023d5760405163118cdaa760e01b815233600482015260240161028e565b600080546001600160a01b038381166001600160a01b0319831681178455604051919092169283917f8be0079c531659141344cd1fd0a4f28419497f9722a3daafe3b4186f6b6457e09190a35050565b80356001600160a01b0381168114610abe57600080fd5b919050565b634e487b7160e01b600052604160045260246000fd5b604051601f8201601f1916810167ffffffffffffffff81118282101715610b0257610b02610ac3565b604052919050565b600082601f830112610b1b57600080fd5b813567ffffffffffffffff811115610b3557610b35610ac3565b610b48601f8201601f1916602001610ad9565b818152846020838601011115610b5d57600080fd5b816020850160208301376000918101602001919091529392505050565b60008060408385031215610b8d57600080fd5b610b9683610aa7565b9150602083013567ffffffffffffffff811115610bb257600080fd5b610bbe85828601610b0a565b9150509250929050565b600067ffffffffffffffff821115610be257610be2610ac3565b5060051b60200190565b600082601f830112610bfd57600080fd5b81356020610c12610c0d83610bc8565b610ad9565b8083825260208201915060208460051b870101935086841115610c3457600080fd5b602086015b84811015610c5757610c4a81610aa7565b8352918301918301610c39565b509695505050505050565b600080600060608486031215610c7757600080fd5b833567ffffffffffffffff80821115610c8f57600080fd5b610c9b87838801610bec565b9450602091508186013581811115610cb257600080fd5b8601601f81018813610cc357600080fd5b8035610cd1610c0d82610bc8565b81815260059190911b8201840190848101908a831115610cf057600080fd5b8584015b83811015610d2857803586811115610d0c5760008081fd5b610d1a8d8983890101610b0a565b845250918601918601610cf4565b5096505050506040860135915080821115610d4257600080fd5b50610d4f86828701610bec565b9150509250925092565b600080600060608486031215610d6e57600080fd5b610d7784610aa7565b9250602084013567ffffffffffffffff811115610d9357600080fd5b610d9f86828701610b0a565b925050610dae60408501610aa7565b90509250925092565b60008060408385031215610dca57600080fd5b610dd383610aa7565b946020939093013593505050565b600060208284031215610df357600080fd5b610dfc82610aa7565b9392505050565b60208082526023908201527f4d6f64756c6520616e642061646170746572206c656e67746873206d69736d616040820152620e8c6d60eb1b606082015260800190565b634e487b7160e01b600052603260045260246000fd5b600060208284031215610e6e57600080fd5b81518015158114610dfc57600080fd5b6000815180845260005b81811015610ea457602081850181015186830182015201610e88565b506000602082860101526020601f19601f83011685010191505092915050565b602081526000610dfc6020830184610e7e565b6001600160a01b0383168152604060208201819052600090610efb90830184610e7e565b94935050505056fea26469706673582212205185a7a096a8d61c328bb4ddc9d60b33e979b54b57868b8feb651121c0bdf70b64736f6c63430008190033",
  "devdoc": {
    "author": "Set Protocol The IntegrationRegistry holds state relating to the Modules and the integrations they are connected with. The state is combined into a single Registry to allow governance updates to be aggregated to one contract.",
    "errors": {
      "OwnableInvalidOwner(address)": [
        {
          "details": "The owner is not a valid owner account. (eg. `address(0)`)"
        }
      ],
      "OwnableUnauthorizedAccount(address)": [
        {
          "details": "The caller account is not authorized to perform an operation."
        }
      ]
    },
    "kind": "dev",
    "methods": {
      "addIntegration(address,string,address)": {
        "params": {
          "_adapter": "Address of the adapter contract to add",
          "_module": "The address of the module associated with the integration",
          "_name": "Human readable string identifying the integration"
        }
      },
      "batchAddIntegration(address[],string[],address[])": {
        "params": {
          "_adapters": "Array of addresses of the adapter contracts to add",
          "_modules": "Array of addresses of the modules associated with integration",
          "_names": "Array of human readable strings identifying the integration"
        }
      },
      "batchEditIntegration(address[],string[],address[])": {
        "params": {
          "_adapters": "Array of addresses of the adapter contracts to add",
          "_modules": "Array of addresses of the modules associated with integration",
          "_names": "Array of human readable strings identifying the integration"
        }
      },
      "constructor": {
        "params": {
          "_controller": "Instance of the controller"
        }
      },
      "editIntegration(address,string,address)": {
        "params": {
          "_adapter": "Address of the adapter contract to edit",
          "_module": "The address of the module associated with the integration",
          "_name": "Human readable string identifying the integration"
        }
      },
      "getIntegrationAdapter(address,string)": {
        "params": {
          "_module": "The address of the module associated with the integration",
          "_name": "Human readable adapter name"
        },
        "returns": {
          "_0": "Address of adapter"
        }
      },
      "getIntegrationAdapterWithHash(address,bytes32)": {
        "params": {
          "module": "The address of the module associated with the integration",
          "nameHash": "Hash of human readable adapter name"
        },
        "returns": {
          "_0": "Address of adapter"
        }
      },
      "isValidIntegration(address,string)": {
        "params": {
          "_module": "The address of the module associated with the integration",
          "_name": "Human readable string identifying the integration"
        },
        "returns": {
          "_0": "Boolean indicating if valid"
        }
      },
      "owner()": {
        "details": "Returns the address of the current owner."
      },
      "removeIntegration(address,string)": {
        "params": {
          "_module": "The address of the module associated with the integration",
          "_name": "Human readable string identifying the integration"
        }
      },
      "renounceOwnership()": {
        "details": "Leaves the contract without owner. It will not be possible to call `onlyOwner` functions. Can only be called by the current owner. NOTE: Renouncing ownership will leave the contract without an owner, thereby disabling any functionality that is only available to the owner."
      },
      "transferOwnership(address)": {
        "details": "Transfers ownership of the contract to a new account (`newOwner`). Can only be called by the current owner."
      }
    },
    "title": "IntegrationRegistry",
    "version": 1
  },
  "userdoc": {
    "kind": "user",
    "methods": {
      "addIntegration(address,string,address)": {
        "notice": "GOVERNANCE FUNCTION: Add a new integration to the registry"
      },
      "batchAddIntegration(address[],string[],address[])": {
        "notice": "GOVERNANCE FUNCTION: Batch add new adapters. Reverts if exists on any module and name"
      },
      "batchEditIntegration(address[],string[],address[])": {
        "notice": "GOVERNANCE FUNCTION: Batch edit adapters for modules. Reverts if module and adapter name don't map to an adapter address"
      },
      "constructor": {
        "notice": "Initializes the controller"
      },
      "editIntegration(address,string,address)": {
        "notice": "GOVERNANCE FUNCTION: Edit an existing integration on the registry"
      },
      "getIntegrationAdapter(address,string)": {
        "notice": "Get integration adapter address associated with passed human readable name"
      },
      "getIntegrationAdapterWithHash(address,bytes32)": {
        "notice": "Get integration adapter address associated with passed hashed name"
      },
      "isValidIntegration(address,string)": {
        "notice": "Check if adapter name is valid"
      },
      "removeIntegration(address,string)": {
        "notice": "GOVERNANCE FUNCTION: Remove an existing integration on the registry"
      }
    },
    "version": 1
  },
  "storageLayout": {
    "storage": [
      {
        "astId": 8,
        "contract": "contracts/protocol/IntegrationRegistry.sol:IntegrationRegistry",
        "label": "_owner",
        "offset": 0,
        "slot": "0",
        "type": "t_address"
      },
      {
        "astId": 11196,
        "contract": "contracts/protocol/IntegrationRegistry.sol:IntegrationRegistry",
        "label": "controller",
        "offset": 0,
        "slot": "1",
        "type": "t_contract(IController)3769"
      },
      {
        "astId": 11202,
        "contract": "contracts/protocol/IntegrationRegistry.sol:IntegrationRegistry",
        "label": "integrations",
        "offset": 0,
        "slot": "2",
        "type": "t_mapping(t_address,t_mapping(t_bytes32,t_address))"
      }
    ],
    "types": {
      "t_address": {
        "encoding": "inplace",
        "label": "address",
        "numberOfBytes": "20"
      },
      "t_bytes32": {
        "encoding": "inplace",
        "label": "bytes32",
        "numberOfBytes": "32"
      },
      "t_contract(IController)3769": {
        "encoding": "inplace",
        "label": "contract IController",
        "numberOfBytes": "20"
      },
      "t_mapping(t_address,t_mapping(t_bytes32,t_address))": {
        "encoding": "mapping",
        "key": "t_address",
        "label": "mapping(address => mapping(bytes32 => address))",
        "numberOfBytes": "32",
        "value": "t_mapping(t_bytes32,t_address)"
      },
      "t_mapping(t_bytes32,t_address)": {
        "encoding": "mapping",
        "key": "t_bytes32",
        "label": "mapping(bytes32 => address)",
        "numberOfBytes": "32",
        "value": "t_address"
      }
    }
  }
}