{
  "address": "0x9c96C544b225d2d94259dc56C64b05ca45D875Db",
  "abi": [
    {
      "inputs": [
        {
          "internalType": "contract IController",
          "name": "_controller",
          "type": "address"
        },
        {
          "internalType": "address",
          "name": "_masterQuoteAsset",
          "type": "address"
        },
        {
          "internalType": "address[]",
          "name": "_adapters",
          "type": "address[]"
        },
        {
          "internalType": "address[]",
          "name": "_assetOnes",
          "type": "address[]"
        },
        {
          "internalType": "address[]",
          "name": "_assetTwos",
          "type": "address[]"
        },
        {
          "internalType": "contract IOracle[]",
          "name": "_oracles",
          "type": "address[]"
        }
      ],
      "stateMutability": "nonpayable",
      "type": "constructor"
    },
    {
      "inputs": [
        {
          "internalType": "address",
          "name": "owner",
          "type": "address"
        }
      ],
      "name": "OwnableInvalidOwner",
      "type": "error"
    },
    {
      "inputs": [
        {
          "internalType": "address",
          "name": "account",
          "type": "address"
        }
      ],
      "name": "OwnableUnauthorizedAccount",
      "type": "error"
    },
    {
      "anonymous": false,
      "inputs": [
        {
          "indexed": false,
          "internalType": "address",
          "name": "_adapter",
          "type": "address"
        }
      ],
      "name": "AdapterAdded",
      "type": "event"
    },
    {
      "anonymous": false,
      "inputs": [
        {
          "indexed": false,
          "internalType": "address",
          "name": "_adapter",
          "type": "address"
        }
      ],
      "name": "AdapterRemoved",
      "type": "event"
    },
    {
      "anonymous": false,
      "inputs": [
        {
          "indexed": false,
          "internalType": "address",
          "name": "_newMasterQuote",
          "type": "address"
        }
      ],
      "name": "MasterQuoteAssetEdited",
      "type": "event"
    },
    {
      "anonymous": false,
      "inputs": [
        {
          "indexed": true,
          "internalType": "address",
          "name": "previousOwner",
          "type": "address"
        },
        {
          "indexed": true,
          "internalType": "address",
          "name": "newOwner",
          "type": "address"
        }
      ],
      "name": "OwnershipTransferred",
      "type": "event"
    },
    {
      "anonymous": false,
      "inputs": [
        {
          "indexed": true,
          "internalType": "address",
          "name": "_assetOne",
          "type": "address"
        },
        {
          "indexed": true,
          "internalType": "address",
          "name": "_assetTwo",
          "type": "address"
        },
        {
          "indexed": false,
          "internalType": "address",
          "name": "_oracle",
          "type": "address"
        }
      ],
      "name": "PairAdded",
      "type": "event"
    },
    {
      "anonymous": false,
      "inputs": [
        {
          "indexed": true,
          "internalType": "address",
          "name": "_assetOne",
          "type": "address"
        },
        {
          "indexed": true,
          "internalType": "address",
          "name": "_assetTwo",
          "type": "address"
        },
        {
          "indexed": false,
          "internalType": "address",
          "name": "_newOracle",
          "type": "address"
        }
      ],
      "name": "PairEdited",
      "type": "event"
    },
    {
      "anonymous": false,
      "inputs": [
        {
          "indexed": true,
          "internalType": "address",
          "name": "_assetOne",
          "type": "address"
        },
        {
          "indexed": true,
          "internalType": "address",
          "name": "_assetTwo",
          "type": "address"
        },
        {
          "indexed": false,
          "internalType": "address",
          "name": "_oracle",
          "type": "address"
        }
      ],
      "name": "PairRemoved",
      "type": "event"
    },
    {
      "inputs": [
        {
          "internalType": "uint256",
          "name": "",
          "type": "uint256"
        }
      ],
      "name": "adapters",
      "outputs": [
        {
          "internalType": "address",
          "name": "",
          "type": "address"
        }
      ],
      "stateMutability": "view",
      "type": "function"
    },
    {
      "inputs": [
        {
          "internalType": "address",
          "name": "_adapter",
          "type": "address"
        }
      ],
      "name": "addAdapter",
      "outputs": [],
      "stateMutability": "nonpayable",
      "type": "function"
    },
    {
      "inputs": [
        {
          "internalType": "address",
          "name": "_assetOne",
          "type": "address"
        },
        {
          "internalType": "address",
          "name": "_assetTwo",
          "type": "address"
        },
        {
          "internalType": "contract IOracle",
          "name": "_oracle",
          "type": "address"
        }
      ],
      "name": "addPair",
      "outputs": [],
      "stateMutability": "nonpayable",
      "type": "function"
    },
    {
      "inputs": [],
      "name": "controller",
      "outputs": [
        {
          "internalType": "contract IController",
          "name": "",
          "type": "address"
        }
      ],
      "stateMutability": "view",
      "type": "function"
    },
    {
      "inputs": [
        {
          "internalType": "address",
          "name": "_newMasterQuoteAsset",
          "type": "address"
        }
      ],
      "name": "editMasterQuoteAsset",
      "outputs": [],
      "stateMutability": "nonpayable",
      "type": "function"
    },
    {
      "inputs": [
        {
          "internalType": "address",
          "name": "_assetOne",
          "type": "address"
        },
        {
          "internalType": "address",
          "name": "_assetTwo",
          "type": "address"
        },
        {
          "internalType": "contract IOracle",
          "name": "_oracle",
          "type": "address"
        }
      ],
      "name": "editPair",
      "outputs": [],
      "stateMutability": "nonpayable",
      "type": "function"
    },
    {
      "inputs": [],
      "name": "getAdapters",
      "outputs": [
        {
          "internalType": "address[]",
          "name": "",
          "type": "address[]"
        }
      ],
      "stateMutability": "view",
      "type": "function"
    },
    {
      "inputs": [
        {
          "internalType": "address",
          "name": "_assetOne",
          "type": "address"
        },
        {
          "internalType": "address",
          "name": "_assetTwo",
          "type": "address"
        }
      ],
      "name": "getPrice",
      "outputs": [
        {
          "internalType": "uint256",
          "name": "",
          "type": "uint256"
        }
      ],
      "stateMutability": "view",
      "type": "function"
    },
    {
      "inputs": [],
      "name": "masterQuoteAsset",
      "outputs": [
        {
          "internalType": "address",
          "name": "",
          "type": "address"
        }
      ],
      "stateMutability": "view",
      "type": "function"
    },
    {
      "inputs": [
        {
          "internalType": "address",
          "name": "",
          "type": "address"
        },
        {
          "internalType": "address",
          "name": "",
          "type": "address"
        }
      ],
      "name": "oracles",
      "outputs": [
        {
          "internalType": "contract IOracle",
          "name": "",
          "type": "address"
        }
      ],
      "stateMutability": "view",
      "type": "function"
    },
    {
      "inputs": [],
      "name": "owner",
      "outputs": [
        {
          "internalType": "address",
          "name": "",
          "type": "address"
        }
      ],
      "stateMutability": "view",
      "type": "function"
    },
    {
      "inputs": [
        {
          "internalType": "address",
          "name": "_adapter",
          "type": "address"
        }
      ],
      "name": "removeAdapter",
      "outputs": [],
      "stateMutability": "nonpayable",
      "type": "function"
    },
    {
      "inputs": [
        {
          "internalType": "address",
          "name": "_assetOne",
          "type": "address"
        },
        {
          "internalType": "address",
          "name": "_assetTwo",
          "type": "address"
        }
      ],
      "name": "removePair",
      "outputs": [],
      "stateMutability": "nonpayable",
      "type": "function"
    },
    {
      "inputs": [],
      "name": "renounceOwnership",
      "outputs": [],
      "stateMutability": "nonpayable",
      "type": "function"
    },
    {
      "inputs": [
        {
          "internalType": "address",
          "name": "newOwner",
          "type": "address"
        }
      ],
      "name": "transferOwnership",
      "outputs": [],
      "stateMutability": "nonpayable",
      "type": "function"
    }
  ],
  "transactionHash": "0x8fdbff2e828a918fa5db7c1eb432729e58134802d0677a284bc17ba4a18b1ccd",
  "args": [
    "0x9409Ac28260E60e26f5475526cb9F7315edddd17",
    "0x0Be7be19F03932EF7CDE13fE84cDCa098883c436",
    [],
    [
      "0x714f7c690373D7136b20f87466179D1F8cbbDC38",
      "0x0Be7be19F03932EF7CDE13fE84cDCa098883c436",
      "0x905C5173b0A6AC9B8C8Bd8f91E89c322216D7135",
      "0xbDF89dA8fDaeB9725B909C568d2A415157931822"
    ],
    [
      "0x0Be7be19F03932EF7CDE13fE84cDCa098883c436",
      "0x0Be7be19F03932EF7CDE13fE84cDCa098883c436",
      "0x0Be7be19F03932EF7CDE13fE84cDCa098883c436",
      "0x0Be7be19F03932EF7CDE13fE84cDCa098883c436"
    ],
    [
      "0x5B207Aad8ad07cEcb2d82bC4eD5B5aE255c79F27",
      "0x1E057193AC3f482E6794862a2EFfeB9FD0DbBD74",
      "0xd18a73cef245508350026Af1Fc5f43425Ab1519c",
      "0xD6ca950E3BC2991186d8d589bCA9947e4d67d594"
    ]
  ],
  "numDeployments": 1,
  "solcInputHash": "7fe3b69caaa6e1ae3cb624acb9fde77a",
  "bytecode": "0x608060405234801561001057600080fd5b506040516118a53803806118a583398101604081905261002f91610405565b338061005657604051631e4fbdf760e01b8152600060048201526024015b60405180910390fd5b61005f816101ca565b50600180546001600160a01b038089166001600160a01b031992831617909255600380549288169290911691909117905583516100a390600490602087019061021a565b50815183511480156100b6575080518251145b6101025760405162461bcd60e51b815260206004820152601b60248201527f4172726179206c656e6774687320646f206e6f74206d617463682e0000000000604482015260640161004d565b60005b83518110156101be57818181518110610120576101206104d2565b60200260200101516002600086848151811061013e5761013e6104d2565b60200260200101516001600160a01b03166001600160a01b03168152602001908152602001600020600085848151811061017a5761017a6104d2565b6020908102919091018101516001600160a01b0390811683529082019290925260400160002080546001600160a01b03191692909116919091179055600101610105565b505050505050506104e8565b600080546001600160a01b038381166001600160a01b0319831681178455604051919092169283917f8be0079c531659141344cd1fd0a4f28419497f9722a3daafe3b4186f6b6457e09190a35050565b82805482825590600052602060002090810192821561026f579160200282015b8281111561026f57825182546001600160a01b0319166001600160a01b0390911617825560209092019160019091019061023a565b5061027b92915061027f565b5090565b5b8082111561027b5760008155600101610280565b6001600160a01b03811681146102a957600080fd5b50565b80516102b781610294565b919050565b634e487b7160e01b600052604160045260246000fd5b604051601f8201601f191681016001600160401b03811182821017156102fa576102fa6102bc565b604052919050565b60006001600160401b0382111561031b5761031b6102bc565b5060051b60200190565b600082601f83011261033657600080fd5b8151602061034b61034683610302565b6102d2565b8083825260208201915060208460051b87010193508684111561036d57600080fd5b602086015b8481101561039257805161038581610294565b8352918301918301610372565b509695505050505050565b600082601f8301126103ae57600080fd5b815160206103be61034683610302565b8083825260208201915060208460051b8701019350868411156103e057600080fd5b602086015b848110156103925780516103f881610294565b83529183019183016103e5565b60008060008060008060c0878903121561041e57600080fd5b610427876102ac565b9550610435602088016102ac565b60408801519095506001600160401b038082111561045257600080fd5b61045e8a838b01610325565b9550606089015191508082111561047457600080fd5b6104808a838b01610325565b9450608089015191508082111561049657600080fd5b6104a28a838b01610325565b935060a08901519150808211156104b857600080fd5b506104c589828a0161039d565b9150509295509295509295565b634e487b7160e01b600052603260045260246000fd5b6113ae806104f76000396000f3fe608060405234801561001057600080fd5b50600436106100f55760003560e01c806361d5b14411610097578063b82e16e311610066578063b82e16e31461020c578063f1ec23cf14610221578063f2fde38b14610234578063f77c47911461024757600080fd5b806361d5b144146101bf578063715018a6146101d25780638da5cb5b146101da578063ac41865a146101eb57600080fd5b806352a03c03116100d357806352a03c0314610152578063585cd34b146101865780635861b2271461019957806360d54d41146101ac57600080fd5b806304289853146100fa578063342833541461010f5780634ef501ac1461013f575b600080fd5b61010d61010836600461115b565b61025a565b005b600354610122906001600160a01b031681565b6040516001600160a01b0390911681526020015b60405180910390f35b61012261014d3660046111a6565b610361565b6101226101603660046111bf565b60026020908152600092835260408084209091529082529020546001600160a01b031681565b61010d6101943660046111f8565b61038b565b61010d6101a73660046111bf565b610529565b61010d6101ba3660046111f8565b610625565b61010d6101cd3660046111f8565b61077b565b61010d6107d1565b6000546001600160a01b0316610122565b6101fe6101f93660046111bf565b6107e5565b604051908152602001610136565b61021461095e565b6040516101369190611215565b61010d61022f36600461115b565b6109c0565b61010d6102423660046111f8565b610aba565b600154610122906001600160a01b031681565b610262610af8565b6001600160a01b0383811660009081526002602090815260408083208685168452909152902054166102ed5760405162461bcd60e51b815260206004820152602960248201527f50726963654f7261636c652e65646974506169723a205061697220646f65736e60448201526813ba1032bc34b9ba1760b91b60648201526084015b60405180910390fd5b6001600160a01b0383811660008181526002602090815260408083208786168085529083529281902080546001600160a01b03191695871695861790555193845290927f31639ce2bfc7c00ec8297cb6df66924b38918a7417c8e6b10eb7dc9f9583891091015b60405180910390a3505050565b6004818154811061037157600080fd5b6000918252602090912001546001600160a01b0316905081565b610393610af8565b6104008160048054806020026020016040519081016040528092919081815260200182805480156103ed57602002820191906000526020600020905b81546001600160a01b031681526001909101906020018083116103cf575b5050505050610b2590919063ffffffff16565b6104675760405162461bcd60e51b815260206004820152603260248201527f50726963654f7261636c652e72656d6f7665416461707465723a20416461707460448201527132b9103237b2b9903737ba1032bc34b9ba1760711b60648201526084016102e4565b6104d48160048054806020026020016040519081016040528092919081815260200182805480156104c157602002820191906000526020600020905b81546001600160a01b031681526001909101906020018083116104a3575b5050505050610b3b90919063ffffffff16565b80516104e8916004916020909101906110cc565b506040516001600160a01b03821681527fdf980d21d8c7bb34800e668dbe003299093bac8e693614151d3c57f73f98a93d906020015b60405180910390a150565b610531610af8565b6001600160a01b0382811660009081526002602090815260408083208585168452909152902054166105b95760405162461bcd60e51b815260206004820152602b60248201527f50726963654f7261636c652e72656d6f7665506169723a205061697220646f6560448201526a39b713ba1032bc34b9ba1760a91b60648201526084016102e4565b6001600160a01b0382811660008181526002602090815260408083208686168085529083529281902080546001600160a01b0319811690915590519416808552939192917fd9001d4fd555e50f50619eeca8a260400b5e944989042d0652c5834aa2b968609101610354565b61062d610af8565b6106988160048054806020026020016040519081016040528092919081815260200182805480156103ed576020028201919060005260206000209081546001600160a01b031681526001909101906020018083116103cf575050505050610b2590919063ffffffff16565b156106fd5760405162461bcd60e51b815260206004820152602f60248201527f50726963654f7261636c652e616464416461707465723a20416461707465722060448201526e30b63932b0b23c9032bc34b9ba399760891b60648201526084016102e4565b600480546001810182556000919091527f8a35acfbc15ff81a39ae7d344fd709f28e8600b4aa8c65c6b64bfe7fe36bd19b0180546001600160a01b0319166001600160a01b0383169081179091556040519081527fcf9c2c7f9adbb156bd76affb04df84595f8f5e69cab2e61221b05b05a902fa269060200161051e565b610783610af8565b600380546001600160a01b0319166001600160a01b0383169081179091556040519081527f748818fcd84486bc2804c035b8dec2300489b070a39a4a290d8311cd9791d8679060200161051e565b6107d9610af8565b6107e36000610bab565b565b6001546040516313bc6d4b60e01b81523360048201526000916001600160a01b0316906313bc6d4b90602401602060405180830381865afa15801561082e573d6000803e3d6000fd5b505050506040513d601f19601f820116820180604052508101906108529190611277565b6108bc5760405162461bcd60e51b815260206004820152603560248201527f50726963654f7261636c652e67657450726963653a2043616c6c6572206d75736044820152743a1031329039bcb9ba32b69031b7b73a3930b1ba1760591b60648201526084016102e4565b6000806108c98585610bfb565b9092509050816108e3576108dd8585610cfb565b90925090505b816108f8576108f28585610d5b565b90925090505b816109545760405162461bcd60e51b815260206004820152602660248201527f50726963654f7261636c652e67657450726963653a205072696365206e6f74206044820152653337bab7321760d11b60648201526084016102e4565b9150505b92915050565b606060048054806020026020016040519081016040528092919081815260200182805480156109b657602002820191906000526020600020905b81546001600160a01b03168152600190910190602001808311610998575b5050505050905090565b6109c8610af8565b6001600160a01b03838116600090815260026020908152604080832086851684529091529020541615610a4f5760405162461bcd60e51b815260206004820152602960248201527f50726963654f7261636c652e616464506169723a205061697220616c726561646044820152683c9032bc34b9ba399760b91b60648201526084016102e4565b6001600160a01b0383811660008181526002602090815260408083208786168085529083529281902080546001600160a01b03191695871695861790555193845290927f7f46075c67ca5bbd3aaf82d8e324282141f27b7cba3376e5498a6b70c9931c2a9101610354565b610ac2610af8565b6001600160a01b038116610aec57604051631e4fbdf760e01b8152600060048201526024016102e4565b610af581610bab565b50565b6000546001600160a01b031633146107e35760405163118cdaa760e01b81523360048201526024016102e4565b600080610b328484610e2c565b95945050505050565b6060600080610b4a8585610e2c565b9150915080610b935760405162461bcd60e51b815260206004820152601560248201527420b2323932b9b9903737ba1034b71030b93930bc9760591b60448201526064016102e4565b6000610b9f8684610e94565b50935061095892505050565b600080546001600160a01b038381166001600160a01b0319831681178455604051919092169283917f8be0079c531659141344cd1fd0a4f28419497f9722a3daafe3b4186f6b6457e09190a35050565b6001600160a01b038083166000908152600260209081526040808320858516845290915281205490918291168015801590610c9f576001826001600160a01b03166357de26a46040518163ffffffff1660e01b8152600401602060405180830381865afa158015610c70573d6000803e3d6000fd5b505050506040513d601f19601f82011682018060405250810190610c949190611292565b935093505050610cf4565b6001600160a01b0380861660009081526002602090815260408083208a85168452909152902054168015801590610ce8576001610cdb8361102d565b9550955050505050610cf4565b60008095509550505050505b9250929050565b600354600090819081908190610d1b9087906001600160a01b0316610bfb565b60035491935091506000908190610d3c9088906001600160a01b0316610bfb565b91509150838015610d4a5750815b15610ce8576001610cdb84836110ad565b60008060005b600454811015610e1f5760008060048381548110610d8157610d816112ab565b600091825260209091200154604051635620c32d60e11b81526001600160a01b03898116600483015288811660248301529091169063ac41865a906044016040805180830381865afa158015610ddb573d6000803e3d6000fd5b505050506040513d601f19601f82011682018060405250810190610dff91906112c1565b915091508115610e15579093509150610cf49050565b5050600101610d61565b5060009485945092505050565b81516000908190815b81811015610e8457846001600160a01b0316868281518110610e5957610e596112ab565b60200260200101516001600160a01b031603610e7c57925060019150610cf49050565b600101610e35565b5060001995600095509350505050565b8151606090600090808410610eeb5760405162461bcd60e51b815260206004820152601860248201527f496e646578206d757374206265203c2041206c656e677468000000000000000060448201526064016102e4565b6000610ef8600183611303565b67ffffffffffffffff811115610f1057610f10611316565b604051908082528060200260200182016040528015610f39578160200160208202803683370190505b50905060005b85811015610f9357868181518110610f5957610f596112ab565b6020026020010151828281518110610f7357610f736112ab565b6001600160a01b0390921660209283029190910190910152600101610f3f565b506000610fa186600161132c565b90505b8281101561100457868181518110610fbe57610fbe6112ab565b602002602001015182600183610fd49190611303565b81518110610fe457610fe46112ab565b6001600160a01b0390921660209283029190910190910152600101610fa4565b5080868681518110611018576110186112ab565b60200260200101519350935050509250929050565b600080826001600160a01b03166357de26a46040518163ffffffff1660e01b8152600401602060405180830381865afa15801561106e573d6000803e3d6000fd5b505050506040513d601f19601f820116820180604052508101906110929190611292565b90506110a6670de0b6b3a7640000826110ad565b9392505050565b6000816110c2670de0b6b3a76400008561133f565b6110a69190611356565b828054828255906000526020600020908101928215611121579160200282015b8281111561112157825182546001600160a01b0319166001600160a01b039091161782556020909201916001909101906110ec565b5061112d929150611131565b5090565b5b8082111561112d5760008155600101611132565b6001600160a01b0381168114610af557600080fd5b60008060006060848603121561117057600080fd5b833561117b81611146565b9250602084013561118b81611146565b9150604084013561119b81611146565b809150509250925092565b6000602082840312156111b857600080fd5b5035919050565b600080604083850312156111d257600080fd5b82356111dd81611146565b915060208301356111ed81611146565b809150509250929050565b60006020828403121561120a57600080fd5b81356110a681611146565b6020808252825182820181905260009190848201906040850190845b818110156112565783516001600160a01b031683529284019291840191600101611231565b50909695505050505050565b8051801515811461127257600080fd5b919050565b60006020828403121561128957600080fd5b6110a682611262565b6000602082840312156112a457600080fd5b5051919050565b634e487b7160e01b600052603260045260246000fd5b600080604083850312156112d457600080fd5b6112dd83611262565b9150602083015190509250929050565b634e487b7160e01b600052601160045260246000fd5b81810381811115610958576109586112ed565b634e487b7160e01b600052604160045260246000fd5b80820180821115610958576109586112ed565b8082028115828204841417610958576109586112ed565b60008261137357634e487b7160e01b600052601260045260246000fd5b50049056fea264697066735822122079ddb63d7f8de64ce3e3bf2d140aa1b1dc24a32f409507fefb3e3c1b17d20a9564736f6c63430008190033",
  "devdoc": {
    "errors": {
      "OwnableInvalidOwner(address)": [
        {
          "details": "The owner is not a valid owner account. (eg. `address(0)`)"
        }
      ],
      "OwnableUnauthorizedAccount(address)": [
        {
          "details": "The caller account is not authorized to perform an operation."
        }
      ]
    },
    "kind": "dev",
    "methods": {
      "addAdapter(address)": {
        "params": {
          "_adapter": "Address of new adapter"
        }
      },
      "addPair(address,address,address)": {
        "params": {
          "_assetOne": "Address of first asset in pair",
          "_assetTwo": "Address of second asset in pair",
          "_oracle": "Address of asset pair's oracle"
        }
      },
      "constructor": {
        "params": {
          "_adapters": "List of adapters used to price assets created by other protocols",
          "_assetOnes": "List of first asset in pair, index i maps to same index in assetTwos and oracles",
          "_assetTwos": "List of second asset in pair, index i maps to same index in assetOnes and oracles",
          "_controller": "Address of controller contract",
          "_masterQuoteAsset": "Address of asset that can be used to link unrelated asset pairs",
          "_oracles": "List of oracles, index i maps to same index in assetOnes and assetTwos"
        }
      },
      "editMasterQuoteAsset(address)": {
        "params": {
          "_newMasterQuoteAsset": "New address of master quote asset"
        }
      },
      "editPair(address,address,address)": {
        "params": {
          "_assetOne": "Address of first asset in pair",
          "_assetTwo": "Address of second asset in pair",
          "_oracle": "Address of asset pair's new oracle"
        }
      },
      "getPrice(address,address)": {
        "params": {
          "_assetOne": "Address of first asset in pair",
          "_assetTwo": "Address of second asset in pair"
        },
        "returns": {
          "_0": "Price of asset pair to 18 decimals of precision"
        }
      },
      "owner()": {
        "details": "Returns the address of the current owner."
      },
      "removeAdapter(address)": {
        "params": {
          "_adapter": "Address of adapter to remove"
        }
      },
      "removePair(address,address)": {
        "params": {
          "_assetOne": "Address of first asset in pair",
          "_assetTwo": "Address of second asset in pair"
        }
      },
      "renounceOwnership()": {
        "details": "Leaves the contract without owner. It will not be possible to call `onlyOwner` functions. Can only be called by the current owner. NOTE: Renouncing ownership will leave the contract without an owner, thereby disabling any functionality that is only available to the owner."
      },
      "transferOwnership(address)": {
        "details": "Transfers ownership of the contract to a new account (`newOwner`). Can only be called by the current owner."
      }
    },
    "title": "PriceOracle Contract that returns the price for any given asset pair. Price is retrieved either directly from an oracle, calculated using common asset pairs, or uses external data to calculate price. Note: Prices are returned in preciseUnits (i.e. 18 decimals of precision)",
    "version": 1
  },
  "userdoc": {
    "kind": "user",
    "methods": {
      "addAdapter(address)": {
        "notice": "GOVERNANCE FUNCTION: Add new oracle adapter."
      },
      "addPair(address,address,address)": {
        "notice": "GOVERNANCE FUNCTION: Add new asset pair oracle."
      },
      "constructor": {
        "notice": "Set state variables and map asset pairs to their oracles"
      },
      "editMasterQuoteAsset(address)": {
        "notice": "GOVERNANCE FUNCTION: Change the master quote asset."
      },
      "editPair(address,address,address)": {
        "notice": "GOVERNANCE FUNCTION: Edit an existing asset pair's oracle."
      },
      "getAdapters()": {
        "notice": "Returns an array of adapters"
      },
      "getPrice(address,address)": {
        "notice": "SYSTEM-ONLY PRIVELEGE: Find price of passed asset pair, if possible. The steps it takes are:  1) Check to see if a direct or inverse oracle of the pair exists,  2) If not, use masterQuoteAsset to link pairs together (i.e. BTC/ETH and ETH/USDC     could be used to calculate BTC/USDC).  3) If not, check oracle adapters in case one or more of the assets needs external protocol data     to price.  4) If all steps fail, revert."
      },
      "removeAdapter(address)": {
        "notice": "GOVERNANCE FUNCTION: Remove oracle adapter."
      },
      "removePair(address,address)": {
        "notice": "GOVERNANCE FUNCTION: Remove asset pair's oracle."
      }
    },
    "version": 1
  },
  "storageLayout": {
    "storage": [
      {
        "astId": 8,
        "contract": "contracts/protocol/PriceOracle.sol:PriceOracle",
        "label": "_owner",
        "offset": 0,
        "slot": "0",
        "type": "t_address"
      },
      {
        "astId": 11676,
        "contract": "contracts/protocol/PriceOracle.sol:PriceOracle",
        "label": "controller",
        "offset": 0,
        "slot": "1",
        "type": "t_contract(IController)3769"
      },
      {
        "astId": 11683,
        "contract": "contracts/protocol/PriceOracle.sol:PriceOracle",
        "label": "oracles",
        "offset": 0,
        "slot": "2",
        "type": "t_mapping(t_address,t_mapping(t_address,t_contract(IOracle)3887))"
      },
      {
        "astId": 11685,
        "contract": "contracts/protocol/PriceOracle.sol:PriceOracle",
        "label": "masterQuoteAsset",
        "offset": 0,
        "slot": "3",
        "type": "t_address"
      },
      {
        "astId": 11688,
        "contract": "contracts/protocol/PriceOracle.sol:PriceOracle",
        "label": "adapters",
        "offset": 0,
        "slot": "4",
        "type": "t_array(t_address)dyn_storage"
      }
    ],
    "types": {
      "t_address": {
        "encoding": "inplace",
        "label": "address",
        "numberOfBytes": "20"
      },
      "t_array(t_address)dyn_storage": {
        "base": "t_address",
        "encoding": "dynamic_array",
        "label": "address[]",
        "numberOfBytes": "32"
      },
      "t_contract(IController)3769": {
        "encoding": "inplace",
        "label": "contract IController",
        "numberOfBytes": "20"
      },
      "t_contract(IOracle)3887": {
        "encoding": "inplace",
        "label": "contract IOracle",
        "numberOfBytes": "20"
      },
      "t_mapping(t_address,t_contract(IOracle)3887)": {
        "encoding": "mapping",
        "key": "t_address",
        "label": "mapping(address => contract IOracle)",
        "numberOfBytes": "32",
        "value": "t_contract(IOracle)3887"
      },
      "t_mapping(t_address,t_mapping(t_address,t_contract(IOracle)3887))": {
        "encoding": "mapping",
        "key": "t_address",
        "label": "mapping(address => mapping(address => contract IOracle))",
        "numberOfBytes": "32",
        "value": "t_mapping(t_address,t_contract(IOracle)3887)"
      }
    }
  }
}