{
  "address": "0xC94820557121C4A5636b3FAc2EeBE332a8Ee6b8C",
  "abi": [
    {
      "inputs": [
        {
          "internalType": "contract IController",
          "name": "_controller",
          "type": "address"
        }
      ],
      "stateMutability": "nonpayable",
      "type": "constructor"
    },
    {
      "anonymous": false,
      "inputs": [
        {
          "indexed": true,
          "internalType": "address",
          "name": "_setToken",
          "type": "address"
        },
        {
          "indexed": false,
          "internalType": "address",
          "name": "_manager",
          "type": "address"
        },
        {
          "indexed": false,
          "internalType": "string",
          "name": "_name",
          "type": "string"
        },
        {
          "indexed": false,
          "internalType": "string",
          "name": "_symbol",
          "type": "string"
        }
      ],
      "name": "SetTokenCreated",
      "type": "event"
    },
    {
      "inputs": [],
      "name": "controller",
      "outputs": [
        {
          "internalType": "contract IController",
          "name": "",
          "type": "address"
        }
      ],
      "stateMutability": "view",
      "type": "function"
    },
    {
      "inputs": [
        {
          "internalType": "address[]",
          "name": "_components",
          "type": "address[]"
        },
        {
          "internalType": "int256[]",
          "name": "_units",
          "type": "int256[]"
        },
        {
          "internalType": "address[]",
          "name": "_modules",
          "type": "address[]"
        },
        {
          "internalType": "address",
          "name": "_manager",
          "type": "address"
        },
        {
          "internalType": "string",
          "name": "_name",
          "type": "string"
        },
        {
          "internalType": "string",
          "name": "_symbol",
          "type": "string"
        }
      ],
      "name": "create",
      "outputs": [
        {
          "internalType": "address",
          "name": "",
          "type": "address"
        }
      ],
      "stateMutability": "nonpayable",
      "type": "function"
    }
  ],
  "transactionHash": "0x541e6c090611cf99046f05ee9b6f50bcb5ca413dcd015f32b92194c5ca04d634",
  "args": [
    "0x9409Ac28260E60e26f5475526cb9F7315edddd17"
  ],
  "numDeployments": 1,
  "solcInputHash": "7fe3b69caaa6e1ae3cb624acb9fde77a",
  "bytecode": "0x6080604052348015600f57600080fd5b506040516141fa3803806141fa833981016040819052602c916050565b600080546001600160a01b0319166001600160a01b0392909216919091179055607e565b600060208284031215606157600080fd5b81516001600160a01b0381168114607757600080fd5b9392505050565b61416d8061008d6000396000f3fe608060405234801561001057600080fd5b50600436106100365760003560e01c8063a949dc3e1461003b578063f77c47911461006a575b600080fd5b61004e610049366004610804565b61007d565b6040516001600160a01b03909116815260200160405180910390f35b60005461004e906001600160a01b031681565b6000808751116100d45760405162461bcd60e51b815260206004820152601e60248201527f4d7573742068617665206174206c65617374203120636f6d706f6e656e74000060448201526064015b60405180910390fd5b85518751146101395760405162461bcd60e51b815260206004820152602b60248201527f436f6d706f6e656e7420616e6420756e6974206c656e67746873206d7573742060448201526a6265207468652073616d6560a81b60648201526084016100cb565b61014287610543565b1561019b5760405162461bcd60e51b8152602060048201526024808201527f436f6d706f6e656e7473206d757374206e6f7420686176652061206475706c696044820152636361746560e01b60648201526084016100cb565b60008551116101ec5760405162461bcd60e51b815260206004820152601b60248201527f4d7573742068617665206174206c656173742031206d6f64756c65000000000060448201526064016100cb565b6001600160a01b0384166102425760405162461bcd60e51b815260206004820152601960248201527f4d616e61676572206d757374206e6f7420626520656d7074790000000000000060448201526064016100cb565b60005b87518110156103455760006001600160a01b031688828151811061026b5761026b6108e5565b60200260200101516001600160a01b0316036102d45760405162461bcd60e51b815260206004820152602260248201527f436f6d706f6e656e74206d757374206e6f74206265206e756c6c206164647265604482015261737360f01b60648201526084016100cb565b60008782815181106102e8576102e86108e5565b60200260200101511361033d5760405162461bcd60e51b815260206004820152601c60248201527f556e697473206d7573742062652067726561746572207468616e20300000000060448201526064016100cb565b600101610245565b5060005b855181101561043c5760005486516001600160a01b03909116906342f6e3899088908490811061037b5761037b6108e5565b60200260200101516040518263ffffffff1660e01b81526004016103ae91906001600160a01b0391909116815260200190565b602060405180830381865afa1580156103cb573d6000803e3d6000fd5b505050506040513d601f19601f820116820180604052508101906103ef91906108fb565b6104345760405162461bcd60e51b81526020600482015260166024820152754d75737420626520656e61626c6564206d6f64756c6560501b60448201526064016100cb565b600101610349565b50600087878760008054906101000a90046001600160a01b03168888886040516104659061062b565b61047597969594939291906109af565b604051809103906000f080158015610491573d6000803e3d6000fd5b5060005460405163356037b560e21b81526001600160a01b03808416600483015292935091169063d580ded490602401600060405180830381600087803b1580156104db57600080fd5b505af11580156104ef573d6000803e3d6000fd5b50505050806001600160a01b03167fb7b1e89d4bb640b93b0cb96b27077ceb558d073e00531c0a712a4afc9ccf06fe86868660405161053093929190610a69565b60405180910390a2979650505050505050565b6000808251116105825760405162461bcd60e51b815260206004820152600a6024820152694120697320656d70747960b01b60448201526064016100cb565b60005b600183516105939190610abf565b8110156106225760008382815181106105ae576105ae6108e5565b6020026020010151905060008260016105c79190610ad8565b90505b8451811015610618578481815181106105e5576105e56108e5565b60200260200101516001600160a01b0316826001600160a01b03160361061057506001949350505050565b6001016105ca565b5050600101610585565b50600092915050565b61364c80610aec83390190565b634e487b7160e01b600052604160045260246000fd5b604051601f8201601f1916810167ffffffffffffffff8111828210171561067757610677610638565b604052919050565b600067ffffffffffffffff82111561069957610699610638565b5060051b60200190565b80356001600160a01b03811681146106ba57600080fd5b919050565b600082601f8301126106d057600080fd5b813560206106e56106e08361067f565b61064e565b8083825260208201915060208460051b87010193508684111561070757600080fd5b602086015b8481101561072a5761071d816106a3565b835291830191830161070c565b509695505050505050565b600082601f83011261074657600080fd5b813560206107566106e08361067f565b8083825260208201915060208460051b87010193508684111561077857600080fd5b602086015b8481101561072a578035835291830191830161077d565b600082601f8301126107a557600080fd5b813567ffffffffffffffff8111156107bf576107bf610638565b6107d2601f8201601f191660200161064e565b8181528460208386010111156107e757600080fd5b816020850160208301376000918101602001919091529392505050565b60008060008060008060c0878903121561081d57600080fd5b863567ffffffffffffffff8082111561083557600080fd5b6108418a838b016106bf565b9750602089013591508082111561085757600080fd5b6108638a838b01610735565b9650604089013591508082111561087957600080fd5b6108858a838b016106bf565b955061089360608a016106a3565b945060808901359150808211156108a957600080fd5b6108b58a838b01610794565b935060a08901359150808211156108cb57600080fd5b506108d889828a01610794565b9150509295509295509295565b634e487b7160e01b600052603260045260246000fd5b60006020828403121561090d57600080fd5b8151801515811461091d57600080fd5b9392505050565b60008151808452602080850194506020840160005b8381101561095e5781516001600160a01b031687529582019590820190600101610939565b509495945050505050565b6000815180845260005b8181101561098f57602081850181015186830182015201610973565b506000602082860101526020601f19601f83011685010191505092915050565b60e0815260006109c260e083018a610924565b82810360208481019190915289518083528a82019282019060005b818110156109f9578451835293830193918301916001016109dd565b50508481036040860152610a0d818b610924565b92505050610a2660608401886001600160a01b03169052565b6001600160a01b038616608084015282810360a0840152610a478186610969565b905082810360c0840152610a5b8185610969565b9a9950505050505050505050565b6001600160a01b0384168152606060208201819052600090610a8d90830185610969565b8281036040840152610a9f8185610969565b9695505050505050565b634e487b7160e01b600052601160045260246000fd5b81810381811115610ad257610ad2610aa9565b92915050565b80820180821115610ad257610ad2610aa956fe608060405234801561001057600080fd5b5060405161364c38038061364c83398101604081905261002f916103ed565b8181600361003d838261056a565b50600461004a828261056a565b5050600580546001600160a01b038088166001600160a01b03199283161790925560068054928716929091169190911790555061008c670de0b6b3a764000090565b600d5586516100a290600b9060208a0190610187565b5060005b8551811015610111576001600960008884815181106100c7576100c7610629565b6020908102919091018101516001600160a01b03168252810191909152604001600020805460ff191660018360028111156101045761010461063f565b02179055506001016100a6565b5060005b875181101561017a5786818151811061013057610130610629565b6020026020010151600c60008a848151811061014e5761014e610629565b6020908102919091018101516001600160a01b0316825281019190915260400160002055600101610115565b5050505050505050610655565b8280548282559060005260206000209081019282156101dc579160200282015b828111156101dc57825182546001600160a01b0319166001600160a01b039091161782556020909201916001909101906101a7565b506101e89291506101ec565b5090565b5b808211156101e857600081556001016101ed565b634e487b7160e01b600052604160045260246000fd5b604051601f8201601f191681016001600160401b038111828210171561023f5761023f610201565b604052919050565b60006001600160401b0382111561026057610260610201565b5060051b60200190565b6001600160a01b038116811461027f57600080fd5b50565b805161028d8161026a565b919050565b600082601f8301126102a357600080fd5b815160206102b86102b383610247565b610217565b8083825260208201915060208460051b8701019350868411156102da57600080fd5b602086015b848110156102ff5780516102f28161026a565b83529183019183016102df565b509695505050505050565b600082601f83011261031b57600080fd5b8151602061032b6102b383610247565b8083825260208201915060208460051b87010193508684111561034d57600080fd5b602086015b848110156102ff5780518352918301918301610352565b600082601f83011261037a57600080fd5b81516001600160401b0381111561039357610393610201565b60206103a7601f8301601f19168201610217565b82815285828487010111156103bb57600080fd5b60005b838110156103d95785810183015182820184015282016103be565b506000928101909101919091529392505050565b600080600080600080600060e0888a03121561040857600080fd5b87516001600160401b038082111561041f57600080fd5b61042b8b838c01610292565b985060208a015191508082111561044157600080fd5b61044d8b838c0161030a565b975060408a015191508082111561046357600080fd5b61046f8b838c01610292565b965061047d60608b01610282565b955061048b60808b01610282565b945060a08a01519150808211156104a157600080fd5b6104ad8b838c01610369565b935060c08a01519150808211156104c357600080fd5b506104d08a828b01610369565b91505092959891949750929550565b600181811c908216806104f357607f821691505b60208210810361051357634e487b7160e01b600052602260045260246000fd5b50919050565b601f821115610565576000816000526020600020601f850160051c810160208610156105425750805b601f850160051c820191505b818110156105615782815560010161054e565b5050505b505050565b81516001600160401b0381111561058357610583610201565b6105978161059184546104df565b84610519565b602080601f8311600181146105cc57600084156105b45750858301515b600019600386901b1c1916600185901b178555610561565b600085815260208120601f198616915b828110156105fb578886015182559484019460019091019084016105dc565b50858210156106195787850151600019600388901b60f8161c191681555b5050505050600190811b01905550565b634e487b7160e01b600052603260045260246000fd5b634e487b7160e01b600052602160045260246000fd5b612fe8806106646000396000f3fe60806040526004361061028c5760003560e01c80638ae458da1161015a578063c2de0e9d116100c1578063dd62ed3e1161007a578063dd62ed3e146107e3578063df5e9b2914610829578063ea0ee55914610849578063eaf993e114610869578063f77c479114610889578063f83d08ba146108a957600080fd5b8063c2de0e9d14610723578063c5d574fe14610743578063c756401714610763578063d0ebdbe714610783578063d7b96d4e146107a3578063d7f1b27c146107c357600080fd5b8063a4e2d63411610113578063a4e2d6341461067f578063a69df4b514610699578063a7bdad03146106ae578063a9059cbb146106ce578063acf3f077146106ee578063b2494df31461070e57600080fd5b80638ae458da146105c85780638f6f0332146105e857806395d89b411461060857806399d50d5d1461061d5780639dc29fac1461063f578063a06324611461065f57600080fd5b806340c10f19116101fe57806366cb8d2f116101b757806366cb8d2f146104f05780636f86c8971461051057806370a08231146105305780637d96659314610566578063802758601461058657806381b2248a146105a857600080fd5b806340c10f1914610422578063481c6a75146104425780634e3532701461047a5780635230c3961461049a57806353bae5f7146104b057806363a90fc1146104d057600080fd5b806322ebeba41161025057806322ebeba41461034957806323b872dd1461036957806326898fe1146103895780632ba57d17146103a9578063313ce567146103c957806335bc4e52146103e557600080fd5b806306fdde0314610298578063095ea7b3146102c35780630ffe0f1e146102f357806318160ddd1461030a5780631ed86f191461032957600080fd5b3661029357005b600080fd5b3480156102a457600080fd5b506102ad6108be565b6040516102ba9190612920565b60405180910390f35b3480156102cf57600080fd5b506102e36102de36600461294f565b610950565b60405190151581526020016102ba565b3480156102ff57600080fd5b5061030861096a565b005b34801561031657600080fd5b506002545b6040519081526020016102ba565b34801561033557600080fd5b50610308610344366004612979565b610a83565b34801561035557600080fd5b5061031b610364366004612994565b610c0b565b34801561037557600080fd5b506102e36103843660046129c7565b610c47565b34801561039557600080fd5b506103086103a4366004612a45565b610c6b565b3480156103b557600080fd5b506103086103c436600461294f565b610d06565b3480156103d557600080fd5b50604051601281526020016102ba565b3480156103f157600080fd5b50610415610400366004612979565b60096020526000908152604090205460ff1681565b6040516102ba9190612abc565b34801561042e57600080fd5b5061030861043d36600461294f565b610d7f565b34801561044e57600080fd5b50600654610462906001600160a01b031681565b6040516001600160a01b0390911681526020016102ba565b34801561048657600080fd5b50610308610495366004612979565b610d9d565b3480156104a657600080fd5b5061031b600d5481565b3480156104bc57600080fd5b506102e36104cb366004612979565b610e73565b3480156104dc57600080fd5b506103086104eb3660046129c7565b610eac565b3480156104fc57600080fd5b5061031b61050b366004612979565b610f2b565b34801561051c57600080fd5b5061030861052b366004612979565b610f4d565b34801561053c57600080fd5b5061031b61054b366004612979565b6001600160a01b031660009081526020819052604090205490565b34801561057257600080fd5b506102e3610581366004612994565b610f9f565b34801561059257600080fd5b5061059b610fb4565b6040516102ba9190612ae4565b3480156105b457600080fd5b506104626105c3366004612b8a565b6111f2565b3480156105d457600080fd5b506102ad6105e3366004612994565b61121c565b3480156105f457600080fd5b506102ad610603366004612ba3565b611228565b34801561061457600080fd5b506102ad6112d5565b34801561062957600080fd5b506106326112e4565b6040516102ba9190612be5565b34801561064b57600080fd5b5061030861065a36600461294f565b611345565b34801561066b57600080fd5b5061030861067a366004612979565b61135f565b34801561068b57600080fd5b50600a546102e39060ff1681565b3480156106a557600080fd5b506103086114b2565b3480156106ba57600080fd5b506106326106c9366004612979565b611564565b3480156106da57600080fd5b506102e36106e936600461294f565b61156f565b3480156106fa57600080fd5b50610308610709366004612994565b61157d565b34801561071a57600080fd5b50610632611634565b34801561072f57600080fd5b5061030861073e366004612b8a565b611694565b34801561074f57600080fd5b5061046261075e366004612b8a565b6116e8565b34801561076f57600080fd5b5061030861077e366004612979565b6116f8565b34801561078f57600080fd5b5061030861079e366004612979565b6117e1565b3480156107af57600080fd5b50600754610462906001600160a01b031681565b3480156107cf57600080fd5b506102e36107de366004612979565b61186b565b3480156107ef57600080fd5b5061031b6107fe366004612994565b6001600160a01b03918216600090815260016020908152604080832093909416825291909152205490565b34801561083557600080fd5b506102e3610844366004612979565b611874565b34801561085557600080fd5b50610308610864366004612994565b6118e3565b34801561087557600080fd5b5061031b610884366004612979565b6119ae565b34801561089557600080fd5b50600554610462906001600160a01b031681565b3480156108b557600080fd5b50610308611a15565b6060600380546108cd90612c32565b80601f01602080910402602001604051908101604052809291908181526020018280546108f990612c32565b80156109465780601f1061091b57610100808354040283529160200191610946565b820191906000526020600020905b81548152906001019060200180831161092957829003601f168201915b5050505050905090565b60003361095e818585611a86565b60019150505b92915050565b600a5460ff16156109965760405162461bcd60e51b815260040161098d90612c66565b60405180910390fd5b60013360009081526009602052604090205460ff1660028111156109bc576109bc612aa6565b14610a025760405162461bcd60e51b81526020600482015260166024820152754d6f64756c65206d7573742062652070656e64696e6760501b604482015260640161098d565b33600081815260096020526040808220805460ff19166002179055600880546001810182559083527ff3f7a9fe364faab93b216da50a3214154f22a0a2b415b23a84c8169e8b636ee30180546001600160a01b03191684179055517f27b541a16df0902e262f34789782092ab25125513b8ed73608e802951771b9289190a2565b610a8b611a98565b6001600160a01b03811660009081526009602052604081205460ff166002811115610ab857610ab8612aa6565b14610b055760405162461bcd60e51b815260206004820152601860248201527f4d6f64756c65206d757374206e6f742062652061646465640000000000000000604482015260640161098d565b6005546040516342f6e38960e01b81526001600160a01b038381166004830152909116906342f6e38990602401602060405180830381865afa158015610b4f573d6000803e3d6000fd5b505050506040513d601f19601f82011682018060405250810190610b739190612c92565b610bbf5760405162461bcd60e51b815260206004820152601d60248201527f4d75737420626520656e61626c6564206f6e20436f6e74726f6c6c6572000000604482015260640161098d565b6001600160a01b038116600081815260096020526040808220805460ff19166001179055517fead6a006345da1073a106d5f32372d2d2204f46cb0b4bca8f5ebafcbbed12b8a9190a250565b6001600160a01b038083166000908152600c6020908152604080832093851683526002909301905290812054610c4090611aec565b9392505050565b600033610c55858285611b03565b610c60858585611b81565b506001949350505050565b610c73611be0565b610c7b611d17565b6001600160a01b038085166000908152600c6020908152604080832093871683526002909301905220600101610cb2828483612d1a565b50826001600160a01b0316846001600160a01b03167fb373eedb8e9038a2dcba31f06b2735887c1a904125e5c9f0021ba41ed972318e8484604051610cf8929190612e04565b60405180910390a350505050565b610d0e611be0565b610d16611d17565b6000610d2182611d8a565b6001600160a01b0384166000818152600c60205260409081902083905551919250907f8133e2bf34edab764b55c59d1d41f9df637e7c22828bb6b0a9d55b429d008a9790610d729085815260200190565b60405180910390a2505050565b610d87611be0565b610d8f611d17565b610d998282611e82565b5050565b610da5611be0565b610dad611d17565b610db681611874565b15610dfb5760405162461bcd60e51b8152602060048201526015602482015274135d5cdd081b9bdd0818994818dbdb5c1bdb995b9d605a1b604482015260640161098d565b600b805460018101825560009182527f0175b7a638427703f0dbe7bb9bbf987a2551717b34e79f33b5b1008d1fa01db90180546001600160a01b0319166001600160a01b03841690811790915560405190917f76da6cf8b40dd2b2c223a5956831e0ff4e75522538a86782108a0bbe1577e29891a250565b600060015b6001600160a01b03831660009081526009602052604090205460ff166002811115610ea557610ea5612aa6565b1492915050565b610eb4611be0565b610ebc611d17565b6000610ec782611d8a565b6001600160a01b038581166000818152600c6020908152604080832094891680845260029095018252918290208590559051868152939450919290917f81a422e27f503e1b92cdb616a6e653aac10a8e0c3fa6832a58dc616c080fd7bd9101610cf8565b6001600160a01b0381166000908152600c602052604081205461096490611aec565b610f55611be0565b610f5d611d17565b610f68600b82611eb8565b6040516001600160a01b038216907fc605d0bf97f9b921340106a2e59f9428d5eb9039b16866159e0cdd2bf8e963df90600090a250565b6000610c4082610fae8561202b565b906120a4565b60606000610fc06120ba565b67ffffffffffffffff811115610fd857610fd8612cb4565b60405190808252806020026020018201604052801561105057816020015b61103d6040518060a0016040528060006001600160a01b0316815260200160006001600160a01b0316815260200160008152602001600060ff168152602001606081525090565b815260200190600190039081610ff65790505b5090506000805b600b548110156111ea576000600b828154811061107657611076612e18565b60009182526020822001546001600160a01b031691506110ab826001600160a01b03166000908152600c602052604090205490565b1315611128576040805160a0810182526001600160a01b0383168152600060208201529081016110da83610f2b565b8152602001600060ff1681526020016040518060200160405280600081525081525084848151811061110e5761110e612e18565b6020026020010181905250828061112490612e44565b9350505b60006111338261202b565b905060005b81518110156111df57600082828151811061115557611155612e18565b602002602001015190506040518060a00160405280856001600160a01b03168152602001826001600160a01b031681526020016111928684610c0b565b8152600160208201526040016111a8868461215c565b8152508787815181106111bd576111bd612e18565b602002602001018190525085806111d390612e44565b96505050600101611138565b505050600101611057565b509092915050565b6008818154811061120257600080fd5b6000918252602090912001546001600160a01b0316905081565b6060610c40838361215c565b6060611232611be0565b61123a611d17565b61128583838080601f01602080910402602001604051908101604052809392919081815260200183838082843760009201919091525050506001600160a01b0388169190508661221d565b905083856001600160a01b03167f2a936dbabeaea30adc1ddad138b1958497988474bef8b09a29411f0105ab8ab28585856040516112c593929190612e5d565b60405180910390a3949350505050565b6060600480546108cd90612c32565b6060600b80548060200260200160405190810160405280929190818152602001828054801561094657602002820191906000526020600020905b81546001600160a01b0316815260019091019060200180831161131e575050505050905090565b61134d611be0565b611355611d17565b610d9982826122ba565b611367611a98565b600a5460ff161561138a5760405162461bcd60e51b815260040161098d90612c66565b60026001600160a01b03821660009081526009602052604090205460ff1660028111156113b9576113b9612aa6565b146113fd5760405162461bcd60e51b8152602060048201526014602482015273135bd91d5b19481b5d5cdd08189948185919195960621b604482015260640161098d565b806001600160a01b031663847ef08d6040518163ffffffff1660e01b8152600401600060405180830381600087803b15801561143857600080fd5b505af115801561144c573d6000803e3d6000fd5b505050506001600160a01b0381166000908152600960205260409020805460ff1916905561147b600882611eb8565b6040516001600160a01b038216907f0a1ee69f55c33d8467c69ca59ce2007a737a88603d75392972520bf67cb513b890600090a250565b6114ba611be0565b600a5460ff166114fd5760405162461bcd60e51b815260206004820152600e60248201526d135d5cdd081899481b1bd8dad95960921b604482015260640161098d565b6007546001600160a01b031633146115485760405162461bcd60e51b815260206004820152600e60248201526d26bab9ba103132903637b1b5b2b960911b604482015260640161098d565b600780546001600160a01b0319169055600a805460ff19169055565b60606109648261202b565b60003361095e818585611b81565b611585611be0565b61158d611d17565b6001600160a01b0382166000908152600c602052604090206115b29060010182611eb8565b6001600160a01b038083166000908152600c60209081526040808320938516835260029093019052908120818155906115ee6001830182612886565b5050806001600160a01b0316826001600160a01b03167f5d0275f68d583838a7e2be68e3ef8ac2c1f9d4eeaa4b223360f4cd093a160d7560405160405180910390a35050565b60606008805480602002602001604051908101604052809291908181526020018280548015610946576020028201919060005260206000209081546001600160a01b0316815260019091019060200180831161131e575050505050905090565b61169c611be0565b6116a4611d17565b6116ad816122f0565b600d8190556040518181527fc4e78b3245dc105eefced18655b978e194ff858545a1080f2888dc3b6ae8df0a9060200160405180910390a150565b600b818154811061120257600080fd5b611700611a98565b600a5460ff16156117235760405162461bcd60e51b815260040161098d90612c66565b60016001600160a01b03821660009081526009602052604090205460ff16600281111561175257611752612aa6565b146117985760405162461bcd60e51b81526020600482015260166024820152754d6f64756c65206d7573742062652070656e64696e6760501b604482015260640161098d565b6001600160a01b038116600081815260096020526040808220805460ff19169055517fd6b18042563148f38d728c1c4d339ffd515b632d0ad2e1833b822412f3f4d8779190a250565b6117e9611a98565b600a5460ff161561180c5760405162461bcd60e51b815260040161098d90612c66565b600680546001600160a01b038381166001600160a01b03198316811790935560408051938452911660208301819052917f43fcfef38622d6a5b118be09c27a6ed8cbdbfca21f0ea9245412ce8031c0423c910160405180910390a15050565b60006002610e78565b600061096482600b8054806020026020016040519081016040528092919081815260200182805480156118d057602002820191906000526020600020905b81546001600160a01b031681526001909101906020018083116118b2575b50505050506120a490919063ffffffff16565b6118eb611be0565b6118f3611d17565b6118fd8282610f9f565b156119415760405162461bcd60e51b8152602060048201526014602482015273135bd91d5b1948185b1c9958591e48185919195960621b604482015260640161098d565b6001600160a01b038281166000818152600c60209081526040808320600190810180549182018155845291832090910180546001600160a01b0319169486169485179055517ff71324fa78e1894b364a1fc8d0535c4208f28c7b380f752afe00c8ce386023fb9190a35050565b6000806119ba83610f2b565b905060006119c78461202b565b905060005b8151811015611a0c576119f8858383815181106119eb576119eb612e18565b6020026020010151610c0b565b611a029084612e83565b92506001016119cc565b50909392505050565b611a1d611be0565b600a5460ff1615611a655760405162461bcd60e51b8152602060048201526012602482015271135d5cdd081b9bdd081899481b1bd8dad95960721b604482015260640161098d565b600780546001600160a01b03191633179055600a805460ff19166001179055565b611a938383836001612355565b505050565b6006546001600160a01b03163314611aea5760405162461bcd60e51b815260206004820152601560248201527413db9b1e481b585b9859d95c8818d85b8818d85b1b605a1b604482015260640161098d565b565b6000610964600d548361241c90919063ffffffff16565b6001600160a01b038381166000908152600160209081526040808320938616835292905220546000198114611b7b5781811015611b6c57604051637dc7a0d960e11b81526001600160a01b0384166004820152602481018290526044810183905260640161098d565b611b7b84848484036000612355565b50505050565b6001600160a01b038316611bab57604051634b637e8f60e11b81526000600482015260240161098d565b6001600160a01b038216611bd55760405163ec442f0560e01b81526000600482015260240161098d565b611a93838383612439565b60023360009081526009602052604090205460ff166002811115611c0657611c06612aa6565b14611c535760405162461bcd60e51b815260206004820152601860248201527f4f6e6c7920746865206d6f64756c652063616e2063616c6c0000000000000000604482015260640161098d565b6005546040516342f6e38960e01b81523360048201526001600160a01b03909116906342f6e38990602401602060405180830381865afa158015611c9b573d6000803e3d6000fd5b505050506040513d601f19601f82011682018060405250810190611cbf9190612c92565b611aea5760405162461bcd60e51b8152602060048201526024808201527f4d6f64756c65206d75737420626520656e61626c6564206f6e20636f6e74726f604482015263363632b960e11b606482015260840161098d565b600a5460ff1615611aea576007546001600160a01b03163314611aea5760405162461bcd60e51b815260206004820152602560248201527f5768656e206c6f636b65642c206f6e6c7920746865206c6f636b65722063616e6044820152640818d85b1b60da1b606482015260840161098d565b600080611da2600d548461256390919063ffffffff16565b9050600083138015611db2575080155b15611e0f5760405162461bcd60e51b815260206004820152602760248201527f5265616c20746f205669727475616c20756e697420636f6e76657273696f6e206044820152661a5b9d985b1a5960ca1b606482015260840161098d565b600083138015611e255750611e2381611aec565b155b156109645760405162461bcd60e51b815260206004820152602760248201527f5669727475616c20746f205265616c20756e697420636f6e76657273696f6e206044820152661a5b9d985b1a5960ca1b606482015260840161098d565b6001600160a01b038216611eac5760405163ec442f0560e01b81526000600482015260240161098d565b610d9960008383612439565b600080611f1e84805480602002602001604051908101604052809291908181526020018280548015611f1357602002820191906000526020600020905b81546001600160a01b03168152600190910190602001808311611ef5575b505050505084612580565b9150915080611f675760405162461bcd60e51b815260206004820152601560248201527420b2323932b9b9903737ba1034b71030b93930bc9760591b604482015260640161098d565b8354600090611f7890600190612eab565b9050808314611ff257848181548110611f9357611f93612e18565b9060005260206000200160009054906101000a90046001600160a01b0316858481548110611fc357611fc3612e18565b9060005260206000200160006101000a8154816001600160a01b0302191690836001600160a01b031602179055505b8480548061200257612002612ebe565b600082815260209020810160001990810180546001600160a01b03191690550190555050505050565b6001600160a01b0381166000908152600c602090815260409182902060010180548351818402810184019094528084526060939283018282801561209857602002820191906000526020600020905b81546001600160a01b0316815260019091019060200180831161207a575b50505050509050919050565b6000806120b18484612580565b95945050505050565b60008060005b600b54811015612156576000600b82815481106120df576120df612e18565b60009182526020822001546001600160a01b03169150612114826001600160a01b03166000908152600c602052604090205490565b1315612128578261212481612e44565b9350505b60006121338261202b565b80519091501561214c5780516121499085612ed4565b93505b50506001016120c0565b50919050565b6001600160a01b038083166000908152600c602090815260408083209385168352600290930190522060010180546060919061219790612c32565b80601f01602080910402602001604051908101604052809291908181526020018280546121c390612c32565b80156122105780601f106121e557610100808354040283529160200191612210565b820191906000526020600020905b8154815290600101906020018083116121f357829003601f168201915b5050505050905092915050565b6060814710156122425760405163cd78605960e01b815230600482015260240161098d565b600080856001600160a01b0316848660405161225e9190612ee7565b60006040518083038185875af1925050503d806000811461229b576040519150601f19603f3d011682016040523d82523d6000602084013e6122a0565b606091505b50915091506122b08683836125eb565b9695505050505050565b6001600160a01b0382166122e457604051634b637e8f60e11b81526000600482015260240161098d565b610d9982600083612439565b60006122fa612647565b90506000612308828461241c565b13610d995760405162461bcd60e51b815260206004820152601860248201527f4e6577206d756c7469706c69657220746f6f20736d616c6c0000000000000000604482015260640161098d565b6001600160a01b03841661237f5760405163e602df0560e01b81526000600482015260240161098d565b6001600160a01b0383166123a957604051634a1406b160e11b81526000600482015260240161098d565b6001600160a01b0380851660009081526001602090815260408083209387168352929052208290558015611b7b57826001600160a01b0316846001600160a01b03167f8c5be1e5ebec7d5bd14f71427d1e84f3dd0314c0f7b2291e5b200ac8c7c3b92584604051610cf891815260200190565b6000610c4061242b8385612f03565b670de0b6b3a7640000612765565b6001600160a01b0383166124645780600260008282546124599190612ed4565b909155506124d69050565b6001600160a01b038316600090815260208190526040902054818110156124b75760405163391434e360e21b81526001600160a01b0385166004820152602481018290526044810183905260640161098d565b6001600160a01b03841660009081526020819052604090209082900390555b6001600160a01b0382166124f257600280548290039055612511565b6001600160a01b03821660009081526020819052604090208054820190555b816001600160a01b0316836001600160a01b03167fddf252ad1be2c89b69c2b068fc378daa952ba7f163c4a11628f55a4df523b3ef8360405161255691815260200190565b60405180910390a3505050565b6000610c4061257a670de0b6b3a764000085612f03565b83612765565b81516000908190815b818110156125d857846001600160a01b03168682815181106125ad576125ad612e18565b60200260200101516001600160a01b0316036125d0579250600191506125e49050565b600101612589565b50600019600092509250505b9250929050565b606082612600576125fb8261283b565b610c40565b815115801561261757506001600160a01b0384163b155b1561264057604051639996b31560e01b81526001600160a01b038516600482015260240161098d565b5080610c40565b6000600019815b600b54811015612156576000600b828154811061266d5761266d612e18565b60009182526020822001546001600160a01b031691506126a2826001600160a01b03166000908152600c602052604090205490565b90506000811180156126b357508381105b156126bc578093505b60006126c78361202b565b905060005b81518110156127555760008282815181106126e9576126e9612e18565b60200260200101519050600061273161272c87846001600160a01b039182166000908152600c602090815260408083209390941682526002909201909152205490565b612867565b905060008111801561274257508781105b1561274b578097505b50506001016126cc565b50506001909201915061264e9050565b6000816000036127aa5760405162461bcd60e51b815260206004820152601060248201526f043616e742064697669646520627920360841b604482015260640161098d565b600160ff1b831415806127bf57508160001914155b6127fb5760405162461bcd60e51b815260206004820152600d60248201526c125b9d985b1a59081a5b9c1d5d609a1b604482015260640161098d565b60006128078385612f49565b9050600083851812801561282357506128208385612f77565b15155b15610c4057612833600182612f8b565b949350505050565b80511561284b5780518082602001fd5b604051630a12f52160e11b815260040160405180910390fd5b50565b6000808212156128825761287d82600019612f03565b610964565b5090565b50805461289290612c32565b6000825580601f106128a2575050565b601f01602090049060005260206000209081019061286491905b8082111561288257600081556001016128bc565b60005b838110156128eb5781810151838201526020016128d3565b50506000910152565b6000815180845261290c8160208601602086016128d0565b601f01601f19169290920160200192915050565b602081526000610c4060208301846128f4565b80356001600160a01b038116811461294a57600080fd5b919050565b6000806040838503121561296257600080fd5b61296b83612933565b946020939093013593505050565b60006020828403121561298b57600080fd5b610c4082612933565b600080604083850312156129a757600080fd5b6129b083612933565b91506129be60208401612933565b90509250929050565b6000806000606084860312156129dc57600080fd5b6129e584612933565b92506129f360208501612933565b9150604084013590509250925092565b60008083601f840112612a1557600080fd5b50813567ffffffffffffffff811115612a2d57600080fd5b6020830191508360208285010111156125e457600080fd5b60008060008060608587031215612a5b57600080fd5b612a6485612933565b9350612a7260208601612933565b9250604085013567ffffffffffffffff811115612a8e57600080fd5b612a9a87828801612a03565b95989497509550505050565b634e487b7160e01b600052602160045260246000fd5b6020810160038310612ade57634e487b7160e01b600052602160045260246000fd5b91905290565b600060208083018184528085518083526040925060408601915060408160051b87010184880160005b83811015612b7c57888303603f19018552815180516001600160a01b039081168552888201511688850152868101518785015260608082015160ff169085015260809081015160a091850182905290612b68818601836128f4565b968901969450505090860190600101612b0d565b509098975050505050505050565b600060208284031215612b9c57600080fd5b5035919050565b60008060008060608587031215612bb957600080fd5b612bc285612933565b935060208501359250604085013567ffffffffffffffff811115612a8e57600080fd5b6020808252825182820181905260009190848201906040850190845b81811015612c265783516001600160a01b031683529284019291840191600101612c01565b50909695505050505050565b600181811c90821680612c4657607f821691505b60208210810361215657634e487b7160e01b600052602260045260246000fd5b60208082526012908201527113db9b1e481dda195b881d5b9b1bd8dad95960721b604082015260600190565b600060208284031215612ca457600080fd5b81518015158114610c4057600080fd5b634e487b7160e01b600052604160045260246000fd5b601f821115611a93576000816000526020600020601f850160051c81016020861015612cf35750805b601f850160051c820191505b81811015612d1257828155600101612cff565b505050505050565b67ffffffffffffffff831115612d3257612d32612cb4565b612d4683612d408354612c32565b83612cca565b6000601f841160018114612d7a5760008515612d625750838201355b600019600387901b1c1916600186901b178355612dd4565b600083815260209020601f19861690835b82811015612dab5786850135825560209485019460019092019101612d8b565b5086821015612dc85760001960f88860031b161c19848701351681555b505060018560011b0183555b5050505050565b81835281816020850137506000828201602090810191909152601f909101601f19169091010190565b602081526000612833602083018486612ddb565b634e487b7160e01b600052603260045260246000fd5b634e487b7160e01b600052601160045260246000fd5b600060018201612e5657612e56612e2e565b5060010190565b604081526000612e71604083018587612ddb565b82810360208401526122b081856128f4565b8082018281126000831280158216821582161715612ea357612ea3612e2e565b505092915050565b8181038181111561096457610964612e2e565b634e487b7160e01b600052603160045260246000fd5b8082018082111561096457610964612e2e565b60008251612ef98184602087016128d0565b9190910192915050565b80820260008212600160ff1b84141615612f1f57612f1f612e2e565b818105831482151761096457610964612e2e565b634e487b7160e01b600052601260045260246000fd5b600082612f5857612f58612f33565b600160ff1b821460001984141615612f7257612f72612e2e565b500590565b600082612f8657612f86612f33565b500790565b8181036000831280158383131683831282161715612fab57612fab612e2e565b509291505056fea26469706673582212208f0c1e5586608d6b1b8d9755441faccc0986af9d03e65c8e49f652dee5536fc764736f6c63430008190033a2646970667358221220c1329d798af450cd24818cb2d15d7b34c144fd0b1e314c33c885e6e2419198da64736f6c63430008190033",
  "devdoc": {
    "kind": "dev",
    "methods": {
      "constructor": {
        "params": {
          "_controller": "Instance of the controller"
        }
      },
      "create(address[],int256[],address[],address,string,string)": {
        "params": {
          "_components": "List of addresses of components for initial Positions",
          "_manager": "Address of the manager",
          "_modules": "List of modules to enable. All modules must be approved by the Controller",
          "_name": "Name of the SetToken",
          "_symbol": "Symbol of the SetToken",
          "_units": "List of units. Each unit is the # of components per 10^18 of a SetToken"
        },
        "returns": {
          "_0": "address                Address of the newly created SetToken"
        }
      }
    },
    "title": "SetTokenCreator SetTokenCreator is a smart contract used to deploy new SetToken contracts. The SetTokenCreator is a Factory contract that is enabled by the controller to create and register new SetTokens.",
    "version": 1
  },
  "userdoc": {
    "kind": "user",
    "methods": {
      "create(address[],int256[],address[],address,string,string)": {
        "notice": "Creates a SetToken smart contract and registers the SetToken with the controller. The SetTokens are composed of positions that are instantiated as DEFAULT (positionState = 0) state."
      }
    },
    "version": 1
  },
  "storageLayout": {
    "storage": [
      {
        "astId": 13831,
        "contract": "contracts/protocol/SetTokenCreator.sol:SetTokenCreator",
        "label": "controller",
        "offset": 0,
        "slot": "0",
        "type": "t_contract(IController)3769"
      }
    ],
    "types": {
      "t_contract(IController)3769": {
        "encoding": "inplace",
        "label": "contract IController",
        "numberOfBytes": "20"
      }
    }
  }
}