{
  "address": "0x3a79C3b9C0fd4b26f5b5CCE36834CC6f90B6A157",
  "abi": [
    {
      "inputs": [
        {
          "internalType": "contract IController",
          "name": "_controller",
          "type": "address"
        }
      ],
      "stateMutability": "nonpayable",
      "type": "constructor"
    },
    {
      "inputs": [
        {
          "internalType": "contract ISetToken",
          "name": "_setToken",
          "type": "address"
        },
        {
          "internalType": "address",
          "name": "_quoteAsset",
          "type": "address"
        }
      ],
      "name": "calculateSetTokenValuation",
      "outputs": [
        {
          "internalType": "uint256",
          "name": "",
          "type": "uint256"
        }
      ],
      "stateMutability": "view",
      "type": "function"
    },
    {
      "inputs": [],
      "name": "controller",
      "outputs": [
        {
          "internalType": "contract IController",
          "name": "",
          "type": "address"
        }
      ],
      "stateMutability": "view",
      "type": "function"
    }
  ],
  "transactionHash": "0xa9f05e4cd13f438e62ec6c930dc0988a8afb9fae187b3cf3d64c6a1ac74cd19c",
  "args": [
    "0x9409Ac28260E60e26f5475526cb9F7315edddd17"
  ],
  "numDeployments": 1,
  "solcInputHash": "7fe3b69caaa6e1ae3cb624acb9fde77a",
  "bytecode": "0x6080604052348015600f57600080fd5b50604051610896380380610896833981016040819052602c916050565b600080546001600160a01b0319166001600160a01b0392909216919091179055607e565b600060208284031215606157600080fd5b81516001600160a01b0381168114607757600080fd5b9392505050565b6108098061008d6000396000f3fe608060405234801561001057600080fd5b50600436106100365760003560e01c80636101c5401461003b578063f77c479114610061575b600080fd5b61004e6100493660046104a6565b61008c565b6040519081526020015b60405180910390f35b600054610074906001600160a01b031681565b6040516001600160a01b039091168152602001610058565b6000805481906100a4906001600160a01b03166103e7565b90506000816001600160a01b031663342833546040518163ffffffff1660e01b8152600401602060405180830381865afa1580156100e6573d6000803e3d6000fd5b505050506040513d601f19601f8201168201806040525081019061010a91906104ef565b90506000856001600160a01b03166399d50d5d6040518163ffffffff1660e01b8152600401600060405180830381865afa15801561014c573d6000803e3d6000fd5b505050506040513d6000823e601f3d908101601f191682016040526101749190810190610522565b90506000805b825181101561033b576000838281518110610197576101976105e7565b6020908102919091010151604051635620c32d60e11b81526001600160a01b038083166004830152878116602483015291925060009188169063ac41865a90604401602060405180830381865afa1580156101f6573d6000803e3d6000fd5b505050506040513d601f19601f8201168201806040525081019061021a91906105fd565b60405163eaf993e160e01b81526001600160a01b0384811660048301529192506000918c169063eaf993e190602401602060405180830381865afa158015610266573d6000803e3d6000fd5b505050506040513d601f19601f8201168201806040525081019061028a91906105fd565b90506000836001600160a01b031663313ce5676040518163ffffffff1660e01b8152600401602060405180830381865afa1580156102cc573d6000803e3d6000fd5b505050506040513d601f19601f820116820180604052508101906102f09190610616565b60ff169050600061030282600a610733565b905060006103108483610453565b90508761031d8287610479565b610327919061073f565b9750506001909501945061017a9350505050565b50856001600160a01b0316836001600160a01b0316146103db57604051635620c32d60e11b81526001600160a01b03878116600483015284811660248301526000919086169063ac41865a90604401602060405180830381865afa1580156103a7573d6000803e3d6000fd5b505050506040513d601f19601f820116820180604052508101906103cb91906105fd565b90506103d78282610453565b9150505b93505050505b92915050565b6040516373b2e76b60e11b8152600160048201526000906001600160a01b0383169063e765ced690602401602060405180830381865afa15801561042f573d6000803e3d6000fd5b505050506040513d601f19601f820116820180604052508101906103e191906104ef565b600081610468670de0b6b3a764000085610767565b6104729190610797565b9392505050565b6000670de0b6b3a76400006104688385610767565b6001600160a01b03811681146104a357600080fd5b50565b600080604083850312156104b957600080fd5b82356104c48161048e565b915060208301356104d48161048e565b809150509250929050565b80516104ea8161048e565b919050565b60006020828403121561050157600080fd5b81516104728161048e565b634e487b7160e01b600052604160045260246000fd5b6000602080838503121561053557600080fd5b825167ffffffffffffffff8082111561054d57600080fd5b818501915085601f83011261056157600080fd5b8151818111156105735761057361050c565b8060051b604051601f19603f830116810181811085821117156105985761059861050c565b6040529182528482019250838101850191888311156105b657600080fd5b938501935b828510156105db576105cc856104df565b845293850193928501926105bb565b98975050505050505050565b634e487b7160e01b600052603260045260246000fd5b60006020828403121561060f57600080fd5b5051919050565b60006020828403121561062857600080fd5b815160ff8116811461047257600080fd5b634e487b7160e01b600052601160045260246000fd5b600181815b8085111561068a57816000190482111561067057610670610639565b8085161561067d57918102915b93841c9390800290610654565b509250929050565b6000826106a1575060016103e1565b816106ae575060006103e1565b81600181146106c457600281146106ce576106ea565b60019150506103e1565b60ff8411156106df576106df610639565b50506001821b6103e1565b5060208310610133831016604e8410600b841016171561070d575081810a6103e1565b610717838361064f565b806000190482111561072b5761072b610639565b029392505050565b60006104728383610692565b808201828112600083128015821682158216171561075f5761075f610639565b505092915050565b80820260008212600160ff1b8414161561078357610783610639565b81810583148215176103e1576103e1610639565b6000826107b457634e487b7160e01b600052601260045260246000fd5b600160ff1b8214600019841416156107ce576107ce610639565b50059056fea26469706673582212207a9b314b8c14b1720f1d62e25a40b3b0b6fa105cabef23263c4b749697adbb6c64736f6c63430008190033",
  "devdoc": {
    "kind": "dev",
    "methods": {
      "calculateSetTokenValuation(address,address)": {
        "params": {
          "_quoteAsset": "Address of token to quote valuation in",
          "_setToken": "SetToken instance to get valuation"
        },
        "returns": {
          "_0": "SetToken valuation in terms of quote asset in precise units 1e18"
        }
      },
      "constructor": {
        "params": {
          "_controller": "Address of controller contract"
        }
      }
    },
    "title": "SetValuer Contract that returns the valuation of SetTokens using price oracle data used in contracts that are external to the system. Note: Prices are returned in preciseUnits (i.e. 18 decimals of precision)",
    "version": 1
  },
  "userdoc": {
    "kind": "user",
    "methods": {
      "calculateSetTokenValuation(address,address)": {
        "notice": "Gets the valuation of a SetToken using data from the price oracle. Reverts if no price exists for a component in the SetToken. Note: this works for external positions and negative (debt) positions. Note: There is a risk that the valuation is off if airdrops aren't retrieved or debt builds up via interest and its not reflected in the position"
      },
      "constructor": {
        "notice": "Set state variables and map asset pairs to their oracles"
      }
    },
    "version": 1
  },
  "storageLayout": {
    "storage": [
      {
        "astId": 14039,
        "contract": "contracts/protocol/SetValuer.sol:SetValuer",
        "label": "controller",
        "offset": 0,
        "slot": "0",
        "type": "t_contract(IController)3769"
      }
    ],
    "types": {
      "t_contract(IController)3769": {
        "encoding": "inplace",
        "label": "contract IController",
        "numberOfBytes": "20"
      }
    }
  }
}