{
  "address": "0xd18a73cef245508350026Af1Fc5f43425Ab1519c",
  "abi": [
    {
      "inputs": [
        {
          "internalType": "uint256",
          "name": "_startingPrice",
          "type": "uint256"
        }
      ],
      "stateMutability": "nonpayable",
      "type": "constructor"
    },
    {
      "inputs": [],
      "name": "price",
      "outputs": [
        {
          "internalType": "uint256",
          "name": "",
          "type": "uint256"
        }
      ],
      "stateMutability": "view",
      "type": "function"
    },
    {
      "inputs": [],
      "name": "read",
      "outputs": [
        {
          "internalType": "uint256",
          "name": "",
          "type": "uint256"
        }
      ],
      "stateMutability": "view",
      "type": "function"
    },
    {
      "inputs": [
        {
          "internalType": "uint256",
          "name": "_newPrice",
          "type": "uint256"
        }
      ],
      "name": "updatePrice",
      "outputs": [],
      "stateMutability": "nonpayable",
      "type": "function"
    }
  ],
  "transactionHash": "0x426a61846a496b6990ef4af3a805a7771decc2d713dc4d1e20e3653385b993de",
  "args": [
    "69595700000000000000000"
  ],
  "numDeployments": 1,
  "solcInputHash": "ac645bdf01814dc11715ba3cb2435bbf",
  "bytecode": "0x6080604052348015600f57600080fd5b50604051610118380380610118833981016040819052602c916033565b600055604b565b600060208284031215604457600080fd5b5051919050565b60bf806100596000396000f3fe6080604052348015600f57600080fd5b5060043610603c5760003560e01c806357de26a41460415780638d6cc56d146057578063a035b1fe146069575b600080fd5b6000545b60405190815260200160405180910390f35b606760623660046071565b600055565b005b604560005481565b600060208284031215608257600080fd5b503591905056fea2646970667358221220c0dead5713ed3d68d585ac4cdb0f5339feb4b01df69530681abeff9ae6c3530064736f6c63430008190033",
  "devdoc": {
    "kind": "dev",
    "methods": {
      "read()": {
        "returns": {
          "_0": "Current price of asset represented in uint256"
        }
      }
    },
    "version": 1
  },
  "userdoc": {
    "kind": "user",
    "methods": {
      "read()": {
        "notice": "Returns the queried data from an oracle returning uint256"
      }
    },
    "version": 1
  },
  "storageLayout": {
    "storage": [
      {
        "astId": 846,
        "contract": "contracts/mocks/MockOracle.sol:MockOracle",
        "label": "price",
        "offset": 0,
        "slot": "0",
        "type": "t_uint256"
      }
    ],
    "types": {
      "t_uint256": {
        "encoding": "inplace",
        "label": "uint256",
        "numberOfBytes": "32"
      }
    }
  }
}