{
  "address": "0x15f9cec1c568352Cd48Da1E84D3e74F27f6ee160",
  "abi": [
    {
      "inputs": [
        {
          "internalType": "address",
          "name": "_feeRecipient",
          "type": "address"
        }
      ],
      "stateMutability": "nonpayable",
      "type": "constructor"
    },
    {
      "anonymous": false,
      "inputs": [
        {
          "indexed": true,
          "internalType": "address",
          "name": "_factory",
          "type": "address"
        }
      ],
      "name": "FactoryAdded",
      "type": "event"
    },
    {
      "anonymous": false,
      "inputs": [
        {
          "indexed": true,
          "internalType": "address",
          "name": "_factory",
          "type": "address"
        }
      ],
      "name": "FactoryRemoved",
      "type": "event"
    },
    {
      "anonymous": false,
      "inputs": [
        {
          "indexed": true,
          "internalType": "address",
          "name": "_module",
          "type": "address"
        },
        {
          "indexed": true,
          "internalType": "uint256",
          "name": "_feeType",
          "type": "uint256"
        },
        {
          "indexed": false,
          "internalType": "uint256",
          "name": "_feePercentage",
          "type": "uint256"
        }
      ],
      "name": "FeeEdited",
      "type": "event"
    },
    {
      "anonymous": false,
      "inputs": [
        {
          "indexed": false,
          "internalType": "address",
          "name": "_newFeeRecipient",
          "type": "address"
        }
      ],
      "name": "FeeRecipientChanged",
      "type": "event"
    },
    {
      "anonymous": false,
      "inputs": [
        {
          "indexed": true,
          "internalType": "address",
          "name": "_module",
          "type": "address"
        }
      ],
      "name": "ModuleAdded",
      "type": "event"
    },
    {
      "anonymous": false,
      "inputs": [
        {
          "indexed": true,
          "internalType": "address",
          "name": "_module",
          "type": "address"
        }
      ],
      "name": "ModuleRemoved",
      "type": "event"
    },
    {
      "anonymous": false,
      "inputs": [
        {
          "indexed": true,
          "internalType": "address",
          "name": "previousOwner",
          "type": "address"
        },
        {
          "indexed": true,
          "internalType": "address",
          "name": "newOwner",
          "type": "address"
        }
      ],
      "name": "OwnershipTransferred",
      "type": "event"
    },
    {
      "anonymous": false,
      "inputs": [
        {
          "indexed": true,
          "internalType": "address",
          "name": "_resource",
          "type": "address"
        },
        {
          "indexed": false,
          "internalType": "uint256",
          "name": "_id",
          "type": "uint256"
        }
      ],
      "name": "ResourceAdded",
      "type": "event"
    },
    {
      "anonymous": false,
      "inputs": [
        {
          "indexed": true,
          "internalType": "address",
          "name": "_resource",
          "type": "address"
        },
        {
          "indexed": false,
          "internalType": "uint256",
          "name": "_id",
          "type": "uint256"
        }
      ],
      "name": "ResourceRemoved",
      "type": "event"
    },
    {
      "anonymous": false,
      "inputs": [
        {
          "indexed": true,
          "internalType": "address",
          "name": "_setToken",
          "type": "address"
        },
        {
          "indexed": true,
          "internalType": "address",
          "name": "_factory",
          "type": "address"
        }
      ],
      "name": "SetAdded",
      "type": "event"
    },
    {
      "anonymous": false,
      "inputs": [
        {
          "indexed": true,
          "internalType": "address",
          "name": "_setToken",
          "type": "address"
        }
      ],
      "name": "SetRemoved",
      "type": "event"
    },
    {
      "inputs": [
        {
          "internalType": "address",
          "name": "_factory",
          "type": "address"
        }
      ],
      "name": "addFactory",
      "outputs": [],
      "stateMutability": "nonpayable",
      "type": "function"
    },
    {
      "inputs": [
        {
          "internalType": "address",
          "name": "_module",
          "type": "address"
        },
        {
          "internalType": "uint256",
          "name": "_feeType",
          "type": "uint256"
        },
        {
          "internalType": "uint256",
          "name": "_newFeePercentage",
          "type": "uint256"
        }
      ],
      "name": "addFee",
      "outputs": [],
      "stateMutability": "nonpayable",
      "type": "function"
    },
    {
      "inputs": [
        {
          "internalType": "address",
          "name": "_module",
          "type": "address"
        }
      ],
      "name": "addModule",
      "outputs": [],
      "stateMutability": "nonpayable",
      "type": "function"
    },
    {
      "inputs": [
        {
          "internalType": "address",
          "name": "_resource",
          "type": "address"
        },
        {
          "internalType": "uint256",
          "name": "_id",
          "type": "uint256"
        }
      ],
      "name": "addResource",
      "outputs": [],
      "stateMutability": "nonpayable",
      "type": "function"
    },
    {
      "inputs": [
        {
          "internalType": "address",
          "name": "_setToken",
          "type": "address"
        }
      ],
      "name": "addSet",
      "outputs": [],
      "stateMutability": "nonpayable",
      "type": "function"
    },
    {
      "inputs": [
        {
          "internalType": "address",
          "name": "_module",
          "type": "address"
        },
        {
          "internalType": "uint256",
          "name": "_feeType",
          "type": "uint256"
        },
        {
          "internalType": "uint256",
          "name": "_newFeePercentage",
          "type": "uint256"
        }
      ],
      "name": "editFee",
      "outputs": [],
      "stateMutability": "nonpayable",
      "type": "function"
    },
    {
      "inputs": [
        {
          "internalType": "address",
          "name": "_newFeeRecipient",
          "type": "address"
        }
      ],
      "name": "editFeeRecipient",
      "outputs": [],
      "stateMutability": "nonpayable",
      "type": "function"
    },
    {
      "inputs": [
        {
          "internalType": "uint256",
          "name": "",
          "type": "uint256"
        }
      ],
      "name": "factories",
      "outputs": [
        {
          "internalType": "address",
          "name": "",
          "type": "address"
        }
      ],
      "stateMutability": "view",
      "type": "function"
    },
    {
      "inputs": [],
      "name": "feeRecipient",
      "outputs": [
        {
          "internalType": "address",
          "name": "",
          "type": "address"
        }
      ],
      "stateMutability": "view",
      "type": "function"
    },
    {
      "inputs": [
        {
          "internalType": "address",
          "name": "",
          "type": "address"
        },
        {
          "internalType": "uint256",
          "name": "",
          "type": "uint256"
        }
      ],
      "name": "fees",
      "outputs": [
        {
          "internalType": "uint256",
          "name": "",
          "type": "uint256"
        }
      ],
      "stateMutability": "view",
      "type": "function"
    },
    {
      "inputs": [],
      "name": "getFactories",
      "outputs": [
        {
          "internalType": "address[]",
          "name": "",
          "type": "address[]"
        }
      ],
      "stateMutability": "view",
      "type": "function"
    },
    {
      "inputs": [
        {
          "internalType": "address",
          "name": "_moduleAddress",
          "type": "address"
        },
        {
          "internalType": "uint256",
          "name": "_feeType",
          "type": "uint256"
        }
      ],
      "name": "getModuleFee",
      "outputs": [
        {
          "internalType": "uint256",
          "name": "",
          "type": "uint256"
        }
      ],
      "stateMutability": "view",
      "type": "function"
    },
    {
      "inputs": [],
      "name": "getModules",
      "outputs": [
        {
          "internalType": "address[]",
          "name": "",
          "type": "address[]"
        }
      ],
      "stateMutability": "view",
      "type": "function"
    },
    {
      "inputs": [],
      "name": "getResources",
      "outputs": [
        {
          "internalType": "address[]",
          "name": "",
          "type": "address[]"
        }
      ],
      "stateMutability": "view",
      "type": "function"
    },
    {
      "inputs": [],
      "name": "getSets",
      "outputs": [
        {
          "internalType": "address[]",
          "name": "",
          "type": "address[]"
        }
      ],
      "stateMutability": "view",
      "type": "function"
    },
    {
      "inputs": [
        {
          "internalType": "address[]",
          "name": "_factories",
          "type": "address[]"
        },
        {
          "internalType": "address[]",
          "name": "_modules",
          "type": "address[]"
        },
        {
          "internalType": "address[]",
          "name": "_resources",
          "type": "address[]"
        },
        {
          "internalType": "uint256[]",
          "name": "_resourceIds",
          "type": "uint256[]"
        }
      ],
      "name": "initialize",
      "outputs": [],
      "stateMutability": "nonpayable",
      "type": "function"
    },
    {
      "inputs": [
        {
          "internalType": "address",
          "name": "",
          "type": "address"
        }
      ],
      "name": "isFactory",
      "outputs": [
        {
          "internalType": "bool",
          "name": "",
          "type": "bool"
        }
      ],
      "stateMutability": "view",
      "type": "function"
    },
    {
      "inputs": [],
      "name": "isInitialized",
      "outputs": [
        {
          "internalType": "bool",
          "name": "",
          "type": "bool"
        }
      ],
      "stateMutability": "view",
      "type": "function"
    },
    {
      "inputs": [
        {
          "internalType": "address",
          "name": "",
          "type": "address"
        }
      ],
      "name": "isModule",
      "outputs": [
        {
          "internalType": "bool",
          "name": "",
          "type": "bool"
        }
      ],
      "stateMutability": "view",
      "type": "function"
    },
    {
      "inputs": [
        {
          "internalType": "address",
          "name": "",
          "type": "address"
        }
      ],
      "name": "isResource",
      "outputs": [
        {
          "internalType": "bool",
          "name": "",
          "type": "bool"
        }
      ],
      "stateMutability": "view",
      "type": "function"
    },
    {
      "inputs": [
        {
          "internalType": "address",
          "name": "",
          "type": "address"
        }
      ],
      "name": "isSet",
      "outputs": [
        {
          "internalType": "bool",
          "name": "",
          "type": "bool"
        }
      ],
      "stateMutability": "view",
      "type": "function"
    },
    {
      "inputs": [
        {
          "internalType": "address",
          "name": "_contractAddress",
          "type": "address"
        }
      ],
      "name": "isSystemContract",
      "outputs": [
        {
          "internalType": "bool",
          "name": "",
          "type": "bool"
        }
      ],
      "stateMutability": "view",
      "type": "function"
    },
    {
      "inputs": [
        {
          "internalType": "uint256",
          "name": "",
          "type": "uint256"
        }
      ],
      "name": "modules",
      "outputs": [
        {
          "internalType": "address",
          "name": "",
          "type": "address"
        }
      ],
      "stateMutability": "view",
      "type": "function"
    },
    {
      "inputs": [],
      "name": "owner",
      "outputs": [
        {
          "internalType": "address",
          "name": "",
          "type": "address"
        }
      ],
      "stateMutability": "view",
      "type": "function"
    },
    {
      "inputs": [
        {
          "internalType": "address",
          "name": "_factory",
          "type": "address"
        }
      ],
      "name": "removeFactory",
      "outputs": [],
      "stateMutability": "nonpayable",
      "type": "function"
    },
    {
      "inputs": [
        {
          "internalType": "address",
          "name": "_module",
          "type": "address"
        }
      ],
      "name": "removeModule",
      "outputs": [],
      "stateMutability": "nonpayable",
      "type": "function"
    },
    {
      "inputs": [
        {
          "internalType": "uint256",
          "name": "_id",
          "type": "uint256"
        }
      ],
      "name": "removeResource",
      "outputs": [],
      "stateMutability": "nonpayable",
      "type": "function"
    },
    {
      "inputs": [
        {
          "internalType": "address",
          "name": "_setToken",
          "type": "address"
        }
      ],
      "name": "removeSet",
      "outputs": [],
      "stateMutability": "nonpayable",
      "type": "function"
    },
    {
      "inputs": [],
      "name": "renounceOwnership",
      "outputs": [],
      "stateMutability": "nonpayable",
      "type": "function"
    },
    {
      "inputs": [
        {
          "internalType": "uint256",
          "name": "",
          "type": "uint256"
        }
      ],
      "name": "resourceId",
      "outputs": [
        {
          "internalType": "address",
          "name": "",
          "type": "address"
        }
      ],
      "stateMutability": "view",
      "type": "function"
    },
    {
      "inputs": [
        {
          "internalType": "uint256",
          "name": "",
          "type": "uint256"
        }
      ],
      "name": "resources",
      "outputs": [
        {
          "internalType": "address",
          "name": "",
          "type": "address"
        }
      ],
      "stateMutability": "view",
      "type": "function"
    },
    {
      "inputs": [
        {
          "internalType": "uint256",
          "name": "",
          "type": "uint256"
        }
      ],
      "name": "sets",
      "outputs": [
        {
          "internalType": "address",
          "name": "",
          "type": "address"
        }
      ],
      "stateMutability": "view",
      "type": "function"
    },
    {
      "inputs": [
        {
          "internalType": "address",
          "name": "newOwner",
          "type": "address"
        }
      ],
      "name": "transferOwnership",
      "outputs": [],
      "stateMutability": "nonpayable",
      "type": "function"
    }
  ],
  "transactionHash": "0xf3a4507032d6c00615927a3c1234708e9d049bcdcf0efc630cf92ed08d996db3",
  "args": [
    "0xa54074b2cc0e96a43048d4a68472F7F046aC0DA8"
  ],
  "numDeployments": 1,
  "solcInputHash": "13e98a859e1a3af05e67485695bc7e06",
  "bytecode": "0x608060405234801561001057600080fd5b5060405162002a2138038062002a218339818101604052602081101561003557600080fd5b5051600061004a6001600160e01b036100b916565b600080546001600160a01b0319166001600160a01b0383169081178255604051929350917f8be0079c531659141344cd1fd0a4f28419497f9722a3daafe3b4186f6b6457e0908290a350600b80546001600160a01b0319166001600160a01b03929092169190911790556100bd565b3390565b61295480620000cd6000396000f3fe608060405234801561001057600080fd5b50600436106101fb5760003560e01c8063715018a61161011a578063a3c56615116100ad578063d580ded41161007c578063d580ded4146107b8578063e0b75317146107de578063e765ced61461080a578063f2fde38b14610827578063f36b9a9a1461084d576101fb565b8063a3c566151461055b578063b2494df314610782578063c1cc57b01461078a578063c5bb387b14610792576101fb565b80637e6cbb6a116100e95780637e6cbb6a1461050857806381b2248a146105105780638da5cb5b1461052d578063a063246114610535576101fb565b8063715018a61461047c57806374ebe3ec1461048457806376a5bcf6146104aa578063792aa04f146104dc576101fb565b806329ce1ec511610192578063469048401161016157806346904840146104145780634b37c73f1461041c5780635b227f9b14610442578063672383c41461045f576101fb565b806329ce1ec5146103685780632cf7c5311461038e578063392e53cd146103e657806342f6e389146103ee576101fb565b80631ed86f19116101ce5780631ed86f19146102a5578063207a9485146102cb578063244d6daa146102f1578063263a53621461032a576101fb565b806301b98339146102005780630f04ba671461021f57806313bc6d4b1461025957806319e2c3491461027f575b600080fd5b61021d6004803603602081101561021657600080fd5b503561087f565b005b6102456004803603602081101561023557600080fd5b50356001600160a01b0316610a8b565b604080519115158252519081900360200190f35b6102456004803603602081101561026f57600080fd5b50356001600160a01b0316610aa0565b61021d6004803603602081101561029557600080fd5b50356001600160a01b0316610b3e565b61021d600480360360208110156102bb57600080fd5b50356001600160a01b0316610d17565b610245600480360360208110156102e157600080fd5b50356001600160a01b0316610eb7565b61030e6004803603602081101561030757600080fd5b5035610ecc565b604080516001600160a01b039092168252519081900360200190f35b6103566004803603604081101561034057600080fd5b506001600160a01b038135169060200135610ef3565b60408051918252519081900360200190f35b61021d6004803603602081101561037e57600080fd5b50356001600160a01b0316610f10565b6103966110b1565b60408051602080825283518183015283519192839290830191858101910280838360005b838110156103d25781810151838201526020016103ba565b505050509050019250505060405180910390f35b610245611114565b6102456004803603602081101561040457600080fd5b50356001600160a01b0316611124565b61030e611139565b61021d6004803603602081101561043257600080fd5b50356001600160a01b0316611148565b61030e6004803603602081101561045857600080fd5b5035611325565b61030e6004803603602081101561047557600080fd5b5035611332565b61021d61133f565b6102456004803603602081101561049a57600080fd5b50356001600160a01b03166113eb565b61021d600480360360608110156104c057600080fd5b506001600160a01b038135169060208101359060400135611400565b610356600480360360408110156104f257600080fd5b506001600160a01b0381351690602001356115d1565b6103966115f9565b61030e6004803603602081101561052657600080fd5b5035611659565b61030e611666565b61021d6004803603602081101561054b57600080fd5b50356001600160a01b0316611675565b61021d6004803603608081101561057157600080fd5b810190602081018135600160201b81111561058b57600080fd5b82018360208201111561059d57600080fd5b803590602001918460208302840111600160201b831117156105be57600080fd5b9190808060200260200160405190810160405280939291908181526020018383602002808284376000920191909152509295949360208101935035915050600160201b81111561060d57600080fd5b82018360208201111561061f57600080fd5b803590602001918460208302840111600160201b8311171561064057600080fd5b9190808060200260200160405190810160405280939291908181526020018383602002808284376000920191909152509295949360208101935035915050600160201b81111561068f57600080fd5b8201836020820111156106a157600080fd5b803590602001918460208302840111600160201b831117156106c257600080fd5b9190808060200260200160405190810160405280939291908181526020018383602002808284376000920191909152509295949360208101935035915050600160201b81111561071157600080fd5b82018360208201111561072357600080fd5b803590602001918460208302840111600160201b8311171561074457600080fd5b919080806020026020016040519081016040528093929190818152602001838360200280828437600092019190915250929550611851945050505050565b610396611d0b565b610396611d6b565b61021d600480360360208110156107a857600080fd5b50356001600160a01b0316611dcb565b61021d600480360360208110156107ce57600080fd5b50356001600160a01b0316611f20565b61021d600480360360408110156107f457600080fd5b506001600160a01b0381351690602001356120c0565b61030e6004803603602081101561082057600080fd5b50356122f9565b61021d6004803603602081101561083d57600080fd5b50356001600160a01b0316612314565b61021d6004803603606081101561086357600080fd5b506001600160a01b038135169060208101359060400135612416565b600b54600160a01b900460ff166108cb576040805162461bcd60e51b815260206004820152601d60248201526000805160206128de833981519152604482015290519081900360640190fd5b6108d3612589565b6001600160a01b03166108e4611666565b6001600160a01b03161461092d576040805162461bcd60e51b815260206004820181905260248201526000805160206128be833981519152604482015290519081900360640190fd5b6000818152600a60205260409020546001600160a01b031680610997576040805162461bcd60e51b815260206004820152601760248201527f5265736f7572636520646f6573206e6f74206578697374000000000000000000604482015290519081900360640190fd5b610a048160048054806020026020016040519081016040528092919081815260200182805480156109f157602002820191906000526020600020905b81546001600160a01b031681526001909101906020018083116109d3575b505050505061258d90919063ffffffff16565b8051610a18916004916020909101906127cc565b506000828152600a6020908152604080832080546001600160a01b03191690556001600160a01b0384168084526008835292819020805460ff19169055805185815290517fbc7961276d9fc2a4fe4fc4d817e48d15615364e5df46fa0d8fb45637582ae4f8929181900390910190a25050565b60066020526000908152604090205460ff1681565b6001600160a01b03811660009081526005602052604081205460ff1680610adf57506001600160a01b03821660009081526007602052604090205460ff165b80610b0257506001600160a01b03821660009081526008602052604090205460ff165b80610b2557506001600160a01b03821660009081526006602052604090205460ff165b80610b3857506001600160a01b03821630145b92915050565b600b54600160a01b900460ff16610b8a576040805162461bcd60e51b815260206004820152601d60248201526000805160206128de833981519152604482015290519081900360640190fd5b610b92612589565b6001600160a01b0316610ba3611666565b6001600160a01b031614610bec576040805162461bcd60e51b815260206004820181905260248201526000805160206128be833981519152604482015290519081900360640190fd5b6001600160a01b03811660009081526005602052604090205460ff16610c4e576040805162461bcd60e51b815260206004820152601260248201527114d95d08191bd95cc81b9bdd08195e1a5cdd60721b604482015290519081900360640190fd5b610cb98160018054806020026020016040519081016040528092919081815260200182805480156109f1576020028201919060005260206000209081546001600160a01b031681526001909101906020018083116109d357505050505061258d90919063ffffffff16565b8051610ccd916001916020909101906127cc565b506001600160a01b038116600081815260056020526040808220805460ff19169055517f8e0c505159e335da41fb50766da0ed86ceb6c429d0e6b431e8542cc6c3271b539190a250565b600b54600160a01b900460ff16610d63576040805162461bcd60e51b815260206004820152601d60248201526000805160206128de833981519152604482015290519081900360640190fd5b610d6b612589565b6001600160a01b0316610d7c611666565b6001600160a01b031614610dc5576040805162461bcd60e51b815260206004820181905260248201526000805160206128be833981519152604482015290519081900360640190fd5b6001600160a01b03811660009081526007602052604090205460ff1615610e2b576040805162461bcd60e51b81526020600482015260156024820152744d6f64756c6520616c72656164792065786973747360581b604482015290519081900360640190fd5b6001600160a01b038116600081815260076020526040808220805460ff1916600190811790915560038054918201815583527fc2575a0e9e593c00f959f8c92f12db2869c3395a3b0502d05e2516446f71f85b0180546001600160a01b03191684179055517fead6a006345da1073a106d5f32372d2d2204f46cb0b4bca8f5ebafcbbed12b8a9190a250565b60086020526000908152604090205460ff1681565b60048181548110610ed957fe5b6000918252602090912001546001600160a01b0316905081565b600960209081526000928352604080842090915290825290205481565b600b54600160a01b900460ff16610f5c576040805162461bcd60e51b815260206004820152601d60248201526000805160206128de833981519152604482015290519081900360640190fd5b610f64612589565b6001600160a01b0316610f75611666565b6001600160a01b031614610fbe576040805162461bcd60e51b815260206004820181905260248201526000805160206128be833981519152604482015290519081900360640190fd5b6001600160a01b03811660009081526006602052604090205460ff1615611025576040805162461bcd60e51b8152602060048201526016602482015275466163746f727920616c72656164792065786973747360501b604482015290519081900360640190fd5b6001600160a01b038116600081815260066020526040808220805460ff1916600190811790915560028054918201815583527f405787fa12a823e0f2b7631cc41b3ba8828b3321ca811111fa75cd3aa3bb5ace0180546001600160a01b03191684179055517f6fdc0147105e43e21da80a75b42d0fd464060d5e1a34b0cefbf0b4ccfc2e36a19190a250565b6060600180548060200260200160405190810160405280929190818152602001828054801561110957602002820191906000526020600020905b81546001600160a01b031681526001909101906020018083116110eb575b505050505090505b90565b600b54600160a01b900460ff1681565b60076020526000908152604090205460ff1681565b600b546001600160a01b031681565b600b54600160a01b900460ff16611194576040805162461bcd60e51b815260206004820152601d60248201526000805160206128de833981519152604482015290519081900360640190fd5b61119c612589565b6001600160a01b03166111ad611666565b6001600160a01b0316146111f6576040805162461bcd60e51b815260206004820181905260248201526000805160206128be833981519152604482015290519081900360640190fd5b6001600160a01b03811660009081526006602052604090205460ff1661125c576040805162461bcd60e51b8152602060048201526016602482015275119858dd1bdc9e48191bd95cc81b9bdd08195e1a5cdd60521b604482015290519081900360640190fd5b6112c78160028054806020026020016040519081016040528092919081815260200182805480156109f1576020028201919060005260206000209081546001600160a01b031681526001909101906020018083116109d357505050505061258d90919063ffffffff16565b80516112db916002916020909101906127cc565b506001600160a01b038116600081815260066020526040808220805460ff19169055517fafa2737b2090fa39c66b7348625f0c03726240f724defbc6216d679506f944419190a250565b60018181548110610ed957fe5b60028181548110610ed957fe5b611347612589565b6001600160a01b0316611358611666565b6001600160a01b0316146113a1576040805162461bcd60e51b815260206004820181905260248201526000805160206128be833981519152604482015290519081900360640190fd5b600080546040516001600160a01b03909116907f8be0079c531659141344cd1fd0a4f28419497f9722a3daafe3b4186f6b6457e0908390a3600080546001600160a01b0319169055565b60056020526000908152604090205460ff1681565b600b54600160a01b900460ff1661144c576040805162461bcd60e51b815260206004820152601d60248201526000805160206128de833981519152604482015290519081900360640190fd5b611454612589565b6001600160a01b0316611465611666565b6001600160a01b0316146114ae576040805162461bcd60e51b815260206004820181905260248201526000805160206128be833981519152604482015290519081900360640190fd5b6001600160a01b03831660009081526007602052604090205460ff16611513576040805162461bcd60e51b8152602060048201526015602482015274135bd91d5b1948191bd95cc81b9bdd08195e1a5cdd605a1b604482015290519081900360640190fd5b6001600160a01b03831660009081526009602090815260408083208584529091529020546115725760405162461bcd60e51b815260040180806020018281038252602181526020018061287c6021913960400191505060405180910390fd5b6001600160a01b0383166000818152600960209081526040808320868452825291829020849055815184815291518593927f84d9943a841552627b79770783a3cfd4da8303efc30bd75b65d863bd909926e392908290030190a3505050565b6001600160a01b03919091166000908152600960209081526040808320938352929052205490565b60606002805480602002602001604051908101604052809291908181526020018280548015611109576020028201919060005260206000209081546001600160a01b031681526001909101906020018083116110eb575050505050905090565b60038181548110610ed957fe5b6000546001600160a01b031690565b600b54600160a01b900460ff166116c1576040805162461bcd60e51b815260206004820152601d60248201526000805160206128de833981519152604482015290519081900360640190fd5b6116c9612589565b6001600160a01b03166116da611666565b6001600160a01b031614611723576040805162461bcd60e51b815260206004820181905260248201526000805160206128be833981519152604482015290519081900360640190fd5b6001600160a01b03811660009081526007602052604090205460ff16611788576040805162461bcd60e51b8152602060048201526015602482015274135bd91d5b1948191bd95cc81b9bdd08195e1a5cdd605a1b604482015290519081900360640190fd5b6117f38160038054806020026020016040519081016040528092919081815260200182805480156109f1576020028201919060005260206000209081546001600160a01b031681526001909101906020018083116109d357505050505061258d90919063ffffffff16565b8051611807916003916020909101906127cc565b506001600160a01b038116600081815260076020526040808220805460ff19169055517f0a1ee69f55c33d8467c69ca59ce2007a737a88603d75392972520bf67cb513b89190a250565b611859612589565b6001600160a01b031661186a611666565b6001600160a01b0316146118b3576040805162461bcd60e51b815260206004820181905260248201526000805160206128be833981519152604482015290519081900360640190fd5b600b54600160a01b900460ff16156118fc5760405162461bcd60e51b81526004018080602001828103825260218152602001806128fe6021913960400191505060405180910390fd5b8051825114611952576040805162461bcd60e51b815260206004820152601b60248201527f4172726179206c656e6774687320646f206e6f74206d617463682e0000000000604482015290519081900360640190fd5b83516119659060029060208701906127cc565b5082516119799060039060208601906127cc565b50815161198d9060049060208501906127cc565b5060005b8451811015611a5b5760006001600160a01b03168582815181106119b157fe5b60200260200101516001600160a01b03161415611a0f576040805162461bcd60e51b81526020600482015260176024820152762d32b9379030b2323932b9b99039bab136b4ba3a32b21760491b604482015290519081900360640190fd5b600160066000878481518110611a2157fe5b6020908102919091018101516001600160a01b03168252810191909152604001600020805460ff1916911515919091179055600101611991565b5060005b8351811015611b295760006001600160a01b0316848281518110611a7f57fe5b60200260200101516001600160a01b03161415611add576040805162461bcd60e51b81526020600482015260176024820152762d32b9379030b2323932b9b99039bab136b4ba3a32b21760491b604482015290519081900360640190fd5b600160076000868481518110611aef57fe5b6020908102919091018101516001600160a01b03168252810191909152604001600020805460ff1916911515919091179055600101611a5f565b5060005b8251811015611cf15760006001600160a01b0316838281518110611b4d57fe5b60200260200101516001600160a01b03161415611bab576040805162461bcd60e51b81526020600482015260176024820152762d32b9379030b2323932b9b99039bab136b4ba3a32b21760491b604482015290519081900360640190fd5b60006001600160a01b0316600a6000848481518110611bc657fe5b6020908102919091018101518252810191909152604001600020546001600160a01b031614611c3c576040805162461bcd60e51b815260206004820152601a60248201527f5265736f7572636520494420616c726561647920657869737473000000000000604482015290519081900360640190fd5b600160086000858481518110611c4e57fe5b60200260200101516001600160a01b03166001600160a01b0316815260200190815260200160002060006101000a81548160ff021916908315150217905550828181518110611c9957fe5b6020026020010151600a6000848481518110611cb157fe5b602090810291909101810151825281019190915260400160002080546001600160a01b0319166001600160a01b0392909216919091179055600101611b2d565b5050600b805460ff60a01b1916600160a01b179055505050565b60606003805480602002602001604051908101604052809291908181526020018280548015611109576020028201919060005260206000209081546001600160a01b031681526001909101906020018083116110eb575050505050905090565b60606004805480602002602001604051908101604052809291908181526020018280548015611109576020028201919060005260206000209081546001600160a01b031681526001909101906020018083116110eb575050505050905090565b600b54600160a01b900460ff16611e17576040805162461bcd60e51b815260206004820152601d60248201526000805160206128de833981519152604482015290519081900360640190fd5b611e1f612589565b6001600160a01b0316611e30611666565b6001600160a01b031614611e79576040805162461bcd60e51b815260206004820181905260248201526000805160206128be833981519152604482015290519081900360640190fd5b6001600160a01b038116611ecc576040805162461bcd60e51b8152602060048201526015602482015274041646472657373206d757374206e6f74206265203605c1b604482015290519081900360640190fd5b600b80546001600160a01b0383166001600160a01b0319909116811790915560408051918252517f167cccccc6e9b2892a740ec13fc1e51d3de8ea384f25bd87fee7412d588637e29181900360200190a150565b600b54600160a01b900460ff16611f6c576040805162461bcd60e51b815260206004820152601d60248201526000805160206128de833981519152604482015290519081900360640190fd5b3360009081526006602052604090205460ff16611fd0576040805162461bcd60e51b815260206004820152601d60248201527f4f6e6c792076616c696420666163746f726965732063616e2063616c6c000000604482015290519081900360640190fd5b6001600160a01b03811660009081526005602052604090205460ff1615612033576040805162461bcd60e51b815260206004820152601260248201527153657420616c72656164792065786973747360701b604482015290519081900360640190fd5b6001600160a01b038116600081815260056020526040808220805460ff19166001908117909155805480820182559083527fb10e2d527612073b26eecdfd717e6a320cf44b4afac2b0732d9fcbe2b7fa0cf60180546001600160a01b03191684179055513392917fdb18a8959c84999e8bddb4624081f905f78eb9d63ec80b48d3daf2d38ae660a291a350565b600b54600160a01b900460ff1661210c576040805162461bcd60e51b815260206004820152601d60248201526000805160206128de833981519152604482015290519081900360640190fd5b612114612589565b6001600160a01b0316612125611666565b6001600160a01b03161461216e576040805162461bcd60e51b815260206004820181905260248201526000805160206128be833981519152604482015290519081900360640190fd5b6001600160a01b03821660009081526008602052604090205460ff16156121dc576040805162461bcd60e51b815260206004820152601760248201527f5265736f7572636520616c726561647920657869737473000000000000000000604482015290519081900360640190fd5b6000818152600a60205260409020546001600160a01b031615612246576040805162461bcd60e51b815260206004820152601a60248201527f5265736f7572636520494420616c726561647920657869737473000000000000604482015290519081900360640190fd5b6001600160a01b0382166000818152600860209081526040808320805460ff19166001908117909155858452600a835281842080546001600160a01b031990811687179091556004805492830181559094527f8a35acfbc15ff81a39ae7d344fd709f28e8600b4aa8c65c6b64bfe7fe36bd19b0180549093168417909255815184815291517f5674036e091d8b4ee7f8e06cc71d41ee33f3fc331821fc0e017c1a091e8c861e9281900390910190a25050565b600a602052600090815260409020546001600160a01b031681565b61231c612589565b6001600160a01b031661232d611666565b6001600160a01b031614612376576040805162461bcd60e51b815260206004820181905260248201526000805160206128be833981519152604482015290519081900360640190fd5b6001600160a01b0381166123bb5760405162461bcd60e51b81526004018080602001828103825260268152602001806128566026913960400191505060405180910390fd5b600080546040516001600160a01b03808516939216917f8be0079c531659141344cd1fd0a4f28419497f9722a3daafe3b4186f6b6457e091a3600080546001600160a01b0319166001600160a01b0392909216919091179055565b600b54600160a01b900460ff16612462576040805162461bcd60e51b815260206004820152601d60248201526000805160206128de833981519152604482015290519081900360640190fd5b61246a612589565b6001600160a01b031661247b611666565b6001600160a01b0316146124c4576040805162461bcd60e51b815260206004820181905260248201526000805160206128be833981519152604482015290519081900360640190fd5b6001600160a01b03831660009081526007602052604090205460ff16612529576040805162461bcd60e51b8152602060048201526015602482015274135bd91d5b1948191bd95cc81b9bdd08195e1a5cdd605a1b604482015290519081900360640190fd5b6001600160a01b0383166000908152600960209081526040808320858452909152902054156115725760405162461bcd60e51b815260040180806020018281038252602181526020018061289d6021913960400191505060405180910390fd5b3390565b606060008061259c8585612602565b91509150806125ea576040805162461bcd60e51b815260206004820152601560248201527420b2323932b9b9903737ba1034b71030b93930bc9760591b604482015290519081900360640190fd5b60606125f68684612668565b509350610b3892505050565b81516000908190815b8181101561265557846001600160a01b031686828151811061262957fe5b60200260200101516001600160a01b0316141561264d579250600191506126619050565b60010161260b565b50600019600092509250505b9250929050565b81516060906000908084106126c4576040805162461bcd60e51b815260206004820152601860248201527f496e646578206d757374206265203c2041206c656e6774680000000000000000604482015290519081900360640190fd5b60606001820367ffffffffffffffff811180156126e057600080fd5b5060405190808252806020026020018201604052801561270a578160200160208202803683370190505b50905060005b858110156127585786818151811061272457fe5b602002602001015182828151811061273857fe5b6001600160a01b0390921660209283029190910190910152600101612710565b50600185015b828110156127a95786818151811061277257fe5b602002602001015182600183038151811061278957fe5b6001600160a01b039092166020928302919091019091015260010161275e565b50808686815181106127b757fe5b60200260200101519350935050509250929050565b828054828255906000526020600020908101928215612821579160200282015b8281111561282157825182546001600160a01b0319166001600160a01b039091161782556020909201916001909101906127ec565b5061282d929150612831565b5090565b61111191905b8082111561282d5780546001600160a01b031916815560010161283756fe4f776e61626c653a206e6577206f776e657220697320746865207a65726f2061646472657373466565207479706520646f6573206e6f74206578697374206f6e206d6f64756c65466565207479706520616c726561647920657869737473206f6e206d6f64756c654f776e61626c653a2063616c6c6572206973206e6f7420746865206f776e6572436f6e7472616374206d75737420626520696e697469616c697a65642e000000436f6e74726f6c6c657220697320616c726561647920696e697469616c697a6564a26469706673582212202c8dda4cf9c4daa23be0dfd52e0ec1b01e9fcff13577788699bfe949e7f69c9764736f6c634300060a0033",
  "devdoc": {
    "author": "Set Protocol Contract that houses state for approvals and system contracts such as added Sets, modules, factories, resources (like price oracles), and protocol fee configurations.",
    "methods": {
      "addFactory(address)": {
        "params": {
          "_factory": "Address of the factory contract to add"
        }
      },
      "addFee(address,uint256,uint256)": {
        "params": {
          "_feeType": "Type of the fee to add in the module",
          "_module": "Address of the module contract to add fee to",
          "_newFeePercentage": "Percentage of fee to add in the module (denominated in preciseUnits eg 1% = 1e16)"
        }
      },
      "addModule(address)": {
        "params": {
          "_module": "Address of the module contract to add"
        }
      },
      "addResource(address,uint256)": {
        "params": {
          "_id": "New ID of the resource contract",
          "_resource": "Address of the resource contract to add"
        }
      },
      "addSet(address)": {
        "params": {
          "_setToken": "Address of the SetToken contract to add"
        }
      },
      "constructor": {
        "params": {
          "_feeRecipient": "Address of the initial protocol fee recipient"
        }
      },
      "editFee(address,uint256,uint256)": {
        "params": {
          "_feeType": "Type of the fee to edit in the module",
          "_module": "Address of the module contract to edit fee",
          "_newFeePercentage": "Percentage of fee to edit in the module (denominated in preciseUnits eg 1% = 1e16)"
        }
      },
      "editFeeRecipient(address)": {
        "params": {
          "_newFeeRecipient": "Address of the new protocol fee recipient"
        }
      },
      "initialize(address[],address[],address[],uint256[])": {
        "params": {
          "_factories": "List of factories to add",
          "_modules": "List of modules to add",
          "_resourceIds": "List of resource IDs associated with the resources",
          "_resources": "List of resources to add"
        }
      },
      "isSystemContract(address)": {
        "params": {
          "_contractAddress": "The contract address to check"
        }
      },
      "owner()": {
        "details": "Returns the address of the current owner."
      },
      "removeFactory(address)": {
        "params": {
          "_factory": "Address of the factory contract to remove"
        }
      },
      "removeModule(address)": {
        "params": {
          "_module": "Address of the module contract to remove"
        }
      },
      "removeResource(uint256)": {
        "params": {
          "_id": "ID of the resource contract to remove"
        }
      },
      "removeSet(address)": {
        "params": {
          "_setToken": "Address of the SetToken contract to remove"
        }
      },
      "renounceOwnership()": {
        "details": "Leaves the contract without owner. It will not be possible to call `onlyOwner` functions anymore. Can only be called by the current owner. NOTE: Renouncing ownership will leave the contract without an owner, thereby removing any functionality that is only available to the owner."
      },
      "transferOwnership(address)": {
        "details": "Transfers ownership of the contract to a new account (`newOwner`). Can only be called by the current owner."
      }
    },
    "title": "Controller"
  },
  "userdoc": {
    "methods": {
      "addFactory(address)": {
        "notice": "PRIVILEGED GOVERNANCE FUNCTION. Allows governance to add a factory"
      },
      "addFee(address,uint256,uint256)": {
        "notice": "PRIVILEGED GOVERNANCE FUNCTION. Allows governance to add a fee to a module"
      },
      "addModule(address)": {
        "notice": "PRIVILEGED GOVERNANCE FUNCTION. Allows governance to add a module"
      },
      "addResource(address,uint256)": {
        "notice": "PRIVILEGED GOVERNANCE FUNCTION. Allows governance to add a resource"
      },
      "addSet(address)": {
        "notice": "PRIVILEGED FACTORY FUNCTION. Adds a newly deployed SetToken as an enabled SetToken."
      },
      "constructor": "Initializes the initial fee recipient on deployment.",
      "editFee(address,uint256,uint256)": {
        "notice": "PRIVILEGED GOVERNANCE FUNCTION. Allows governance to edit a fee in an existing module"
      },
      "editFeeRecipient(address)": {
        "notice": "PRIVILEGED GOVERNANCE FUNCTION. Allows governance to edit the protocol fee recipient"
      },
      "initialize(address[],address[],address[],uint256[])": {
        "notice": "Initializes any predeployed factories, modules, and resources post deployment. Note: This function can only be called by the owner once to batch initialize the initial system contracts."
      },
      "isSystemContract(address)": {
        "notice": "Check if a contract address is a module, Set, resource, factory or controller"
      },
      "removeFactory(address)": {
        "notice": "PRIVILEGED GOVERNANCE FUNCTION. Allows governance to remove a factory"
      },
      "removeModule(address)": {
        "notice": "PRIVILEGED GOVERNANCE FUNCTION. Allows governance to remove a module"
      },
      "removeResource(uint256)": {
        "notice": "PRIVILEGED GOVERNANCE FUNCTION. Allows governance to remove a resource"
      },
      "removeSet(address)": {
        "notice": "PRIVILEGED GOVERNANCE FUNCTION. Allows governance to remove a Set"
      }
    }
  },
  "storageLayout": {
    "storage": [
      {
        "astId": 7,
        "contract": "contracts/protocol/Controller.sol:Controller",
        "label": "_owner",
        "offset": 0,
        "slot": "0",
        "type": "t_address"
      },
      {
        "astId": 8482,
        "contract": "contracts/protocol/Controller.sol:Controller",
        "label": "sets",
        "offset": 0,
        "slot": "1",
        "type": "t_array(t_address)dyn_storage"
      },
      {
        "astId": 8485,
        "contract": "contracts/protocol/Controller.sol:Controller",
        "label": "factories",
        "offset": 0,
        "slot": "2",
        "type": "t_array(t_address)dyn_storage"
      },
      {
        "astId": 8488,
        "contract": "contracts/protocol/Controller.sol:Controller",
        "label": "modules",
        "offset": 0,
        "slot": "3",
        "type": "t_array(t_address)dyn_storage"
      },
      {
        "astId": 8491,
        "contract": "contracts/protocol/Controller.sol:Controller",
        "label": "resources",
        "offset": 0,
        "slot": "4",
        "type": "t_array(t_address)dyn_storage"
      },
      {
        "astId": 8495,
        "contract": "contracts/protocol/Controller.sol:Controller",
        "label": "isSet",
        "offset": 0,
        "slot": "5",
        "type": "t_mapping(t_address,t_bool)"
      },
      {
        "astId": 8499,
        "contract": "contracts/protocol/Controller.sol:Controller",
        "label": "isFactory",
        "offset": 0,
        "slot": "6",
        "type": "t_mapping(t_address,t_bool)"
      },
      {
        "astId": 8503,
        "contract": "contracts/protocol/Controller.sol:Controller",
        "label": "isModule",
        "offset": 0,
        "slot": "7",
        "type": "t_mapping(t_address,t_bool)"
      },
      {
        "astId": 8507,
        "contract": "contracts/protocol/Controller.sol:Controller",
        "label": "isResource",
        "offset": 0,
        "slot": "8",
        "type": "t_mapping(t_address,t_bool)"
      },
      {
        "astId": 8513,
        "contract": "contracts/protocol/Controller.sol:Controller",
        "label": "fees",
        "offset": 0,
        "slot": "9",
        "type": "t_mapping(t_address,t_mapping(t_uint256,t_uint256))"
      },
      {
        "astId": 8517,
        "contract": "contracts/protocol/Controller.sol:Controller",
        "label": "resourceId",
        "offset": 0,
        "slot": "10",
        "type": "t_mapping(t_uint256,t_address)"
      },
      {
        "astId": 8519,
        "contract": "contracts/protocol/Controller.sol:Controller",
        "label": "feeRecipient",
        "offset": 0,
        "slot": "11",
        "type": "t_address"
      },
      {
        "astId": 8521,
        "contract": "contracts/protocol/Controller.sol:Controller",
        "label": "isInitialized",
        "offset": 20,
        "slot": "11",
        "type": "t_bool"
      }
    ],
    "types": {
      "t_address": {
        "encoding": "inplace",
        "label": "address",
        "numberOfBytes": "20"
      },
      "t_array(t_address)dyn_storage": {
        "base": "t_address",
        "encoding": "dynamic_array",
        "label": "address[]",
        "numberOfBytes": "32"
      },
      "t_bool": {
        "encoding": "inplace",
        "label": "bool",
        "numberOfBytes": "1"
      },
      "t_mapping(t_address,t_bool)": {
        "encoding": "mapping",
        "key": "t_address",
        "label": "mapping(address => bool)",
        "numberOfBytes": "32",
        "value": "t_bool"
      },
      "t_mapping(t_address,t_mapping(t_uint256,t_uint256))": {
        "encoding": "mapping",
        "key": "t_address",
        "label": "mapping(address => mapping(uint256 => uint256))",
        "numberOfBytes": "32",
        "value": "t_mapping(t_uint256,t_uint256)"
      },
      "t_mapping(t_uint256,t_address)": {
        "encoding": "mapping",
        "key": "t_uint256",
        "label": "mapping(uint256 => address)",
        "numberOfBytes": "32",
        "value": "t_address"
      },
      "t_mapping(t_uint256,t_uint256)": {
        "encoding": "mapping",
        "key": "t_uint256",
        "label": "mapping(uint256 => uint256)",
        "numberOfBytes": "32",
        "value": "t_uint256"
      },
      "t_uint256": {
        "encoding": "inplace",
        "label": "uint256",
        "numberOfBytes": "32"
      }
    }
  }
}