{
  "address": "0x22582aF5Bed7Ae58D6fbEC23C39C3290ab57132F",
  "abi": [
    {
      "inputs": [
        {
          "internalType": "address",
          "name": "_flokiTaxHandler",
          "type": "address"
        },
        {
          "internalType": "address",
          "name": "_uniswapRouter",
          "type": "address"
        },
        {
          "internalType": "address",
          "name": "_floki",
          "type": "address"
        }
      ],
      "stateMutability": "nonpayable",
      "type": "constructor"
    },
    {
      "anonymous": false,
      "inputs": [
        {
          "indexed": true,
          "internalType": "address",
          "name": "previousOwner",
          "type": "address"
        },
        {
          "indexed": true,
          "internalType": "address",
          "name": "newOwner",
          "type": "address"
        }
      ],
      "name": "OwnershipTransferred",
      "type": "event"
    },
    {
      "inputs": [
        {
          "internalType": "uint256",
          "name": "amountOut",
          "type": "uint256"
        },
        {
          "internalType": "address",
          "name": "uniSwapPoolAddress",
          "type": "address"
        },
        {
          "internalType": "address[]",
          "name": "path",
          "type": "address[]"
        }
      ],
      "name": "buyExactFlokiTokens",
      "outputs": [],
      "stateMutability": "nonpayable",
      "type": "function"
    },
    {
      "inputs": [],
      "name": "floki",
      "outputs": [
        {
          "internalType": "contract IERC20",
          "name": "",
          "type": "address"
        }
      ],
      "stateMutability": "view",
      "type": "function"
    },
    {
      "inputs": [],
      "name": "flokiTaxHandler",
      "outputs": [
        {
          "internalType": "contract IFlokiTaxHandler",
          "name": "",
          "type": "address"
        }
      ],
      "stateMutability": "view",
      "type": "function"
    },
    {
      "inputs": [],
      "name": "owner",
      "outputs": [
        {
          "internalType": "address",
          "name": "",
          "type": "address"
        }
      ],
      "stateMutability": "view",
      "type": "function"
    },
    {
      "inputs": [],
      "name": "renounceOwnership",
      "outputs": [],
      "stateMutability": "nonpayable",
      "type": "function"
    },
    {
      "inputs": [
        {
          "internalType": "uint256",
          "name": "amountIn",
          "type": "uint256"
        },
        {
          "internalType": "address[]",
          "name": "path",
          "type": "address[]"
        }
      ],
      "name": "sellFlokiToken",
      "outputs": [],
      "stateMutability": "nonpayable",
      "type": "function"
    },
    {
      "inputs": [
        {
          "internalType": "address",
          "name": "newOwner",
          "type": "address"
        }
      ],
      "name": "transferOwnership",
      "outputs": [],
      "stateMutability": "nonpayable",
      "type": "function"
    },
    {
      "inputs": [
        {
          "internalType": "contract IERC20",
          "name": "token",
          "type": "address"
        },
        {
          "internalType": "address",
          "name": "to",
          "type": "address"
        },
        {
          "internalType": "uint256",
          "name": "amount",
          "type": "uint256"
        }
      ],
      "name": "transferTokens",
      "outputs": [],
      "stateMutability": "nonpayable",
      "type": "function"
    },
    {
      "inputs": [],
      "name": "uniswapRouter",
      "outputs": [
        {
          "internalType": "contract IUniswapV2Router",
          "name": "",
          "type": "address"
        }
      ],
      "stateMutability": "view",
      "type": "function"
    }
  ],
  "transactionHash": "0x85849875c30d8dbb8faf826c823120fbeb6ac22ceb2f6631a5aaff9ac79ffa28",
  "args": [
    "0x834F96fD4fE9147a2a647D957FBbE67FEc62B67b",
    "0x7a250d5630B4cF539739dF2C5dAcb4c659F2488D",
    "0xcf0C122c6b73ff809C693DB761e7BaeBe62b6a2E"
  ],
  "numDeployments": 1,
  "solcInputHash": "a09c4495e78221ed67c9c3135febf2d9",
  "bytecode": "0x608060405234801561001057600080fd5b506040516113053803806113058339818101604052606081101561003357600080fd5b508051602082015160409092015190919060006100576001600160e01b036100e716565b600080546001600160a01b0319166001600160a01b0383169081178255604051929350917f8be0079c531659141344cd1fd0a4f28419497f9722a3daafe3b4186f6b6457e0908290a35060018055600280546001600160a01b039485166001600160a01b0319918216179091556003805493851693821693909317909255600480549190931691161790556100eb565b3390565b61120b806100fa6000396000f3fe608060405234801561001057600080fd5b50600436106100925760003560e01c8063735de9f711610066578063735de9f7146101755780638da5cb5b1461017d578063a64b6e5f14610185578063b4b91acc146101bb578063f2fde38b1461027157610092565b80620e4ad814610097578063149d266f1461014157806334c1d01914610165578063715018a61461016d575b600080fd5b61013f600480360360408110156100ad57600080fd5b81359190810190604081016020820135600160201b8111156100ce57600080fd5b8201836020820111156100e057600080fd5b803590602001918460208302840111600160201b8311171561010157600080fd5b919080806020026020016040519081016040528093929190818152602001838360200280828437600092019190915250929550610297945050505050565b005b610149610404565b604080516001600160a01b039092168252519081900360200190f35b610149610413565b61013f610422565b6101496104e0565b6101496104ef565b61013f6004803603606081101561019b57600080fd5b506001600160a01b038135811691602081013590911690604001356104fe565b61013f600480360360608110156101d157600080fd5b8135916001600160a01b0360208201351691810190606081016040820135600160201b81111561020057600080fd5b82018360208201111561021257600080fd5b803590602001918460208302840111600160201b8311171561023357600080fd5b919080806020026020016040519081016040528093929190818152602001838360200280828437600092019190915250929550610582945050505050565b61013f6004803603602081101561028757600080fd5b50356001600160a01b0316610afe565b600260015414156102ef576040805162461bcd60e51b815260206004820152601f60248201527f5265656e7472616e637947756172643a207265656e7472616e742063616c6c00604482015290519081900360640190fd5b600260018190555060008160008151811061030657fe5b6020026020010151905061031c81333086610c12565b6003546103349082906001600160a01b031685610c72565b600354604051635c11d79560e01b8152600481018581526000602483018190523360648401819052426084850181905260a060448601908152885160a487015288516001600160a01b0390971696635c11d795968b968b9594939092909160c40190602080880191028083838b5b838110156103ba5781810151838201526020016103a2565b505050509050019650505050505050600060405180830381600087803b1580156103e357600080fd5b505af11580156103f7573d6000803e3d6000fd5b5050600180555050505050565b6004546001600160a01b031681565b6002546001600160a01b031681565b61042a610d85565b6001600160a01b031661043b6104ef565b6001600160a01b031614610496576040805162461bcd60e51b815260206004820181905260248201527f4f776e61626c653a2063616c6c6572206973206e6f7420746865206f776e6572604482015290519081900360640190fd5b600080546040516001600160a01b03909116907f8be0079c531659141344cd1fd0a4f28419497f9722a3daafe3b4186f6b6457e0908390a3600080546001600160a01b0319169055565b6003546001600160a01b031681565b6000546001600160a01b031690565b610506610d85565b6001600160a01b03166105176104ef565b6001600160a01b031614610572576040805162461bcd60e51b815260206004820181905260248201527f4f776e61626c653a2063616c6c6572206973206e6f7420746865206f776e6572604482015290519081900360640190fd5b61057d838383610d89565b505050565b600260015414156105da576040805162461bcd60e51b815260206004820152601f60248201527f5265656e7472616e637947756172643a207265656e7472616e742063616c6c00604482015290519081900360640190fd5b60026001819055506000816000815181106105f157fe5b602090810291909101810151600254604080516335eb486b60e21b81526001600160a01b038881166004830152336024830152604482018a90529151939550600094919092169263d7ad21ac926064808201939291829003018186803b15801561065a57600080fd5b505afa15801561066e573d6000803e3d6000fd5b505050506040513d602081101561068457600080fd5b5051905060008186038680028161069757fe5b600354604080516307c0329d60e21b81529390920460048401818152602485019384528851604486015288519195506000946001600160a01b0390931693631f00ca749387938b93929160640190602080860191028083838c5b838110156107095781810151838201526020016106f1565b50505050905001935050505060006040518083038186803b15801561072d57600080fd5b505afa158015610741573d6000803e3d6000fd5b505050506040513d6000823e601f3d908101601f19168201604052602081101561076a57600080fd5b8101908080516040519392919084600160201b82111561078957600080fd5b90830190602082018581111561079e57600080fd5b82518660208202830111600160201b821117156107ba57600080fd5b82525081516020918201928201910280838360005b838110156107e75781810151838201526020016107cf565b5050505090500160405250505060008151811061080057fe5b6020026020010151905061081684333084610c12565b60035461082e9085906001600160a01b031683610c72565b60048054604080516370a0823160e01b81523393810193909352516000926001600160a01b03909216916370a08231916024808301926020929190829003018186803b15801561087d57600080fd5b505afa158015610891573d6000803e3d6000fd5b505050506040513d60208110156108a757600080fd5b5051600354604051634401edf760e11b815260048101868152602482018690523360648301819052426084840181905260a0604485019081528c5160a48601528c519697506001600160a01b0390951695638803dbee958a958a958f95949390929160c401906020878101910280838360005b8381101561093257818101518382015260200161091a565b505050509050019650505050505050600060405180830381600087803b15801561095b57600080fd5b505af115801561096f573d6000803e3d6000fd5b505050506040513d6000823e601f3d908101601f19168201604052602081101561099857600080fd5b8101908080516040519392919084600160201b8211156109b757600080fd5b9083019060208201858111156109cc57600080fd5b82518660208202830111600160201b821117156109e857600080fd5b82525081516020918201928201910280838360005b83811015610a155781810151838201526020016109fd565b50505050919091016040818152600480546370a0823160e01b845233918401919091529051600097506001600160a01b0390911695506370a08231945060248083019450602093509091829003018186803b158015610a7357600080fd5b505afa158015610a87573d6000803e3d6000fd5b505050506040513d6020811015610a9d57600080fd5b5051905088610ab2828463ffffffff610ddb16565b1015610aef5760405162461bcd60e51b81526004018080602001828103825260218152602001806111556021913960400191505060405180910390fd5b50506001805550505050505050565b610b06610d85565b6001600160a01b0316610b176104ef565b6001600160a01b031614610b72576040805162461bcd60e51b815260206004820181905260248201527f4f776e61626c653a2063616c6c6572206973206e6f7420746865206f776e6572604482015290519081900360640190fd5b6001600160a01b038116610bb75760405162461bcd60e51b81526004018080602001828103825260268152602001806111096026913960400191505060405180910390fd5b600080546040516001600160a01b03808516939216917f8be0079c531659141344cd1fd0a4f28419497f9722a3daafe3b4186f6b6457e091a3600080546001600160a01b0319166001600160a01b0392909216919091179055565b604080516001600160a01b0380861660248301528416604482015260648082018490528251808303909101815260849091019091526020810180516001600160e01b03166323b872dd60e01b179052610c6c908590610e38565b50505050565b801580610cf8575060408051636eb1769f60e11b81523060048201526001600160a01b03848116602483015291519185169163dd62ed3e91604480820192602092909190829003018186803b158015610cca57600080fd5b505afa158015610cde573d6000803e3d6000fd5b505050506040513d6020811015610cf457600080fd5b5051155b610d335760405162461bcd60e51b81526004018080602001828103825260368152602001806111a06036913960400191505060405180910390fd5b604080516001600160a01b038416602482015260448082018490528251808303909101815260649091019091526020810180516001600160e01b031663095ea7b360e01b17905261057d908490610e38565b3390565b604080516001600160a01b038416602482015260448082018490528251808303909101815260649091019091526020810180516001600160e01b031663a9059cbb60e01b17905261057d908490610e38565b600082821115610e32576040805162461bcd60e51b815260206004820152601e60248201527f536166654d6174683a207375627472616374696f6e206f766572666c6f770000604482015290519081900360640190fd5b50900390565b6060610e8d826040518060400160405280602081526020017f5361666545524332303a206c6f772d6c6576656c2063616c6c206661696c6564815250856001600160a01b0316610ee99092919063ffffffff16565b80519091501561057d57808060200190516020811015610eac57600080fd5b505161057d5760405162461bcd60e51b815260040180806020018281038252602a815260200180611176602a913960400191505060405180910390fd5b6060610ef88484600085610f02565b90505b9392505050565b606082471015610f435760405162461bcd60e51b815260040180806020018281038252602681526020018061112f6026913960400191505060405180910390fd5b610f4c8561105e565b610f9d576040805162461bcd60e51b815260206004820152601d60248201527f416464726573733a2063616c6c20746f206e6f6e2d636f6e7472616374000000604482015290519081900360640190fd5b60006060866001600160a01b031685876040518082805190602001908083835b60208310610fdc5780518252601f199092019160209182019101610fbd565b6001836020036101000a03801982511681845116808217855250505050505090500191505060006040518083038185875af1925050503d806000811461103e576040519150601f19603f3d011682016040523d82523d6000602084013e611043565b606091505b5091509150611053828286611064565b979650505050505050565b3b151590565b60608315611073575081610efb565b8251156110835782518084602001fd5b8160405162461bcd60e51b81526004018080602001828103825283818151815260200191508051906020019080838360005b838110156110cd5781810151838201526020016110b5565b50505050905090810190601f1680156110fa5780820380516001836020036101000a031916815260200191505b509250505060405180910390fdfe4f776e61626c653a206e6577206f776e657220697320746865207a65726f2061646472657373416464726573733a20696e73756666696369656e742062616c616e636520666f722063616c6c72657475726e6564206c65737320616d6f756e74207468616e20646573697265645361666545524332303a204552433230206f7065726174696f6e20646964206e6f7420737563636565645361666545524332303a20617070726f76652066726f6d206e6f6e2d7a65726f20746f206e6f6e2d7a65726f20616c6c6f77616e6365a2646970667358221220a59b6eed541a0254dade5b784b52826e6baabf70a2dbc9b87c4c7a943487fd0964736f6c634300060a0033",
  "devdoc": {
    "methods": {
      "owner()": {
        "details": "Returns the address of the current owner."
      },
      "renounceOwnership()": {
        "details": "Leaves the contract without owner. It will not be possible to call `onlyOwner` functions anymore. Can only be called by the current owner. NOTE: Renouncing ownership will leave the contract without an owner, thereby removing any functionality that is only available to the owner."
      },
      "transferOwnership(address)": {
        "details": "Transfers ownership of the contract to a new account (`newOwner`). Can only be called by the current owner."
      }
    }
  },
  "userdoc": {
    "methods": {}
  },
  "storageLayout": {
    "storage": [
      {
        "astId": 7,
        "contract": "contracts/extensions/FlokiUniswapV2BuyTokens.sol:FlokiUniswapV2BuyTokens",
        "label": "_owner",
        "offset": 0,
        "slot": "0",
        "type": "t_address"
      },
      {
        "astId": 1840,
        "contract": "contracts/extensions/FlokiUniswapV2BuyTokens.sol:FlokiUniswapV2BuyTokens",
        "label": "_status",
        "offset": 0,
        "slot": "1",
        "type": "t_uint256"
      },
      {
        "astId": 2207,
        "contract": "contracts/extensions/FlokiUniswapV2BuyTokens.sol:FlokiUniswapV2BuyTokens",
        "label": "flokiTaxHandler",
        "offset": 0,
        "slot": "2",
        "type": "t_contract(IFlokiTaxHandler)3432"
      },
      {
        "astId": 2209,
        "contract": "contracts/extensions/FlokiUniswapV2BuyTokens.sol:FlokiUniswapV2BuyTokens",
        "label": "uniswapRouter",
        "offset": 0,
        "slot": "3",
        "type": "t_contract(IUniswapV2Router)3505"
      },
      {
        "astId": 2211,
        "contract": "contracts/extensions/FlokiUniswapV2BuyTokens.sol:FlokiUniswapV2BuyTokens",
        "label": "floki",
        "offset": 0,
        "slot": "4",
        "type": "t_contract(IERC20)1297"
      }
    ],
    "types": {
      "t_address": {
        "encoding": "inplace",
        "label": "address",
        "numberOfBytes": "20"
      },
      "t_contract(IERC20)1297": {
        "encoding": "inplace",
        "label": "contract IERC20",
        "numberOfBytes": "20"
      },
      "t_contract(IFlokiTaxHandler)3432": {
        "encoding": "inplace",
        "label": "contract IFlokiTaxHandler",
        "numberOfBytes": "20"
      },
      "t_contract(IUniswapV2Router)3505": {
        "encoding": "inplace",
        "label": "contract IUniswapV2Router",
        "numberOfBytes": "20"
      },
      "t_uint256": {
        "encoding": "inplace",
        "label": "uint256",
        "numberOfBytes": "32"
      }
    }
  }
}