{
  "address": "0xf0191f2bA6f5c73616E2B73a9b153e0eF3452486",
  "abi": [
    {
      "inputs": [
        {
          "internalType": "address",
          "name": "pythContract",
          "type": "address"
        },
        {
          "internalType": "bytes32",
          "name": "_priceId",
          "type": "bytes32"
        }
      ],
      "stateMutability": "nonpayable",
      "type": "constructor"
    },
    {
      "inputs": [],
      "name": "priceId",
      "outputs": [
        {
          "internalType": "bytes32",
          "name": "",
          "type": "bytes32"
        }
      ],
      "stateMutability": "view",
      "type": "function"
    },
    {
      "inputs": [],
      "name": "pyth",
      "outputs": [
        {
          "internalType": "contract IPyth",
          "name": "",
          "type": "address"
        }
      ],
      "stateMutability": "view",
      "type": "function"
    },
    {
      "inputs": [],
      "name": "read",
      "outputs": [
        {
          "internalType": "uint256",
          "name": "price",
          "type": "uint256"
        }
      ],
      "stateMutability": "view",
      "type": "function"
    }
  ],
  "transactionHash": "0x3100a0b87d578f501455999c5af1a10cf99cbee284f2f8889b86271d415dc6e1",
  "args": [
    "0x4305FB66699C3B2702D4d05CF36551390A4c69C6",
    "0xd69731a2e74ac1ce884fc3890f7ee324b6deb66147055249568869ed700882e4"
  ],
  "numDeployments": 1,
  "solcInputHash": "6799e1f7e8568b40d1b2c5fc5affffb4",
  "bytecode": "0x608060405234801561001057600080fd5b5060405161045c38038061045c83398101604081905261002f91610058565b600080546001600160a01b0319166001600160a01b039390931692909217909155600155610092565b6000806040838503121561006b57600080fd5b82516001600160a01b038116811461008257600080fd5b6020939093015192949293505050565b6103bb806100a16000396000f3fe608060405234801561001057600080fd5b50600436106100415760003560e01c8063311893341461004657806357de26a414610062578063f98d06f01461006a575b600080fd5b61004f60015481565b6040519081526020015b60405180910390f35b61004f610095565b60005461007d906001600160a01b031681565b6040516001600160a01b039091168152602001610059565b600080546001546040516331d98b3f60e01b8152600481019190915282916001600160a01b0316906331d98b3f90602401608060405180830381865afa1580156100e3573d6000803e3d6000fd5b505050506040513d601f19601f820116820180604052508101906101079190610183565b9050806040015160001961011b9190610229565b61012690600a610336565b81516101449067ffffffffffffffff16670de0b6b3a764000061034c565b61014e9190610363565b91505090565b805167ffffffffffffffff8116811461016c57600080fd5b919050565b8051600381900b811461016c57600080fd5b60006080828403121561019557600080fd5b6040516080810181811067ffffffffffffffff821117156101c657634e487b7160e01b600052604160045260246000fd5b6040528251600781900b81146101db57600080fd5b81526101e960208401610154565b60208201526101fa60408401610171565b6040820152606083015160608201528091505092915050565b634e487b7160e01b600052601160045260246000fd5b60008260030b8260030b028060030b915080821461024957610249610213565b5092915050565b600181815b8085111561028b57816000190482111561027157610271610213565b8085161561027e57918102915b93841c9390800290610255565b509250929050565b6000826102a257506001610330565b816102af57506000610330565b81600181146102c557600281146102cf576102eb565b6001915050610330565b60ff8411156102e0576102e0610213565b50506001821b610330565b5060208310610133831016604e8410600b841016171561030e575081810a610330565b6103188383610250565b806000190482111561032c5761032c610213565b0290505b92915050565b600061034560ff841683610293565b9392505050565b808202811582820484141761033057610330610213565b60008261038057634e487b7160e01b600052601260045260246000fd5b50049056fea26469706673582212200d24df02fd8a8e00a824ab3909b6da09ee076651a9d6f0cf8d2ca165f63fc47264736f6c63430008110033",
  "devdoc": {
    "kind": "dev",
    "methods": {},
    "version": 1
  },
  "userdoc": {
    "kind": "user",
    "methods": {},
    "version": 1
  },
  "storageLayout": {
    "storage": [
      {
        "astId": 1232,
        "contract": "contracts/oracles/PythOracle.sol:PythOracle",
        "label": "pyth",
        "offset": 0,
        "slot": "0",
        "type": "t_contract(IPyth)136"
      },
      {
        "astId": 1234,
        "contract": "contracts/oracles/PythOracle.sol:PythOracle",
        "label": "priceId",
        "offset": 0,
        "slot": "1",
        "type": "t_bytes32"
      }
    ],
    "types": {
      "t_bytes32": {
        "encoding": "inplace",
        "label": "bytes32",
        "numberOfBytes": "32"
      },
      "t_contract(IPyth)136": {
        "encoding": "inplace",
        "label": "contract IPyth",
        "numberOfBytes": "20"
      }
    }
  }
}