{
  "address": "0x92a34CC540E43284Da1382E079333F45726292f9",
  "abi": [
    {
      "inputs": [
        {
          "internalType": "contract IController",
          "name": "_controller",
          "type": "address"
        },
        {
          "internalType": "address",
          "name": "_masterQuoteAsset",
          "type": "address"
        },
        {
          "internalType": "address[]",
          "name": "_adapters",
          "type": "address[]"
        },
        {
          "internalType": "address[]",
          "name": "_assetOnes",
          "type": "address[]"
        },
        {
          "internalType": "address[]",
          "name": "_assetTwos",
          "type": "address[]"
        },
        {
          "internalType": "contract IOracle[]",
          "name": "_oracles",
          "type": "address[]"
        }
      ],
      "stateMutability": "nonpayable",
      "type": "constructor"
    },
    {
      "anonymous": false,
      "inputs": [
        {
          "indexed": false,
          "internalType": "address",
          "name": "_adapter",
          "type": "address"
        }
      ],
      "name": "AdapterAdded",
      "type": "event"
    },
    {
      "anonymous": false,
      "inputs": [
        {
          "indexed": false,
          "internalType": "address",
          "name": "_adapter",
          "type": "address"
        }
      ],
      "name": "AdapterRemoved",
      "type": "event"
    },
    {
      "anonymous": false,
      "inputs": [
        {
          "indexed": false,
          "internalType": "address",
          "name": "_newMasterQuote",
          "type": "address"
        }
      ],
      "name": "MasterQuoteAssetEdited",
      "type": "event"
    },
    {
      "anonymous": false,
      "inputs": [
        {
          "indexed": true,
          "internalType": "address",
          "name": "previousOwner",
          "type": "address"
        },
        {
          "indexed": true,
          "internalType": "address",
          "name": "newOwner",
          "type": "address"
        }
      ],
      "name": "OwnershipTransferred",
      "type": "event"
    },
    {
      "anonymous": false,
      "inputs": [
        {
          "indexed": true,
          "internalType": "address",
          "name": "_assetOne",
          "type": "address"
        },
        {
          "indexed": true,
          "internalType": "address",
          "name": "_assetTwo",
          "type": "address"
        },
        {
          "indexed": false,
          "internalType": "address",
          "name": "_oracle",
          "type": "address"
        }
      ],
      "name": "PairAdded",
      "type": "event"
    },
    {
      "anonymous": false,
      "inputs": [
        {
          "indexed": true,
          "internalType": "address",
          "name": "_assetOne",
          "type": "address"
        },
        {
          "indexed": true,
          "internalType": "address",
          "name": "_assetTwo",
          "type": "address"
        },
        {
          "indexed": false,
          "internalType": "address",
          "name": "_newOracle",
          "type": "address"
        }
      ],
      "name": "PairEdited",
      "type": "event"
    },
    {
      "anonymous": false,
      "inputs": [
        {
          "indexed": true,
          "internalType": "address",
          "name": "_assetOne",
          "type": "address"
        },
        {
          "indexed": true,
          "internalType": "address",
          "name": "_assetTwo",
          "type": "address"
        },
        {
          "indexed": false,
          "internalType": "address",
          "name": "_oracle",
          "type": "address"
        }
      ],
      "name": "PairRemoved",
      "type": "event"
    },
    {
      "inputs": [
        {
          "internalType": "uint256",
          "name": "",
          "type": "uint256"
        }
      ],
      "name": "adapters",
      "outputs": [
        {
          "internalType": "address",
          "name": "",
          "type": "address"
        }
      ],
      "stateMutability": "view",
      "type": "function"
    },
    {
      "inputs": [
        {
          "internalType": "address",
          "name": "_adapter",
          "type": "address"
        }
      ],
      "name": "addAdapter",
      "outputs": [],
      "stateMutability": "nonpayable",
      "type": "function"
    },
    {
      "inputs": [
        {
          "internalType": "address",
          "name": "_assetOne",
          "type": "address"
        },
        {
          "internalType": "address",
          "name": "_assetTwo",
          "type": "address"
        },
        {
          "internalType": "contract IOracle",
          "name": "_oracle",
          "type": "address"
        }
      ],
      "name": "addPair",
      "outputs": [],
      "stateMutability": "nonpayable",
      "type": "function"
    },
    {
      "inputs": [],
      "name": "controller",
      "outputs": [
        {
          "internalType": "contract IController",
          "name": "",
          "type": "address"
        }
      ],
      "stateMutability": "view",
      "type": "function"
    },
    {
      "inputs": [
        {
          "internalType": "address",
          "name": "_newMasterQuoteAsset",
          "type": "address"
        }
      ],
      "name": "editMasterQuoteAsset",
      "outputs": [],
      "stateMutability": "nonpayable",
      "type": "function"
    },
    {
      "inputs": [
        {
          "internalType": "address",
          "name": "_assetOne",
          "type": "address"
        },
        {
          "internalType": "address",
          "name": "_assetTwo",
          "type": "address"
        },
        {
          "internalType": "contract IOracle",
          "name": "_oracle",
          "type": "address"
        }
      ],
      "name": "editPair",
      "outputs": [],
      "stateMutability": "nonpayable",
      "type": "function"
    },
    {
      "inputs": [],
      "name": "getAdapters",
      "outputs": [
        {
          "internalType": "address[]",
          "name": "",
          "type": "address[]"
        }
      ],
      "stateMutability": "view",
      "type": "function"
    },
    {
      "inputs": [
        {
          "internalType": "address",
          "name": "_assetOne",
          "type": "address"
        },
        {
          "internalType": "address",
          "name": "_assetTwo",
          "type": "address"
        }
      ],
      "name": "getPrice",
      "outputs": [
        {
          "internalType": "uint256",
          "name": "",
          "type": "uint256"
        }
      ],
      "stateMutability": "view",
      "type": "function"
    },
    {
      "inputs": [],
      "name": "masterQuoteAsset",
      "outputs": [
        {
          "internalType": "address",
          "name": "",
          "type": "address"
        }
      ],
      "stateMutability": "view",
      "type": "function"
    },
    {
      "inputs": [
        {
          "internalType": "address",
          "name": "",
          "type": "address"
        },
        {
          "internalType": "address",
          "name": "",
          "type": "address"
        }
      ],
      "name": "oracles",
      "outputs": [
        {
          "internalType": "contract IOracle",
          "name": "",
          "type": "address"
        }
      ],
      "stateMutability": "view",
      "type": "function"
    },
    {
      "inputs": [],
      "name": "owner",
      "outputs": [
        {
          "internalType": "address",
          "name": "",
          "type": "address"
        }
      ],
      "stateMutability": "view",
      "type": "function"
    },
    {
      "inputs": [
        {
          "internalType": "address",
          "name": "_adapter",
          "type": "address"
        }
      ],
      "name": "removeAdapter",
      "outputs": [],
      "stateMutability": "nonpayable",
      "type": "function"
    },
    {
      "inputs": [
        {
          "internalType": "address",
          "name": "_assetOne",
          "type": "address"
        },
        {
          "internalType": "address",
          "name": "_assetTwo",
          "type": "address"
        }
      ],
      "name": "removePair",
      "outputs": [],
      "stateMutability": "nonpayable",
      "type": "function"
    },
    {
      "inputs": [],
      "name": "renounceOwnership",
      "outputs": [],
      "stateMutability": "nonpayable",
      "type": "function"
    },
    {
      "inputs": [
        {
          "internalType": "address",
          "name": "newOwner",
          "type": "address"
        }
      ],
      "name": "transferOwnership",
      "outputs": [],
      "stateMutability": "nonpayable",
      "type": "function"
    }
  ],
  "transactionHash": "0x0eeb27e72447ca948db527838cad9fde82ae25f16df533a1065cebf95d699c6f",
  "args": [
    "0x15f9cec1c568352Cd48Da1E84D3e74F27f6ee160",
    "0xA0b86991c6218b36c1d19D4a2e9Eb0cE3606eB48",
    [],
    [
      "0x4206931337dc273a630d328dA6441786BfaD668f",
      "0x95aD61b0a150d79219dCF64E1E6Cc01f0B64C4cE",
      "0x6982508145454Ce325dDbE47a25d4ec3d2311933",
      "0xcf0C122c6b73ff809C693DB761e7BaeBe62b6a2E",
      "0xC02aaA39b223FE8D0A0e5C4F27eAD9083C756Cc2"
    ],
    [
      "0xA0b86991c6218b36c1d19D4a2e9Eb0cE3606eB48",
      "0xA0b86991c6218b36c1d19D4a2e9Eb0cE3606eB48",
      "0xA0b86991c6218b36c1d19D4a2e9Eb0cE3606eB48",
      "0xA0b86991c6218b36c1d19D4a2e9Eb0cE3606eB48",
      "0xA0b86991c6218b36c1d19D4a2e9Eb0cE3606eB48"
    ],
    [
      "0xf51e45e42Ac6e162E01F888A381bbA8c353c7fD9",
      "0x0EFfdEE5EB530a1d096305A57a437694db5a7Dd6",
      "0xf0191f2bA6f5c73616E2B73a9b153e0eF3452486",
      "0x14fE59529435D20B0875F99C97bbAc5407CCF1B0",
      "0xFe602e452410e14aB6f6E033f84F0ED4aC6E53D8"
    ]
  ],
  "numDeployments": 1,
  "solcInputHash": "13e98a859e1a3af05e67485695bc7e06",
  "bytecode": "0x60806040523480156200001157600080fd5b5060405162001bbc38038062001bbc83398101604081905262000034916200036a565b6000620000496001600160e01b03620001d016565b600080546001600160a01b0319166001600160a01b0383169081178255604051929350917f8be0079c531659141344cd1fd0a4f28419497f9722a3daafe3b4186f6b6457e0908290a350600180546001600160a01b038089166001600160a01b03199283161790925560038054928816929091169190911790558351620000d8906004906020870190620001d5565b5081518351148015620000ec575080518251145b620001145760405162461bcd60e51b81526004016200010b9062000445565b60405180910390fd5b60005b8351811015620001c3578181815181106200012e57fe5b6020026020010151600260008684815181106200014757fe5b60200260200101516001600160a01b03166001600160a01b0316815260200190815260200160002060008584815181106200017e57fe5b6020908102919091018101516001600160a01b0390811683529082019290925260400160002080546001600160a01b0319169290911691909117905560010162000117565b50505050505050620004dc565b335b90565b8280548282559060005260206000209081019282156200022d579160200282015b828111156200022d57825182546001600160a01b0319166001600160a01b03909116178255602090920191600190910190620001f6565b506200023b9291506200023f565b5090565b620001d291905b808211156200023b5780546001600160a01b031916815560010162000246565b80516200027381620004c3565b92915050565b600082601f8301126200028a578081fd5b8151620002a16200029b82620004a3565b6200047c565b818152915060208083019084810181840286018201871015620002c357600080fd5b60005b84811015620002ef578151620002dc81620004c3565b84529282019290820190600101620002c6565b505050505092915050565b600082601f8301126200030b578081fd5b81516200031c6200029b82620004a3565b8181529150602080830190848101818402860182018710156200033e57600080fd5b60005b84811015620002ef5781516200035781620004c3565b8452928201929082019060010162000341565b60008060008060008060c0878903121562000383578182fd5b6200038f888862000266565b9550620003a0886020890162000266565b60408801519095506001600160401b0380821115620003bd578384fd5b620003cb8a838b0162000279565b95506060890151915080821115620003e1578384fd5b620003ef8a838b0162000279565b9450608089015191508082111562000405578384fd5b620004138a838b0162000279565b935060a089015191508082111562000429578283fd5b506200043889828a01620002fa565b9150509295509295509295565b6020808252601b908201527f4172726179206c656e6774687320646f206e6f74206d617463682e0000000000604082015260600190565b6040518181016001600160401b03811182821017156200049b57600080fd5b604052919050565b60006001600160401b03821115620004b9578081fd5b5060209081020190565b6001600160a01b0381168114620004d957600080fd5b50565b6116d080620004ec6000396000f3fe608060405234801561001057600080fd5b50600436106100f55760003560e01c806361d5b14411610097578063b82e16e311610066578063b82e16e3146101cf578063f1ec23cf146101e4578063f2fde38b146101f7578063f77c47911461020a576100f5565b806361d5b1441461018c578063715018a61461019f5780638da5cb5b146101a7578063ac41865a146101af576100f5565b806352a03c03116100d357806352a03c0314610140578063585cd34b146101535780635861b2271461016657806360d54d4114610179576100f5565b806304289853146100fa578063342833541461010f5780634ef501ac1461012d575b600080fd5b61010d6101083660046111c1565b610212565b005b610117610317565b604051610124919061128c565b60405180910390f35b61011761013b36600461125c565b610326565b61011761014e366004611189565b61034d565b61010d61016136600461116d565b610373565b61010d610174366004611189565b6104f7565b61010d61018736600461116d565b6105e8565b61010d61019a36600461116d565b61072a565b61010d6107b4565b61011761083d565b6101c26101bd366004611189565b61084d565b6040516101249190611679565b6101d761094d565b60405161012491906112ba565b61010d6101f23660046111c1565b6109af565b61010d61020536600461116d565b610a9f565b610117610b5f565b61021a610b6e565b6001600160a01b031661022b61083d565b6001600160a01b03161461025a5760405162461bcd60e51b8152600401610251906115b0565b60405180910390fd5b6001600160a01b03838116600090815260026020908152604080832086851684529091529020541661029e5760405162461bcd60e51b8152600401610251906115e5565b6001600160a01b03838116600081815260026020908152604080832087861680855292529182902080546001600160a01b03191694861694909417909355517f31639ce2bfc7c00ec8297cb6df66924b38918a7417c8e6b10eb7dc9f958389109061030a90859061128c565b60405180910390a3505050565b6003546001600160a01b031681565b6004818154811061033357fe5b6000918252602090912001546001600160a01b0316905081565b60026020908152600092835260408084209091529082529020546001600160a01b031681565b61037b610b6e565b6001600160a01b031661038c61083d565b6001600160a01b0316146103b25760405162461bcd60e51b8152600401610251906115b0565b61041f81600480548060200260200160405190810160405280929190818152602001828054801561040c57602002820191906000526020600020905b81546001600160a01b031681526001909101906020018083116103ee575b5050505050610b7290919063ffffffff16565b61043b5760405162461bcd60e51b8152600401610251906113b3565b6104a881600480548060200260200160405190810160405280929190818152602001828054801561049557602002820191906000526020600020905b81546001600160a01b03168152600190910190602001808311610477575b5050505050610b8890919063ffffffff16565b80516104bc916004916020909101906110e4565b507fdf980d21d8c7bb34800e668dbe003299093bac8e693614151d3c57f73f98a93d816040516104ec919061128c565b60405180910390a150565b6104ff610b6e565b6001600160a01b031661051061083d565b6001600160a01b0316146105365760405162461bcd60e51b8152600401610251906115b0565b6001600160a01b03828116600090815260026020908152604080832085851684529091529020541661057a5760405162461bcd60e51b81526004016102519061162e565b6001600160a01b03828116600081815260026020908152604080832086861680855292529182902080546001600160a01b031981169091559151919093169291907fd9001d4fd555e50f50619eeca8a260400b5e944989042d0652c5834aa2b968609061030a90859061128c565b6105f0610b6e565b6001600160a01b031661060161083d565b6001600160a01b0316146106275760405162461bcd60e51b8152600401610251906115b0565b61069281600480548060200260200160405190810160405280929190818152602001828054801561040c576020028201919060005260206000209081546001600160a01b031681526001909101906020018083116103ee575050505050610b7290919063ffffffff16565b156106af5760405162461bcd60e51b8152600401610251906114cb565b600480546001810182556000919091527f8a35acfbc15ff81a39ae7d344fd709f28e8600b4aa8c65c6b64bfe7fe36bd19b0180546001600160a01b0319166001600160a01b0383161790556040517fcf9c2c7f9adbb156bd76affb04df84595f8f5e69cab2e61221b05b05a902fa26906104ec90839061128c565b610732610b6e565b6001600160a01b031661074361083d565b6001600160a01b0316146107695760405162461bcd60e51b8152600401610251906115b0565b600380546001600160a01b0319166001600160a01b0383161790556040517f748818fcd84486bc2804c035b8dec2300489b070a39a4a290d8311cd9791d867906104ec90839061128c565b6107bc610b6e565b6001600160a01b03166107cd61083d565b6001600160a01b0316146107f35760405162461bcd60e51b8152600401610251906115b0565b600080546040516001600160a01b03909116907f8be0079c531659141344cd1fd0a4f28419497f9722a3daafe3b4186f6b6457e0908390a3600080546001600160a01b0319169055565b6000546001600160a01b03165b90565b6001546040516313bc6d4b60e01b81526000916001600160a01b0316906313bc6d4b9061087e90339060040161128c565b60206040518083038186803b15801561089657600080fd5b505afa1580156108aa573d6000803e3d6000fd5b505050506040513d601f19601f820116820180604052508101906108ce919061120b565b6108ea5760405162461bcd60e51b81526004016102519061151a565b6000806108f78585610bd0565b9092509050816109115761090b8585610cdf565b90925090505b81610926576109208585610d45565b90925090505b816109435760405162461bcd60e51b815260040161025190611405565b9150505b92915050565b606060048054806020026020016040519081016040528092919081815260200182805480156109a557602002820191906000526020600020905b81546001600160a01b03168152600190910190602001808311610987575b5050505050905090565b6109b7610b6e565b6001600160a01b03166109c861083d565b6001600160a01b0316146109ee5760405162461bcd60e51b8152600401610251906115b0565b6001600160a01b03838116600090815260026020908152604080832086851684529091529020541615610a335760405162461bcd60e51b81526004016102519061144b565b6001600160a01b03838116600081815260026020908152604080832087861680855292529182902080546001600160a01b03191694861694909417909355517f7f46075c67ca5bbd3aaf82d8e324282141f27b7cba3376e5498a6b70c9931c2a9061030a90859061128c565b610aa7610b6e565b6001600160a01b0316610ab861083d565b6001600160a01b031614610ade5760405162461bcd60e51b8152600401610251906115b0565b6001600160a01b038116610b045760405162461bcd60e51b81526004016102519061136d565b600080546040516001600160a01b03808516939216917f8be0079c531659141344cd1fd0a4f28419497f9722a3daafe3b4186f6b6457e091a3600080546001600160a01b0319166001600160a01b0392909216919091179055565b6001546001600160a01b031681565b3390565b600080610b7f8484610e1b565b95945050505050565b6060600080610b978585610e1b565b9150915080610bb85760405162461bcd60e51b815260040161025190611307565b6060610bc48684610e7e565b50935061094792505050565b6001600160a01b038083166000908152600260209081526040808320858516845290915281205490918291168015801590610c83576001826001600160a01b03166357de26a46040518163ffffffff1660e01b815260040160206040518083038186803b158015610c4057600080fd5b505afa158015610c54573d6000803e3d6000fd5b505050506040513d601f19601f82011682018060405250810190610c789190611274565b935093505050610cd8565b6001600160a01b0380861660009081526002602090815260408083208a85168452909152902054168015801590610ccc576001610cbf83610fad565b9550955050505050610cd8565b50600094508493505050505b9250929050565b600354600090819081908190610cff9087906001600160a01b0316610bd0565b60035491935091506000908190610d209088906001600160a01b0316610bd0565b91509150838015610d2e5750815b15610ccc576001610cbf848363ffffffff61104216565b600080805b600454811015610e0e5760008060048381548110610d6457fe5b600091825260209091200154604051635620c32d60e11b81526001600160a01b039091169063ac41865a90610d9f908a908a906004016112a0565b604080518083038186803b158015610db657600080fd5b505afa158015610dca573d6000803e3d6000fd5b505050506040513d601f19601f82011682018060405250810190610dee919061122b565b915091508115610e04579093509150610cd89050565b5050600101610d4a565b5060009485945092505050565b81516000908190815b81811015610e6e57846001600160a01b0316868281518110610e4257fe5b60200260200101516001600160a01b03161415610e6657925060019150610cd89050565b600101610e24565b5060001995600095509350505050565b8151606090600090808410610ea55760405162461bcd60e51b815260040161025190611336565b60606001820367ffffffffffffffff81118015610ec157600080fd5b50604051908082528060200260200182016040528015610eeb578160200160208202803683370190505b50905060005b85811015610f3957868181518110610f0557fe5b6020026020010151828281518110610f1957fe5b6001600160a01b0390921660209283029190910190910152600101610ef1565b50600185015b82811015610f8a57868181518110610f5357fe5b6020026020010151826001830381518110610f6a57fe5b6001600160a01b0390921660209283029190910190910152600101610f3f565b5080868681518110610f9857fe5b60200260200101519350935050509250929050565b600080826001600160a01b03166357de26a46040518163ffffffff1660e01b815260040160206040518083038186803b158015610fe957600080fd5b505afa158015610ffd573d6000803e3d6000fd5b505050506040513d601f19601f820116820180604052508101906110219190611274565b905061103b8161102f61106c565b9063ffffffff61104216565b9392505050565b600061103b8261106085670de0b6b3a764000063ffffffff61107816565b9063ffffffff6110b216565b670de0b6b3a764000090565b60008261108757506000610947565b8282028284828161109457fe5b041461103b5760405162461bcd60e51b81526004016102519061156f565b60008082116110d35760405162461bcd60e51b815260040161025190611494565b8183816110dc57fe5b049392505050565b828054828255906000526020600020908101928215611139579160200282015b8281111561113957825182546001600160a01b0319166001600160a01b03909116178255602090920191600190910190611104565b50611145929150611149565b5090565b61084a91905b808211156111455780546001600160a01b031916815560010161114f565b60006020828403121561117e578081fd5b813561103b81611682565b6000806040838503121561119b578081fd5b82356111a681611682565b915060208301356111b681611682565b809150509250929050565b6000806000606084860312156111d5578081fd5b83356111e081611682565b925060208401356111f081611682565b9150604084013561120081611682565b809150509250925092565b60006020828403121561121c578081fd5b8151801515811461103b578182fd5b6000806040838503121561123d578182fd5b8251801515811461124c578283fd5b6020939093015192949293505050565b60006020828403121561126d578081fd5b5035919050565b600060208284031215611285578081fd5b5051919050565b6001600160a01b0391909116815260200190565b6001600160a01b0392831681529116602082015260400190565b6020808252825182820181905260009190848201906040850190845b818110156112fb5783516001600160a01b0316835292840192918401916001016112d6565b50909695505050505050565b60208082526015908201527420b2323932b9b9903737ba1034b71030b93930bc9760591b604082015260600190565b60208082526018908201527f496e646578206d757374206265203c2041206c656e6774680000000000000000604082015260600190565b60208082526026908201527f4f776e61626c653a206e6577206f776e657220697320746865207a65726f206160408201526564647265737360d01b606082015260800190565b60208082526032908201527f50726963654f7261636c652e72656d6f7665416461707465723a20416461707460408201527132b9103237b2b9903737ba1032bc34b9ba1760711b606082015260800190565b60208082526026908201527f50726963654f7261636c652e67657450726963653a205072696365206e6f74206040820152653337bab7321760d11b606082015260800190565b60208082526029908201527f50726963654f7261636c652e616464506169723a205061697220616c726561646040820152683c9032bc34b9ba399760b91b606082015260800190565b6020808252601a908201527f536166654d6174683a206469766973696f6e206279207a65726f000000000000604082015260600190565b6020808252602f908201527f50726963654f7261636c652e616464416461707465723a20416461707465722060408201526e30b63932b0b23c9032bc34b9ba399760891b606082015260800190565b60208082526035908201527f50726963654f7261636c652e67657450726963653a2043616c6c6572206d75736040820152743a1031329039bcb9ba32b69031b7b73a3930b1ba1760591b606082015260800190565b60208082526021908201527f536166654d6174683a206d756c7469706c69636174696f6e206f766572666c6f6040820152607760f81b606082015260800190565b6020808252818101527f4f776e61626c653a2063616c6c6572206973206e6f7420746865206f776e6572604082015260600190565b60208082526029908201527f50726963654f7261636c652e65646974506169723a205061697220646f65736e60408201526813ba1032bc34b9ba1760b91b606082015260800190565b6020808252602b908201527f50726963654f7261636c652e72656d6f7665506169723a205061697220646f6560408201526a39b713ba1032bc34b9ba1760a91b606082015260800190565b90815260200190565b6001600160a01b038116811461169757600080fd5b5056fea26469706673582212204fec668bdf3e90219bfdbd4cef2a79a8757c46c353271cb9149dda9571c660f464736f6c634300060a0033",
  "devdoc": {
    "author": "Set Protocol Contract that returns the price for any given asset pair. Price is retrieved either directly from an oracle, calculated using common asset pairs, or uses external data to calculate price. Note: Prices are returned in preciseUnits (i.e. 18 decimals of precision)",
    "methods": {
      "addAdapter(address)": {
        "params": {
          "_adapter": "Address of new adapter"
        }
      },
      "addPair(address,address,address)": {
        "params": {
          "_assetOne": "Address of first asset in pair",
          "_assetTwo": "Address of second asset in pair",
          "_oracle": "Address of asset pair's oracle"
        }
      },
      "constructor": {
        "params": {
          "_adapters": "List of adapters used to price assets created by other protocols",
          "_assetOnes": "List of first asset in pair, index i maps to same index in assetTwos and oracles",
          "_assetTwos": "List of second asset in pair, index i maps to same index in assetOnes and oracles",
          "_controller": "Address of controller contract",
          "_masterQuoteAsset": "Address of asset that can be used to link unrelated asset pairs",
          "_oracles": "List of oracles, index i maps to same index in assetOnes and assetTwos"
        }
      },
      "editMasterQuoteAsset(address)": {
        "params": {
          "_newMasterQuoteAsset": "New address of master quote asset"
        }
      },
      "editPair(address,address,address)": {
        "params": {
          "_assetOne": "Address of first asset in pair",
          "_assetTwo": "Address of second asset in pair",
          "_oracle": "Address of asset pair's new oracle"
        }
      },
      "getPrice(address,address)": {
        "params": {
          "_assetOne": "Address of first asset in pair",
          "_assetTwo": "Address of second asset in pair"
        },
        "returns": {
          "_0": "Price of asset pair to 18 decimals of precision"
        }
      },
      "owner()": {
        "details": "Returns the address of the current owner."
      },
      "removeAdapter(address)": {
        "params": {
          "_adapter": "Address of adapter to remove"
        }
      },
      "removePair(address,address)": {
        "params": {
          "_assetOne": "Address of first asset in pair",
          "_assetTwo": "Address of second asset in pair"
        }
      },
      "renounceOwnership()": {
        "details": "Leaves the contract without owner. It will not be possible to call `onlyOwner` functions anymore. Can only be called by the current owner. NOTE: Renouncing ownership will leave the contract without an owner, thereby removing any functionality that is only available to the owner."
      },
      "transferOwnership(address)": {
        "details": "Transfers ownership of the contract to a new account (`newOwner`). Can only be called by the current owner."
      }
    },
    "title": "PriceOracle"
  },
  "userdoc": {
    "methods": {
      "addAdapter(address)": {
        "notice": "GOVERNANCE FUNCTION: Add new oracle adapter."
      },
      "addPair(address,address,address)": {
        "notice": "GOVERNANCE FUNCTION: Add new asset pair oracle."
      },
      "constructor": "Set state variables and map asset pairs to their oracles",
      "editMasterQuoteAsset(address)": {
        "notice": "GOVERNANCE FUNCTION: Change the master quote asset."
      },
      "editPair(address,address,address)": {
        "notice": "GOVERNANCE FUNCTION: Edit an existing asset pair's oracle."
      },
      "getAdapters()": {
        "notice": "Returns an array of adapters"
      },
      "getPrice(address,address)": {
        "notice": "SYSTEM-ONLY PRIVELEGE: Find price of passed asset pair, if possible. The steps it takes are:  1) Check to see if a direct or inverse oracle of the pair exists,  2) If not, use masterQuoteAsset to link pairs together (i.e. BTC/ETH and ETH/USDC     could be used to calculate BTC/USDC).  3) If not, check oracle adapters in case one or more of the assets needs external protocol data     to price.  4) If all steps fail, revert."
      },
      "removeAdapter(address)": {
        "notice": "GOVERNANCE FUNCTION: Remove oracle adapter."
      },
      "removePair(address,address)": {
        "notice": "GOVERNANCE FUNCTION: Remove asset pair's oracle."
      }
    }
  },
  "storageLayout": {
    "storage": [
      {
        "astId": 7,
        "contract": "contracts/protocol/PriceOracle.sol:PriceOracle",
        "label": "_owner",
        "offset": 0,
        "slot": "0",
        "type": "t_address"
      },
      {
        "astId": 9743,
        "contract": "contracts/protocol/PriceOracle.sol:PriceOracle",
        "label": "controller",
        "offset": 0,
        "slot": "1",
        "type": "t_contract(IController)2262"
      },
      {
        "astId": 9749,
        "contract": "contracts/protocol/PriceOracle.sol:PriceOracle",
        "label": "oracles",
        "offset": 0,
        "slot": "2",
        "type": "t_mapping(t_address,t_mapping(t_address,t_contract(IOracle)2346))"
      },
      {
        "astId": 9751,
        "contract": "contracts/protocol/PriceOracle.sol:PriceOracle",
        "label": "masterQuoteAsset",
        "offset": 0,
        "slot": "3",
        "type": "t_address"
      },
      {
        "astId": 9754,
        "contract": "contracts/protocol/PriceOracle.sol:PriceOracle",
        "label": "adapters",
        "offset": 0,
        "slot": "4",
        "type": "t_array(t_address)dyn_storage"
      }
    ],
    "types": {
      "t_address": {
        "encoding": "inplace",
        "label": "address",
        "numberOfBytes": "20"
      },
      "t_array(t_address)dyn_storage": {
        "base": "t_address",
        "encoding": "dynamic_array",
        "label": "address[]",
        "numberOfBytes": "32"
      },
      "t_contract(IController)2262": {
        "encoding": "inplace",
        "label": "contract IController",
        "numberOfBytes": "20"
      },
      "t_contract(IOracle)2346": {
        "encoding": "inplace",
        "label": "contract IOracle",
        "numberOfBytes": "20"
      },
      "t_mapping(t_address,t_contract(IOracle)2346)": {
        "encoding": "mapping",
        "key": "t_address",
        "label": "mapping(address => contract IOracle)",
        "numberOfBytes": "32",
        "value": "t_contract(IOracle)2346"
      },
      "t_mapping(t_address,t_mapping(t_address,t_contract(IOracle)2346))": {
        "encoding": "mapping",
        "key": "t_address",
        "label": "mapping(address => mapping(address => contract IOracle))",
        "numberOfBytes": "32",
        "value": "t_mapping(t_address,t_contract(IOracle)2346)"
      }
    }
  }
}