{
  "address": "0xDC3C7AD4f9dc842383566157EBE682c7A4810ddF",
  "abi": [
    {
      "inputs": [
        {
          "internalType": "address",
          "name": "owner",
          "type": "address"
        }
      ],
      "stateMutability": "nonpayable",
      "type": "constructor"
    },
    {
      "inputs": [
        {
          "internalType": "address",
          "name": "target",
          "type": "address"
        }
      ],
      "name": "AddressEmptyCode",
      "type": "error"
    },
    {
      "inputs": [
        {
          "internalType": "address",
          "name": "account",
          "type": "address"
        }
      ],
      "name": "AddressInsufficientBalance",
      "type": "error"
    },
    {
      "inputs": [],
      "name": "ETHNotAccepted",
      "type": "error"
    },
    {
      "inputs": [],
      "name": "ExchangeCallFailed",
      "type": "error"
    },
    {
      "inputs": [],
      "name": "ExchangeLengthMismatch",
      "type": "error"
    },
    {
      "inputs": [],
      "name": "FailedInnerCall",
      "type": "error"
    },
    {
      "inputs": [],
      "name": "FunctionNotWhitelisted",
      "type": "error"
    },
    {
      "inputs": [],
      "name": "InvalidPayload",
      "type": "error"
    },
    {
      "inputs": [],
      "name": "IssuanceAddressCannotBeZero",
      "type": "error"
    },
    {
      "inputs": [
        {
          "internalType": "address",
          "name": "owner",
          "type": "address"
        }
      ],
      "name": "OwnableInvalidOwner",
      "type": "error"
    },
    {
      "inputs": [
        {
          "internalType": "address",
          "name": "account",
          "type": "address"
        }
      ],
      "name": "OwnableUnauthorizedAccount",
      "type": "error"
    },
    {
      "inputs": [],
      "name": "PayloadLengthMismatch",
      "type": "error"
    },
    {
      "inputs": [],
      "name": "QuantityBoughtLessThanMinimum",
      "type": "error"
    },
    {
      "inputs": [],
      "name": "QuoteAmountCannotBeZero",
      "type": "error"
    },
    {
      "inputs": [],
      "name": "ReceivedAmountLessThanExpected",
      "type": "error"
    },
    {
      "inputs": [],
      "name": "ReentrancyGuardReentrantCall",
      "type": "error"
    },
    {
      "inputs": [
        {
          "internalType": "address",
          "name": "token",
          "type": "address"
        }
      ],
      "name": "SafeERC20FailedOperation",
      "type": "error"
    },
    {
      "inputs": [],
      "name": "SetAddressCannotBeZero",
      "type": "error"
    },
    {
      "inputs": [],
      "name": "SetQuantityCannotBeZero",
      "type": "error"
    },
    {
      "inputs": [],
      "name": "SetTokenNotWhitelisted",
      "type": "error"
    },
    {
      "inputs": [],
      "name": "TargetAddressCannotBeZero",
      "type": "error"
    },
    {
      "anonymous": false,
      "inputs": [
        {
          "indexed": false,
          "internalType": "address",
          "name": "target",
          "type": "address"
        },
        {
          "indexed": false,
          "internalType": "bytes4",
          "name": "selector",
          "type": "bytes4"
        }
      ],
      "name": "FunctionRevoked",
      "type": "event"
    },
    {
      "anonymous": false,
      "inputs": [
        {
          "indexed": false,
          "internalType": "address",
          "name": "target",
          "type": "address"
        },
        {
          "indexed": false,
          "internalType": "bytes4",
          "name": "selector",
          "type": "bytes4"
        }
      ],
      "name": "FunctionWhitelisted",
      "type": "event"
    },
    {
      "anonymous": false,
      "inputs": [
        {
          "indexed": false,
          "internalType": "address",
          "name": "setToken",
          "type": "address"
        },
        {
          "indexed": false,
          "internalType": "address",
          "name": "issuanceModule",
          "type": "address"
        }
      ],
      "name": "IssuanceModuleAdded",
      "type": "event"
    },
    {
      "anonymous": false,
      "inputs": [
        {
          "indexed": false,
          "internalType": "address",
          "name": "setToken",
          "type": "address"
        },
        {
          "indexed": false,
          "internalType": "address",
          "name": "issuanceModule",
          "type": "address"
        }
      ],
      "name": "IssuanceModuleRemoved",
      "type": "event"
    },
    {
      "anonymous": false,
      "inputs": [
        {
          "indexed": true,
          "internalType": "address",
          "name": "previousOwner",
          "type": "address"
        },
        {
          "indexed": true,
          "internalType": "address",
          "name": "newOwner",
          "type": "address"
        }
      ],
      "name": "OwnershipTransferred",
      "type": "event"
    },
    {
      "inputs": [
        {
          "internalType": "address",
          "name": "setToken",
          "type": "address"
        },
        {
          "internalType": "address",
          "name": "issuanceModule",
          "type": "address"
        }
      ],
      "name": "addSetTokenIssuanceModules",
      "outputs": [],
      "stateMutability": "nonpayable",
      "type": "function"
    },
    {
      "inputs": [
        {
          "internalType": "contract IERC20[]",
          "name": "tokens",
          "type": "address[]"
        },
        {
          "internalType": "address",
          "name": "spender",
          "type": "address"
        },
        {
          "internalType": "uint256",
          "name": "amount",
          "type": "uint256"
        }
      ],
      "name": "approveTokens",
      "outputs": [],
      "stateMutability": "nonpayable",
      "type": "function"
    },
    {
      "inputs": [
        {
          "internalType": "contract ISetToken",
          "name": "setToken",
          "type": "address"
        },
        {
          "internalType": "uint256",
          "name": "setTokenQuantity",
          "type": "uint256"
        },
        {
          "internalType": "contract IERC20",
          "name": "quoteAsset",
          "type": "address"
        },
        {
          "internalType": "uint256",
          "name": "totalQuoteAmount",
          "type": "uint256"
        },
        {
          "internalType": "address[]",
          "name": "exchanges",
          "type": "address[]"
        },
        {
          "internalType": "bytes[]",
          "name": "exchangePayloads",
          "type": "bytes[]"
        }
      ],
      "name": "buyComponentsAndIssueSetToken",
      "outputs": [
        {
          "internalType": "uint256",
          "name": "extraQuoteBalance",
          "type": "uint256"
        }
      ],
      "stateMutability": "nonpayable",
      "type": "function"
    },
    {
      "inputs": [],
      "name": "owner",
      "outputs": [
        {
          "internalType": "address",
          "name": "",
          "type": "address"
        }
      ],
      "stateMutability": "view",
      "type": "function"
    },
    {
      "inputs": [
        {
          "internalType": "contract IERC20",
          "name": "token",
          "type": "address"
        },
        {
          "internalType": "address",
          "name": "to",
          "type": "address"
        },
        {
          "internalType": "uint256",
          "name": "amount",
          "type": "uint256"
        }
      ],
      "name": "recoverTokens",
      "outputs": [],
      "stateMutability": "nonpayable",
      "type": "function"
    },
    {
      "inputs": [
        {
          "internalType": "contract ISetToken",
          "name": "setToken",
          "type": "address"
        },
        {
          "internalType": "uint256",
          "name": "setTokenQuantity",
          "type": "uint256"
        },
        {
          "internalType": "contract IERC20",
          "name": "quoteAsset",
          "type": "address"
        },
        {
          "internalType": "uint256",
          "name": "minQuoteAmount",
          "type": "uint256"
        },
        {
          "internalType": "address[]",
          "name": "exchanges",
          "type": "address[]"
        },
        {
          "internalType": "bytes[]",
          "name": "exchangePayloads",
          "type": "bytes[]"
        }
      ],
      "name": "redeemSetTokenAndExchangeTokens",
      "outputs": [
        {
          "internalType": "uint256",
          "name": "quoteAssetBalanceAfterSell",
          "type": "uint256"
        }
      ],
      "stateMutability": "nonpayable",
      "type": "function"
    },
    {
      "inputs": [
        {
          "internalType": "address",
          "name": "setToken",
          "type": "address"
        }
      ],
      "name": "removeSetTokenIssuanceModules",
      "outputs": [],
      "stateMutability": "nonpayable",
      "type": "function"
    },
    {
      "inputs": [],
      "name": "renounceOwnership",
      "outputs": [],
      "stateMutability": "nonpayable",
      "type": "function"
    },
    {
      "inputs": [
        {
          "internalType": "address",
          "name": "target",
          "type": "address"
        },
        {
          "internalType": "bytes4[]",
          "name": "selectors",
          "type": "bytes4[]"
        }
      ],
      "name": "revokeWhitelistedFunctions",
      "outputs": [],
      "stateMutability": "nonpayable",
      "type": "function"
    },
    {
      "inputs": [
        {
          "internalType": "address",
          "name": "",
          "type": "address"
        }
      ],
      "name": "setTokenIssuanceModules",
      "outputs": [
        {
          "internalType": "address",
          "name": "",
          "type": "address"
        }
      ],
      "stateMutability": "view",
      "type": "function"
    },
    {
      "inputs": [
        {
          "internalType": "address",
          "name": "newOwner",
          "type": "address"
        }
      ],
      "name": "transferOwnership",
      "outputs": [],
      "stateMutability": "nonpayable",
      "type": "function"
    },
    {
      "inputs": [
        {
          "internalType": "address",
          "name": "target",
          "type": "address"
        },
        {
          "internalType": "bytes4[]",
          "name": "selectors",
          "type": "bytes4[]"
        }
      ],
      "name": "whitelistFunctions",
      "outputs": [],
      "stateMutability": "nonpayable",
      "type": "function"
    },
    {
      "inputs": [
        {
          "internalType": "bytes24",
          "name": "",
          "type": "bytes24"
        }
      ],
      "name": "whitelistedFunctions",
      "outputs": [
        {
          "internalType": "bool",
          "name": "",
          "type": "bool"
        }
      ],
      "stateMutability": "view",
      "type": "function"
    },
    {
      "stateMutability": "payable",
      "type": "receive"
    }
  ],
  "transactionHash": "0x68de3aa84256bf7e2176537f3dd8860b3bad82d5013f6113baeaf5bb9da3320b",
  "args": [
    "0xf8Bd793A7c9cB86e827C084D49f343F1296a8247"
  ],
  "numDeployments": 1,
  "solcInputHash": "009ffcf1b8d6513494cdc63ab6591506",
  "bytecode": "0x608060405234801561001057600080fd5b50604051611bb0380380611bb083398101604081905261002f916100c2565b806001600160a01b03811661005e57604051631e4fbdf760e01b81526000600482015260240160405180910390fd5b61006781610072565b5050600180556100f2565b600080546001600160a01b038381166001600160a01b0319831681178455604051919092169283917f8be0079c531659141344cd1fd0a4f28419497f9722a3daafe3b4186f6b6457e09190a35050565b6000602082840312156100d457600080fd5b81516001600160a01b03811681146100eb57600080fd5b9392505050565b611aaf806101016000396000f3fe6080604052600436106100c65760003560e01c8063719b4b331161007f5780639c5441d1116100595780639c5441d11461023e578063b316c51a1461025e578063f26581951461027e578063f2fde38b146102be57600080fd5b8063719b4b33146101e05780638da5cb5b146102005780638f9d33891461021e57600080fd5b806302a36f36146100e85780630d4fd8561461010a5780633aa932541461013d5780635672a75c1461015d5780635f3e849f146101ab578063715018a6146101cb57600080fd5b366100e3576040516248c6b960e61b815260040160405180910390fd5b600080fd5b3480156100f457600080fd5b5061010861010336600461142c565b6102de565b005b34801561011657600080fd5b5061012a610125366004611495565b61035e565b6040519081526020015b60405180910390f35b34801561014957600080fd5b506101086101583660046115ad565b610542565b34801561016957600080fd5b5061019361017836600461142c565b6002602052600090815260409020546001600160a01b031681565b6040516001600160a01b039091168152602001610134565b3480156101b757600080fd5b506101086101c636600461166d565b6105f6565b3480156101d757600080fd5b5061010861060e565b3480156101ec57600080fd5b506101086101fb36600461169d565b610622565b34801561020c57600080fd5b506000546001600160a01b0316610193565b34801561022a57600080fd5b506101086102393660046116f2565b610722565b34801561024a57600080fd5b5061012a610259366004611495565b6107dc565b34801561026a57600080fd5b5061010861027936600461169d565b6109bc565b34801561028a57600080fd5b506102ae61029936600461172b565b60036020526000908152604090205460ff1681565b6040519015158152602001610134565b3480156102ca57600080fd5b506101086102d936600461142c565b610aac565b6102e6610aef565b60006102f182610b1c565b6001600160a01b0383811660008181526002602090815260409182902080546001600160a01b03191690558151928352928416928201929092529192507f353236c19a9e3cbef65599b040c90d8c3eeabcffe05bf52b6f97b81f98b0717791015b60405180910390a15050565b6000610368610b5d565b8760000361038957604051637e50fb5f60e01b815260040160405180910390fd5b6040516370a0823160e01b81523060048201526000906001600160a01b038916906370a0823190602401602060405180830381865afa1580156103d0573d6000803e3d6000fd5b505050506040513d601f19601f820116820180604052508101906103f49190611756565b90506104028a33308c610b87565b600061040d8b610b1c565b604051635c833bfd60e01b81526001600160a01b038d81166004830152602482018d905230604483015291925090821690635c833bfd90606401600060405180830381600087803b15801561046157600080fd5b505af1158015610475573d6000803e3d6000fd5b505050506104898b8b838c8b8b8b8b610bee565b6040516370a0823160e01b815230600482015282906001600160a01b038b16906370a0823190602401602060405180830381865afa1580156104cf573d6000803e3d6000fd5b505050506040513d601f19601f820116820180604052508101906104f39190611756565b6104fd919061176f565b92508783101561052057604051631fc0543160e11b815260040160405180910390fd5b61052b893385610de7565b505061053660018055565b98975050505050505050565b61054a610aef565b60005b83518110156105f05783818151811061056857610568611790565b602090810291909101015160405163095ea7b360e01b81526001600160a01b038581166004830152602482018590529091169063095ea7b3906044016020604051808303816000875af11580156105c3573d6000803e3d6000fd5b505050506040513d601f19601f820116820180604052508101906105e791906117a6565b5060010161054d565b50505050565b6105fe610aef565b610609838383610de7565b505050565b610616610aef565b6106206000610e18565b565b61062a610aef565b6001600160a01b038316610651576040516322a4ec7b60e11b815260040160405180910390fd5b6000805b8281101561071b5761068d8585858481811061067357610673611790565b905060200201602081019061068891906117c8565b610e68565b67ffffffffffffffff1981166000908152600360205260409020805460ff1916600117905591507f6fc4e73d7aa184267ad4580767022a65a19754e8950253003e41a13d09e12fb8858585848181106106e8576106e8611790565b90506020020160208101906106fd91906117c8565b60405161070b9291906117f2565b60405180910390a1600101610655565b5050505050565b61072a610aef565b6001600160a01b038216610751576040516358f4c5df60e01b815260040160405180910390fd5b6001600160a01b03811661077857604051632c9b834560e11b815260040160405180910390fd5b6001600160a01b0382811660008181526002602090815260409182902080546001600160a01b031916948616948517905581519283528201929092527fd0205d3339245c23b49cd5ba5f3ece16f28876c0e36c2ded2f546c54818afa6e9101610352565b60006107e6610b5d565b8760000361080757604051637e50fb5f60e01b815260040160405180910390fd5b856000036108285760405163304a636f60e11b815260040160405180910390fd5b6040516370a0823160e01b81523060048201526000906001600160a01b038916906370a0823190602401602060405180830381865afa15801561086f573d6000803e3d6000fd5b505050506040513d601f19601f820116820180604052508101906108939190611756565b90506108a18833308a610b87565b60006108ac8b610b1c565b90506108be8b8b8b848b8b8b8b610ebb565b6040516336bc7a3d60e11b81526001600160a01b038c81166004830152602482018c9052336044830152821690636d78f47a90606401600060405180830381600087803b15801561090e57600080fd5b505af1158015610922573d6000803e3d6000fd5b50506040516370a0823160e01b8152306004820152600092506001600160a01b038c1691506370a0823190602401602060405180830381865afa15801561096d573d6000803e3d6000fd5b505050506040513d601f19601f820116820180604052508101906109919190611756565b905061099d838261176f565b935083156109b0576109b08a3386610de7565b50505061053660018055565b6109c4610aef565b6000805b8281101561071b576109e68585858481811061067357610673611790565b67ffffffffffffffff19811660009081526003602052604090205490925060ff16610a235760405162f0905b60e21b815260040160405180910390fd5b67ffffffffffffffff1982166000908152600360205260409020805460ff191690557fdb40818f3ad7d1cc054db4679526cc70a1132d2ae29f34fa4e745f6df353cfe885858584818110610a7957610a79611790565b9050602002016020810190610a8e91906117c8565b604051610a9c9291906117f2565b60405180910390a16001016109c8565b610ab4610aef565b6001600160a01b038116610ae357604051631e4fbdf760e01b8152600060048201526024015b60405180910390fd5b610aec81610e18565b50565b6000546001600160a01b031633146106205760405163118cdaa760e01b8152336004820152602401610ada565b6001600160a01b0380821660009081526002602052604081205490911680610b5757604051637c21340b60e11b815260040160405180910390fd5b92915050565b600260015403610b8057604051633ee5aeb560e01b815260040160405180910390fd5b6002600155565b6040516001600160a01b0384811660248301528381166044830152606482018390526105f09186918216906323b872dd906084015b604051602081830303815290604052915060e01b6020820180516001600160e01b0383818316178352505050506111e8565b604051637a4ffd0360e01b81526001600160a01b0389811660048301526024820189905260009190881690637a4ffd0390604401600060405180830381865afa158015610c3f573d6000803e3d6000fd5b505050506040513d6000823e601f3d908101601f19168201604052610c67919081019061187d565b508051909150848114610c8d57604051637e4019fb60e01b815260040160405180910390fd5b828114610cad57604051632900aff560e21b815260040160405180910390fd5b6000805b82811015610dd957886001600160a01b0316848281518110610cd557610cd5611790565b60200260200101516001600160a01b03160315610dd1576000888883818110610d0057610d00611790565b9050602002016020810190610d15919061142c565b9050366000888885818110610d2c57610d2c611790565b9050602002810190610d3e919061194a565b91509150610d4d83838361124b565b826001600160a01b03168282604051610d67929190611991565b6000604051808303816000865af19150503d8060008114610da4576040519150601f19603f3d011682016040523d82523d6000602084013e610da9565b606091505b50508095505084610dcd57604051636d8040c360e01b815260040160405180910390fd5b5050505b600101610cb1565b505050505050505050505050565b6040516001600160a01b0383811660248301526044820183905261060991859182169063a9059cbb90606401610bbc565b600080546001600160a01b038381166001600160a01b0319831681178455604051919092169283917f8be0079c531659141344cd1fd0a4f28419497f9722a3daafe3b4186f6b6457e09190a35050565b60408051606084901b6bffffffffffffffffffffffff191660208201526001600160e01b031983166034820152815160188183030181526038909101909152600090610eb3816119a1565b949350505050565b604051637a4ffd0360e01b81526001600160a01b038981166004830152602482018990526000918291829190891690637a4ffd0390604401600060405180830381865afa158015610f10573d6000803e3d6000fd5b505050506040513d6000823e601f3d908101601f19168201604052610f38919081019061187d565b81519193509150868114610f5f57604051637e4019fb60e01b815260040160405180910390fd5b848114610f7f57604051632900aff560e21b815260040160405180910390fd5b60005b818110156111d9576000848281518110610f9e57610f9e611790565b602002602001015190508b6001600160a01b0316816001600160a01b031603610fc757506111d1565b6040516370a0823160e01b815230600482015281906000906001600160a01b038316906370a0823190602401602060405180830381865afa158015611010573d6000803e3d6000fd5b505050506040513d601f19601f820116820180604052508101906110349190611756565b905060008c8c8681811061104a5761104a611790565b905060200201602081019061105f919061142c565b90503660008c8c8881811061107657611076611790565b9050602002810190611088919061194a565b9150915061109783838361124b565b826001600160a01b031682826040516110b1929190611991565b6000604051808303816000865af19150503d80600081146110ee576040519150601f19603f3d011682016040523d82523d6000602084013e6110f3565b606091505b5050809b50508a61111757604051636d8040c360e01b815260040160405180910390fd5b6040516370a0823160e01b81523060048201526000906001600160a01b038716906370a0823190602401602060405180830381865afa15801561115e573d6000803e3d6000fd5b505050506040513d601f19601f820116820180604052508101906111829190611756565b905089888151811061119657611196611790565b602002602001015185826111aa919061176f565b10156111c95760405163924b11a360e01b815260040160405180910390fd5b505050505050505b600101610f82565b50505050505050505050505050565b60006111fd6001600160a01b038416836112d0565b9050805160001415801561122257508080602001905181019061122091906117a6565b155b1561060957604051635274afe760e01b81526001600160a01b0384166004820152602401610ada565b600481101561126d57604051637c6953f960e01b815260040160405180910390fd5b600061127c60048284866119e8565b61128591611a12565b905060006112938583610e68565b67ffffffffffffffff19811660009081526003602052604090205490915060ff1661071b5760405162f0905b60e21b815260040160405180910390fd5b60606112de838360006112e5565b9392505050565b60608147101561130a5760405163cd78605960e01b8152306004820152602401610ada565b600080856001600160a01b031684866040516113269190611a4a565b60006040518083038185875af1925050503d8060008114611363576040519150601f19603f3d011682016040523d82523d6000602084013e611368565b606091505b5091509150611378868383611382565b9695505050505050565b60608261139757611392826113de565b6112de565b81511580156113ae57506001600160a01b0384163b155b156113d757604051639996b31560e01b81526001600160a01b0385166004820152602401610ada565b50806112de565b8051156113ee5780518082602001fd5b604051630a12f52160e11b815260040160405180910390fd5b6001600160a01b0381168114610aec57600080fd5b803561142781611407565b919050565b60006020828403121561143e57600080fd5b81356112de81611407565b60008083601f84011261145b57600080fd5b50813567ffffffffffffffff81111561147357600080fd5b6020830191508360208260051b850101111561148e57600080fd5b9250929050565b60008060008060008060008060c0898b0312156114b157600080fd5b88356114bc81611407565b97506020890135965060408901356114d381611407565b955060608901359450608089013567ffffffffffffffff8111156114f657600080fd5b6115028b828c01611449565b90955093505060a089013567ffffffffffffffff81111561152257600080fd5b61152e8b828c01611449565b999c989b5096995094979396929594505050565b634e487b7160e01b600052604160045260246000fd5b604051601f8201601f1916810167ffffffffffffffff8111828210171561158157611581611542565b604052919050565b600067ffffffffffffffff8211156115a3576115a3611542565b5060051b60200190565b6000806000606084860312156115c257600080fd5b833567ffffffffffffffff8111156115d957600080fd5b8401601f810186136115ea57600080fd5b80356115fd6115f882611589565b611558565b8082825260208201915060208360051b85010192508883111561161f57600080fd5b6020840193505b8284101561164a57833561163981611407565b825260209384019390910190611626565b955061165c925050506020850161141c565b929592945050506040919091013590565b60008060006060848603121561168257600080fd5b833561168d81611407565b9250602084013561165c81611407565b6000806000604084860312156116b257600080fd5b83356116bd81611407565b9250602084013567ffffffffffffffff8111156116d957600080fd5b6116e586828701611449565b9497909650939450505050565b6000806040838503121561170557600080fd5b823561171081611407565b9150602083013561172081611407565b809150509250929050565b60006020828403121561173d57600080fd5b813567ffffffffffffffff19811681146112de57600080fd5b60006020828403121561176857600080fd5b5051919050565b81810381811115610b5757634e487b7160e01b600052601160045260246000fd5b634e487b7160e01b600052603260045260246000fd5b6000602082840312156117b857600080fd5b815180151581146112de57600080fd5b6000602082840312156117da57600080fd5b81356001600160e01b0319811681146112de57600080fd5b6001600160a01b039290921682526001600160e01b031916602082015260400190565b600082601f83011261182657600080fd5b81516118346115f882611589565b8082825260208201915060208360051b86010192508583111561185657600080fd5b602085015b8381101561187357805183526020928301920161185b565b5095945050505050565b6000806040838503121561189057600080fd5b825167ffffffffffffffff8111156118a757600080fd5b8301601f810185136118b857600080fd5b80516118c66115f882611589565b8082825260208201915060208360051b8501019250878311156118e857600080fd5b6020840193505b8284101561191357835161190281611407565b8252602093840193909101906118ef565b80955050505050602083015167ffffffffffffffff81111561193457600080fd5b61194085828601611815565b9150509250929050565b6000808335601e1984360301811261196157600080fd5b83018035915067ffffffffffffffff82111561197c57600080fd5b60200191503681900382131561148e57600080fd5b8183823760009101908152919050565b8051602082015167ffffffffffffffff198116919060188210156119e15767ffffffffffffffff1967ffffffffffffffff198360180360031b1b82161692505b5050919050565b600080858511156119f857600080fd5b83861115611a0557600080fd5b5050820193919092039150565b80356001600160e01b03198116906004841015611a43576001600160e01b0319600485900360031b81901b82161691505b5092915050565b6000825160005b81811015611a6b5760208186018101518583015201611a51565b50600092019182525091905056fea26469706673582212201ef83c19caa00538af0b988673c92228b4ec72a6365340273456908e940269c864736f6c634300081a0033",
  "devdoc": {
    "author": "Cryptex Finance",
    "details": "Note: - This is a peripheral contract that helps users buy the underlying components   of the SetTokens and then issues the SetToken to the user.   It also allows users to redeem their SetTokens for a single asset. - For buying and selling, exchanges like Paraswap or Uniswap will be used,   and the payload should be constructed by an interface, such as a UI.",
    "errors": {
      "AddressEmptyCode(address)": [
        {
          "details": "There's no code at `target` (it is not a contract)."
        }
      ],
      "AddressInsufficientBalance(address)": [
        {
          "details": "The ETH balance of the account is not enough to perform the operation."
        }
      ],
      "FailedInnerCall()": [
        {
          "details": "A call to an address target failed. The target may have reverted."
        }
      ],
      "OwnableInvalidOwner(address)": [
        {
          "details": "The owner is not a valid owner account. (eg. `address(0)`)"
        }
      ],
      "OwnableUnauthorizedAccount(address)": [
        {
          "details": "The caller account is not authorized to perform an operation."
        }
      ],
      "ReentrancyGuardReentrantCall()": [
        {
          "details": "Unauthorized reentrant call."
        }
      ],
      "SafeERC20FailedOperation(address)": [
        {
          "details": "An operation with an ERC20 token failed."
        }
      ]
    },
    "events": {
      "FunctionRevoked(address,bytes4)": {
        "params": {
          "selector": "The 4 byte function selector that has been revoked.",
          "target": "The address of the target contract."
        }
      },
      "FunctionWhitelisted(address,bytes4)": {
        "params": {
          "selector": "The 4 byte function selector that has been whitelisted.",
          "target": "The address of the target contract."
        }
      },
      "IssuanceModuleAdded(address,address)": {
        "params": {
          "issuanceModule": "The address of the IssuanceModule that was added.",
          "setToken": "The address of the SetToken."
        }
      },
      "IssuanceModuleRemoved(address,address)": {
        "params": {
          "issuanceModule": "The address of the IssuanceModule that was removed.",
          "setToken": "The address of the SetToken."
        }
      }
    },
    "kind": "dev",
    "methods": {
      "addSetTokenIssuanceModules(address,address)": {
        "details": "This function maps a SetToken address to its corresponding issuance module. Both addresses must be non-zero.",
        "params": {
          "issuanceModule": ": The address of the issuance module to be associated with the SetToken.",
          "setToken": ": The address of the SetToken for which the issuance module is being set."
        }
      },
      "approveTokens(address[],address,uint256)": {
        "details": "Only the owner can call this function",
        "params": {
          "amount": ": The amount of each token to approve for the spender.",
          "spender": ": The address that is being approved to spend the tokens.",
          "tokens": ": An array of ERC20 token instances to approve."
        }
      },
      "buyComponentsAndIssueSetToken(address,uint256,address,uint256,address[],bytes[])": {
        "details": "To buy the underlying components, the payload needs to be constructed for the whitelisted exchanges.",
        "params": {
          "exchangePayloads": ": Payloads targeted towards each exchange for buying the corresponding component.",
          "exchanges": ": An array of addresses used to buy each component.",
          "quoteAsset": ": The instance of the IERC20 token used for buying the underlying components.",
          "setToken": ": The instance of the SetToken contract.",
          "setTokenQuantity": ": The quantity of the SetToken to issue.",
          "totalQuoteAmount": ": The maximum amount the user pays for buying the underlying components."
        },
        "returns": {
          "extraQuoteBalance": "The remaining quote balance after the purchase and issuance."
        }
      },
      "owner()": {
        "details": "Returns the address of the current owner."
      },
      "recoverTokens(address,address,uint256)": {
        "details": "Safely transfers the specified amount of the given ERC20 token to the provided address.",
        "params": {
          "amount": ": The amount of the token to recover and transfer.",
          "to": ": The address to which the tokens will be sent.",
          "token": ": The instance of the ERC20 token to be recovered."
        }
      },
      "redeemSetTokenAndExchangeTokens(address,uint256,address,uint256,address[],bytes[])": {
        "details": "To sell the underlying components, the payload needs to be constructed for the whitelisted exchanges.",
        "params": {
          "exchangePayloads": ": Payloads targeted towards each exchange for selling the corresponding component.",
          "exchanges": ": An array of addresses used to sell each component.",
          "minQuoteAmount": ": The minimum `quoteAsset` amount the user expects to receive after selling the underlying components.",
          "quoteAsset": ": Instance of the IERC20 token received after selling the underlying components.",
          "setToken": ": Instance of the SetToken contract.",
          "setTokenQuantity": ": Quantity of the SetToken to redeem."
        },
        "returns": {
          "quoteAssetBalanceAfterSell": "The `quoteAsset` balance obtained after selling the components."
        }
      },
      "removeSetTokenIssuanceModules(address)": {
        "details": "This function deletes the mapping between a SetToken and its issuance module.",
        "params": {
          "setToken": ": The address of the SetToken for which the issuance module is being removed."
        }
      },
      "renounceOwnership()": {
        "details": "Leaves the contract without owner. It will not be possible to call `onlyOwner` functions. Can only be called by the current owner. NOTE: Renouncing ownership will leave the contract without an owner, thereby disabling any functionality that is only available to the owner."
      },
      "revokeWhitelistedFunctions(address,bytes4[])": {
        "details": "This function allows the contract owner to remove multiple functions, identified      by their target address and function selectors, from the whitelist. Once a function      is removed from the whitelist, it can no longer be called via the `call` function.",
        "params": {
          "selectors": "An array of function selectors (4-byte signatures) belonging to the target address,                  representing the functions to be removed from the whitelist.",
          "target": "The address of the contract that contains the functions to be removed from the whitelist."
        }
      },
      "transferOwnership(address)": {
        "details": "Transfers ownership of the contract to a new account (`newOwner`). Can only be called by the current owner."
      },
      "whitelistFunctions(address,bytes4[])": {
        "details": "This function allows the contract owner to whitelist multiple functions identified      by their target address and function selectors. Only whitelisted functions can      be called through the `call` function, ensuring that only approved      functions are executed.",
        "params": {
          "selectors": "An array of function selectors (4-byte signatures) belonging to the target address.                  Each selector represents a specific function within the target contract that is                  being whitelisted.",
          "target": "The address of the contract that contains the functions to be whitelisted.               Must be a valid contract address (non-zero)."
        }
      }
    },
    "stateVariables": {
      "setTokenIssuanceModules": {
        "details": "Maps each SetToken to its associated authorized IIssuanceModule.      This mapping serves two purposes:      1. To verify whether a SetToken is authorized.      2. To retrieve the corresponding IIssuanceModule for a given SetToken."
      },
      "whitelistedFunctions": {
        "details": "Mapping of whitelisted function for a target contract."
      }
    },
    "title": "TokenExchangeSetIssuer",
    "version": 1
  },
  "userdoc": {
    "errors": {
      "ETHNotAccepted()": [
        {
          "notice": "Thrown when ETH is sent to the contract."
        }
      ],
      "ExchangeCallFailed()": [
        {
          "notice": "Thrown when a call to an exchange fails."
        }
      ],
      "ExchangeLengthMismatch()": [
        {
          "notice": "Thrown when the number of exchanges does not match the number of Set token components."
        }
      ],
      "FunctionNotWhitelisted()": [
        {
          "notice": "Thrown when attempting to call or revoke a non-whitelisted function."
        }
      ],
      "InvalidPayload()": [
        {
          "notice": "Thrown when the length of the payload for buying or selling tokens is less than 4 bytes."
        }
      ],
      "IssuanceAddressCannotBeZero()": [
        {
          "notice": "Thrown when the issuance module address provided is the zero address."
        }
      ],
      "PayloadLengthMismatch()": [
        {
          "notice": "Thrown when the length of the exchange payload does not match the number of Set token components."
        }
      ],
      "QuantityBoughtLessThanMinimum()": [
        {
          "notice": "Thrown when the amount of Set token components bought is insufficient for issuing the desired         quantity of the Set token."
        }
      ],
      "QuoteAmountCannotBeZero()": [
        {
          "notice": "Thrown when the quote asset amount for buying or selling is zero."
        }
      ],
      "ReceivedAmountLessThanExpected()": [
        {
          "notice": "Thrown when the amount received from selling the Set token is less than expected."
        }
      ],
      "SetAddressCannotBeZero()": [
        {
          "notice": "Thrown when the Set token address provided is the zero address."
        }
      ],
      "SetQuantityCannotBeZero()": [
        {
          "notice": "Thrown when the quantity of the Set token for buying or selling is zero."
        }
      ],
      "SetTokenNotWhitelisted()": [
        {
          "notice": "Thrown when attempting to buy or sell a Set token that is not whitelisted."
        }
      ],
      "TargetAddressCannotBeZero()": [
        {
          "notice": "Thrown when the target address provided is the zero address."
        }
      ]
    },
    "events": {
      "FunctionRevoked(address,bytes4)": {
        "notice": "Emitted when a previously whitelisted function is revoked for a specific target contract."
      },
      "FunctionWhitelisted(address,bytes4)": {
        "notice": "Emitted when a function is whitelisted for a specific target contract."
      },
      "IssuanceModuleAdded(address,address)": {
        "notice": "Emitted when an IssuanceModule is added to a SetToken."
      },
      "IssuanceModuleRemoved(address,address)": {
        "notice": "Emitted when an IssuanceModule is removed from a SetToken."
      }
    },
    "kind": "user",
    "methods": {
      "addSetTokenIssuanceModules(address,address)": {
        "notice": "Adds or updates the issuance module for a specified SetToken."
      },
      "approveTokens(address[],address,uint256)": {
        "notice": "Approves a specified amount of multiple ERC20 tokens for a given spender."
      },
      "buyComponentsAndIssueSetToken(address,uint256,address,uint256,address[],bytes[])": {
        "notice": "Buys the underlying components of the SetToken and issues the SetToken.WARNING: Dust (small amounts) of the `quoteAsset` may remain after the operation         and will not be refunded to the user. Users should use swap functions that do not leave dust."
      },
      "recoverTokens(address,address,uint256)": {
        "notice": "Allows the contract owner to recover any ERC20 tokens held by the contract."
      },
      "redeemSetTokenAndExchangeTokens(address,uint256,address,uint256,address[],bytes[])": {
        "notice": "Redeems the SetTokens for the underlying components and then sells them for `quoteAsset`.WARNING: Any dust accumulated during the selling of components will not be refunded.         Users should ensure they use swap functions that do not leave dust."
      },
      "removeSetTokenIssuanceModules(address)": {
        "notice": "Removes the issuance module associated with a specified SetToken."
      },
      "revokeWhitelistedFunctions(address,bytes4[])": {
        "notice": "Removes multiple functions from the whitelist for the specified target contract."
      },
      "whitelistFunctions(address,bytes4[])": {
        "notice": "Whitelists multiple functions for the specified target contract."
      }
    },
    "notice": "WARNING: Do not send funds directly to this contract. This contract does not handle         receiving ETH or ERC20 tokens directly. Sending funds here may result in a loss.WARNING: Any dust (small amounts) left over from the swap of components during         buy or sell operations will not be refunded. Users are advised to use swap functions         that avoid or minimize dust accumulation.",
    "version": 1
  },
  "storageLayout": {
    "storage": [
      {
        "astId": 8,
        "contract": "contracts/extensions/TokenExchangeSetIssuer.sol:TokenExchangeSetIssuer",
        "label": "_owner",
        "offset": 0,
        "slot": "0",
        "type": "t_address"
      },
      {
        "astId": 845,
        "contract": "contracts/extensions/TokenExchangeSetIssuer.sol:TokenExchangeSetIssuer",
        "label": "_status",
        "offset": 0,
        "slot": "1",
        "type": "t_uint256"
      },
      {
        "astId": 927,
        "contract": "contracts/extensions/TokenExchangeSetIssuer.sol:TokenExchangeSetIssuer",
        "label": "setTokenIssuanceModules",
        "offset": 0,
        "slot": "2",
        "type": "t_mapping(t_address,t_address)"
      },
      {
        "astId": 932,
        "contract": "contracts/extensions/TokenExchangeSetIssuer.sol:TokenExchangeSetIssuer",
        "label": "whitelistedFunctions",
        "offset": 0,
        "slot": "3",
        "type": "t_mapping(t_bytes24,t_bool)"
      }
    ],
    "types": {
      "t_address": {
        "encoding": "inplace",
        "label": "address",
        "numberOfBytes": "20"
      },
      "t_bool": {
        "encoding": "inplace",
        "label": "bool",
        "numberOfBytes": "1"
      },
      "t_bytes24": {
        "encoding": "inplace",
        "label": "bytes24",
        "numberOfBytes": "24"
      },
      "t_mapping(t_address,t_address)": {
        "encoding": "mapping",
        "key": "t_address",
        "label": "mapping(address => address)",
        "numberOfBytes": "32",
        "value": "t_address"
      },
      "t_mapping(t_bytes24,t_bool)": {
        "encoding": "mapping",
        "key": "t_bytes24",
        "label": "mapping(bytes24 => bool)",
        "numberOfBytes": "32",
        "value": "t_bool"
      },
      "t_uint256": {
        "encoding": "inplace",
        "label": "uint256",
        "numberOfBytes": "32"
      }
    }
  }
}