{
  "address": "0x2C76EE12D8A0De267bAc7F6f458f354F5994d707",
  "abi": [
    {
      "anonymous": false,
      "inputs": [
        {
          "indexed": true,
          "internalType": "address",
          "name": "previousOwner",
          "type": "address"
        },
        {
          "indexed": true,
          "internalType": "address",
          "name": "newOwner",
          "type": "address"
        }
      ],
      "name": "OwnershipTransferred",
      "type": "event"
    },
    {
      "inputs": [
        {
          "internalType": "contract IERC20",
          "name": "token",
          "type": "address"
        },
        {
          "internalType": "address",
          "name": "spender",
          "type": "address"
        }
      ],
      "name": "approveToken",
      "outputs": [],
      "stateMutability": "nonpayable",
      "type": "function"
    },
    {
      "inputs": [
        {
          "internalType": "contract ISetToken",
          "name": "setToken",
          "type": "address"
        },
        {
          "internalType": "uint256",
          "name": "setTokenQuantity",
          "type": "uint256"
        },
        {
          "internalType": "contract BasicIssuanceModule",
          "name": "issuanceModule",
          "type": "address"
        },
        {
          "internalType": "contract IERC20",
          "name": "quoteAsset",
          "type": "address"
        },
        {
          "internalType": "uint256",
          "name": "totalQuoteAmount",
          "type": "uint256"
        },
        {
          "internalType": "address[]",
          "name": "exchanges",
          "type": "address[]"
        },
        {
          "internalType": "bytes[]",
          "name": "exchangePayloads",
          "type": "bytes[]"
        }
      ],
      "name": "buyComponentsAndIssueSetToken",
      "outputs": [
        {
          "internalType": "uint256",
          "name": "extraQuoteBalance",
          "type": "uint256"
        }
      ],
      "stateMutability": "nonpayable",
      "type": "function"
    },
    {
      "inputs": [],
      "name": "owner",
      "outputs": [
        {
          "internalType": "address",
          "name": "",
          "type": "address"
        }
      ],
      "stateMutability": "view",
      "type": "function"
    },
    {
      "inputs": [
        {
          "internalType": "contract ISetToken",
          "name": "setToken",
          "type": "address"
        },
        {
          "internalType": "uint256",
          "name": "setTokenQuantity",
          "type": "uint256"
        },
        {
          "internalType": "contract BasicIssuanceModule",
          "name": "issuanceModule",
          "type": "address"
        },
        {
          "internalType": "contract IERC20",
          "name": "quoteAsset",
          "type": "address"
        },
        {
          "internalType": "address[]",
          "name": "exchanges",
          "type": "address[]"
        },
        {
          "internalType": "bytes[]",
          "name": "exchangePayloads",
          "type": "bytes[]"
        }
      ],
      "name": "redeemSetTokenAndExchangeTokens",
      "outputs": [
        {
          "internalType": "uint256",
          "name": "",
          "type": "uint256"
        }
      ],
      "stateMutability": "nonpayable",
      "type": "function"
    },
    {
      "inputs": [],
      "name": "renounceOwnership",
      "outputs": [],
      "stateMutability": "nonpayable",
      "type": "function"
    },
    {
      "inputs": [
        {
          "internalType": "address",
          "name": "newOwner",
          "type": "address"
        }
      ],
      "name": "transferOwnership",
      "outputs": [],
      "stateMutability": "nonpayable",
      "type": "function"
    },
    {
      "inputs": [
        {
          "internalType": "contract IERC20",
          "name": "token",
          "type": "address"
        },
        {
          "internalType": "address",
          "name": "to",
          "type": "address"
        },
        {
          "internalType": "uint256",
          "name": "amount",
          "type": "uint256"
        }
      ],
      "name": "transferTokens",
      "outputs": [],
      "stateMutability": "nonpayable",
      "type": "function"
    }
  ],
  "transactionHash": "0x1215d27a8092bd10af985ac764bd68f4e05484acd2b77ebfe1c93607588b98b5",
  "args": [],
  "numDeployments": 1,
  "solcInputHash": "a09c4495e78221ed67c9c3135febf2d9",
  "bytecode": "0x608060405234801561001057600080fd5b5060006100246001600160e01b0361007716565b600080546001600160a01b0319166001600160a01b0383169081178255604051929350917f8be0079c531659141344cd1fd0a4f28419497f9722a3daafe3b4186f6b6457e0908290a3506001805561007b565b3390565b6117fc8061008a6000396000f3fe608060405234801561001057600080fd5b506004361061007d5760003560e01c80638da5cb5b1161005b5780638da5cb5b146100c8578063a64b6e5f146100dd578063c09df39a146100f0578063f2fde38b146101035761007d565b806303105b04146100825780632c6c493114610097578063715018a6146100c0575b600080fd5b61009561009036600461117e565b610116565b005b6100aa6100a53660046112a4565b6101e5565b6040516100b791906116eb565b60405180910390f35b6100956103c5565b6100d061044e565b6040516100b791906113a1565b6100956100eb3660046111b6565b61045d565b6100aa6100fe3660046111f6565b6104a7565b610095610111366004611080565b61067d565b61011e61073d565b6001600160a01b031661012f61044e565b6001600160a01b03161461015e5760405162461bcd60e51b8152600401610155906115fe565b60405180910390fd5b60405163095ea7b360e01b81526001600160a01b0383169063095ea7b39061018e908490600019906004016113d9565b602060405180830381600087803b1580156101a857600080fd5b505af11580156101bc573d6000803e3d6000fd5b505050506040513d601f19601f820116820180604052508101906101e0919061115e565b505050565b60006002600154141561020a5760405162461bcd60e51b8152600401610155906116b4565b60026001556040516370a0823160e01b81526000906001600160a01b038916906370a082319061023e9030906004016113a1565b60206040518083038186803b15801561025657600080fd5b505afa15801561026a573d6000803e3d6000fd5b505050506040513d601f19601f8201168201806040525081019061028e919061135d565b905061029c8833308a610741565b6102ac8b8b8a8c8a8a8a8a61079f565b6040516336bc7a3d60e11b81526001600160a01b038a1690636d78f47a906102dc908e908e9033906004016113f2565b600060405180830381600087803b1580156102f657600080fd5b505af115801561030a573d6000803e3d6000fd5b50506040516370a0823160e01b8152600092506001600160a01b038b1691506370a082319061033d9030906004016113a1565b60206040518083038186803b15801561035557600080fd5b505afa158015610369573d6000803e3d6000fd5b505050506040513d601f19601f8201168201806040525081019061038d919061135d565b905061039f818363ffffffff610ace16565b925082156103b2576103b2893385610afb565b5050600180559998505050505050505050565b6103cd61073d565b6001600160a01b03166103de61044e565b6001600160a01b0316146104045760405162461bcd60e51b8152600401610155906115fe565b600080546040516001600160a01b03909116907f8be0079c531659141344cd1fd0a4f28419497f9722a3daafe3b4186f6b6457e0908390a3600080546001600160a01b0319169055565b6000546001600160a01b031690565b61046561073d565b6001600160a01b031661047661044e565b6001600160a01b03161461049c5760405162461bcd60e51b8152600401610155906115fe565b6101e0838383610afb565b6000600260015414156104cc5760405162461bcd60e51b8152600401610155906116b4565b60026001556040516370a0823160e01b81526000906001600160a01b038816906370a08231906105009030906004016113a1565b60206040518083038186803b15801561051857600080fd5b505afa15801561052c573d6000803e3d6000fd5b505050506040513d601f19601f82011682018060405250810190610550919061135d565b905061055e8a33308c610741565b604051635c833bfd60e01b81526001600160a01b03891690635c833bfd9061058e908d908d9030906004016113f2565b600060405180830381600087803b1580156105a857600080fd5b505af11580156105bc573d6000803e3d6000fd5b505050506105d08a8a8a8a8a8a8a8a610b1a565b600061065e82896001600160a01b03166370a08231306040518263ffffffff1660e01b815260040161060291906113a1565b60206040518083038186803b15801561061a57600080fd5b505afa15801561062e573d6000803e3d6000fd5b505050506040513d601f19601f82011682018060405250810190610652919061135d565b9063ffffffff610ace16565b905061066b883383610afb565b600180559a9950505050505050505050565b61068561073d565b6001600160a01b031661069661044e565b6001600160a01b0316146106bc5760405162461bcd60e51b8152600401610155906115fe565b6001600160a01b0381166106e25760405162461bcd60e51b815260040161015590611493565b600080546040516001600160a01b03808516939216917f8be0079c531659141344cd1fd0a4f28419497f9722a3daafe3b4186f6b6457e091a3600080546001600160a01b0319166001600160a01b0392909216919091179055565b3390565b610799846323b872dd60e01b858585604051602401610762939291906113b5565b60408051601f198184030181529190526020810180516001600160e01b03166001600160e01b031990931692909217909152610e16565b50505050565b6000606080876001600160a01b0316637a4ffd038c8c6040518363ffffffff1660e01b81526004016107d29291906113d9565b60006040518083038186803b1580156107ea57600080fd5b505afa1580156107fe573d6000803e3d6000fd5b505050506040513d6000823e601f3d908101601f19168201604052610826919081019061109c565b8051919350915086811461084c5760405162461bcd60e51b81526004016101559061158d565b84811461086b5760405162461bcd60e51b81526004016101559061158d565b60005b81811015610abf57600084828151811061088457fe5b602002602001015190508b6001600160a01b0316816001600160a01b031614156108ae5750610ab7565b6040516370a0823160e01b815281906000906001600160a01b038316906370a08231906108df9030906004016113a1565b60206040518083038186803b1580156108f757600080fd5b505afa15801561090b573d6000803e3d6000fd5b505050506040513d601f19601f8201168201806040525081019061092f919061135d565b90508b8b8581811061093d57fe5b90506020020160208101906109529190611080565b6001600160a01b03168a8a8681811061096757fe5b905060200281019061097991906116f4565b604051610987929190611375565b6000604051808303816000865af19150503d80600081146109c4576040519150601f19603f3d011682016040523d82523d6000602084013e6109c9565b606091505b505080985050876109ec5760405162461bcd60e51b815260040161015590611556565b6040516370a0823160e01b81526000906001600160a01b038416906370a0823190610a1b9030906004016113a1565b60206040518083038186803b158015610a3357600080fd5b505afa158015610a47573d6000803e3d6000fd5b505050506040513d601f19601f82011682018060405250810190610a6b919061135d565b9050868581518110610a7957fe5b6020026020010151610a948383610ace90919063ffffffff16565b1015610ab25760405162461bcd60e51b815260040161015590611448565b505050505b60010161086e565b50505050505050505050505050565b600082821115610af05760405162461bcd60e51b8152600401610155906114d9565b508082035b92915050565b6101e08363a9059cbb60e01b84846040516024016107629291906113d9565b604051637a4ffd0360e01b81526060906001600160a01b03881690637a4ffd0390610b4b908c908c906004016113d9565b60006040518083038186803b158015610b6357600080fd5b505afa158015610b77573d6000803e3d6000fd5b505050506040513d6000823e601f3d908101601f19168201604052610b9f919081019061109c565b508051909150848114610bc45760405162461bcd60e51b81526004016101559061158d565b828114610be35760405162461bcd60e51b81526004016101559061158d565b600080886001600160a01b03166370a08231306040518263ffffffff1660e01b8152600401610c1291906113a1565b60206040518083038186803b158015610c2a57600080fd5b505afa158015610c3e573d6000803e3d6000fd5b505050506040513d601f19601f82011682018060405250810190610c62919061135d565b90506000805b84811015610e06578a6001600160a01b0316868281518110610c8657fe5b60200260200101516001600160a01b03161415610ca257610dfe565b898982818110610cae57fe5b9050602002016020810190610cc39190611080565b6001600160a01b0316888883818110610cd857fe5b9050602002810190610cea91906116f4565b604051610cf8929190611375565b6000604051808303816000865af19150503d8060008114610d35576040519150601f19603f3d011682016040523d82523d6000602084013e610d3a565b606091505b50508094505083610d5d5760405162461bcd60e51b815260040161015590611556565b6040516370a0823160e01b81526001600160a01b038c16906370a0823190610d899030906004016113a1565b60206040518083038186803b158015610da157600080fd5b505afa158015610db5573d6000803e3d6000fd5b505050506040513d601f19601f82011682018060405250810190610dd9919061135d565b9150828211610dfa5760405162461bcd60e51b8152600401610155906115bc565b8192505b600101610c68565b5050505050505050505050505050565b6060610e6b826040518060400160405280602081526020017f5361666545524332303a206c6f772d6c6576656c2063616c6c206661696c6564815250856001600160a01b0316610ea59092919063ffffffff16565b8051909150156101e05780806020019051810190610e89919061115e565b6101e05760405162461bcd60e51b81526004016101559061166a565b6060610eb48484600085610ebe565b90505b9392505050565b606082471015610ee05760405162461bcd60e51b815260040161015590611510565b610ee985610f7f565b610f055760405162461bcd60e51b815260040161015590611633565b60006060866001600160a01b03168587604051610f229190611385565b60006040518083038185875af1925050503d8060008114610f5f576040519150601f19603f3d011682016040523d82523d6000602084013e610f64565b606091505b5091509150610f74828286610f85565b979650505050505050565b3b151590565b60608315610f94575081610eb7565b825115610fa45782518084602001fd5b8160405162461bcd60e51b81526004016101559190611415565b8051610af5816117ae565b60008083601f840112610fda578182fd5b50813567ffffffffffffffff811115610ff1578182fd5b602083019150836020808302850101111561100b57600080fd5b9250929050565b600082601f830112611022578081fd5b815161103561103082611762565b61173b565b81815291506020808301908481018184028601820187101561105657600080fd5b60005b8481101561107557815184529282019290820190600101611059565b505050505092915050565b600060208284031215611091578081fd5b8135610eb7816117ae565b600080604083850312156110ae578081fd5b825167ffffffffffffffff808211156110c5578283fd5b81850186601f8201126110d6578384fd5b805192506110e661103084611762565b80848252602080830192508084018a828389028701011115611106578788fd5b8794505b868510156111305761111c8b82610fbe565b84526001949094019392810192810161110a565b508801519096509350505080821115611147578283fd5b5061115485828601611012565b9150509250929050565b60006020828403121561116f578081fd5b81518015158114610eb7578182fd5b60008060408385031215611190578182fd5b823561119b816117ae565b915060208301356111ab816117ae565b809150509250929050565b6000806000606084860312156111ca578081fd5b83356111d5816117ae565b925060208401356111e5816117ae565b929592945050506040919091013590565b60008060008060008060008060c0898b031215611211578384fd5b883561121c816117ae565b9750602089013596506040890135611233816117ae565b95506060890135611243816117ae565b9450608089013567ffffffffffffffff8082111561125f578586fd5b61126b8c838d01610fc9565b909650945060a08b0135915080821115611283578384fd5b506112908b828c01610fc9565b999c989b5096995094979396929594505050565b600080600080600080600080600060e08a8c0312156112c1578081fd5b89356112cc816117ae565b985060208a0135975060408a01356112e3816117ae565b965060608a01356112f3816117ae565b955060808a0135945060a08a013567ffffffffffffffff80821115611316578283fd5b6113228d838e01610fc9565b909650945060c08c013591508082111561133a578283fd5b506113478c828d01610fc9565b8194508093505050509295985092959850929598565b60006020828403121561136e578081fd5b5051919050565b6000828483379101908152919050565b60008251611397818460208701611782565b9190910192915050565b6001600160a01b0391909116815260200190565b6001600160a01b039384168152919092166020820152604081019190915260600190565b6001600160a01b03929092168252602082015260400190565b6001600160a01b0393841681526020810192909252909116604082015260600190565b6000602082528251806020840152611434816040850160208701611782565b601f01601f19169190910160400192915050565b6020808252602b908201527f5175616e7469747920626f75676874206c657373207468616e2072657175697260408201526a6564207175616e7469747960a81b606082015260800190565b60208082526026908201527f4f776e61626c653a206e6577206f776e657220697320746865207a65726f206160408201526564647265737360d01b606082015260800190565b6020808252601e908201527f536166654d6174683a207375627472616374696f6e206f766572666c6f770000604082015260600190565b60208082526026908201527f416464726573733a20696e73756666696369656e742062616c616e636520666f6040820152651c8818d85b1b60d21b606082015260800190565b6020808252601b908201527f65786368616e6765207472616e73616374696f6e206661696c65640000000000604082015260600190565b6020808252601590820152740c2e4e4c2f240d8cadccee8d040dad2e6dac2e8c6d605b1b604082015260600190565b60208082526022908201527f51756f746541737365742062616c616e6365206469646e277420696e63726561604082015261736560f01b606082015260800190565b6020808252818101527f4f776e61626c653a2063616c6c6572206973206e6f7420746865206f776e6572604082015260600190565b6020808252601d908201527f416464726573733a2063616c6c20746f206e6f6e2d636f6e7472616374000000604082015260600190565b6020808252602a908201527f5361666545524332303a204552433230206f7065726174696f6e20646964206e6040820152691bdd081cdd58d8d9595960b21b606082015260800190565b6020808252601f908201527f5265656e7472616e637947756172643a207265656e7472616e742063616c6c00604082015260600190565b90815260200190565b6000808335601e1984360301811261170a578283fd5b8084018035925067ffffffffffffffff831115611725578384fd5b6020019250503681900382131561100b57600080fd5b60405181810167ffffffffffffffff8111828210171561175a57600080fd5b604052919050565b600067ffffffffffffffff821115611778578081fd5b5060209081020190565b60005b8381101561179d578181015183820152602001611785565b838111156107995750506000910152565b6001600160a01b03811681146117c357600080fd5b5056fea26469706673582212203ec58c4c3c75364a302cd8bb31821ea96e6782ce084853423ca8c1a6092866b564736f6c634300060a0033",
  "devdoc": {
    "methods": {
      "owner()": {
        "details": "Returns the address of the current owner."
      },
      "renounceOwnership()": {
        "details": "Leaves the contract without owner. It will not be possible to call `onlyOwner` functions anymore. Can only be called by the current owner. NOTE: Renouncing ownership will leave the contract without an owner, thereby removing any functionality that is only available to the owner."
      },
      "transferOwnership(address)": {
        "details": "Transfers ownership of the contract to a new account (`newOwner`). Can only be called by the current owner."
      }
    }
  },
  "userdoc": {
    "methods": {}
  },
  "storageLayout": {
    "storage": [
      {
        "astId": 7,
        "contract": "contracts/extensions/TokenExchangeSetIssuer.sol:TokenExchangeSetIssuer",
        "label": "_owner",
        "offset": 0,
        "slot": "0",
        "type": "t_address"
      },
      {
        "astId": 1840,
        "contract": "contracts/extensions/TokenExchangeSetIssuer.sol:TokenExchangeSetIssuer",
        "label": "_status",
        "offset": 0,
        "slot": "1",
        "type": "t_uint256"
      }
    ],
    "types": {
      "t_address": {
        "encoding": "inplace",
        "label": "address",
        "numberOfBytes": "20"
      },
      "t_uint256": {
        "encoding": "inplace",
        "label": "uint256",
        "numberOfBytes": "32"
      }
    }
  }
}