{
  "address": "0x619220Ba1815CC88ea267f3d14cA463D6d1ECBfe",
  "abi": [
    {
      "inputs": [
        {
          "internalType": "address",
          "name": "pythContract",
          "type": "address"
        },
        {
          "internalType": "bytes32",
          "name": "_priceId",
          "type": "bytes32"
        }
      ],
      "stateMutability": "nonpayable",
      "type": "constructor"
    },
    {
      "inputs": [],
      "name": "priceId",
      "outputs": [
        {
          "internalType": "bytes32",
          "name": "",
          "type": "bytes32"
        }
      ],
      "stateMutability": "view",
      "type": "function"
    },
    {
      "inputs": [],
      "name": "pyth",
      "outputs": [
        {
          "internalType": "contract IPyth",
          "name": "",
          "type": "address"
        }
      ],
      "stateMutability": "view",
      "type": "function"
    },
    {
      "inputs": [],
      "name": "read",
      "outputs": [
        {
          "internalType": "uint256",
          "name": "price",
          "type": "uint256"
        }
      ],
      "stateMutability": "view",
      "type": "function"
    }
  ],
  "transactionHash": "0xf7846857a2ed84ad6f68c38f5b4549043e83758fecd2663e0c8d730f50b4efb9",
  "args": [
    "0xff1a0f4744e8582DF1aE09D5611b887B6a12925C",
    "0x2b9ab1e972a281585084148ba1389800799bd4be63b957507db1349314e47445"
  ],
  "numDeployments": 1,
  "solcInputHash": "9d8c455263a2e71c39bfa2baf7e2a628",
  "bytecode": "0x6080604052348015600f57600080fd5b5060405161045c38038061045c833981016040819052602c916054565b600080546001600160a01b0319166001600160a01b039390931692909217909155600155608c565b60008060408385031215606657600080fd5b82516001600160a01b0381168114607c57600080fd5b6020939093015192949293505050565b6103c18061009b6000396000f3fe608060405234801561001057600080fd5b50600436106100415760003560e01c8063311893341461004657806357de26a414610062578063f98d06f01461006a575b600080fd5b61004f60015481565b6040519081526020015b60405180910390f35b61004f610095565b60005461007d906001600160a01b031681565b6040516001600160a01b039091168152602001610059565b600080546001546040516331d98b3f60e01b8152600481019190915282916001600160a01b0316906331d98b3f90602401608060405180830381865afa1580156100e3573d6000803e3d6000fd5b505050506040513d601f19601f820116820180604052508101906101079190610183565b9050806040015160001961011b919061022c565b61012690600a61033c565b81516101449067ffffffffffffffff16670de0b6b3a7640000610352565b61014e9190610369565b91505090565b805167ffffffffffffffff8116811461016c57600080fd5b919050565b8051600381900b811461016c57600080fd5b6000608082840312801561019657600080fd5b600090506040516080810181811067ffffffffffffffff821117156101c957634e487b7160e01b83526041600452602483fd5b6040528351600781900b81146101dd578283fd5b81526101eb60208501610154565b60208201526101fc60408501610171565b604082015260609384015193810193909352509092915050565b634e487b7160e01b600052601160045260246000fd5b60008260030b8260030b028060030b915080821461024c5761024c610216565b5092915050565b6001815b600184111561028e5780850481111561027257610272610216565b600184161561028057908102905b60019390931c928002610257565b935093915050565b6000826102a557506001610336565b816102b257506000610336565b81600181146102c857600281146102d2576102ee565b6001915050610336565b60ff8411156102e3576102e3610216565b50506001821b610336565b5060208310610133831016604e8410600b8410161715610311575081810a610336565b61031e6000198484610253565b806000190482111561033257610332610216565b0290505b92915050565b600061034b60ff841683610296565b9392505050565b808202811582820484141761033657610336610216565b60008261038657634e487b7160e01b600052601260045260246000fd5b50049056fea2646970667358221220843546abc6c21ae86f3a0a7387227bcc1eb821dd796826b3bfa7ea90431c8f4564736f6c634300081a0033",
  "devdoc": {
    "kind": "dev",
    "methods": {},
    "version": 1
  },
  "userdoc": {
    "kind": "user",
    "methods": {},
    "version": 1
  },
  "storageLayout": {
    "storage": [
      {
        "astId": 5727,
        "contract": "contracts/oracles/PythOracle.sol:PythOracle",
        "label": "pyth",
        "offset": 0,
        "slot": "0",
        "type": "t_contract(IPyth)3630"
      },
      {
        "astId": 5729,
        "contract": "contracts/oracles/PythOracle.sol:PythOracle",
        "label": "priceId",
        "offset": 0,
        "slot": "1",
        "type": "t_bytes32"
      }
    ],
    "types": {
      "t_bytes32": {
        "encoding": "inplace",
        "label": "bytes32",
        "numberOfBytes": "32"
      },
      "t_contract(IPyth)3630": {
        "encoding": "inplace",
        "label": "contract IPyth",
        "numberOfBytes": "20"
      }
    }
  }
}